{
  "address": "0x2A188d20fba3660B7D96c78A2e6D3091b2B91bE7",
  "abi": [
    {
      "inputs": [
        {
          "internalType": "address",
          "name": "_issuedTokenImplementation",
          "type": "address"
        },
        {
          "internalType": "string[]",
          "name": "_regesteredChains",
          "type": "string[]"
        }
      ],
      "name": "init",
      "outputs": [],
      "stateMutability": "nonpayable",
      "type": "function"
    }
  ],
  "transactionHash": "0x53cd32962c9dea71eb92148a070bf1f3fbf89dc34227c5a8adfe5e246df8e993",
  "args": [],
  "numDeployments": 1,
  "solcInputHash": "08541191232a20d41dd2483aa4db3f2b",
  "bytecode": "0x60808060405234610016576101da908161001c8239f35b600080fdfe6040608081526004908136101561001557600080fd5b600091823560e01c638a76d99e1461002c57600080fd5b346101a057816003193601126101a05780356001600160a01b038116919082900361019c5760249267ffffffffffffffff908435828111610198573660238201121561019857808401359083821161019457600595368884891b84010111610190577f46bc5be21f6ba06b486f29ccd1182724e01483672510527c7bbd2f354bf91f3380546001600160a01b0319169091179055437f46bc5be21f6ba06b486f29ccd1182724e01483672510527c7bbd2f354bf91f3255909436829003604219019190885b8781106100fc578980f35b8881831b840101358481121561018c578301898101359087821161018857604401813603811361018857602090828851938492833781017f46bc5be21f6ba06b486f29ccd1182724e01483672510527c7bbd2f354bf91f38815203019020600160ff198254161790556000198114610176576001016100f1565b634e487b7160e01b8a5260118752888afd5b8b80fd5b8a80fd5b8880fd5b8780fd5b8680fd5b8380fd5b8280fdfea264697066735822122099615ee848826efdbeb951f3cde4113bd47e9f7be0d24b7cf67883603f26f74164736f6c63430008110033",
  "devdoc": {
    "kind": "dev",
    "methods": {},
    "version": 1
  },
  "userdoc": {
    "kind": "user",
    "methods": {},
    "version": 1
  },
  "storageLayout": {
    "storage": [],
    "types": null
  }
}