{
  "address": "0x995EB8413AEDFe53ECe4beeafE55a299F0767B8A",
  "abi": [
    {
      "inputs": [],
      "name": "init",
      "outputs": [],
      "stateMutability": "nonpayable",
      "type": "function"
    }
  ],
  "transactionHash": "0x2debba5cb34f4f492e79f746f18f985c6e872b8a599d22e2d79a0020340b4476",
  "args": [],
  "numDeployments": 1,
  "solcInputHash": "08541191232a20d41dd2483aa4db3f2b",
  "bytecode": "0x608080604052346100155760ec908161001b8239f35b600080fdfe6004361015600c57600080fd5b6000803560e01c63e1c7392a14602157600080fd5b3460b3578060031936011260b3576301ffc9a760e01b81527fc8fcad8db84d3cc18b4c41d551ea0ee66dd599cde068d998e57d5e09332c131f60205260408082208054600160ff1991821681179092556307e4c70760e21b845282842080548216831790556348e2b09360e01b845282842080548216831790556307f5828d60e41b8452918320805490921617905580f35b80fdfea2646970667358221220a71538fc981f7509b60da5ba2d5a740ddcc881e0f1a2a37115b058f6b52cbaf564736f6c63430008110033",
  "devdoc": {
    "kind": "dev",
    "methods": {},
    "version": 1
  },
  "userdoc": {
    "kind": "user",
    "methods": {},
    "version": 1
  },
  "storageLayout": {
    "storage": [],
    "types": null
  }
}