{
  "address": "0xc40cE1e715F497D9add4E3E6EfBA7901AB2F14Bb",
  "abi": [
    {
      "anonymous": false,
      "inputs": [
        {
          "indexed": true,
          "internalType": "address",
          "name": "owner",
          "type": "address"
        },
        {
          "indexed": true,
          "internalType": "address",
          "name": "spender",
          "type": "address"
        },
        {
          "indexed": false,
          "internalType": "uint256",
          "name": "value",
          "type": "uint256"
        }
      ],
      "name": "Approval",
      "type": "event"
    },
    {
      "anonymous": false,
      "inputs": [
        {
          "indexed": false,
          "internalType": "uint8",
          "name": "version",
          "type": "uint8"
        }
      ],
      "name": "Initialized",
      "type": "event"
    },
    {
      "anonymous": false,
      "inputs": [
        {
          "indexed": true,
          "internalType": "address",
          "name": "previousOwner",
          "type": "address"
        },
        {
          "indexed": true,
          "internalType": "address",
          "name": "newOwner",
          "type": "address"
        }
      ],
      "name": "OwnershipTransferred",
      "type": "event"
    },
    {
      "anonymous": false,
      "inputs": [
        {
          "indexed": true,
          "internalType": "address",
          "name": "from",
          "type": "address"
        },
        {
          "indexed": true,
          "internalType": "address",
          "name": "to",
          "type": "address"
        },
        {
          "indexed": false,
          "internalType": "uint256",
          "name": "value",
          "type": "uint256"
        }
      ],
      "name": "Transfer",
      "type": "event"
    },
    {
      "inputs": [
        {
          "internalType": "address",
          "name": "owner",
          "type": "address"
        },
        {
          "internalType": "address",
          "name": "spender",
          "type": "address"
        }
      ],
      "name": "allowance",
      "outputs": [
        {
          "internalType": "uint256",
          "name": "",
          "type": "uint256"
        }
      ],
      "stateMutability": "view",
      "type": "function"
    },
    {
      "inputs": [
        {
          "internalType": "address",
          "name": "spender",
          "type": "address"
        },
        {
          "internalType": "uint256",
          "name": "amount",
          "type": "uint256"
        }
      ],
      "name": "approve",
      "outputs": [
        {
          "internalType": "bool",
          "name": "",
          "type": "bool"
        }
      ],
      "stateMutability": "nonpayable",
      "type": "function"
    },
    {
      "inputs": [
        {
          "internalType": "address",
          "name": "account",
          "type": "address"
        }
      ],
      "name": "balanceOf",
      "outputs": [
        {
          "internalType": "uint256",
          "name": "",
          "type": "uint256"
        }
      ],
      "stateMutability": "view",
      "type": "function"
    },
    {
      "inputs": [
        {
          "internalType": "address",
          "name": "_from",
          "type": "address"
        },
        {
          "internalType": "uint256",
          "name": "_amount",
          "type": "uint256"
        }
      ],
      "name": "burn",
      "outputs": [],
      "stateMutability": "nonpayable",
      "type": "function"
    },
    {
      "inputs": [],
      "name": "decimals",
      "outputs": [
        {
          "internalType": "uint8",
          "name": "",
          "type": "uint8"
        }
      ],
      "stateMutability": "view",
      "type": "function"
    },
    {
      "inputs": [
        {
          "internalType": "address",
          "name": "spender",
          "type": "address"
        },
        {
          "internalType": "uint256",
          "name": "subtractedValue",
          "type": "uint256"
        }
      ],
      "name": "decreaseAllowance",
      "outputs": [
        {
          "internalType": "bool",
          "name": "",
          "type": "bool"
        }
      ],
      "stateMutability": "nonpayable",
      "type": "function"
    },
    {
      "inputs": [],
      "name": "getOriginalTokenInfo",
      "outputs": [
        {
          "internalType": "string",
          "name": "",
          "type": "string"
        },
        {
          "internalType": "string",
          "name": "",
          "type": "string"
        }
      ],
      "stateMutability": "view",
      "type": "function"
    },
    {
      "inputs": [
        {
          "internalType": "address",
          "name": "spender",
          "type": "address"
        },
        {
          "internalType": "uint256",
          "name": "addedValue",
          "type": "uint256"
        }
      ],
      "name": "increaseAllowance",
      "outputs": [
        {
          "internalType": "bool",
          "name": "",
          "type": "bool"
        }
      ],
      "stateMutability": "nonpayable",
      "type": "function"
    },
    {
      "inputs": [
        {
          "internalType": "string",
          "name": "_originalChainName",
          "type": "string"
        },
        {
          "internalType": "string",
          "name": "_originalTokenAddress",
          "type": "string"
        },
        {
          "internalType": "string",
          "name": "_originalTokenName",
          "type": "string"
        },
        {
          "internalType": "string",
          "name": "_originalTokenSymbol",
          "type": "string"
        },
        {
          "internalType": "uint8",
          "name": "_originalTokenDecimals",
          "type": "uint8"
        }
      ],
      "name": "initialize",
      "outputs": [],
      "stateMutability": "nonpayable",
      "type": "function"
    },
    {
      "inputs": [
        {
          "internalType": "address",
          "name": "_recipient",
          "type": "address"
        },
        {
          "internalType": "uint256",
          "name": "_amount",
          "type": "uint256"
        }
      ],
      "name": "mint",
      "outputs": [],
      "stateMutability": "nonpayable",
      "type": "function"
    },
    {
      "inputs": [],
      "name": "name",
      "outputs": [
        {
          "internalType": "string",
          "name": "",
          "type": "string"
        }
      ],
      "stateMutability": "view",
      "type": "function"
    },
    {
      "inputs": [],
      "name": "originalChainName",
      "outputs": [
        {
          "internalType": "string",
          "name": "",
          "type": "string"
        }
      ],
      "stateMutability": "view",
      "type": "function"
    },
    {
      "inputs": [],
      "name": "originalTokenAddress",
      "outputs": [
        {
          "internalType": "string",
          "name": "",
          "type": "string"
        }
      ],
      "stateMutability": "view",
      "type": "function"
    },
    {
      "inputs": [],
      "name": "owner",
      "outputs": [
        {
          "internalType": "address",
          "name": "",
          "type": "address"
        }
      ],
      "stateMutability": "view",
      "type": "function"
    },
    {
      "inputs": [
        {
          "internalType": "address",
          "name": "from",
          "type": "address"
        },
        {
          "internalType": "address",
          "name": "to",
          "type": "address"
        },
        {
          "internalType": "uint256",
          "name": "amount",
          "type": "uint256"
        }
      ],
      "name": "permissionedTransferFrom",
      "outputs": [],
      "stateMutability": "nonpayable",
      "type": "function"
    },
    {
      "inputs": [],
      "name": "renounceOwnership",
      "outputs": [],
      "stateMutability": "nonpayable",
      "type": "function"
    },
    {
      "inputs": [],
      "name": "symbol",
      "outputs": [
        {
          "internalType": "string",
          "name": "",
          "type": "string"
        }
      ],
      "stateMutability": "view",
      "type": "function"
    },
    {
      "inputs": [],
      "name": "totalSupply",
      "outputs": [
        {
          "internalType": "uint256",
          "name": "",
          "type": "uint256"
        }
      ],
      "stateMutability": "view",
      "type": "function"
    },
    {
      "inputs": [
        {
          "internalType": "address",
          "name": "to",
          "type": "address"
        },
        {
          "internalType": "uint256",
          "name": "amount",
          "type": "uint256"
        }
      ],
      "name": "transfer",
      "outputs": [
        {
          "internalType": "bool",
          "name": "",
          "type": "bool"
        }
      ],
      "stateMutability": "nonpayable",
      "type": "function"
    },
    {
      "inputs": [
        {
          "internalType": "address",
          "name": "from",
          "type": "address"
        },
        {
          "internalType": "address",
          "name": "to",
          "type": "address"
        },
        {
          "internalType": "uint256",
          "name": "amount",
          "type": "uint256"
        }
      ],
      "name": "transferFrom",
      "outputs": [
        {
          "internalType": "bool",
          "name": "",
          "type": "bool"
        }
      ],
      "stateMutability": "nonpayable",
      "type": "function"
    },
    {
      "inputs": [
        {
          "internalType": "address",
          "name": "newOwner",
          "type": "address"
        }
      ],
      "name": "transferOwnership",
      "outputs": [],
      "stateMutability": "nonpayable",
      "type": "function"
    }
  ],
  "transactionHash": "0x63fb94ae9a6e3147c244b49bddaacd6b8e3b894581fef4b2ff74c43996af7383",
  "args": [],
  "numDeployments": 1,
  "solcInputHash": "08541191232a20d41dd2483aa4db3f2b",
  "bytecode": "0x6080806040523461001657611821908161001c8239f35b600080fdfe608080604052600436101561001357600080fd5b60003560e01c90816306fdde03146111fe57508063095ea7b3146111d857806315b3f27d1461114457806318160ddd1461112657806323b872dd1461107e578063313ce5671461105d578063395093511461100c57806340c10f1914610f4357806370a0823114610f09578063715018a614610eac5780637a4f7d7914610e185780637cfc672b1461069e5780638da5cb5b1461067557806395d89b41146105a5578063989ee11a146104165780639dc29fac146102e6578063a457c2d71461023f578063a9059cbb1461020e578063ab1a63cd146101ef578063dd62ed3e1461019a5763f2fde38b1461010657600080fd5b346101955760203660031901126101955761011f6112d7565b6101276113d5565b6001600160a01b038116156101415761013f9061142d565b005b60405162461bcd60e51b815260206004820152602660248201527f4f776e61626c653a206e6577206f776e657220697320746865207a65726f206160448201526564647265737360d01b6064820152608490fd5b600080fd5b34610195576040366003190112610195576101b36112d7565b6001600160a01b036024358181169290839003610195571660005260346020526040600020906000526020526020604060002054604051908152f35b346101955761013f61020036611349565b916102096113d5565b611499565b346101955760403660031901126101955761023461022a6112d7565b6024359033611499565b602060405160018152f35b34610195576040366003190112610195576102586112d7565b60243590336000526034602052604060002060018060a01b038216600052602052604060002054918083106102935761023492039033611609565b60405162461bcd60e51b815260206004820152602560248201527f45524332303a2064656372656173656420616c6c6f77616e63652062656c6f77604482015264207a65726f60d81b6064820152608490fd5b34610195576040366003190112610195576102ff6112d7565b6024359061030b6113d5565b6001600160a01b031680156103c75780600052603360205260406000205491808310610377576020817fddf252ad1be2c89b69c2b068fc378daa952ba7f163c4a11628f55a4df523b3ef92600095858752603384520360408620558060355403603555604051908152a3005b60405162461bcd60e51b815260206004820152602260248201527f45524332303a206275726e20616d6f756e7420657863656564732062616c616e604482015261636560f01b6064820152608490fd5b60405162461bcd60e51b815260206004820152602160248201527f45524332303a206275726e2066726f6d20746865207a65726f206164647265736044820152607360f81b6064820152608490fd5b34610195576000366003190112610195576040516097549060008161043a846112ed565b9182825260019485811690816000146105865750600114610537575b61046292500382611327565b6040519160009060985490610476826112ed565b8086529181811690811561051057506001146104c7575b6104b5846104c3876104a181880382611327565b6040519384936040855260408501906112b2565b9083820360208501526112b2565b0390f35b6098600090815292506000805160206117cc8339815191525b8284106104f8575050508201602001826104a161048d565b805460208588018101919091529093019281016104e0565b60ff191660208088019190915292151560051b860190920192508491506104a1905061048d565b5090609760005260008051602061178c83398151915290846000925b82841061056c5750505090602061046292820101610456565b602092945080548385880101520191019091848493610553565b6020925061046294915060ff191682840152151560051b820101610456565b346101955760003660031901126101955760405160006037546105c7816112ed565b8084529060019081811690811561064e5750600114610605575b6104c3846105f181860382611327565b6040519182916020835260208301906112b2565b6037600090815292506000805160206117ac8339815191525b8284106106365750505081016020016105f1826105e1565b8054602085870181019190915290930192810161061e565b60ff191660208087019190915292151560051b850190920192506105f191508390506105e1565b34610195576000366003190112610195576065546040516001600160a01b039091168152602090f35b346101955760a03660031901126101955760043567ffffffffffffffff8111610195576106cf90369060040161137e565b60243567ffffffffffffffff8111610195576106ef90369060040161137e565b60443567ffffffffffffffff81116101955761070f90369060040161137e565b9060643567ffffffffffffffff81116101955761073090369060040161137e565b906084359160ff83168303610195576000549360ff8560081c161594858096610e0b575b8015610df4575b15610d985760ff19811660011760005585610d86575b506107ac60246040518093635941525f60e01b602083015261079c815180926020868601910161128f565b8101036004810184520182611327565b6107e660246040518094635941525f60e01b60208301526107d6815180926020868601910161128f565b8101036004810185520183611327565b61080060ff60005460081c166107fb8161170b565b61170b565b80519067ffffffffffffffff8211610a9857819061081f6036546112ed565b601f8111610d12575b50602090601f8311600114610c9a57600092610c8f575b50508160011b916000199060031b1c1916176036555b80519067ffffffffffffffff8211610a985781906108746037546112ed565b601f8111610c1b575b50602090601f8311600114610ba357600092610b98575b50508160011b916000199060031b1c1916176037555b6108bf60ff60005460081c166107fb8161170b565b6108c83361142d565b835167ffffffffffffffff8111610a98576108e46097546112ed565b601f8111610b2b575b50602094601f8211600114610ab957948192939495600092610aae575b50508160011b916000199060031b1c1916176097555b80519067ffffffffffffffff8211610a985761093d6098546112ed565b601f8111610a45575b50602090601f83116001146109ce5760ff939291600091836109c3575b50508160011b916000199060031b1c1916176098555b1660ff19609954161760995561098b57005b61ff0019600054166000557f7f26b83ff96e1f2b6a682f133852f6798a09c465da95921460cefb3847402498602060405160018152a1005b015190508580610963565b90601f1983169160986000526000805160206117cc8339815191529260005b818110610a2d575091600193918560ff97969410610a14575b505050811b01609855610979565b015160001960f88460031b161c19169055858080610a06565b929360206001819287860151815501950193016109ed565b60986000526000805160206117cc833981519152601f840160051c81019160208510610a8e575b601f0160051c01905b818110610a825750610946565b60008155600101610a75565b9091508190610a6c565b634e487b7160e01b600052604160045260246000fd5b01519050858061090a565b601f19821695609760005260008051602061178c8339815191529160005b888110610b1357508360019596979810610afa575b505050811b01609755610920565b015160001960f88460031b161c19169055858080610aec565b91926020600181928685015181550194019201610ad7565b6097600052601f820160051c60008051602061178c833981519152019060208310610b82575b601f0160051c60008051602061178c83398151915201905b818110610b7657506108ed565b60008155600101610b69565b60008051602061178c8339815191529150610b51565b015190508680610894565b925060376000526000805160206117ac833981519152906000935b601f1984168510610c00576001945083601f19811610610be7575b505050811b016037556108aa565b015160001960f88460031b161c19169055868080610bd9565b81810151835560209485019460019093019290910190610bbe565b9091506037600052601f830160051c6000805160206117ac8339815191520160208410610c7a575b908392915b601f820160051c6000805160206117ac833981519152018110610c6b575061087d565b60008155849350600101610c48565b506000805160206117ac833981519152610c43565b01519050878061083f565b9250603660005260008051602061176c833981519152906000935b601f1984168510610cf7576001945083601f19811610610cde575b505050811b01603655610855565b015160001960f88460031b161c19169055878080610cd0565b81810151835560209485019460019093019290910190610cb5565b9091506036600052601f830160051c60008051602061176c8339815191520160208410610d71575b908392915b601f820160051c60008051602061176c833981519152018110610d625750610828565b60008155849350600101610d3f565b5060008051602061176c833981519152610d3a565b61ffff19166101011760005586610771565b60405162461bcd60e51b815260206004820152602e60248201527f496e697469616c697a61626c653a20636f6e747261637420697320616c72656160448201526d191e481a5b9a5d1a585b1a5e995960921b6064820152608490fd5b50303b15801561075b5750600160ff82161461075b565b50600160ff821610610754565b34610195576000366003190112610195576040516000609854610e3a816112ed565b8084529060019081811690811561064e5750600114610e63576104c3846105f181860382611327565b6098600090815292506000805160206117cc8339815191525b828410610e945750505081016020016105f1826105e1565b80546020858701810191909152909301928101610e7c565b3461019557600036600319011261019557610ec56113d5565b606580546001600160a01b031981169091556000906001600160a01b03167f8be0079c531659141344cd1fd0a4f28419497f9722a3daafe3b4186f6b6457e08280a3005b34610195576020366003190112610195576001600160a01b03610f2a6112d7565b1660005260336020526020604060002054604051908152f35b3461019557604036600319011261019557610f5c6112d7565b60243590610f686113d5565b6001600160a01b0316908115610fc7577fddf252ad1be2c89b69c2b068fc378daa952ba7f163c4a11628f55a4df523b3ef602082610faa600094603554611476565b6035558484526033825260408420818154019055604051908152a3005b60405162461bcd60e51b815260206004820152601f60248201527f45524332303a206d696e7420746f20746865207a65726f2061646472657373006044820152606490fd5b34610195576040366003190112610195576102346110286112d7565b336000526034602052604060002060018060a01b038216600052602052611056602435604060002054611476565b9033611609565b3461019557600036600319011261019557602060ff60995416604051908152f35b346101955761108c36611349565b9060018060a01b03831660005260346020526040600020336000526020526040600020549260001984036110c5575b6102349350611499565b8284106110e1576110dc8361023495033383611609565b6110bb565b60405162461bcd60e51b815260206004820152601d60248201527f45524332303a20696e73756666696369656e7420616c6c6f77616e63650000006044820152606490fd5b34610195576000366003190112610195576020603554604051908152f35b34610195576000366003190112610195576040516000609754611166816112ed565b8084529060019081811690811561064e575060011461118f576104c3846105f181860382611327565b60976000908152925060008051602061178c8339815191525b8284106111c05750505081016020016105f1826105e1565b805460208587018101919091529093019281016111a8565b34610195576040366003190112610195576102346111f46112d7565b6024359033611609565b3461019557600036600319011261019557600060365461121d816112ed565b8084529060019081811690811561064e5750600114611246576104c3846105f181860382611327565b60366000908152925060008051602061176c8339815191525b8284106112775750505081016020016105f1826105e1565b8054602085870181019190915290930192810161125f565b60005b8381106112a25750506000910152565b8181015183820152602001611292565b906020916112cb8151809281855285808601910161128f565b601f01601f1916010190565b600435906001600160a01b038216820361019557565b90600182811c9216801561131d575b602083101461130757565b634e487b7160e01b600052602260045260246000fd5b91607f16916112fc565b90601f8019910116810190811067ffffffffffffffff821117610a9857604052565b6060906003190112610195576001600160a01b0390600435828116810361019557916024359081168103610195579060443590565b81601f820112156101955780359067ffffffffffffffff8211610a9857604051926113b3601f8401601f191660200185611327565b8284526020838301011161019557816000926020809301838601378301015290565b6065546001600160a01b031633036113e957565b606460405162461bcd60e51b815260206004820152602060248201527f4f776e61626c653a2063616c6c6572206973206e6f7420746865206f776e65726044820152fd5b606580546001600160a01b039283166001600160a01b0319821681179092559091167f8be0079c531659141344cd1fd0a4f28419497f9722a3daafe3b4186f6b6457e0600080a3565b9190820180921161148357565b634e487b7160e01b600052601160045260246000fd5b6001600160a01b039081169182156115b65716918215611565576000828152603360205260408120549180831061151157604082827fddf252ad1be2c89b69c2b068fc378daa952ba7f163c4a11628f55a4df523b3ef95876020965260338652038282205586815220818154019055604051908152a3565b60405162461bcd60e51b815260206004820152602660248201527f45524332303a207472616e7366657220616d6f756e7420657863656564732062604482015265616c616e636560d01b6064820152608490fd5b60405162461bcd60e51b815260206004820152602360248201527f45524332303a207472616e7366657220746f20746865207a65726f206164647260448201526265737360e81b6064820152608490fd5b60405162461bcd60e51b815260206004820152602560248201527f45524332303a207472616e736665722066726f6d20746865207a65726f206164604482015264647265737360d81b6064820152608490fd5b6001600160a01b039081169182156116ba571691821561166a5760207f8c5be1e5ebec7d5bd14f71427d1e84f3dd0314c0f7b2291e5b200ac8c7c3b925918360005260348252604060002085600052825280604060002055604051908152a3565b60405162461bcd60e51b815260206004820152602260248201527f45524332303a20617070726f766520746f20746865207a65726f206164647265604482015261737360f01b6064820152608490fd5b60405162461bcd60e51b8152602060048201526024808201527f45524332303a20617070726f76652066726f6d20746865207a65726f206164646044820152637265737360e01b6064820152608490fd5b1561171257565b60405162461bcd60e51b815260206004820152602b60248201527f496e697469616c697a61626c653a20636f6e7472616374206973206e6f74206960448201526a6e697469616c697a696e6760a81b6064820152608490fdfe4a11f94e20a93c79f6ec743a1954ec4fc2c08429ae2122118bf234b2185c81b8354a83ed9988f79f6038d4c7a7dadbad8af32f4ad6df893e0e5807a1b1944ff942a7b7dd785cd69714a189dffb3fd7d7174edc9ece837694ce50f7078f7c31ae2237a976fa961f5921fd19f2b03c925c725d77b20ce8f790c19709c03de4d814a26469706673582212207a8086f5b114e6619d707d0e9cb004e6ee6e4e1927705c75aa100e03ab6c400164736f6c63430008110033",
  "devdoc": {
    "kind": "dev",
    "methods": {
      "allowance(address,address)": {
        "details": "See {IERC20-allowance}."
      },
      "approve(address,uint256)": {
        "details": "See {IERC20-approve}. NOTE: If `amount` is the maximum `uint256`, the allowance is not updated on `transferFrom`. This is semantically equivalent to an infinite approval. Requirements: - `spender` cannot be the zero address."
      },
      "balanceOf(address)": {
        "details": "See {IERC20-balanceOf}."
      },
      "decimals()": {
        "details": "Returns the number of decimals used to get its user representation. For example, if `decimals` equals `2`, a balance of `505` tokens should be displayed to a user as `5.05` (`505 / 10 ** 2`). Tokens usually opt for a value of 18, imitating the relationship between Ether and Wei. This is the value {ERC20} uses, unless this function is overridden; NOTE: This information is only used for _display_ purposes: it in no way affects any of the arithmetic of the contract, including {IERC20-balanceOf} and {IERC20-transfer}."
      },
      "decreaseAllowance(address,uint256)": {
        "details": "Atomically decreases the allowance granted to `spender` by the caller. This is an alternative to {approve} that can be used as a mitigation for problems described in {IERC20-approve}. Emits an {Approval} event indicating the updated allowance. Requirements: - `spender` cannot be the zero address. - `spender` must have allowance for the caller of at least `subtractedValue`."
      },
      "increaseAllowance(address,uint256)": {
        "details": "Atomically increases the allowance granted to `spender` by the caller. This is an alternative to {approve} that can be used as a mitigation for problems described in {IERC20-approve}. Emits an {Approval} event indicating the updated allowance. Requirements: - `spender` cannot be the zero address."
      },
      "name()": {
        "details": "Returns the name of the token."
      },
      "owner()": {
        "details": "Returns the address of the current owner."
      },
      "renounceOwnership()": {
        "details": "Leaves the contract without owner. It will not be possible to call `onlyOwner` functions anymore. Can only be called by the current owner. NOTE: Renouncing ownership will leave the contract without an owner, thereby removing any functionality that is only available to the owner."
      },
      "symbol()": {
        "details": "Returns the symbol of the token, usually a shorter version of the name."
      },
      "totalSupply()": {
        "details": "See {IERC20-totalSupply}."
      },
      "transfer(address,uint256)": {
        "details": "See {IERC20-transfer}. Requirements: - `to` cannot be the zero address. - the caller must have a balance of at least `amount`."
      },
      "transferFrom(address,address,uint256)": {
        "details": "See {IERC20-transferFrom}. Emits an {Approval} event indicating the updated allowance. This is not required by the EIP. See the note at the beginning of {ERC20}. NOTE: Does not update the allowance if the current allowance is the maximum `uint256`. Requirements: - `from` and `to` cannot be the zero address. - `from` must have a balance of at least `amount`. - the caller must have allowance for ``from``'s tokens of at least `amount`."
      },
      "transferOwnership(address)": {
        "details": "Transfers ownership of the contract to a new account (`newOwner`). Can only be called by the current owner."
      }
    },
    "version": 1
  },
  "userdoc": {
    "kind": "user",
    "methods": {},
    "version": 1
  },
  "storageLayout": {
    "storage": [
      {
        "astId": 138,
        "contract": "contracts/universal_bridge/tokens/IssuedTokenImplementation.sol:IssuedTokenImplementation",
        "label": "_initialized",
        "offset": 0,
        "slot": "0",
        "type": "t_uint8"
      },
      {
        "astId": 141,
        "contract": "contracts/universal_bridge/tokens/IssuedTokenImplementation.sol:IssuedTokenImplementation",
        "label": "_initializing",
        "offset": 1,
        "slot": "0",
        "type": "t_bool"
      },
      {
        "astId": 1340,
        "contract": "contracts/universal_bridge/tokens/IssuedTokenImplementation.sol:IssuedTokenImplementation",
        "label": "__gap",
        "offset": 0,
        "slot": "1",
        "type": "t_array(t_uint256)50_storage"
      },
      {
        "astId": 319,
        "contract": "contracts/universal_bridge/tokens/IssuedTokenImplementation.sol:IssuedTokenImplementation",
        "label": "_balances",
        "offset": 0,
        "slot": "51",
        "type": "t_mapping(t_address,t_uint256)"
      },
      {
        "astId": 325,
        "contract": "contracts/universal_bridge/tokens/IssuedTokenImplementation.sol:IssuedTokenImplementation",
        "label": "_allowances",
        "offset": 0,
        "slot": "52",
        "type": "t_mapping(t_address,t_mapping(t_address,t_uint256))"
      },
      {
        "astId": 327,
        "contract": "contracts/universal_bridge/tokens/IssuedTokenImplementation.sol:IssuedTokenImplementation",
        "label": "_totalSupply",
        "offset": 0,
        "slot": "53",
        "type": "t_uint256"
      },
      {
        "astId": 329,
        "contract": "contracts/universal_bridge/tokens/IssuedTokenImplementation.sol:IssuedTokenImplementation",
        "label": "_name",
        "offset": 0,
        "slot": "54",
        "type": "t_string_storage"
      },
      {
        "astId": 331,
        "contract": "contracts/universal_bridge/tokens/IssuedTokenImplementation.sol:IssuedTokenImplementation",
        "label": "_symbol",
        "offset": 0,
        "slot": "55",
        "type": "t_string_storage"
      },
      {
        "astId": 911,
        "contract": "contracts/universal_bridge/tokens/IssuedTokenImplementation.sol:IssuedTokenImplementation",
        "label": "__gap",
        "offset": 0,
        "slot": "56",
        "type": "t_array(t_uint256)45_storage"
      },
      {
        "astId": 10,
        "contract": "contracts/universal_bridge/tokens/IssuedTokenImplementation.sol:IssuedTokenImplementation",
        "label": "_owner",
        "offset": 0,
        "slot": "101",
        "type": "t_address"
      },
      {
        "astId": 130,
        "contract": "contracts/universal_bridge/tokens/IssuedTokenImplementation.sol:IssuedTokenImplementation",
        "label": "__gap",
        "offset": 0,
        "slot": "102",
        "type": "t_array(t_uint256)49_storage"
      },
      {
        "astId": 7174,
        "contract": "contracts/universal_bridge/tokens/IssuedTokenImplementation.sol:IssuedTokenImplementation",
        "label": "originalChainName",
        "offset": 0,
        "slot": "151",
        "type": "t_string_storage"
      },
      {
        "astId": 7176,
        "contract": "contracts/universal_bridge/tokens/IssuedTokenImplementation.sol:IssuedTokenImplementation",
        "label": "originalTokenAddress",
        "offset": 0,
        "slot": "152",
        "type": "t_string_storage"
      },
      {
        "astId": 7178,
        "contract": "contracts/universal_bridge/tokens/IssuedTokenImplementation.sol:IssuedTokenImplementation",
        "label": "originalTokenDecimals",
        "offset": 0,
        "slot": "153",
        "type": "t_uint8"
      }
    ],
    "types": {
      "t_address": {
        "encoding": "inplace",
        "label": "address",
        "numberOfBytes": "20"
      },
      "t_array(t_uint256)45_storage": {
        "base": "t_uint256",
        "encoding": "inplace",
        "label": "uint256[45]",
        "numberOfBytes": "1440"
      },
      "t_array(t_uint256)49_storage": {
        "base": "t_uint256",
        "encoding": "inplace",
        "label": "uint256[49]",
        "numberOfBytes": "1568"
      },
      "t_array(t_uint256)50_storage": {
        "base": "t_uint256",
        "encoding": "inplace",
        "label": "uint256[50]",
        "numberOfBytes": "1600"
      },
      "t_bool": {
        "encoding": "inplace",
        "label": "bool",
        "numberOfBytes": "1"
      },
      "t_mapping(t_address,t_mapping(t_address,t_uint256))": {
        "encoding": "mapping",
        "key": "t_address",
        "label": "mapping(address => mapping(address => uint256))",
        "numberOfBytes": "32",
        "value": "t_mapping(t_address,t_uint256)"
      },
      "t_mapping(t_address,t_uint256)": {
        "encoding": "mapping",
        "key": "t_address",
        "label": "mapping(address => uint256)",
        "numberOfBytes": "32",
        "value": "t_uint256"
      },
      "t_string_storage": {
        "encoding": "bytes",
        "label": "string",
        "numberOfBytes": "32"
      },
      "t_uint256": {
        "encoding": "inplace",
        "label": "uint256",
        "numberOfBytes": "32"
      },
      "t_uint8": {
        "encoding": "inplace",
        "label": "uint8",
        "numberOfBytes": "1"
      }
    }
  }
}