{
  "address": "0xf668dc2B9A5a156bdb91092DcAd65aD5Db7D1287",
  "abi": [
    {
      "inputs": [
        {
          "internalType": "bytes32",
          "name": "_currentChain",
          "type": "bytes32"
        },
        {
          "internalType": "bool",
          "name": "_isProxyChain",
          "type": "bool"
        },
        {
          "internalType": "bytes32[]",
          "name": "_registeredChains",
          "type": "bytes32[]"
        },
        {
          "internalType": "address",
          "name": "_issuedTokenImplementation",
          "type": "address"
        },
        {
          "internalType": "address",
          "name": "_validator",
          "type": "address"
        }
      ],
      "stateMutability": "nonpayable",
      "type": "constructor"
    },
    {
      "anonymous": false,
      "inputs": [
        {
          "indexed": true,
          "internalType": "bytes32",
          "name": "transferId",
          "type": "bytes32"
        },
        {
          "indexed": false,
          "internalType": "uint256",
          "name": "externalNonce",
          "type": "uint256"
        },
        {
          "indexed": false,
          "internalType": "bytes32",
          "name": "originalChain",
          "type": "bytes32"
        },
        {
          "indexed": false,
          "internalType": "bytes",
          "name": "originalToken",
          "type": "bytes"
        },
        {
          "indexed": false,
          "internalType": "bytes32",
          "name": "initialChain",
          "type": "bytes32"
        },
        {
          "indexed": false,
          "internalType": "bytes32",
          "name": "targetChain",
          "type": "bytes32"
        },
        {
          "indexed": false,
          "internalType": "uint256",
          "name": "amount",
          "type": "uint256"
        },
        {
          "indexed": false,
          "internalType": "bytes",
          "name": "sender",
          "type": "bytes"
        },
        {
          "indexed": false,
          "internalType": "bytes",
          "name": "recipient",
          "type": "bytes"
        }
      ],
      "name": "TransferFromOtherChain",
      "type": "event"
    },
    {
      "anonymous": false,
      "inputs": [
        {
          "indexed": true,
          "internalType": "bytes32",
          "name": "transferId",
          "type": "bytes32"
        },
        {
          "indexed": false,
          "internalType": "uint256",
          "name": "nonce",
          "type": "uint256"
        },
        {
          "indexed": false,
          "internalType": "bytes32",
          "name": "initialChain",
          "type": "bytes32"
        },
        {
          "indexed": false,
          "internalType": "bytes32",
          "name": "originalChain",
          "type": "bytes32"
        },
        {
          "indexed": false,
          "internalType": "bytes",
          "name": "originalTokenAddress",
          "type": "bytes"
        },
        {
          "indexed": false,
          "internalType": "bytes32",
          "name": "targetChain",
          "type": "bytes32"
        },
        {
          "indexed": false,
          "internalType": "uint256",
          "name": "tokenAmount",
          "type": "uint256"
        },
        {
          "indexed": false,
          "internalType": "bytes",
          "name": "sender",
          "type": "bytes"
        },
        {
          "indexed": false,
          "internalType": "bytes",
          "name": "recipient",
          "type": "bytes"
        },
        {
          "indexed": false,
          "internalType": "string",
          "name": "tokenName",
          "type": "string"
        },
        {
          "indexed": false,
          "internalType": "string",
          "name": "tokenSymbol",
          "type": "string"
        },
        {
          "indexed": false,
          "internalType": "uint8",
          "name": "tokenDecimals",
          "type": "uint8"
        }
      ],
      "name": "TransferToOtherChain",
      "type": "event"
    },
    {
      "inputs": [
        {
          "internalType": "bytes32",
          "name": "_originalChain",
          "type": "bytes32"
        },
        {
          "internalType": "bytes",
          "name": "_originalToken",
          "type": "bytes"
        },
        {
          "internalType": "address",
          "name": "_account",
          "type": "address"
        }
      ],
      "name": "balances",
      "outputs": [
        {
          "internalType": "uint256",
          "name": "",
          "type": "uint256"
        }
      ],
      "stateMutability": "view",
      "type": "function"
    },
    {
      "inputs": [],
      "name": "currentChain",
      "outputs": [
        {
          "internalType": "bytes32",
          "name": "",
          "type": "bytes32"
        }
      ],
      "stateMutability": "view",
      "type": "function"
    },
    {
      "inputs": [
        {
          "internalType": "bytes32",
          "name": "_originalChain",
          "type": "bytes32"
        },
        {
          "internalType": "bytes",
          "name": "_originalToken",
          "type": "bytes"
        }
      ],
      "name": "getIssuedTokenAddress",
      "outputs": [
        {
          "internalType": "address",
          "name": "",
          "type": "address"
        }
      ],
      "stateMutability": "view",
      "type": "function"
    },
    {
      "inputs": [
        {
          "internalType": "uint256",
          "name": "_nonce",
          "type": "uint256"
        },
        {
          "internalType": "bytes32",
          "name": "_initialChain",
          "type": "bytes32"
        }
      ],
      "name": "getTranferId",
      "outputs": [
        {
          "internalType": "bytes32",
          "name": "",
          "type": "bytes32"
        }
      ],
      "stateMutability": "pure",
      "type": "function"
    },
    {
      "inputs": [
        {
          "internalType": "uint256",
          "name": "_nonce",
          "type": "uint256"
        },
        {
          "internalType": "bytes32",
          "name": "_initialChain",
          "type": "bytes32"
        }
      ],
      "name": "getTransferId",
      "outputs": [
        {
          "internalType": "bytes32",
          "name": "",
          "type": "bytes32"
        }
      ],
      "stateMutability": "pure",
      "type": "function"
    },
    {
      "inputs": [],
      "name": "initBlock",
      "outputs": [
        {
          "internalType": "uint256",
          "name": "",
          "type": "uint256"
        }
      ],
      "stateMutability": "view",
      "type": "function"
    },
    {
      "inputs": [
        {
          "internalType": "address",
          "name": "_issuedToken",
          "type": "address"
        }
      ],
      "name": "isIssuedTokenPublished",
      "outputs": [
        {
          "internalType": "bool",
          "name": "",
          "type": "bool"
        }
      ],
      "stateMutability": "view",
      "type": "function"
    },
    {
      "inputs": [],
      "name": "isProxyChain",
      "outputs": [
        {
          "internalType": "bool",
          "name": "",
          "type": "bool"
        }
      ],
      "stateMutability": "view",
      "type": "function"
    },
    {
      "inputs": [],
      "name": "issuedTokenImplementation",
      "outputs": [
        {
          "internalType": "address",
          "name": "",
          "type": "address"
        }
      ],
      "stateMutability": "view",
      "type": "function"
    },
    {
      "inputs": [
        {
          "internalType": "address",
          "name": "",
          "type": "address"
        }
      ],
      "name": "issuedTokens",
      "outputs": [
        {
          "internalType": "bool",
          "name": "",
          "type": "bool"
        }
      ],
      "stateMutability": "view",
      "type": "function"
    },
    {
      "inputs": [],
      "name": "nonce",
      "outputs": [
        {
          "internalType": "uint256",
          "name": "",
          "type": "uint256"
        }
      ],
      "stateMutability": "view",
      "type": "function"
    },
    {
      "inputs": [
        {
          "internalType": "bytes32",
          "name": "",
          "type": "bytes32"
        }
      ],
      "name": "registeredChains",
      "outputs": [
        {
          "internalType": "bool",
          "name": "",
          "type": "bool"
        }
      ],
      "stateMutability": "view",
      "type": "function"
    },
    {
      "inputs": [
        {
          "internalType": "bytes32",
          "name": "",
          "type": "bytes32"
        },
        {
          "internalType": "uint256",
          "name": "",
          "type": "uint256"
        }
      ],
      "name": "registeredNonces",
      "outputs": [
        {
          "internalType": "bool",
          "name": "",
          "type": "bool"
        }
      ],
      "stateMutability": "view",
      "type": "function"
    },
    {
      "inputs": [
        {
          "internalType": "bytes32",
          "name": "_chain",
          "type": "bytes32"
        },
        {
          "internalType": "bool",
          "name": "_value",
          "type": "bool"
        }
      ],
      "name": "setChainRegister",
      "outputs": [],
      "stateMutability": "nonpayable",
      "type": "function"
    },
    {
      "inputs": [
        {
          "internalType": "address",
          "name": "_newValidator",
          "type": "address"
        }
      ],
      "name": "setValidator",
      "outputs": [],
      "stateMutability": "nonpayable",
      "type": "function"
    },
    {
      "inputs": [
        {
          "internalType": "uint256",
          "name": "_externalNonce",
          "type": "uint256"
        },
        {
          "internalType": "bytes32",
          "name": "_originalChain",
          "type": "bytes32"
        },
        {
          "internalType": "bytes",
          "name": "_originalToken",
          "type": "bytes"
        },
        {
          "internalType": "bytes32",
          "name": "_initialChain",
          "type": "bytes32"
        },
        {
          "internalType": "bytes32",
          "name": "_targetChain",
          "type": "bytes32"
        },
        {
          "internalType": "uint256",
          "name": "_amount",
          "type": "uint256"
        },
        {
          "internalType": "bytes",
          "name": "_sender",
          "type": "bytes"
        },
        {
          "internalType": "bytes",
          "name": "_recipient",
          "type": "bytes"
        },
        {
          "components": [
            {
              "internalType": "string",
              "name": "name",
              "type": "string"
            },
            {
              "internalType": "string",
              "name": "symbol",
              "type": "string"
            },
            {
              "internalType": "uint8",
              "name": "decimals",
              "type": "uint8"
            }
          ],
          "internalType": "struct BridgeERC20.TokenInfo",
          "name": "_tokenInfo",
          "type": "tuple"
        }
      ],
      "name": "tranferFromOtherChain",
      "outputs": [],
      "stateMutability": "nonpayable",
      "type": "function"
    },
    {
      "inputs": [
        {
          "internalType": "address",
          "name": "_transferedToken",
          "type": "address"
        },
        {
          "internalType": "uint256",
          "name": "_amount",
          "type": "uint256"
        },
        {
          "internalType": "bytes32",
          "name": "_targetChain",
          "type": "bytes32"
        },
        {
          "internalType": "bytes",
          "name": "_recipient",
          "type": "bytes"
        }
      ],
      "name": "tranferToOtherChain",
      "outputs": [],
      "stateMutability": "nonpayable",
      "type": "function"
    },
    {
      "inputs": [],
      "name": "validator",
      "outputs": [
        {
          "internalType": "address",
          "name": "",
          "type": "address"
        }
      ],
      "stateMutability": "view",
      "type": "function"
    }
  ],
  "transactionHash": "0x71c343258b0485cde201e8ec62591e4e51bf702e61fd83c5bc4a8a0df9197991",
  "args": [
    "0x7319d77b282d06f1398943db85efac6f25008b7706c519a44e88de5e3c6f0a9e",
    false,
    [
      "0x88243e88525a258200bf5ca869571208956d07a0fa57c175fe0c198c7a0c5c26",
      "0xc5a260213bed973cb2f8d4637aa3ef27b0571649e067f5604af98967165ee957",
      "0x888ddba0dff61733aea9d240a62a83cee02ac4a5c8e58fbc448c21d3b250d4bb",
      "0xf9b1779dd736d62f9a5815f9f11cb752f6342e8584a01f22e1b19b9a8cb5694e"
    ],
    "0xD9F7Dc4AEDb241b5c628bfE5663Bc781FDC98E91",
    "0x7151d877A2dAA54058304F5d5F7AA7e06cB5010F"
  ],
  "numDeployments": 2,
  "solcInputHash": "e6aedaa08fa325814bd4500904f07c79",
  "bytecode": "0x60406080815234620001915762002338803803806200001e81620001ac565b928339810160a0828203126200019157815191602080820151908115158092036200019157828601516001600160401b0390818111620001915784019480601f8701121562000191578551918211620001965760059582871b90848062000087818501620001ac565b809681520192820101928311620001915784809101915b838310620001805750505050620000c66080620000be60608701620001d2565b9501620001d2565b9343600855600196875560ff199360ff856003541691161760035560018060a01b038060018060a01b031992168260075416176007556000951690855416178455805194845b868110620001235788516121509081620001e88239f35b82518110156200016c5780821b830184015186526004845288862080548616891790556000198114620001585787016200010c565b634e487b7160e01b86526011600452602486fd5b634e487b7160e01b86526032600452602486fd5b82518152918101918591016200009e565b600080fd5b634e487b7160e01b600052604160045260246000fd5b6040519190601f01601f191682016001600160401b038111838210176200019657604052565b51906001600160a01b0382168203620001915756fe608080604052600436101561001357600080fd5b6000803560e01c9182630c1ab73014610a5357508163101c575a14610a2b57816311921fad146109fd5781631327d3d8146109bd57816328177228146109625781633a5381b51461093c5781633da998fa1461091f578163457322b91461081a57816348b4fa58146108fd5781635d05125b146108e05781639a573d5d146108905781639d95a79214610858578163a0b498a41461081a578163affed0e0146107fd578163b00a0be6146107b8578163c4b2a23f146100f957508063e3cd51e5146100f05763f7e03bad146100e8575b600080fd5b6100e3610fa8565b506100e3610fa8565b346107b557600319610120368201126105d0576001600160401b03906044358281116107b15761012d903690600401610f7b565b60c4358481116107ad57610145903690600401610f7b565b949060e4358281116107a95761015f903690600401610f7b565b95909261010435116107a95760609061010435360301126103d55761018333610fca565b6064358752600660205260408720600435885260205260ff604088205416610756576064358752600660205260408720600435885260205260408720600160ff1982541617905560015480606435146106ff576064358852600460205260ff604089205416156106a85760843503610402576001600160a01b03610209838701846113ce565b16876024356001541460001461031a57509461030661031493926102aa6102977f93ed05a8c697097712ecd9a75d512ed9bd401c4d006f5050685cfe71a6371a25996102a560018060a01b036102618b8d018d6113ce565b60405163a9059cbb60e01b60208201526001600160a01b03909416602485015260a4356044850152929392169183906064820190565b03601f198101845283611085565b6111e5565b6102b86064356004356110a6565b986102e06040519889986004358a5260243560208b01526101008060408c01528a01916111c4565b916064356060890152608435608089015260a43560a089015287830360c08901526111c4565b9184830360e08601526111c4565b0390a280f35b906001600160a01b0361033086886024356113ed565b16808352600560205260ff604084205416156103e8575b803b156103e4576040516340c10f1960e01b81526001600160a01b0392909216600483015260a435602483015282908290604490829084905af180156103d9576103bd575b5050907f93ed05a8c697097712ecd9a75d512ed9bd401c4d006f5050685cfe71a6371a2594610306610314936102aa565b6103c990939293611026565b6103d55790868861038c565b8680fd5b6040513d84823e3d90fd5b8280fd5b6103fc6101043560040187896024356114b5565b50610347565b919293909460ff60035416156106635786906001600160a01b0361042986886024356113ed565b16808352600560205260ff60408420541615610649575b608435602435036105df57803b156103e457604051632770a7eb60e21b815230600482015260a43560248201529083908290604490829084905af19081156105d45783916105bc575b50505b610495816110da565b936104a36040519586611085565b81855236828201116103e457819060208601378301602001526104ca6064356004356110a6565b94610104356004016104dc818061138e565b9091610104356024016104ee9161138e565b93909461010435604401610501906113c0565b96604051998a996004358b5260643560208c015260243560408c01526101608060608d01528b0190610532926111c4565b60843560808b015260a43560a08b015289810360c08b01526105539161119f565b9088820360e08a0152610565926111c4565b90868203610100880152610578926111c4565b9084820361012086015261058b926111c4565b9060ff16610140830152037fb7769b1013165b15c4e57ac1d4419b6798fd9188ac4f25bf32b2143946bbb81491a280f35b6105c590611026565b6105d0578189610489565b5080fd5b6040513d85823e3d90fd5b602435606435146105f1575b5061048c565b803b156103e4576040516340c10f1960e01b815230600482015260a43560248201529083908290604490829084905af19081156105d4578391610635575b506105eb565b61063e90611026565b6105d057818961062f565b61065d6101043560040187896024356114b5565b50610440565b60405162461bcd60e51b815260206004820152601f60248201527f42726964676545524332303a204f6e6c792070726f78792062726964676521006044820152606490fd5b60405162461bcd60e51b815260206004820152602960248201527f42726964676545524332303a20496e697469616c20636861696e206e6f7420726044820152681959da5cdd195c995960ba1b6064820152608490fd5b60405162461bcd60e51b815260206004820152602960248201527f42726964676545524332303a20696e697469616c436861696e203d3d206375726044820152683932b73a21b430b4b760b91b6064820152608490fd5b60405162461bcd60e51b815260206004820152602560248201527f42726964676545524332303a206e6f6e636520616c72656164792072656769736044820152641d195c995960da1b6064820152608490fd5b8780fd5b8580fd5b8380fd5b80fd5b346107b55760403660031901126107b5576024358015158091036105d0576107df33610fca565b60043582526004602052604082209060ff8019835416911617905580f35b346107b557806003193601126107b5576020600254604051908152f35b346107b55760203660031901126107b55760209060ff906040906001600160a01b03610844610f65565b168152600584522054166040519015158152f35b346107b55760403660031901126107b55760ff6040602092600435815260068452818120602435825284522054166040519015158152f35b346107b55760403660031901126107b557602435906001600160401b0382116107b55760206108ce6108c53660048601610f7b565b906004356113ed565b6040516001600160a01b039091168152f35b346107b557806003193601126107b5576020600854604051908152f35b346107b557806003193601126107b557602060ff600354166040519015158152f35b346107b557806003193601126107b5576020600154604051908152f35b346107b557806003193601126107b557546040516001600160a01b039091168152602090f35b346107b55760603660031901126107b5576024356001600160401b0381116105d057610992903690600401610f7b565b906044356001600160a01b03811681036100e3576020926109b592600435611656565b604051908152f35b346107b55760203660031901126107b5576109d6610f65565b6109df33610fca565b81546001600160a01b0319166001600160a01b039190911617815580f35b346107b55760203660031901126107b55760ff60406020926004358152600484522054166040519015158152f35b346107b557806003193601126107b5576007546040516001600160a01b039091168152602090f35b346105d05760803660031901126105d057610a6c610f65565b6001600160401b03606435818111610f6157610a8c903690600401610f7b565b919093602435908115610f1f5750604435908187526020946004865260ff60408920541615610ed0576001600160a01b0316808852600586526040882054600154600254929892969160ff166000198814610ebc576001880160025515610d4457604051634c4f708d60e11b8152948a866004818d5afa948515610d39578b809b81978299839b8492610c94575b50909a9998929190508d851480610c88575b15610c2257803b156105d05760405163ab1a63cd60e01b8152336004820152306024820152604481018590529082908290606490829084905af180156103d957610c0a575b50505b610b7e848b6110a6565b9b60405194338d8701528c8652610b948661104f565b6040519c8d9c8d528c015260408b01526101608060608c01528a01610bb89161119f565b9160808a015260a089015287810360c0890152610bd49161119f565b9086820360e0880152610be6926111c4565b848103610100860152610bf89161119f565b83810361012085015261058b9161119f565b610c1390611026565b610c1e578c8e610b71565b8c80fd5b8091503b15610c8457604051632770a7eb60e21b815233600482015260248101849052908e908290604490829084905af18015610c7757610c64575b50610b74565b610c70909d919d611026565b9b8d610c5e565b8e604051903d90823e3d90fd5b8d80fd5b5060ff60035416610b2c565b99509950509850509099503d808c883e610cae8188611085565b86019060a087830312610d35578651978c8b8901518881116105d057890184601f820112156105d05784818e610ce693519101611118565b9160408a01518981116103e45785610cff918c0161114f565b9860608b01519081116103e45760808f96610d1f90610d26938e0161114f565b9b01611191565b9a9d8e93999a9b919293610b1a565b8b80fd5b6040513d8d823e3d90fd5b80989550976040518689820152888152610d5d8161104f565b946040516306fdde0360e01b81528b816004818b5afa8c9181610e9f575b50610e995750604051610d8d8161106a565b8b8152945b6040516395d89b4160e01b81528c80826004818d5afa90918282610e74575b5050610e6e5750604051610dc48161106a565b8c8152965b60405163313ce56760e01b81528d8c826004818e5afa909181610e33575b50610e295750610e246001995b6040516323b872dd60e01b8e82015233602482015230604482015260648101859052906102a58260848101610297565b610b74565b610e249099610df4565b9091508c81813d8311610e67575b610e4b8183611085565b81010312610e6357610e5c90611191565b908f610de7565b8e80fd5b503d610e41565b96610dc9565b610e919293503d8091833e610e898183611085565b81019061116c565b908e8e610db1565b94610d92565b610eb59192508d3d8091833e610e898183611085565b908d610d7b565b634e487b7160e01b8b52601160045260248bfd5b60405162461bcd60e51b815260048101879052602160248201527f42726964676545524332303a20636861696e206e6f74207265676973746572656044820152601960fa1b6064820152608490fd5b62461bcd60e51b815260206004820152601860248201527f42726964676545524332303a205f616d6f756e74203c203000000000000000006044820152606490fd5b8480fd5b600435906001600160a01b03821682036100e357565b9181601f840112156100e3578235916001600160401b0383116100e357602083818601950101116100e357565b50346100e35760403660031901126100e35760206109b56024356004356110a6565b6000546001600160a01b03908116911603610fe157565b60405162461bcd60e51b815260206004820152601c60248201527f42726964676545524332303a204f6e6c792076616c696461746f7221000000006044820152606490fd5b6001600160401b03811161103957604052565b634e487b7160e01b600052604160045260246000fd5b604081019081106001600160401b0382111761103957604052565b602081019081106001600160401b0382111761103957604052565b90601f801991011681019081106001600160401b0382111761103957604052565b906040519060208201928352604082015260408152606081018181106001600160401b038211176110395760405251902090565b6001600160401b03811161103957601f01601f191660200190565b60005b8381106111085750506000910152565b81810151838201526020016110f8565b90929192611125816110da565b916111336040519384611085565b8294828452828201116100e357602061114d9301906110f5565b565b9080601f830112156100e357815161116992602001611118565b90565b906020828203126100e35781516001600160401b0381116100e357611169920161114f565b519060ff821682036100e357565b906020916111b8815180928185528580860191016110f5565b601f01601f1916010190565b908060209392818452848401376000828201840152601f01601f1916010190565b60018060a01b0316906112626040516111fd8161104f565b6020938482527f5361666545524332303a206c6f772d6c6576656c2063616c6c206661696c6564858301526000808587829751910182855af13d156112ed573d91611247836110da565b926112556040519485611085565b83523d868885013e6112f1565b805180611270575b50505050565b818491810103126105d057820151908115918215036107b557506112965780808061126a565b6084906040519062461bcd60e51b82526004820152602a60248201527f5361666545524332303a204552433230206f7065726174696f6e20646964206e6044820152691bdd081cdd58d8d9595960b21b6064820152fd5b6060915b919290156113535750815115611305575090565b3b1561130e5790565b60405162461bcd60e51b815260206004820152601d60248201527f416464726573733a2063616c6c20746f206e6f6e2d636f6e74726163740000006044820152606490fd5b8251909150156113665750805190602001fd5b60405162461bcd60e51b81526020600482015290819061138a90602483019061119f565b0390fd5b903590601e19813603018212156100e357018035906001600160401b0382116100e3576020019181360383136100e357565b3560ff811681036100e35790565b908160209103126100e357356001600160a01b03811681036100e35790565b91909160409161141e8380518381946020988984019788528484013781016000838201520386810184520182611085565b519020906104d1815161143385830182611085565b8181528481019161177983396114668584518093611459838301968792519283916110f5565b8101038084520182611085565b51902081519384019260ff60f81b84523060601b6021860152603585015260558401526055835260808301908382106001600160401b038311176110395752905190206001600160a01b031690565b909291604092835192602084016000948282528488888301376114e987828781018983820152036020810184520182611085565b51902085516104d1808201908282106001600160401b0383111761164257908291611c4a8339039086f595861561163857908560ff6115ae6115c3948360018060a01b03809c169b600754169761159f61158b611546838061138e565b919095611562611559602087018761138e565b979096016113c0565b99519d8e9b8c602063589c037d60e11b91015260248d015260a060448d015260c48c01916111c4565b9060231995868b84030160648c01526111c4565b928784030160848801526111c4565b911660a483015203601f198101845283611085565b843b156103e4576115f69183918551938492839263c0d91eaf60e01b84526004840152876024840152604483019061119f565b038183885af1801561162e5761161f575b50828152600560205220805460ff1916600117905590565b61162890611026565b38611607565b83513d84823e3d90fd5b85513d86823e3d90fd5b634e487b7160e01b88526041600452602488fd5b9092918160015414611705576001600160a01b039384926116789291906113ed565b1690600092828452600560205260ff604085205416156116ff57602460209260405194859384926370a0823160e01b84521660048301525afa9182156116f35780926116c357505090565b9091506020823d82116116eb575b816116de60209383611085565b810103126107b557505190565b3d91506116d1565b604051903d90823e3d90fd5b50505090565b91926020926001600160a01b039250602491839161172691908101906113ce565b169360405194859384926370a0823160e01b84521660048301525afa90811561176c57600091611754575090565b906020823d82116116eb57816116de60209383611085565b6040513d6000823e3d90fdfe60808060405234610016576104b5908161001c8239f35b600080fdfe6080604052600436101561002c575b361561001f575b61001d610147565b005b610027610147565b610015565b6000803560e01c63c0d91eaf14610043575061000e565b346100cf5760403660031901126100cf576004356001600160a01b03811681036100c75760243567ffffffffffffffff81116100cb57366023820112156100cb578060040135918361009c6100978561011c565b6100e9565b9284845236602486830101116100c757846100c4956024602093018387013784010152610194565b80f35b5080fd5b8280fd5b80fd5b50634e487b7160e01b600052604160045260246000fd5b6040519190601f01601f1916820167ffffffffffffffff81118382101761010f57604052565b6101176100d2565b604052565b60209067ffffffffffffffff811161013a575b601f01601f19160190565b6101426100d2565b61012f565b507f360894a13ba1a3210667c828492db98dca3e2076cc3735a920a3ca505d382bbc54600090819081906001600160a01b0316368280378136915af43d82803e15610190573d90f35b3d90fd5b60ff600054166102aa57803b1561024f577f360894a13ba1a3210667c828492db98dca3e2076cc3735a920a3ca505d382bbc80546001600160a01b0319166001600160a01b0383169081179091557fbc7cd75a20ee27fd9adebab32041f755214dbc6bffa90cc0225b39da2e5c2d3b600080a2815115801590610247575b61022d575b505061022b600160ff196000541617600055565b565b61023f916102396102f9565b91610361565b503880610217565b506000610212565b60405162461bcd60e51b815260206004820152602d60248201527f455243313936373a206e657720696d706c656d656e746174696f6e206973206e60448201526c1bdd08184818dbdb9d1c9858dd609a1b6064820152608490fd5b60405162461bcd60e51b815260206004820152602160248201527f4552433139363750726f7879437265617465323a20616c726561647920696e696044820152601d60fa1b6064820152608490fd5b604051906060820182811067ffffffffffffffff821117610354575b60405260278252660819985a5b195960ca1b6040837f416464726573733a206c6f772d6c6576656c2064656c65676174652063616c6c60208201520152565b61035c6100d2565b610315565b6000806103969493602081519101845af43d15610399573d916103866100978461011c565b9283523d6000602085013e6103ed565b90565b6060916103ed565b156103a857565b60405162461bcd60e51b815260206004820152601d60248201527f416464726573733a2063616c6c20746f206e6f6e2d636f6e74726163740000006044820152606490fd5b9192901561040d5750815115610401575090565b610396903b15156103a1565b8251909150156104205750805190602001fd5b6040519062461bcd60e51b82528160208060048301528251908160248401526000935b828510610466575050604492506000838284010152601f80199101168101030190fd5b848101820151868601604401529381019385935061044356fea26469706673582212204dde7cc5adcf980b8e42581204cfa621f554155a4614ece46fe895090c92f2d464736f6c6343000811003360808060405234610016576104b5908161001c8239f35b600080fdfe6080604052600436101561002c575b361561001f575b61001d610147565b005b610027610147565b610015565b6000803560e01c63c0d91eaf14610043575061000e565b346100cf5760403660031901126100cf576004356001600160a01b03811681036100c75760243567ffffffffffffffff81116100cb57366023820112156100cb578060040135918361009c6100978561011c565b6100e9565b9284845236602486830101116100c757846100c4956024602093018387013784010152610194565b80f35b5080fd5b8280fd5b80fd5b50634e487b7160e01b600052604160045260246000fd5b6040519190601f01601f1916820167ffffffffffffffff81118382101761010f57604052565b6101176100d2565b604052565b60209067ffffffffffffffff811161013a575b601f01601f19160190565b6101426100d2565b61012f565b507f360894a13ba1a3210667c828492db98dca3e2076cc3735a920a3ca505d382bbc54600090819081906001600160a01b0316368280378136915af43d82803e15610190573d90f35b3d90fd5b60ff600054166102aa57803b1561024f577f360894a13ba1a3210667c828492db98dca3e2076cc3735a920a3ca505d382bbc80546001600160a01b0319166001600160a01b0383169081179091557fbc7cd75a20ee27fd9adebab32041f755214dbc6bffa90cc0225b39da2e5c2d3b600080a2815115801590610247575b61022d575b505061022b600160ff196000541617600055565b565b61023f916102396102f9565b91610361565b503880610217565b506000610212565b60405162461bcd60e51b815260206004820152602d60248201527f455243313936373a206e657720696d706c656d656e746174696f6e206973206e60448201526c1bdd08184818dbdb9d1c9858dd609a1b6064820152608490fd5b60405162461bcd60e51b815260206004820152602160248201527f4552433139363750726f7879437265617465323a20616c726561647920696e696044820152601d60fa1b6064820152608490fd5b604051906060820182811067ffffffffffffffff821117610354575b60405260278252660819985a5b195960ca1b6040837f416464726573733a206c6f772d6c6576656c2064656c65676174652063616c6c60208201520152565b61035c6100d2565b610315565b6000806103969493602081519101845af43d15610399573d916103866100978461011c565b9283523d6000602085013e6103ed565b90565b6060916103ed565b156103a857565b60405162461bcd60e51b815260206004820152601d60248201527f416464726573733a2063616c6c20746f206e6f6e2d636f6e74726163740000006044820152606490fd5b9192901561040d5750815115610401575090565b610396903b15156103a1565b8251909150156104205750805190602001fd5b6040519062461bcd60e51b82528160208060048301528251908160248401526000935b828510610466575050604492506000838284010152601f80199101168101030190fd5b848101820151868601604401529381019385935061044356fea26469706673582212204dde7cc5adcf980b8e42581204cfa621f554155a4614ece46fe895090c92f2d464736f6c63430008110033a26469706673582212203de2096930c7f0819969f7a56a5e635325244dae6b8ae79b0e12744fb9c2491a64736f6c63430008110033",
  "devdoc": {
    "kind": "dev",
    "methods": {},
    "version": 1
  },
  "userdoc": {
    "kind": "user",
    "methods": {},
    "version": 1
  },
  "storageLayout": {
    "storage": [
      {
        "astId": 1215,
        "contract": "contracts/BridgeERC20.sol:BridgeERC20",
        "label": "validator",
        "offset": 0,
        "slot": "0",
        "type": "t_address"
      },
      {
        "astId": 1217,
        "contract": "contracts/BridgeERC20.sol:BridgeERC20",
        "label": "currentChain",
        "offset": 0,
        "slot": "1",
        "type": "t_bytes32"
      },
      {
        "astId": 1219,
        "contract": "contracts/BridgeERC20.sol:BridgeERC20",
        "label": "nonce",
        "offset": 0,
        "slot": "2",
        "type": "t_uint256"
      },
      {
        "astId": 1221,
        "contract": "contracts/BridgeERC20.sol:BridgeERC20",
        "label": "isProxyChain",
        "offset": 0,
        "slot": "3",
        "type": "t_bool"
      },
      {
        "astId": 1225,
        "contract": "contracts/BridgeERC20.sol:BridgeERC20",
        "label": "registeredChains",
        "offset": 0,
        "slot": "4",
        "type": "t_mapping(t_bytes32,t_bool)"
      },
      {
        "astId": 1229,
        "contract": "contracts/BridgeERC20.sol:BridgeERC20",
        "label": "issuedTokens",
        "offset": 0,
        "slot": "5",
        "type": "t_mapping(t_address,t_bool)"
      },
      {
        "astId": 1235,
        "contract": "contracts/BridgeERC20.sol:BridgeERC20",
        "label": "registeredNonces",
        "offset": 0,
        "slot": "6",
        "type": "t_mapping(t_bytes32,t_mapping(t_uint256,t_bool))"
      },
      {
        "astId": 1237,
        "contract": "contracts/BridgeERC20.sol:BridgeERC20",
        "label": "issuedTokenImplementation",
        "offset": 0,
        "slot": "7",
        "type": "t_address"
      },
      {
        "astId": 1239,
        "contract": "contracts/BridgeERC20.sol:BridgeERC20",
        "label": "initBlock",
        "offset": 0,
        "slot": "8",
        "type": "t_uint256"
      }
    ],
    "types": {
      "t_address": {
        "encoding": "inplace",
        "label": "address",
        "numberOfBytes": "20"
      },
      "t_bool": {
        "encoding": "inplace",
        "label": "bool",
        "numberOfBytes": "1"
      },
      "t_bytes32": {
        "encoding": "inplace",
        "label": "bytes32",
        "numberOfBytes": "32"
      },
      "t_mapping(t_address,t_bool)": {
        "encoding": "mapping",
        "key": "t_address",
        "label": "mapping(address => bool)",
        "numberOfBytes": "32",
        "value": "t_bool"
      },
      "t_mapping(t_bytes32,t_bool)": {
        "encoding": "mapping",
        "key": "t_bytes32",
        "label": "mapping(bytes32 => bool)",
        "numberOfBytes": "32",
        "value": "t_bool"
      },
      "t_mapping(t_bytes32,t_mapping(t_uint256,t_bool))": {
        "encoding": "mapping",
        "key": "t_bytes32",
        "label": "mapping(bytes32 => mapping(uint256 => bool))",
        "numberOfBytes": "32",
        "value": "t_mapping(t_uint256,t_bool)"
      },
      "t_mapping(t_uint256,t_bool)": {
        "encoding": "mapping",
        "key": "t_uint256",
        "label": "mapping(uint256 => bool)",
        "numberOfBytes": "32",
        "value": "t_bool"
      },
      "t_uint256": {
        "encoding": "inplace",
        "label": "uint256",
        "numberOfBytes": "32"
      }
    }
  }
}