{
  "address": "0x35DF543CCaCF7D728cD3dA60F8d37088D00640d5",
  "abi": [
    {
      "inputs": [
        {
          "internalType": "bytes32",
          "name": "_currentChain",
          "type": "bytes32"
        },
        {
          "internalType": "bool",
          "name": "_isProxyChain",
          "type": "bool"
        },
        {
          "internalType": "bytes32[]",
          "name": "_registeredChains",
          "type": "bytes32[]"
        },
        {
          "internalType": "address",
          "name": "_issuedTokenImplementation",
          "type": "address"
        },
        {
          "internalType": "address",
          "name": "_validator",
          "type": "address"
        }
      ],
      "stateMutability": "nonpayable",
      "type": "constructor"
    },
    {
      "anonymous": false,
      "inputs": [
        {
          "indexed": true,
          "internalType": "bytes32",
          "name": "transferId",
          "type": "bytes32"
        },
        {
          "indexed": false,
          "internalType": "uint256",
          "name": "externalNonce",
          "type": "uint256"
        },
        {
          "indexed": false,
          "internalType": "bytes32",
          "name": "originalChain",
          "type": "bytes32"
        },
        {
          "indexed": false,
          "internalType": "bytes",
          "name": "originalToken",
          "type": "bytes"
        },
        {
          "indexed": false,
          "internalType": "bytes32",
          "name": "initialChain",
          "type": "bytes32"
        },
        {
          "indexed": false,
          "internalType": "bytes32",
          "name": "targetChain",
          "type": "bytes32"
        },
        {
          "indexed": false,
          "internalType": "uint256",
          "name": "amount",
          "type": "uint256"
        },
        {
          "indexed": false,
          "internalType": "bytes",
          "name": "sender",
          "type": "bytes"
        },
        {
          "indexed": false,
          "internalType": "bytes",
          "name": "recipient",
          "type": "bytes"
        }
      ],
      "name": "ERC20DriverTransferFromOtherChain",
      "type": "event"
    },
    {
      "anonymous": false,
      "inputs": [
        {
          "indexed": true,
          "internalType": "bytes32",
          "name": "transferId",
          "type": "bytes32"
        },
        {
          "indexed": false,
          "internalType": "uint256",
          "name": "nonce",
          "type": "uint256"
        },
        {
          "indexed": false,
          "internalType": "bytes32",
          "name": "initialChain",
          "type": "bytes32"
        },
        {
          "indexed": false,
          "internalType": "bytes32",
          "name": "originalChain",
          "type": "bytes32"
        },
        {
          "indexed": false,
          "internalType": "bytes",
          "name": "originalTokenAddress",
          "type": "bytes"
        },
        {
          "indexed": false,
          "internalType": "bytes32",
          "name": "targetChain",
          "type": "bytes32"
        },
        {
          "indexed": false,
          "internalType": "uint256",
          "name": "tokenAmount",
          "type": "uint256"
        },
        {
          "indexed": false,
          "internalType": "bytes",
          "name": "sender",
          "type": "bytes"
        },
        {
          "indexed": false,
          "internalType": "bytes",
          "name": "recipient",
          "type": "bytes"
        },
        {
          "indexed": false,
          "internalType": "string",
          "name": "tokenName",
          "type": "string"
        },
        {
          "indexed": false,
          "internalType": "string",
          "name": "tokenSymbol",
          "type": "string"
        },
        {
          "indexed": false,
          "internalType": "uint8",
          "name": "tokenDecimals",
          "type": "uint8"
        }
      ],
      "name": "TransferToOtherChain",
      "type": "event"
    },
    {
      "inputs": [
        {
          "internalType": "bytes32",
          "name": "_originalChain",
          "type": "bytes32"
        },
        {
          "internalType": "bytes",
          "name": "_originalToken",
          "type": "bytes"
        },
        {
          "internalType": "address",
          "name": "_account",
          "type": "address"
        }
      ],
      "name": "balances",
      "outputs": [
        {
          "internalType": "uint256",
          "name": "",
          "type": "uint256"
        }
      ],
      "stateMutability": "view",
      "type": "function"
    },
    {
      "inputs": [],
      "name": "currentChain",
      "outputs": [
        {
          "internalType": "bytes32",
          "name": "",
          "type": "bytes32"
        }
      ],
      "stateMutability": "view",
      "type": "function"
    },
    {
      "inputs": [
        {
          "internalType": "bytes32",
          "name": "_originalChain",
          "type": "bytes32"
        },
        {
          "internalType": "bytes",
          "name": "_originalToken",
          "type": "bytes"
        }
      ],
      "name": "getIssuedTokenAddress",
      "outputs": [
        {
          "internalType": "address",
          "name": "",
          "type": "address"
        }
      ],
      "stateMutability": "view",
      "type": "function"
    },
    {
      "inputs": [
        {
          "internalType": "uint256",
          "name": "_nonce",
          "type": "uint256"
        },
        {
          "internalType": "bytes32",
          "name": "_initialChain",
          "type": "bytes32"
        }
      ],
      "name": "getTranferId",
      "outputs": [
        {
          "internalType": "bytes32",
          "name": "",
          "type": "bytes32"
        }
      ],
      "stateMutability": "pure",
      "type": "function"
    },
    {
      "inputs": [
        {
          "internalType": "uint256",
          "name": "_nonce",
          "type": "uint256"
        },
        {
          "internalType": "bytes32",
          "name": "_initialChain",
          "type": "bytes32"
        }
      ],
      "name": "getTransferId",
      "outputs": [
        {
          "internalType": "bytes32",
          "name": "",
          "type": "bytes32"
        }
      ],
      "stateMutability": "pure",
      "type": "function"
    },
    {
      "inputs": [],
      "name": "initBlock",
      "outputs": [
        {
          "internalType": "uint256",
          "name": "",
          "type": "uint256"
        }
      ],
      "stateMutability": "view",
      "type": "function"
    },
    {
      "inputs": [
        {
          "internalType": "address",
          "name": "_issuedToken",
          "type": "address"
        }
      ],
      "name": "isIssuedTokenPublished",
      "outputs": [
        {
          "internalType": "bool",
          "name": "",
          "type": "bool"
        }
      ],
      "stateMutability": "view",
      "type": "function"
    },
    {
      "inputs": [],
      "name": "isProxyChain",
      "outputs": [
        {
          "internalType": "bool",
          "name": "",
          "type": "bool"
        }
      ],
      "stateMutability": "view",
      "type": "function"
    },
    {
      "inputs": [],
      "name": "issuedTokenImplementation",
      "outputs": [
        {
          "internalType": "address",
          "name": "",
          "type": "address"
        }
      ],
      "stateMutability": "view",
      "type": "function"
    },
    {
      "inputs": [
        {
          "internalType": "address",
          "name": "",
          "type": "address"
        }
      ],
      "name": "issuedTokens",
      "outputs": [
        {
          "internalType": "bool",
          "name": "",
          "type": "bool"
        }
      ],
      "stateMutability": "view",
      "type": "function"
    },
    {
      "inputs": [],
      "name": "nonce",
      "outputs": [
        {
          "internalType": "uint256",
          "name": "",
          "type": "uint256"
        }
      ],
      "stateMutability": "view",
      "type": "function"
    },
    {
      "inputs": [
        {
          "internalType": "bytes32",
          "name": "",
          "type": "bytes32"
        }
      ],
      "name": "registeredChains",
      "outputs": [
        {
          "internalType": "bool",
          "name": "",
          "type": "bool"
        }
      ],
      "stateMutability": "view",
      "type": "function"
    },
    {
      "inputs": [
        {
          "internalType": "bytes32",
          "name": "",
          "type": "bytes32"
        },
        {
          "internalType": "uint256",
          "name": "",
          "type": "uint256"
        }
      ],
      "name": "registeredNonces",
      "outputs": [
        {
          "internalType": "bool",
          "name": "",
          "type": "bool"
        }
      ],
      "stateMutability": "view",
      "type": "function"
    },
    {
      "inputs": [
        {
          "internalType": "address",
          "name": "_newValidator",
          "type": "address"
        }
      ],
      "name": "setValidator",
      "outputs": [],
      "stateMutability": "nonpayable",
      "type": "function"
    },
    {
      "inputs": [
        {
          "internalType": "uint256",
          "name": "_externalNonce",
          "type": "uint256"
        },
        {
          "internalType": "bytes32",
          "name": "_originalChain",
          "type": "bytes32"
        },
        {
          "internalType": "bytes",
          "name": "_originalToken",
          "type": "bytes"
        },
        {
          "internalType": "bytes32",
          "name": "_initialChain",
          "type": "bytes32"
        },
        {
          "internalType": "bytes32",
          "name": "_targetChain",
          "type": "bytes32"
        },
        {
          "internalType": "uint256",
          "name": "_amount",
          "type": "uint256"
        },
        {
          "internalType": "bytes",
          "name": "_sender",
          "type": "bytes"
        },
        {
          "internalType": "bytes",
          "name": "_recipient",
          "type": "bytes"
        },
        {
          "components": [
            {
              "internalType": "string",
              "name": "name",
              "type": "string"
            },
            {
              "internalType": "string",
              "name": "symbol",
              "type": "string"
            },
            {
              "internalType": "uint8",
              "name": "decimals",
              "type": "uint8"
            }
          ],
          "internalType": "struct BridgeERC20.TokenInfo",
          "name": "_tokenInfo",
          "type": "tuple"
        }
      ],
      "name": "tranferFromOtherChain",
      "outputs": [],
      "stateMutability": "nonpayable",
      "type": "function"
    },
    {
      "inputs": [
        {
          "internalType": "address",
          "name": "_transferedToken",
          "type": "address"
        },
        {
          "internalType": "uint256",
          "name": "_amount",
          "type": "uint256"
        },
        {
          "internalType": "bytes32",
          "name": "_targetChain",
          "type": "bytes32"
        },
        {
          "internalType": "bytes",
          "name": "_recipient",
          "type": "bytes"
        }
      ],
      "name": "tranferToOtherChain",
      "outputs": [],
      "stateMutability": "nonpayable",
      "type": "function"
    },
    {
      "inputs": [],
      "name": "validator",
      "outputs": [
        {
          "internalType": "address",
          "name": "",
          "type": "address"
        }
      ],
      "stateMutability": "view",
      "type": "function"
    }
  ],
  "transactionHash": "0x178c7c6e2b084c6ecd4a9a739dd1687472d26aba14a6d097088068e75eb815b6",
  "args": [
    "0xf9b1779dd736d62f9a5815f9f11cb752f6342e8584a01f22e1b19b9a8cb5694e",
    false,
    [
      "0xc5a260213bed973cb2f8d4637aa3ef27b0571649e067f5604af98967165ee957",
      "0x88243e88525a258200bf5ca869571208956d07a0fa57c175fe0c198c7a0c5c26",
      "0x888ddba0dff61733aea9d240a62a83cee02ac4a5c8e58fbc448c21d3b250d4bb"
    ],
    "0xCF27F292851Ac7468104DB6b55D7e8B27f7B9c1B",
    "0xd74e8903131F56e6b20d806525ba958cE7B71F85"
  ],
  "numDeployments": 1,
  "solcInputHash": "fabc689a6a86bd5d42ade854b13a0eab",
  "bytecode": "0x604060808152346200019157620022a1803803806200001e81620001ac565b928339810160a0828203126200019157815191602080820151908115158092036200019157828601516001600160401b0390818111620001915784019480601f8701121562000191578551918211620001965760059582871b90848062000087818501620001ac565b809681520192820101928311620001915784809101915b838310620001805750505050620000c66080620000be60608701620001d2565b9501620001d2565b9343600855600196875560ff199360ff856003541691161760035560018060a01b038060018060a01b031992168260075416176007556000951690855416178455805194845b868110620001235788516120b99081620001e88239f35b82518110156200016c5780821b830184015186526004845288862080548616891790556000198114620001585787016200010c565b634e487b7160e01b86526011600452602486fd5b634e487b7160e01b86526032600452602486fd5b82518152918101918591016200009e565b600080fd5b634e487b7160e01b600052604160045260246000fd5b6040519190601f01601f191682016001600160401b038111838210176200019657604052565b51906001600160a01b0382168203620001915756fe608080604052600436101561001357600080fd5b6000803560e01c9182630c1ab73014610a0357508163101c575a146109db57816311921fad146109ad5781631327d3d81461096d57816328177228146109125781633a5381b5146108ec5781633da998fa146108cf578163457322b9146107ca57816348b4fa58146108ad5781635d05125b146108905781639a573d5d146108405781639d95a79214610808578163a0b498a4146107ca578163affed0e0146107ad578163c4b2a23f146100ee57508063e3cd51e5146100e55763f7e03bad146100dd575b600080fd5b6100d8610f38565b506100d8610f38565b346107aa57600319610120368201126105c5576001600160401b03906044358281116107a657610122903690600401610f0b565b60c4358481116107a25761013a903690600401610f0b565b949060e43582811161079e57610154903690600401610f0b565b959092610104351161079e5760609061010435360301126103ca5761017833610f5a565b6064358752600660205260408720600435885260205260ff60408820541661074b576064358752600660205260408720600435885260205260408720600160ff1982541617905560015480606435146106f4576064358852600460205260ff6040892054161561069d57608435036103f7576001600160a01b036101fe83870184611343565b16876024356001541460001461030f5750946102fb610309939261029f61028c7f1365e886036dcff7e6decc4520fa49993955c92e9c0d668e12bec1b6ec1069a19961029a60018060a01b036102568b8d018d611343565b60405163a9059cbb60e01b60208201526001600160a01b03909416602485015260a4356044850152929392169183906064820190565b03601f198101845283610ffa565b61115a565b6102ad60643560043561101b565b986102d56040519889986004358a5260243560208b01526101008060408c01528a0191611139565b916064356060890152608435608089015260a43560a089015287830360c0890152611139565b9184830360e0860152611139565b0390a280f35b906001600160a01b036103258688602435611362565b16808352600560205260ff604084205416156103dd575b803b156103d9576040516340c10f1960e01b81526001600160a01b0392909216600483015260a435602483015282908290604490829084905af180156103ce576103b2575b5050907f1365e886036dcff7e6decc4520fa49993955c92e9c0d668e12bec1b6ec1069a1946102fb6103099361029f565b6103be90939293610fb6565b6103ca57908688610381565b8680fd5b6040513d84823e3d90fd5b8280fd5b6103f161010435600401878960243561142a565b5061033c565b919293909460ff60035416156106585786906001600160a01b0361041e8688602435611362565b16808352600560205260ff6040842054161561063e575b608435602435036105d457803b156103d957604051632770a7eb60e21b815230600482015260a43560248201529083908290604490829084905af19081156105c95783916105b1575b50505b61048a8161104f565b936104986040519586610ffa565b81855236828201116103d957819060208601378301602001526104bf60643560043561101b565b94610104356004016104d18180611303565b9091610104356024016104e391611303565b939094610104356044016104f690611335565b96604051998a996004358b5260643560208c015260243560408c01526101608060608d01528b019061052792611139565b60843560808b015260a43560a08b015289810360c08b015261054891611114565b9088820360e08a015261055a92611139565b9086820361010088015261056d92611139565b9084820361012086015261058092611139565b9060ff16610140830152037fb7769b1013165b15c4e57ac1d4419b6798fd9188ac4f25bf32b2143946bbb81491a280f35b6105ba90610fb6565b6105c557818961047e565b5080fd5b6040513d85823e3d90fd5b602435606435146105e6575b50610481565b803b156103d9576040516340c10f1960e01b815230600482015260a43560248201529083908290604490829084905af19081156105c957839161062a575b506105e0565b61063390610fb6565b6105c5578189610624565b61065261010435600401878960243561142a565b50610435565b60405162461bcd60e51b815260206004820152601f60248201527f42726964676545524332303a204f6e6c792070726f78792062726964676521006044820152606490fd5b60405162461bcd60e51b815260206004820152602960248201527f42726964676545524332303a20496e697469616c20636861696e206e6f7420726044820152681959da5cdd195c995960ba1b6064820152608490fd5b60405162461bcd60e51b815260206004820152602960248201527f42726964676545524332303a20696e697469616c436861696e203d3d206375726044820152683932b73a21b430b4b760b91b6064820152608490fd5b60405162461bcd60e51b815260206004820152602560248201527f42726964676545524332303a206e6f6e636520616c72656164792072656769736044820152641d195c995960da1b6064820152608490fd5b8780fd5b8580fd5b8380fd5b80fd5b346107aa57806003193601126107aa576020600254604051908152f35b346107aa5760203660031901126107aa5760209060ff906040906001600160a01b036107f4610ef5565b168152600584522054166040519015158152f35b346107aa5760403660031901126107aa5760ff6040602092600435815260068452818120602435825284522054166040519015158152f35b346107aa5760403660031901126107aa57602435906001600160401b0382116107aa57602061087e6108753660048601610f0b565b90600435611362565b6040516001600160a01b039091168152f35b346107aa57806003193601126107aa576020600854604051908152f35b346107aa57806003193601126107aa57602060ff600354166040519015158152f35b346107aa57806003193601126107aa576020600154604051908152f35b346107aa57806003193601126107aa57546040516001600160a01b039091168152602090f35b346107aa5760603660031901126107aa576024356001600160401b0381116105c557610942903690600401610f0b565b906044356001600160a01b03811681036100d857602092610965926004356115cb565b604051908152f35b346107aa5760203660031901126107aa57610986610ef5565b61098f33610f5a565b81546001600160a01b0319166001600160a01b039190911617815580f35b346107aa5760203660031901126107aa5760ff60406020926004358152600484522054166040519015158152f35b346107aa57806003193601126107aa576007546040516001600160a01b039091168152602090f35b346105c55760803660031901126105c557610a1c610ef5565b6001600160401b03606435818111610ef157610a3c903690600401610f0b565b919093602435908115610eaf5750604435908187526020946004865260ff60408920541615610e60576001600160a01b0316808852600586526040882054600154600254929892969160ff166000198814610e4c576001880160025515610cf457604051634c4f708d60e11b8152948a866004818d5afa948515610ce9578b809b81978299839b8492610c44575b50909a9998929190508d851480610c38575b15610bd257803b156105c55760405163ab1a63cd60e01b8152336004820152306024820152604481018590529082908290606490829084905af180156103ce57610bba575b50505b610b2e848b61101b565b9b60405194338d8701528c8652610b4486610fdf565b6040519c8d9c8d528c015260408b01526101608060608c01528a01610b6891611114565b9160808a015260a089015287810360c0890152610b8491611114565b9086820360e0880152610b9692611139565b848103610100860152610ba891611114565b83810361012085015261058091611114565b610bc390610fb6565b610bce578c8e610b21565b8c80fd5b8091503b15610c3457604051632770a7eb60e21b815233600482015260248101849052908e908290604490829084905af18015610c2757610c14575b50610b24565b610c20909d919d610fb6565b9b8d610c0e565b8e604051903d90823e3d90fd5b8d80fd5b5060ff60035416610adc565b99509950509850509099503d808c883e610c5e8188610ffa565b86019060a087830312610ce5578651978c8b8901518881116105c557890184601f820112156105c55784818e610c969351910161108d565b9160408a01518981116103d95785610caf918c016110c4565b9860608b01519081116103d95760808f96610ccf90610cd6938e016110c4565b9b01611106565b9a9d8e93999a9b919293610aca565b8b80fd5b6040513d8d823e3d90fd5b80989550976040518689820152888152610d0d81610fdf565b946040516306fdde0360e01b81528b816004818b5afa908115610e41578c91610e27575b50946040516395d89b4160e01b81528c816004818c5afa908115610e1c578d91610dfa575b5060405163313ce56760e01b81529097908d8c826004818e5afa908115610dee5790610db8575b6040516323b872dd60e01b8e82015233602482015230604482015260648101859052909a610db3925061029a826084810161028c565b610b24565b508b81813d8311610de7575b610dce8183610ffa565b81010312610c3457610de2610db391611106565b610d7d565b503d610dc4565b604051903d90823e3d90fd5b610e1691503d808f833e610e0e8183610ffa565b8101906110e1565b8d610d56565b6040513d8f823e3d90fd5b610e3b91503d808e833e610e0e8183610ffa565b8c610d31565b6040513d8e823e3d90fd5b634e487b7160e01b8b52601160045260248bfd5b60405162461bcd60e51b815260048101879052602160248201527f42726964676545524332303a20636861696e206e6f74207265676973746572656044820152601960fa1b6064820152608490fd5b62461bcd60e51b815260206004820152601860248201527f42726964676545524332303a205f616d6f756e74203c203000000000000000006044820152606490fd5b8480fd5b600435906001600160a01b03821682036100d857565b9181601f840112156100d8578235916001600160401b0383116100d857602083818601950101116100d857565b50346100d85760403660031901126100d857602061096560243560043561101b565b6000546001600160a01b03908116911603610f7157565b60405162461bcd60e51b815260206004820152601c60248201527f42726964676545524332303a204f6e6c792076616c696461746f7221000000006044820152606490fd5b6001600160401b038111610fc957604052565b634e487b7160e01b600052604160045260246000fd5b604081019081106001600160401b03821117610fc957604052565b90601f801991011681019081106001600160401b03821117610fc957604052565b906040519060208201928352604082015260408152606081018181106001600160401b03821117610fc95760405251902090565b6001600160401b038111610fc957601f01601f191660200190565b60005b83811061107d5750506000910152565b818101518382015260200161106d565b9092919261109a8161104f565b916110a86040519384610ffa565b8294828452828201116100d85760206110c293019061106a565b565b9080601f830112156100d85781516110de9260200161108d565b90565b906020828203126100d85781516001600160401b0381116100d8576110de92016110c4565b519060ff821682036100d857565b9060209161112d8151809281855285808601910161106a565b601f01601f1916010190565b908060209392818452848401376000828201840152601f01601f1916010190565b60018060a01b0316906111d760405161117281610fdf565b6020938482527f5361666545524332303a206c6f772d6c6576656c2063616c6c206661696c6564858301526000808587829751910182855af13d15611262573d916111bc8361104f565b926111ca6040519485610ffa565b83523d868885013e611266565b8051806111e5575b50505050565b818491810103126105c557820151908115918215036107aa575061120b578080806111df565b6084906040519062461bcd60e51b82526004820152602a60248201527f5361666545524332303a204552433230206f7065726174696f6e20646964206e6044820152691bdd081cdd58d8d9595960b21b6064820152fd5b6060915b919290156112c8575081511561127a575090565b3b156112835790565b60405162461bcd60e51b815260206004820152601d60248201527f416464726573733a2063616c6c20746f206e6f6e2d636f6e74726163740000006044820152606490fd5b8251909150156112db5750805190602001fd5b60405162461bcd60e51b8152602060048201529081906112ff906024830190611114565b0390fd5b903590601e19813603018212156100d857018035906001600160401b0382116100d8576020019181360383136100d857565b3560ff811681036100d85790565b908160209103126100d857356001600160a01b03811681036100d85790565b9190916040916113938380518381946020988984019788528484013781016000838201520386810184520182610ffa565b519020906104d181516113a885830182610ffa565b818152848101916116e283396113db85845180936113ce8383019687925192839161106a565b8101038084520182610ffa565b51902081519384019260ff60f81b84523060601b6021860152603585015260558401526055835260808301908382106001600160401b03831117610fc95752905190206001600160a01b031690565b9092916040928351926020840160009482825284888883013761145e87828781018983820152036020810184520182610ffa565b51902085516104d1808201908282106001600160401b038311176115b757908291611bb38339039086f59586156115ad57908560ff611523611538948360018060a01b03809c169b60075416976115146115006114bb8380611303565b9190956114d76114ce6020870187611303565b97909601611335565b99519d8e9b8c602063589c037d60e11b91015260248d015260a060448d015260c48c0191611139565b9060231995868b84030160648c0152611139565b92878403016084880152611139565b911660a483015203601f198101845283610ffa565b843b156103d95761156b9183918551938492839263c0d91eaf60e01b845260048401528760248401526044830190611114565b038183885af180156115a357611594575b50828152600560205220805460ff1916600117905590565b61159d90610fb6565b3861157c565b83513d84823e3d90fd5b85513d86823e3d90fd5b634e487b7160e01b88526041600452602488fd5b909291816001541461166e576001600160a01b039384926115ed929190611362565b1690600092828452600560205260ff6040852054161561166857602460209260405194859384926370a0823160e01b84521660048301525afa918215610dee57809261163857505090565b9091506020823d8211611660575b8161165360209383610ffa565b810103126107aa57505190565b3d9150611646565b50505090565b91926020926001600160a01b039250602491839161168f9190810190611343565b169360405194859384926370a0823160e01b84521660048301525afa9081156116d5576000916116bd575090565b906020823d8211611660578161165360209383610ffa565b6040513d6000823e3d90fdfe60808060405234610016576104b5908161001c8239f35b600080fdfe6080604052600436101561002c575b361561001f575b61001d610147565b005b610027610147565b610015565b6000803560e01c63c0d91eaf14610043575061000e565b346100cf5760403660031901126100cf576004356001600160a01b03811681036100c75760243567ffffffffffffffff81116100cb57366023820112156100cb578060040135918361009c6100978561011c565b6100e9565b9284845236602486830101116100c757846100c4956024602093018387013784010152610194565b80f35b5080fd5b8280fd5b80fd5b50634e487b7160e01b600052604160045260246000fd5b6040519190601f01601f1916820167ffffffffffffffff81118382101761010f57604052565b6101176100d2565b604052565b60209067ffffffffffffffff811161013a575b601f01601f19160190565b6101426100d2565b61012f565b507f360894a13ba1a3210667c828492db98dca3e2076cc3735a920a3ca505d382bbc54600090819081906001600160a01b0316368280378136915af43d82803e15610190573d90f35b3d90fd5b60ff600054166102aa57803b1561024f577f360894a13ba1a3210667c828492db98dca3e2076cc3735a920a3ca505d382bbc80546001600160a01b0319166001600160a01b0383169081179091557fbc7cd75a20ee27fd9adebab32041f755214dbc6bffa90cc0225b39da2e5c2d3b600080a2815115801590610247575b61022d575b505061022b600160ff196000541617600055565b565b61023f916102396102f9565b91610361565b503880610217565b506000610212565b60405162461bcd60e51b815260206004820152602d60248201527f455243313936373a206e657720696d706c656d656e746174696f6e206973206e60448201526c1bdd08184818dbdb9d1c9858dd609a1b6064820152608490fd5b60405162461bcd60e51b815260206004820152602160248201527f4552433139363750726f7879437265617465323a20616c726561647920696e696044820152601d60fa1b6064820152608490fd5b604051906060820182811067ffffffffffffffff821117610354575b60405260278252660819985a5b195960ca1b6040837f416464726573733a206c6f772d6c6576656c2064656c65676174652063616c6c60208201520152565b61035c6100d2565b610315565b6000806103969493602081519101845af43d15610399573d916103866100978461011c565b9283523d6000602085013e6103ed565b90565b6060916103ed565b156103a857565b60405162461bcd60e51b815260206004820152601d60248201527f416464726573733a2063616c6c20746f206e6f6e2d636f6e74726163740000006044820152606490fd5b9192901561040d5750815115610401575090565b610396903b15156103a1565b8251909150156104205750805190602001fd5b6040519062461bcd60e51b82528160208060048301528251908160248401526000935b828510610466575050604492506000838284010152601f80199101168101030190fd5b848101820151868601604401529381019385935061044356fea26469706673582212204dde7cc5adcf980b8e42581204cfa621f554155a4614ece46fe895090c92f2d464736f6c6343000811003360808060405234610016576104b5908161001c8239f35b600080fdfe6080604052600436101561002c575b361561001f575b61001d610147565b005b610027610147565b610015565b6000803560e01c63c0d91eaf14610043575061000e565b346100cf5760403660031901126100cf576004356001600160a01b03811681036100c75760243567ffffffffffffffff81116100cb57366023820112156100cb578060040135918361009c6100978561011c565b6100e9565b9284845236602486830101116100c757846100c4956024602093018387013784010152610194565b80f35b5080fd5b8280fd5b80fd5b50634e487b7160e01b600052604160045260246000fd5b6040519190601f01601f1916820167ffffffffffffffff81118382101761010f57604052565b6101176100d2565b604052565b60209067ffffffffffffffff811161013a575b601f01601f19160190565b6101426100d2565b61012f565b507f360894a13ba1a3210667c828492db98dca3e2076cc3735a920a3ca505d382bbc54600090819081906001600160a01b0316368280378136915af43d82803e15610190573d90f35b3d90fd5b60ff600054166102aa57803b1561024f577f360894a13ba1a3210667c828492db98dca3e2076cc3735a920a3ca505d382bbc80546001600160a01b0319166001600160a01b0383169081179091557fbc7cd75a20ee27fd9adebab32041f755214dbc6bffa90cc0225b39da2e5c2d3b600080a2815115801590610247575b61022d575b505061022b600160ff196000541617600055565b565b61023f916102396102f9565b91610361565b503880610217565b506000610212565b60405162461bcd60e51b815260206004820152602d60248201527f455243313936373a206e657720696d706c656d656e746174696f6e206973206e60448201526c1bdd08184818dbdb9d1c9858dd609a1b6064820152608490fd5b60405162461bcd60e51b815260206004820152602160248201527f4552433139363750726f7879437265617465323a20616c726561647920696e696044820152601d60fa1b6064820152608490fd5b604051906060820182811067ffffffffffffffff821117610354575b60405260278252660819985a5b195960ca1b6040837f416464726573733a206c6f772d6c6576656c2064656c65676174652063616c6c60208201520152565b61035c6100d2565b610315565b6000806103969493602081519101845af43d15610399573d916103866100978461011c565b9283523d6000602085013e6103ed565b90565b6060916103ed565b156103a857565b60405162461bcd60e51b815260206004820152601d60248201527f416464726573733a2063616c6c20746f206e6f6e2d636f6e74726163740000006044820152606490fd5b9192901561040d5750815115610401575090565b610396903b15156103a1565b8251909150156104205750805190602001fd5b6040519062461bcd60e51b82528160208060048301528251908160248401526000935b828510610466575050604492506000838284010152601f80199101168101030190fd5b848101820151868601604401529381019385935061044356fea26469706673582212204dde7cc5adcf980b8e42581204cfa621f554155a4614ece46fe895090c92f2d464736f6c63430008110033a2646970667358221220488aa51f02302b712efe06ca8e494cd5bf3977a82a227fb1f9e01942f50ab77664736f6c63430008110033",
  "devdoc": {
    "kind": "dev",
    "methods": {},
    "version": 1
  },
  "userdoc": {
    "kind": "user",
    "methods": {},
    "version": 1
  },
  "storageLayout": {
    "storage": [
      {
        "astId": 2557,
        "contract": "contracts/BridgeERC20.sol:BridgeERC20",
        "label": "validator",
        "offset": 0,
        "slot": "0",
        "type": "t_address"
      },
      {
        "astId": 2559,
        "contract": "contracts/BridgeERC20.sol:BridgeERC20",
        "label": "currentChain",
        "offset": 0,
        "slot": "1",
        "type": "t_bytes32"
      },
      {
        "astId": 2561,
        "contract": "contracts/BridgeERC20.sol:BridgeERC20",
        "label": "nonce",
        "offset": 0,
        "slot": "2",
        "type": "t_uint256"
      },
      {
        "astId": 2563,
        "contract": "contracts/BridgeERC20.sol:BridgeERC20",
        "label": "isProxyChain",
        "offset": 0,
        "slot": "3",
        "type": "t_bool"
      },
      {
        "astId": 2567,
        "contract": "contracts/BridgeERC20.sol:BridgeERC20",
        "label": "registeredChains",
        "offset": 0,
        "slot": "4",
        "type": "t_mapping(t_bytes32,t_bool)"
      },
      {
        "astId": 2571,
        "contract": "contracts/BridgeERC20.sol:BridgeERC20",
        "label": "issuedTokens",
        "offset": 0,
        "slot": "5",
        "type": "t_mapping(t_address,t_bool)"
      },
      {
        "astId": 2577,
        "contract": "contracts/BridgeERC20.sol:BridgeERC20",
        "label": "registeredNonces",
        "offset": 0,
        "slot": "6",
        "type": "t_mapping(t_bytes32,t_mapping(t_uint256,t_bool))"
      },
      {
        "astId": 2579,
        "contract": "contracts/BridgeERC20.sol:BridgeERC20",
        "label": "issuedTokenImplementation",
        "offset": 0,
        "slot": "7",
        "type": "t_address"
      },
      {
        "astId": 2581,
        "contract": "contracts/BridgeERC20.sol:BridgeERC20",
        "label": "initBlock",
        "offset": 0,
        "slot": "8",
        "type": "t_uint256"
      }
    ],
    "types": {
      "t_address": {
        "encoding": "inplace",
        "label": "address",
        "numberOfBytes": "20"
      },
      "t_bool": {
        "encoding": "inplace",
        "label": "bool",
        "numberOfBytes": "1"
      },
      "t_bytes32": {
        "encoding": "inplace",
        "label": "bytes32",
        "numberOfBytes": "32"
      },
      "t_mapping(t_address,t_bool)": {
        "encoding": "mapping",
        "key": "t_address",
        "label": "mapping(address => bool)",
        "numberOfBytes": "32",
        "value": "t_bool"
      },
      "t_mapping(t_bytes32,t_bool)": {
        "encoding": "mapping",
        "key": "t_bytes32",
        "label": "mapping(bytes32 => bool)",
        "numberOfBytes": "32",
        "value": "t_bool"
      },
      "t_mapping(t_bytes32,t_mapping(t_uint256,t_bool))": {
        "encoding": "mapping",
        "key": "t_bytes32",
        "label": "mapping(bytes32 => mapping(uint256 => bool))",
        "numberOfBytes": "32",
        "value": "t_mapping(t_uint256,t_bool)"
      },
      "t_mapping(t_uint256,t_bool)": {
        "encoding": "mapping",
        "key": "t_uint256",
        "label": "mapping(uint256 => bool)",
        "numberOfBytes": "32",
        "value": "t_bool"
      },
      "t_uint256": {
        "encoding": "inplace",
        "label": "uint256",
        "numberOfBytes": "32"
      }
    }
  }
}