{
  "address": "0xa75632616b27b63Aaf16ede13598131C16Ba306f",
  "abi": [
    {
      "inputs": [
        {
          "internalType": "bytes32",
          "name": "_currentChain",
          "type": "bytes32"
        },
        {
          "internalType": "bool",
          "name": "_isProxyChain",
          "type": "bool"
        },
        {
          "internalType": "bytes32[]",
          "name": "_registeredChains",
          "type": "bytes32[]"
        },
        {
          "internalType": "address",
          "name": "_issuedTokenImplementation",
          "type": "address"
        },
        {
          "internalType": "address",
          "name": "_validator",
          "type": "address"
        }
      ],
      "stateMutability": "nonpayable",
      "type": "constructor"
    },
    {
      "anonymous": false,
      "inputs": [
        {
          "indexed": true,
          "internalType": "bytes32",
          "name": "transferId",
          "type": "bytes32"
        },
        {
          "indexed": false,
          "internalType": "uint256",
          "name": "externalNonce",
          "type": "uint256"
        },
        {
          "indexed": false,
          "internalType": "bytes32",
          "name": "originalChain",
          "type": "bytes32"
        },
        {
          "indexed": false,
          "internalType": "bytes",
          "name": "originalToken",
          "type": "bytes"
        },
        {
          "indexed": false,
          "internalType": "bytes32",
          "name": "initialChain",
          "type": "bytes32"
        },
        {
          "indexed": false,
          "internalType": "bytes32",
          "name": "targetChain",
          "type": "bytes32"
        },
        {
          "indexed": false,
          "internalType": "uint256[]",
          "name": "tokenIds",
          "type": "uint256[]"
        },
        {
          "indexed": false,
          "internalType": "uint256[]",
          "name": "amounts",
          "type": "uint256[]"
        },
        {
          "indexed": false,
          "internalType": "bytes",
          "name": "sender",
          "type": "bytes"
        },
        {
          "indexed": false,
          "internalType": "bytes",
          "name": "recipient",
          "type": "bytes"
        }
      ],
      "name": "BatchTransferFromOtherChain",
      "type": "event"
    },
    {
      "anonymous": false,
      "inputs": [
        {
          "indexed": true,
          "internalType": "bytes32",
          "name": "transferId",
          "type": "bytes32"
        },
        {
          "indexed": false,
          "internalType": "uint256",
          "name": "nonce",
          "type": "uint256"
        },
        {
          "indexed": false,
          "internalType": "bytes32",
          "name": "initialChain",
          "type": "bytes32"
        },
        {
          "indexed": false,
          "internalType": "bytes32",
          "name": "originalChain",
          "type": "bytes32"
        },
        {
          "indexed": false,
          "internalType": "bytes",
          "name": "originalTokenAddress",
          "type": "bytes"
        },
        {
          "indexed": false,
          "internalType": "bytes32",
          "name": "targetChain",
          "type": "bytes32"
        },
        {
          "indexed": false,
          "internalType": "uint256[]",
          "name": "tokenIds",
          "type": "uint256[]"
        },
        {
          "indexed": false,
          "internalType": "uint256[]",
          "name": "amounts",
          "type": "uint256[]"
        },
        {
          "indexed": false,
          "internalType": "bytes",
          "name": "sender",
          "type": "bytes"
        },
        {
          "indexed": false,
          "internalType": "bytes",
          "name": "recipient",
          "type": "bytes"
        },
        {
          "indexed": false,
          "internalType": "string[]",
          "name": "tokenUris",
          "type": "string[]"
        }
      ],
      "name": "BatchTransferToOtherChain",
      "type": "event"
    },
    {
      "anonymous": false,
      "inputs": [
        {
          "indexed": true,
          "internalType": "bytes32",
          "name": "transferId",
          "type": "bytes32"
        },
        {
          "indexed": false,
          "internalType": "uint256",
          "name": "externalNonce",
          "type": "uint256"
        },
        {
          "indexed": false,
          "internalType": "bytes32",
          "name": "originalChain",
          "type": "bytes32"
        },
        {
          "indexed": false,
          "internalType": "bytes",
          "name": "originalToken",
          "type": "bytes"
        },
        {
          "indexed": false,
          "internalType": "bytes32",
          "name": "initialChain",
          "type": "bytes32"
        },
        {
          "indexed": false,
          "internalType": "bytes32",
          "name": "targetChain",
          "type": "bytes32"
        },
        {
          "indexed": false,
          "internalType": "uint256",
          "name": "tokenId",
          "type": "uint256"
        },
        {
          "indexed": false,
          "internalType": "uint256",
          "name": "amount",
          "type": "uint256"
        },
        {
          "indexed": false,
          "internalType": "bytes",
          "name": "sender",
          "type": "bytes"
        },
        {
          "indexed": false,
          "internalType": "bytes",
          "name": "recipient",
          "type": "bytes"
        }
      ],
      "name": "TransferFromOtherChain",
      "type": "event"
    },
    {
      "anonymous": false,
      "inputs": [
        {
          "indexed": true,
          "internalType": "bytes32",
          "name": "transferId",
          "type": "bytes32"
        },
        {
          "indexed": false,
          "internalType": "uint256",
          "name": "nonce",
          "type": "uint256"
        },
        {
          "indexed": false,
          "internalType": "bytes32",
          "name": "initialChain",
          "type": "bytes32"
        },
        {
          "indexed": false,
          "internalType": "bytes32",
          "name": "originalChain",
          "type": "bytes32"
        },
        {
          "indexed": false,
          "internalType": "bytes",
          "name": "originalTokenAddress",
          "type": "bytes"
        },
        {
          "indexed": false,
          "internalType": "bytes32",
          "name": "targetChain",
          "type": "bytes32"
        },
        {
          "indexed": false,
          "internalType": "uint256",
          "name": "tokenId",
          "type": "uint256"
        },
        {
          "indexed": false,
          "internalType": "uint256",
          "name": "amount",
          "type": "uint256"
        },
        {
          "indexed": false,
          "internalType": "bytes",
          "name": "sender",
          "type": "bytes"
        },
        {
          "indexed": false,
          "internalType": "bytes",
          "name": "recipient",
          "type": "bytes"
        },
        {
          "indexed": false,
          "internalType": "string",
          "name": "tokenUri",
          "type": "string"
        }
      ],
      "name": "TransferToOtherChain",
      "type": "event"
    },
    {
      "inputs": [
        {
          "internalType": "bytes32",
          "name": "_originalChain",
          "type": "bytes32"
        },
        {
          "internalType": "bytes",
          "name": "_originalToken",
          "type": "bytes"
        },
        {
          "internalType": "address",
          "name": "_account",
          "type": "address"
        },
        {
          "internalType": "uint256",
          "name": "_tokenId",
          "type": "uint256"
        }
      ],
      "name": "balances",
      "outputs": [
        {
          "internalType": "uint256",
          "name": "",
          "type": "uint256"
        }
      ],
      "stateMutability": "view",
      "type": "function"
    },
    {
      "inputs": [
        {
          "internalType": "uint256",
          "name": "_externalNonce",
          "type": "uint256"
        },
        {
          "internalType": "bytes32",
          "name": "_originalChain",
          "type": "bytes32"
        },
        {
          "internalType": "bytes",
          "name": "_originalToken",
          "type": "bytes"
        },
        {
          "internalType": "bytes32",
          "name": "_initialChain",
          "type": "bytes32"
        },
        {
          "internalType": "bytes32",
          "name": "_targetChain",
          "type": "bytes32"
        },
        {
          "internalType": "uint256[]",
          "name": "_tokenIds",
          "type": "uint256[]"
        },
        {
          "internalType": "uint256[]",
          "name": "_amounts",
          "type": "uint256[]"
        },
        {
          "internalType": "bytes",
          "name": "_sender",
          "type": "bytes"
        },
        {
          "internalType": "bytes",
          "name": "_recipient",
          "type": "bytes"
        },
        {
          "internalType": "string[]",
          "name": "_tokenUris",
          "type": "string[]"
        }
      ],
      "name": "batchTranferFromOtherChain",
      "outputs": [],
      "stateMutability": "nonpayable",
      "type": "function"
    },
    {
      "inputs": [
        {
          "internalType": "address",
          "name": "_transferedToken",
          "type": "address"
        },
        {
          "internalType": "uint256[]",
          "name": "_tokenIds",
          "type": "uint256[]"
        },
        {
          "internalType": "uint256[]",
          "name": "_amounts",
          "type": "uint256[]"
        },
        {
          "internalType": "bytes32",
          "name": "_targetChain",
          "type": "bytes32"
        },
        {
          "internalType": "bytes",
          "name": "_recipient",
          "type": "bytes"
        }
      ],
      "name": "batchTranferToOtherChain",
      "outputs": [],
      "stateMutability": "nonpayable",
      "type": "function"
    },
    {
      "inputs": [],
      "name": "currentChain",
      "outputs": [
        {
          "internalType": "bytes32",
          "name": "",
          "type": "bytes32"
        }
      ],
      "stateMutability": "view",
      "type": "function"
    },
    {
      "inputs": [
        {
          "internalType": "bytes32",
          "name": "_originalChain",
          "type": "bytes32"
        },
        {
          "internalType": "bytes",
          "name": "_originalToken",
          "type": "bytes"
        }
      ],
      "name": "getIssuedTokenAddress",
      "outputs": [
        {
          "internalType": "address",
          "name": "",
          "type": "address"
        }
      ],
      "stateMutability": "view",
      "type": "function"
    },
    {
      "inputs": [
        {
          "internalType": "uint256",
          "name": "_nonce",
          "type": "uint256"
        },
        {
          "internalType": "bytes32",
          "name": "_initialChain",
          "type": "bytes32"
        }
      ],
      "name": "getTranferId",
      "outputs": [
        {
          "internalType": "bytes32",
          "name": "",
          "type": "bytes32"
        }
      ],
      "stateMutability": "pure",
      "type": "function"
    },
    {
      "inputs": [
        {
          "internalType": "uint256",
          "name": "_nonce",
          "type": "uint256"
        },
        {
          "internalType": "bytes32",
          "name": "_initialChain",
          "type": "bytes32"
        }
      ],
      "name": "getTransferId",
      "outputs": [
        {
          "internalType": "bytes32",
          "name": "",
          "type": "bytes32"
        }
      ],
      "stateMutability": "pure",
      "type": "function"
    },
    {
      "inputs": [],
      "name": "initBlock",
      "outputs": [
        {
          "internalType": "uint256",
          "name": "",
          "type": "uint256"
        }
      ],
      "stateMutability": "view",
      "type": "function"
    },
    {
      "inputs": [
        {
          "internalType": "address",
          "name": "_issuedToken",
          "type": "address"
        }
      ],
      "name": "isIssuedTokenPublished",
      "outputs": [
        {
          "internalType": "bool",
          "name": "",
          "type": "bool"
        }
      ],
      "stateMutability": "view",
      "type": "function"
    },
    {
      "inputs": [],
      "name": "isProxyChain",
      "outputs": [
        {
          "internalType": "bool",
          "name": "",
          "type": "bool"
        }
      ],
      "stateMutability": "view",
      "type": "function"
    },
    {
      "inputs": [],
      "name": "issuedTokenImplementation",
      "outputs": [
        {
          "internalType": "address",
          "name": "",
          "type": "address"
        }
      ],
      "stateMutability": "view",
      "type": "function"
    },
    {
      "inputs": [
        {
          "internalType": "address",
          "name": "",
          "type": "address"
        }
      ],
      "name": "issuedTokens",
      "outputs": [
        {
          "internalType": "bool",
          "name": "",
          "type": "bool"
        }
      ],
      "stateMutability": "view",
      "type": "function"
    },
    {
      "inputs": [],
      "name": "nonce",
      "outputs": [
        {
          "internalType": "uint256",
          "name": "",
          "type": "uint256"
        }
      ],
      "stateMutability": "view",
      "type": "function"
    },
    {
      "inputs": [
        {
          "internalType": "address",
          "name": "operator",
          "type": "address"
        },
        {
          "internalType": "address",
          "name": "from",
          "type": "address"
        },
        {
          "internalType": "uint256[]",
          "name": "ids",
          "type": "uint256[]"
        },
        {
          "internalType": "uint256[]",
          "name": "values",
          "type": "uint256[]"
        },
        {
          "internalType": "bytes",
          "name": "data",
          "type": "bytes"
        }
      ],
      "name": "onERC1155BatchReceived",
      "outputs": [
        {
          "internalType": "bytes4",
          "name": "",
          "type": "bytes4"
        }
      ],
      "stateMutability": "pure",
      "type": "function"
    },
    {
      "inputs": [
        {
          "internalType": "address",
          "name": "operator",
          "type": "address"
        },
        {
          "internalType": "address",
          "name": "from",
          "type": "address"
        },
        {
          "internalType": "uint256",
          "name": "id",
          "type": "uint256"
        },
        {
          "internalType": "uint256",
          "name": "value",
          "type": "uint256"
        },
        {
          "internalType": "bytes",
          "name": "data",
          "type": "bytes"
        }
      ],
      "name": "onERC1155Received",
      "outputs": [
        {
          "internalType": "bytes4",
          "name": "",
          "type": "bytes4"
        }
      ],
      "stateMutability": "pure",
      "type": "function"
    },
    {
      "inputs": [
        {
          "internalType": "bytes32",
          "name": "",
          "type": "bytes32"
        }
      ],
      "name": "registeredChains",
      "outputs": [
        {
          "internalType": "bool",
          "name": "",
          "type": "bool"
        }
      ],
      "stateMutability": "view",
      "type": "function"
    },
    {
      "inputs": [
        {
          "internalType": "bytes32",
          "name": "",
          "type": "bytes32"
        },
        {
          "internalType": "uint256",
          "name": "",
          "type": "uint256"
        }
      ],
      "name": "registeredNonces",
      "outputs": [
        {
          "internalType": "bool",
          "name": "",
          "type": "bool"
        }
      ],
      "stateMutability": "view",
      "type": "function"
    },
    {
      "inputs": [
        {
          "internalType": "bytes32",
          "name": "_chain",
          "type": "bytes32"
        },
        {
          "internalType": "bool",
          "name": "_value",
          "type": "bool"
        }
      ],
      "name": "setChainRegister",
      "outputs": [],
      "stateMutability": "nonpayable",
      "type": "function"
    },
    {
      "inputs": [
        {
          "internalType": "address",
          "name": "_newValidator",
          "type": "address"
        }
      ],
      "name": "setValidator",
      "outputs": [],
      "stateMutability": "nonpayable",
      "type": "function"
    },
    {
      "inputs": [
        {
          "internalType": "bytes4",
          "name": "interfaceID",
          "type": "bytes4"
        }
      ],
      "name": "supportsInterface",
      "outputs": [
        {
          "internalType": "bool",
          "name": "",
          "type": "bool"
        }
      ],
      "stateMutability": "pure",
      "type": "function"
    },
    {
      "inputs": [
        {
          "internalType": "uint256",
          "name": "_externalNonce",
          "type": "uint256"
        },
        {
          "internalType": "bytes32",
          "name": "_originalChain",
          "type": "bytes32"
        },
        {
          "internalType": "bytes",
          "name": "_originalToken",
          "type": "bytes"
        },
        {
          "internalType": "bytes32",
          "name": "_initialChain",
          "type": "bytes32"
        },
        {
          "internalType": "bytes32",
          "name": "_targetChain",
          "type": "bytes32"
        },
        {
          "internalType": "uint256",
          "name": "_tokenId",
          "type": "uint256"
        },
        {
          "internalType": "uint256",
          "name": "_amount",
          "type": "uint256"
        },
        {
          "internalType": "bytes",
          "name": "_sender",
          "type": "bytes"
        },
        {
          "internalType": "bytes",
          "name": "_recipient",
          "type": "bytes"
        },
        {
          "internalType": "string",
          "name": "_tokenUri",
          "type": "string"
        }
      ],
      "name": "tranferFromOtherChain",
      "outputs": [],
      "stateMutability": "nonpayable",
      "type": "function"
    },
    {
      "inputs": [
        {
          "internalType": "address",
          "name": "_transferedToken",
          "type": "address"
        },
        {
          "internalType": "uint256",
          "name": "_tokenId",
          "type": "uint256"
        },
        {
          "internalType": "uint256",
          "name": "_amount",
          "type": "uint256"
        },
        {
          "internalType": "bytes32",
          "name": "_targetChain",
          "type": "bytes32"
        },
        {
          "internalType": "bytes",
          "name": "_recipient",
          "type": "bytes"
        }
      ],
      "name": "tranferToOtherChain",
      "outputs": [],
      "stateMutability": "nonpayable",
      "type": "function"
    },
    {
      "inputs": [],
      "name": "validator",
      "outputs": [
        {
          "internalType": "address",
          "name": "",
          "type": "address"
        }
      ],
      "stateMutability": "view",
      "type": "function"
    }
  ],
  "transactionHash": "0x7e1080119367c2da5a30830b9a03d066f4d3b67abea7a2f278bc76300d9f2afe",
  "args": [
    "0xf9b1779dd736d62f9a5815f9f11cb752f6342e8584a01f22e1b19b9a8cb5694e",
    false,
    [
      "0xc5a260213bed973cb2f8d4637aa3ef27b0571649e067f5604af98967165ee957",
      "0x88243e88525a258200bf5ca869571208956d07a0fa57c175fe0c198c7a0c5c26",
      "0x888ddba0dff61733aea9d240a62a83cee02ac4a5c8e58fbc448c21d3b250d4bb",
      "0x7319d77b282d06f1398943db85efac6f25008b7706c519a44e88de5e3c6f0a9e"
    ],
    "0x34eeE933003F604FF9D191D5C2e30a5cD6276e5B",
    "0xd74e8903131F56e6b20d806525ba958cE7B71F85"
  ],
  "numDeployments": 2,
  "solcInputHash": "5a536e8a3e5eb88c7b31a84afc067649",
  "bytecode": "0x604060808152346200019157620032c4803803806200001e81620001ac565b928339810160a0828203126200019157815191602080820151908115158092036200019157828601516001600160401b0390818111620001915784019480601f8701121562000191578551918211620001965760059582871b90848062000087818501620001ac565b809681520192820101928311620001915784809101915b838310620001805750505050620000c66080620000be60608701620001d2565b9501620001d2565b9343600855600196875560ff199360ff856003541691161760035560018060a01b038060018060a01b031992168260075416176007556000951690855416178455805194845b868110620001235788516130dc9081620001e88239f35b82518110156200016c5780821b830184015186526004845288862080548616891790556000198114620001585787016200010c565b634e487b7160e01b86526011600452602486fd5b634e487b7160e01b86526032600452602486fd5b82518152918101918591016200009e565b600080fd5b634e487b7160e01b600052604160045260246000fd5b6040519190601f01601f191682016001600160401b038111838210176200019657604052565b51906001600160a01b0382168203620001915756fe60c080604052600436101561001357600080fd5b600060a05260003560e01c90816301ffc9a714611b2957508063101c575a14611afe57806311921fad14611acb5780631327d3d814611a865780633a5381b514611a5d5780633da998fa14611a3d578063457322b9146112f157806348b4fa5814611a185780635d05125b146119f85780638d8fc87d146113c55780639a573d5d146113755780639d95a79214611332578063a0b498a4146112f1578063affed0e0146112d1578063b00a0be614611286578063bc197c81146111fb578063bd4aed311461119c578063dae5d0b014610c6f578063e3cd51e514610c10578063f23a6e6114610c19578063f7e03bad14610c10578063f7e04b1a146105b95763fdfc8b1914610122575b600080fd5b346103665760a03660031901126103665761013b611b7c565b6084356001600160401b0381116103665761015a903690600401611c6c565b9190604435156105745760643560a05152600460205261018260ff604060a051205416611dcd565b60018060a01b03821660a05152600560205260ff604060a05120541660015491600254916101af83611e25565b6002551561045657604051634c4f708d60e11b815260a051909590866004816001600160a01b0389165afa80156103595760a05196879161042f575b50948690604051906303a24d0760e21b82526024359182600482015260a0518160248160018060a01b0386165afa9081156103595760a0519161040e575b50986064351480610402575b1561036c576001600160a01b0381163b156103665760405191630762b29d60e21b8352336004840152306024840152604483015260443560648301528160848160a051809460018060a01b03165af1801561035957610343575b5061033a9260008051602061308783398151915296979261031c61032b935b6102f66102bb8a8a611d99565b9b60405192336020850152602084526102d384611bbb565b6040519b8c9b8c5260208c015260408b01526101408060608c01528a0190611f24565b9060643560808a015260243560a08a015260443560c08a015288820360e08a0152611f24565b91868303610100880152611f49565b90838203610120850152611f24565b0390a260a05180f35b61034c90611ba8565b60a051801561028f575b80fd5b6040513d60a051823e3d90fd5b60a05180fd5b906001600160a01b0382163b1561036657604051637a94c56560e11b815260a051336004830152602482019290925260448035908201529182908180606481015b60a051919003926001600160a01b03165af18015610359576103ed575b5061033a9260008051602061308783398151915296979261031c61032b936102ae565b6103f690611ba8565b60a05180156103ca5780fd5b5060ff60035416610235565b610429913d8091833e6104218183611bd6565b810190611ec1565b38610229565b905061044d91963d8091833e6104458183611bd6565b810190611ee6565b959095386101eb565b829493949360405160018060a01b03871660208201526020815261047981611bbb565b6040516303a24d0760e21b815260248035600483015260a051929792908290816001600160a01b038c165afa60a0519181610559575b5061055357506040518060208101106001600160401b0360208301111761053d576020810160405260a0518152965b6001600160a01b0381163b1561036657604051637921219560e11b815260a0805133600484015230602480850191909152356044808501919091523560648401526084830191909152600060a483015290918290818060c481016103ad565b634e487b7160e01b600052604160045260246000fd5b966104de565b61056d91923d8091833e6104218183611bd6565b90386104af565b60405162461bcd60e51b815260206004820152601a60248201527f427269646765455243313135353a20616d6f756e74203d3d20300000000000006044820152606490fd5b3461036657610140366003190112610366576044356001600160401b038111610366576105ea903690600401611c6c565b9060a4356001600160401b0381116103665761060a903690600401611c0e565b9060c4356001600160401b0381116103665761062a903690600401611c0e565b9260e4356001600160401b0381116103665761064a903690600401611c6c565b90610104356001600160401b0381116103665761066b903690600401611c6c565b9290966001600160401b03610124351161036657366023610124350112156103665761069d6101243560040135611bf7565b6106aa6040519182611bd6565b6101243560040135815260208101366024610124356004013560051b610124350101116103665760246101243501905b6024610124356004013560051b6101243501018210610bcd5750506106fe33611d3d565b61070a88511515611f6a565b6107178851835114611fc2565b60643560a05152600660205260a0516040812090600435905260205261074660ff604060a05120541615612167565b60643560a05152600660205260a05160408120906004359052602052604060a05120600160ff198254161790556001546107848160643514156121c3565b60643560a0515260046020526107a260ff604060a051205416612223565b608435036109c9576001600160a01b036107be8a87018b612304565b1690602435600154146000146108f857506001600160a01b036107e388880189612304565b1690813b156103665782610813928a604051809581948293631759616b60e11b845260a051973060048601612087565b039160a051905af18015610359576108e3575b507f0dc55e89b364f61875007b1fcb2ba8ba9009992fd7c1f4c01d3aa3074cbbaa9896979261033a94926108c06108ce935b6108b2610869606435600435611d99565b9c6108946040519c8d9c8d60043590528d60206024359101528d610120908160408201520191611f49565b9060643560608d015260843560808d01528b820360a08d0152612053565b9089820360c08b0152612053565b9187830360e0890152611f49565b91848303610100860152611f49565b60a05180f35b6108ec90611ba8565b60a05180156108265780fd5b906001600160a01b0361090e888a602435612367565b16918260a05152600560205260ff604060a051205416156109b6575b823b156103665761095892848b6040519586948593849363a55784ef60e01b855260a0519860048601612323565b039160a051905af18015610359576109a1575b507f0dc55e89b364f61875007b1fcb2ba8ba9009992fd7c1f4c01d3aa3074cbbaa9896979261033a94926108c06108ce93610858565b6109aa90611ba8565b60a051801561096b5780fd5b6109c3888a60243561242f565b5061092a565b959794969290916109de60ff60035416612283565b6001600160a01b036109f3898b602435612367565b168060a05152600560205260ff604060a05120541615610bba575b60843560243503610b2757803b1561036657604051631ac8311560e21b815260a051909182908180610a45898b30600485016120d5565b039160a051905af1801561035957610b12575b509361031c600080516020613067833981519152989794610aed610afb95610adf610a8d6101409b97610b0a9b5b3691611d06565b93610ac9610a9f606435600435611d99565b9f6040519e8f9e8f6004358152606435602082015260243560408201528160608201520191611f49565b60843560808e01528c810360a08e015290612053565b908a820360c08c0152612053565b9088820360e08a0152611f24565b9083820361012085015261210b565b0390a26108dd565b610b1b90611ba8565b60a0518015610a585780fd5b60243560643514610b65575b509361031c600080516020613067833981519152989794610aed610afb95610adf610a8d6101409b97610b0a9b610a86565b803b156103665760405163a55784ef60e01b815260a051909182908180610b928d8a8c3060048601612323565b039160a051905af180156103595715610b3357610bae90611ba8565b60a0518015610b335780fd5b610bc7898b60243561242f565b50610a0e565b81356001600160401b0381116103665761012435013660438201121561036657602091610c0583923690604460248201359101611d06565b8152019101906106da565b5061011d611cc9565b346103665760a036600319011261036657610c32611b7c565b50610c3b611b92565b506084356001600160401b03811161036657610c5b903690600401611c6c565b505060405163f23a6e6160e01b8152602090f35b3461036657610140366003190112610366576001600160401b0360443581811161036657610ca1903690600401611c6c565b9060e43583811161036657610cba903690600401611c6c565b92906101043585811161036657610cd5903690600401611c6c565b9190956101243590811161036657610cf1903690600401611c6c565b610cfa33611d3d565b60643560a05152600660205260a05160408120906004359052602052610d2960ff604060a05120541615612167565b60643560a05152600660205260a05160408120906004359052602052604060a05120600160ff19825416179055600154610d678160643514156121c3565b60643560a051526004602052610d8560ff604060a051205416612223565b60843503610fa5576001600160a01b03610da18986018a612304565b169060243560015414600014610ed6575090506001600160a01b03610dc886860187612304565b1690813b1561036657604051637921219560e11b815260a080513060048401526001600160a01b0393909316602483015260a48035604484015260c4803560648501526084840183905260009184019190915290519193849283915af1801561035957610ec1575b509461033a916108ce7f2959210af9c4a93bb19a5140a970cfd9164cf262bb889aadc9eedb099248082e96975b610e6b606435600435611d99565b98610e936040519889986004358a5260243560208b01526101208060408c01528a0191611f49565b916064356060890152608435608089015260a43560a089015260c43560c089015287830360e0890152611f49565b610eca90611ba8565b60a0518015610e305780fd5b6001600160a01b03610eeb8789602435612367565b168060a05152600560205260ff604060a05120541615610f92575b803b1561036657610f399360405180958194829363bb7fde7160e01b845260a0519760c4359060a43590600487016122d9565b039160a051905af1801561035957610f7d575b509461033a916108ce7f2959210af9c4a93bb19a5140a970cfd9164cf262bb889aadc9eedb099248082e9697610e5d565b610f8690611ba8565b60a0518015610f4c5780fd5b610f9f878960243561242f565b50610f06565b9295610fb960ff6003999493995416612283565b6001600160a01b03610fce8688602435612367565b168060a05152600560205260ff604060a05120541615611189575b608435602435036110ff57803b1561036657604051637a94c56560e11b815260a0805130600484015260a435602484015260c4356044840152905191929091839160649183915af18015610359576110ea575b50600080516020613087833981519152969792611062610b0a95936110db933691611d06565b986110cc611074606435600435611d99565b9a6110a66040519a8b9a6004358c5260643560208d015260243560408d015261014060608d01526101408c0191611f49565b9060843560808b015260a43560a08b015260c43560c08b015289820360e08b0152611f24565b91878303610100890152611f49565b91848303610120860152611f49565b6110f390611ba8565b60a051801561103c5780fd5b6024356064351461112f575b50600080516020613087833981519152969792611062610b0a95936110db93610a86565b803b156103665760405163bb7fde7160e01b815260a0519091829081806111618a8f60c43560a43530600487016122d9565b039160a051905af18015610359571561110b5761117d90611ba8565b60a051801561110b5780fd5b611196868860243561242f565b50610fe9565b34610366576080366003190112610366576024356001600160401b038111610366576111cc903690600401611c6c565b604435916001600160a01b038316830361011d576020926111f39260643592600435612576565b604051908152f35b346103665760a036600319011261036657611214611b7c565b5061121d611b92565b506001600160401b036044358181116103665761123e903690600401611c99565b505060643581811161036657611258903690600401611c99565b505060843590811161036657611272903690600401611c6c565b505060405163bc197c8160e01b8152602090f35b3461036657604036600319011261036657602435801515809103610366576112ad33611d3d565b60043560a05152600460205260a05190604082209060ff8019835416911617905580f35b346103665760a05180600319360112610356576020600254604051908152f35b34610366576020366003190112610366576001600160a01b03611312611b7c565b1660a051526005602052602060ff604060a0512054166040519015158152f35b346103665760403660031901126103665760043560a05152600660205260a05160408120906024359052602052602060ff604060a0512054166040519015158152f35b34610366576040366003190112610366576024356001600160401b038111610366576113b36113aa6020923690600401611c6c565b90600435612367565b6040516001600160a01b039091168152f35b346103665760a0366003190112610366576113de611b7c565b6024356001600160401b038111610366576113fd903690600401611c0e565b6044356001600160401b0381116103665761141c903690600401611c0e565b906084356001600160401b0381116103665761143c903690600401611c6c565b8251611449811515611f6a565b61145585518214611fc2565b60643560a05152600460205261147360ff604060a051205416611dcd565b60a0515b818110611980575060018060a01b03861660a05152600560205260ff604060a0512054169460015491600254966114ad88611e25565b60025560a051608052156117ee5750604051634c4f708d60e11b815260a051909590866004816001600160a01b038c165afa80156103595760a0519687916117cf575b5060805285976040516396d7e22960e01b81526020600482015260a051818061151c6024820187612053565b03816001600160a01b0386165afa9081156103595760a05191611700575b509660643514806116f4575b15611660576001600160a01b0381163b15610366576040516301a358df60e31b815233600482015230602482015260806044820152908161158a6084820185612053565b9160031982840301606483015281806115a660a0519589612053565b60a051919003926001600160a01b03165af180156103595761164b575b509361033a9361031c60209794610aed610afb95610adf6000805160206130678339815191529c9a5b6115f6858d611d99565b9e60405195338f8801528e875261160c87611bbb565b6040519e8f9e8f908152015260408d015261163560608d61014091829101528d01608051611f24565b60643560808e01528c810360a08e015290612053565b61165490611ba8565b60a05180156115c35780fd5b6001600160a01b0381163b1561036657604051631ac8311560e21b815260a051909182908180611695888833600485016120d5565b60a051919003926001600160a01b03165af18015610359576116df575b509361033a9361031c60209794610aed610afb95610adf6000805160206130678339815191529c9a6115ec565b6116e890611ba8565b60a05180156116b25780fd5b5060ff60035416611546565b903d8091833e6117108183611bd6565b6020828281010312610366578151916001600160401b03831161036657818101601f84830101121561036657828101519061174a82611bf7565b936117586040519586611bd6565b828552602085019084830160208560051b83860101011161036657602081840101915b60208560051b83860101018310611798575050505050508a61153a565b8251906001600160401b0382116103665760208092916117c28293838b8a0191888b010101611ea4565b815201930192905061177b565b90506117e591963d8091833e6104458183611bd6565b959095896114f0565b919593869795919360405160018060a01b03881660208201526020815261181481611bbb565b60805261182084611bf7565b9361182e6040519586611bd6565b808552601f1961183d82611bf7565b0160a0515b81811061196f5750508460a0515b8281106118e8575050506001600160a01b0387163b1561036657604051631759616b60e11b815260a0519097889081806118908a89303360048601612087565b60a051919003926001600160a01b03165af19283156103595760008051602061306783398151915298610aed61033a97610adf61031c9460209c610afb996118d9575b506115ec565b6118e290611ba8565b8f6118d3565b806118f66119339288612029565b51604051906303a24d0760e21b825260048201528b8160248160a0519360018060a01b03165afa60a0519181611954575b50611938575b50611e25565b611850565b6119428285612029565b5261194d8184612029565b508d61192d565b61196891923d8091833e6104218183611bd6565b908f611927565b806060602080938a01015201611842565b61198a8187612029565b511561199e5761199990611e25565b611477565b60405162461bcd60e51b815260206004820152602c60248201527f427269646765455243313135353a205f616d6f756e747320636f6e7461696e7360448201526b207a65726f2076616c75652160a01b6064820152608490fd5b346103665760a05180600319360112610356576020600854604051908152f35b346103665760a0518060031936011261035657602060ff600354166040519015158152f35b346103665760a05180600319360112610356576020600154604051908152f35b346103665760a0518060031936011261035657546040516001600160a01b039091168152602090f35b3461036657602036600319011261036657611a9f611b7c565b611aa833611d3d565b60a05180546001600160a01b0319166001600160a01b0390921691909117815580f35b346103665760203660031901126103665760043560a051526004602052602060ff604060a0512054166040519015158152f35b346103665760a05180600319360112610356576007546040516001600160a01b039091168152602090f35b3461011d57602036600319011261011d576004359063ffffffff60e01b821680920361011d576020916301ffc9a760e01b8114908115611b6b575b5015158152f35b630271189760e51b14905083611b64565b600435906001600160a01b038216820361011d57565b602435906001600160a01b038216820361011d57565b6001600160401b03811161053d57604052565b604081019081106001600160401b0382111761053d57604052565b90601f801991011681019081106001600160401b0382111761053d57604052565b6001600160401b03811161053d5760051b60200190565b81601f8201121561011d57803591611c2583611bf7565b92611c336040519485611bd6565b808452602092838086019260051b82010192831161011d578301905b828210611c5d575050505090565b81358152908301908301611c4f565b9181601f8401121561011d578235916001600160401b03831161011d576020838186019501011161011d57565b9181601f8401121561011d578235916001600160401b03831161011d576020808501948460051b01011161011d57565b503461011d57604036600319011261011d5760206111f3602435600435611d99565b6001600160401b03811161053d57601f01601f191660200190565b929192611d1282611ceb565b91611d206040519384611bd6565b82948184528183011161011d578281602093846000960137010152565b6000546001600160a01b03908116911603611d5457565b60405162461bcd60e51b815260206004820152601e60248201527f427269646765455243313135353a204f6e6c792076616c696461746f722100006044820152606490fd5b906040519060208201928352604082015260408152606081018181106001600160401b0382111761053d5760405251902090565b15611dd457565b60405162461bcd60e51b815260206004820152602360248201527f427269646765455243313135353a20636861696e206e6f7420726567697374656044820152621c995960ea1b6064820152608490fd5b6000198114611e345760010190565b634e487b7160e01b600052601160045260246000fd5b60005b838110611e5d5750506000910152565b8181015183820152602001611e4d565b90929192611e7a81611ceb565b91611e886040519384611bd6565b82948284528282011161011d576020611ea2930190611e4a565b565b9080601f8301121561011d578151611ebe92602001611e6d565b90565b9060208282031261011d5781516001600160401b03811161011d57611ebe9201611ea4565b919060408382031261011d578251926020810151906001600160401b03821161011d57019080601f8301121561011d578151611ebe92602001611e6d565b90602091611f3d81518092818552858086019101611e4a565b601f01601f1916010190565b908060209392818452848401376000828201840152601f01601f1916010190565b15611f7157565b60405162461bcd60e51b8152602060048201526024808201527f427269646765455243313135353a205f746f6b656e4964732e6c656e6774682060448201526303d3d20360e41b6064820152608490fd5b15611fc957565b60405162461bcd60e51b815260206004820152603260248201527f427269646765455243313135353a205f746f6b656e4964732e6c656e677468206044820152710427a40bec2dadeeadce8e65cd8cadccee8d60731b6064820152608490fd5b805182101561203d5760209160051b010190565b634e487b7160e01b600052603260045260246000fd5b90815180825260208080930193019160005b828110612073575050505090565b835185529381019392810192600101612065565b926120b690602095926120c49460018060a01b038092168752168686015260a0604086015260a0850190612053565b908382036060850152612053565b906080818303910152600081520190565b6001600160a01b039091168152606060208201819052611ebe9391926120fd91840190612053565b916040818403910152612053565b908082519081815260208091019281808460051b8301019501936000915b8483106121395750505050505090565b9091929394958480612157600193601f198682030187528a51611f24565b9801930193019194939290612129565b1561216e57565b60405162461bcd60e51b815260206004820152602760248201527f427269646765455243313135353a206e6f6e636520616c7265616479207265676044820152661a5cdd195c995960ca1b6064820152608490fd5b156121ca57565b60405162461bcd60e51b815260206004820152602b60248201527f427269646765455243313135353a20696e697469616c436861696e203d3d206360448201526a3ab93932b73a21b430b4b760a91b6064820152608490fd5b1561222a57565b60405162461bcd60e51b815260206004820152602b60248201527f427269646765455243313135353a20496e697469616c20636861696e206e6f7460448201526a081c9959da5cdd195c995960aa1b6064820152608490fd5b1561228a57565b60405162461bcd60e51b815260206004820152602160248201527f427269646765455243313135353a204f6e6c792070726f7879206272696467656044820152602160f81b6064820152608490fd5b9092608092611ebe969460018060a01b03168352602083015260408201528160608201520191611f49565b9081602091031261011d57356001600160a01b038116810361011d5790565b9261234b611ebe95936123599360018060a01b03168652608060208701526080860190612053565b908482036040860152612053565b91606081840391015261210b565b9190916040916123988380518381946020988984019788528484013781016000838201520386810184520182611bd6565b519020906104d181516123ad85830182611bd6565b818152848101916126c583396123e085845180936123d383830196879251928391611e4a565b8101038084520182611bd6565b51902081519384019260ff60f81b84523060601b6021860152603585015260558401526055835260808301908382106001600160401b0383111761053d5752905190206001600160a01b031690565b91906040918251916020830160009386825283838783013761246286828681018883820152036020810184520182611bd6565b51902084516104d1808201908282106001600160401b0383111761256257908291612b968339039085f5948515612558576124df906124d160018060a01b0380981697600754169387519586936366e7990d60e01b602086015260248501528860448501526064840191611f49565b03601f198101845283611bd6565b843b15612554576125129183918551938492839263c0d91eaf60e01b845260048401528760248401526044830190611f24565b038183885af1801561254a5761253b575b50828152600560205220805460ff1916600117905590565b61254490611ba8565b38612523565b83513d84823e3d90fd5b8280fd5b84513d85823e3d90fd5b634e487b7160e01b87526041600452602487fd5b91908260015414612632576001600160a01b0392612595929190612367565b1690600092828452600560205260ff6040852054161561262c57604051627eeac760e11b81526001600160a01b03929092166004830152602482015290602090829060449082905afa9182156126205780926125f057505090565b9091506020823d8211612618575b8161260b60209383611bd6565b8101031261035657505190565b3d91506125fe565b604051903d90823e3d90fd5b50505090565b61268a94602094909350916001600160a01b039161265291810190612304565b604051627eeac760e11b81526001600160a01b0390931660048401526024830193909352909384929190911690829081906044820190565b03915afa9081156126b8576000916126a0575090565b906020823d8211612618578161260b60209383611bd6565b6040513d6000823e3d90fdfe60808060405234610016576104b5908161001c8239f35b600080fdfe6080604052600436101561002c575b361561001f575b61001d610147565b005b610027610147565b610015565b6000803560e01c63c0d91eaf14610043575061000e565b346100cf5760403660031901126100cf576004356001600160a01b03811681036100c75760243567ffffffffffffffff81116100cb57366023820112156100cb578060040135918361009c6100978561011c565b6100e9565b9284845236602486830101116100c757846100c4956024602093018387013784010152610194565b80f35b5080fd5b8280fd5b80fd5b50634e487b7160e01b600052604160045260246000fd5b6040519190601f01601f1916820167ffffffffffffffff81118382101761010f57604052565b6101176100d2565b604052565b60209067ffffffffffffffff811161013a575b601f01601f19160190565b6101426100d2565b61012f565b507f360894a13ba1a3210667c828492db98dca3e2076cc3735a920a3ca505d382bbc54600090819081906001600160a01b0316368280378136915af43d82803e15610190573d90f35b3d90fd5b60ff600054166102aa57803b1561024f577f360894a13ba1a3210667c828492db98dca3e2076cc3735a920a3ca505d382bbc80546001600160a01b0319166001600160a01b0383169081179091557fbc7cd75a20ee27fd9adebab32041f755214dbc6bffa90cc0225b39da2e5c2d3b600080a2815115801590610247575b61022d575b505061022b600160ff196000541617600055565b565b61023f916102396102f9565b91610361565b503880610217565b506000610212565b60405162461bcd60e51b815260206004820152602d60248201527f455243313936373a206e657720696d706c656d656e746174696f6e206973206e60448201526c1bdd08184818dbdb9d1c9858dd609a1b6064820152608490fd5b60405162461bcd60e51b815260206004820152602160248201527f4552433139363750726f7879437265617465323a20616c726561647920696e696044820152601d60fa1b6064820152608490fd5b604051906060820182811067ffffffffffffffff821117610354575b60405260278252660819985a5b195960ca1b6040837f416464726573733a206c6f772d6c6576656c2064656c65676174652063616c6c60208201520152565b61035c6100d2565b610315565b6000806103969493602081519101845af43d15610399573d916103866100978461011c565b9283523d6000602085013e6103ed565b90565b6060916103ed565b156103a857565b60405162461bcd60e51b815260206004820152601d60248201527f416464726573733a2063616c6c20746f206e6f6e2d636f6e74726163740000006044820152606490fd5b9192901561040d5750815115610401575090565b610396903b15156103a1565b8251909150156104205750805190602001fd5b6040519062461bcd60e51b82528160208060048301528251908160248401526000935b828510610466575050604492506000838284010152601f80199101168101030190fd5b848101820151868601604401529381019385935061044356fea26469706673582212204dde7cc5adcf980b8e42581204cfa621f554155a4614ece46fe895090c92f2d464736f6c6343000811003360808060405234610016576104b5908161001c8239f35b600080fdfe6080604052600436101561002c575b361561001f575b61001d610147565b005b610027610147565b610015565b6000803560e01c63c0d91eaf14610043575061000e565b346100cf5760403660031901126100cf576004356001600160a01b03811681036100c75760243567ffffffffffffffff81116100cb57366023820112156100cb578060040135918361009c6100978561011c565b6100e9565b9284845236602486830101116100c757846100c4956024602093018387013784010152610194565b80f35b5080fd5b8280fd5b80fd5b50634e487b7160e01b600052604160045260246000fd5b6040519190601f01601f1916820167ffffffffffffffff81118382101761010f57604052565b6101176100d2565b604052565b60209067ffffffffffffffff811161013a575b601f01601f19160190565b6101426100d2565b61012f565b507f360894a13ba1a3210667c828492db98dca3e2076cc3735a920a3ca505d382bbc54600090819081906001600160a01b0316368280378136915af43d82803e15610190573d90f35b3d90fd5b60ff600054166102aa57803b1561024f577f360894a13ba1a3210667c828492db98dca3e2076cc3735a920a3ca505d382bbc80546001600160a01b0319166001600160a01b0383169081179091557fbc7cd75a20ee27fd9adebab32041f755214dbc6bffa90cc0225b39da2e5c2d3b600080a2815115801590610247575b61022d575b505061022b600160ff196000541617600055565b565b61023f916102396102f9565b91610361565b503880610217565b506000610212565b60405162461bcd60e51b815260206004820152602d60248201527f455243313936373a206e657720696d706c656d656e746174696f6e206973206e60448201526c1bdd08184818dbdb9d1c9858dd609a1b6064820152608490fd5b60405162461bcd60e51b815260206004820152602160248201527f4552433139363750726f7879437265617465323a20616c726561647920696e696044820152601d60fa1b6064820152608490fd5b604051906060820182811067ffffffffffffffff821117610354575b60405260278252660819985a5b195960ca1b6040837f416464726573733a206c6f772d6c6576656c2064656c65676174652063616c6c60208201520152565b61035c6100d2565b610315565b6000806103969493602081519101845af43d15610399573d916103866100978461011c565b9283523d6000602085013e6103ed565b90565b6060916103ed565b156103a857565b60405162461bcd60e51b815260206004820152601d60248201527f416464726573733a2063616c6c20746f206e6f6e2d636f6e74726163740000006044820152606490fd5b9192901561040d5750815115610401575090565b610396903b15156103a1565b8251909150156104205750805190602001fd5b6040519062461bcd60e51b82528160208060048301528251908160248401526000935b828510610466575050604492506000838284010152601f80199101168101030190fd5b848101820151868601604401529381019385935061044356fea26469706673582212204dde7cc5adcf980b8e42581204cfa621f554155a4614ece46fe895090c92f2d464736f6c63430008110033adcc33377c46a944a11f2f21ebf55753879ce3f00eca225c64b49a2b67c72315ec326f0b996a82b006d5da2d3f70e1f9e06fa32e9c23dcf9547796e1f64dddb6a264697066735822122006674b807fbca0367ac0e1a5ba0712a07db9ba79fdc1bf02c2c45242f806e6be64736f6c63430008110033",
  "devdoc": {
    "kind": "dev",
    "methods": {
      "onERC1155BatchReceived(address,address,uint256[],uint256[],bytes)": {
        "details": "Handles the receipt of a multiple ERC1155 token types. This function is called at the end of a `safeBatchTransferFrom` after the balances have been updated. NOTE: To accept the transfer(s), this must return `bytes4(keccak256(\"onERC1155BatchReceived(address,address,uint256[],uint256[],bytes)\"))` (i.e. 0xbc197c81, or its own function selector).",
        "params": {
          "data": "Additional data with no specified format",
          "from": "The address which previously owned the token",
          "ids": "An array containing ids of each token being transferred (order and length must match values array)",
          "operator": "The address which initiated the batch transfer (i.e. msg.sender)",
          "values": "An array containing amounts of each token being transferred (order and length must match ids array)"
        },
        "returns": {
          "_0": "`bytes4(keccak256(\"onERC1155BatchReceived(address,address,uint256[],uint256[],bytes)\"))` if transfer is allowed"
        }
      },
      "onERC1155Received(address,address,uint256,uint256,bytes)": {
        "details": "Handles the receipt of a single ERC1155 token type. This function is called at the end of a `safeTransferFrom` after the balance has been updated. NOTE: To accept the transfer, this must return `bytes4(keccak256(\"onERC1155Received(address,address,uint256,uint256,bytes)\"))` (i.e. 0xf23a6e61, or its own function selector).",
        "params": {
          "data": "Additional data with no specified format",
          "from": "The address which previously owned the token",
          "id": "The ID of the token being transferred",
          "operator": "The address which initiated the transfer (i.e. msg.sender)",
          "value": "The amount of tokens being transferred"
        },
        "returns": {
          "_0": "`bytes4(keccak256(\"onERC1155Received(address,address,uint256,uint256,bytes)\"))` if transfer is allowed"
        }
      }
    },
    "version": 1
  },
  "userdoc": {
    "kind": "user",
    "methods": {},
    "version": 1
  },
  "storageLayout": {
    "storage": [
      {
        "astId": 983,
        "contract": "contracts/BridgeERC1155.sol:BridgeERC1155",
        "label": "validator",
        "offset": 0,
        "slot": "0",
        "type": "t_address"
      },
      {
        "astId": 985,
        "contract": "contracts/BridgeERC1155.sol:BridgeERC1155",
        "label": "currentChain",
        "offset": 0,
        "slot": "1",
        "type": "t_bytes32"
      },
      {
        "astId": 987,
        "contract": "contracts/BridgeERC1155.sol:BridgeERC1155",
        "label": "nonce",
        "offset": 0,
        "slot": "2",
        "type": "t_uint256"
      },
      {
        "astId": 989,
        "contract": "contracts/BridgeERC1155.sol:BridgeERC1155",
        "label": "isProxyChain",
        "offset": 0,
        "slot": "3",
        "type": "t_bool"
      },
      {
        "astId": 993,
        "contract": "contracts/BridgeERC1155.sol:BridgeERC1155",
        "label": "registeredChains",
        "offset": 0,
        "slot": "4",
        "type": "t_mapping(t_bytes32,t_bool)"
      },
      {
        "astId": 997,
        "contract": "contracts/BridgeERC1155.sol:BridgeERC1155",
        "label": "issuedTokens",
        "offset": 0,
        "slot": "5",
        "type": "t_mapping(t_address,t_bool)"
      },
      {
        "astId": 1003,
        "contract": "contracts/BridgeERC1155.sol:BridgeERC1155",
        "label": "registeredNonces",
        "offset": 0,
        "slot": "6",
        "type": "t_mapping(t_bytes32,t_mapping(t_uint256,t_bool))"
      },
      {
        "astId": 1005,
        "contract": "contracts/BridgeERC1155.sol:BridgeERC1155",
        "label": "issuedTokenImplementation",
        "offset": 0,
        "slot": "7",
        "type": "t_address"
      },
      {
        "astId": 1007,
        "contract": "contracts/BridgeERC1155.sol:BridgeERC1155",
        "label": "initBlock",
        "offset": 0,
        "slot": "8",
        "type": "t_uint256"
      }
    ],
    "types": {
      "t_address": {
        "encoding": "inplace",
        "label": "address",
        "numberOfBytes": "20"
      },
      "t_bool": {
        "encoding": "inplace",
        "label": "bool",
        "numberOfBytes": "1"
      },
      "t_bytes32": {
        "encoding": "inplace",
        "label": "bytes32",
        "numberOfBytes": "32"
      },
      "t_mapping(t_address,t_bool)": {
        "encoding": "mapping",
        "key": "t_address",
        "label": "mapping(address => bool)",
        "numberOfBytes": "32",
        "value": "t_bool"
      },
      "t_mapping(t_bytes32,t_bool)": {
        "encoding": "mapping",
        "key": "t_bytes32",
        "label": "mapping(bytes32 => bool)",
        "numberOfBytes": "32",
        "value": "t_bool"
      },
      "t_mapping(t_bytes32,t_mapping(t_uint256,t_bool))": {
        "encoding": "mapping",
        "key": "t_bytes32",
        "label": "mapping(bytes32 => mapping(uint256 => bool))",
        "numberOfBytes": "32",
        "value": "t_mapping(t_uint256,t_bool)"
      },
      "t_mapping(t_uint256,t_bool)": {
        "encoding": "mapping",
        "key": "t_uint256",
        "label": "mapping(uint256 => bool)",
        "numberOfBytes": "32",
        "value": "t_bool"
      },
      "t_uint256": {
        "encoding": "inplace",
        "label": "uint256",
        "numberOfBytes": "32"
      }
    }
  }
}