{
  "address": "0x602AC8d56Fc88d90Fe24D8F12348e02E9Fe8d575",
  "abi": [
    {
      "inputs": [
        {
          "internalType": "bytes32",
          "name": "_currentChain",
          "type": "bytes32"
        },
        {
          "internalType": "bool",
          "name": "_isProxyChain",
          "type": "bool"
        },
        {
          "internalType": "bytes32[]",
          "name": "_registeredChains",
          "type": "bytes32[]"
        },
        {
          "internalType": "address",
          "name": "_issuedTokenImplementation",
          "type": "address"
        },
        {
          "internalType": "address",
          "name": "_validator",
          "type": "address"
        }
      ],
      "stateMutability": "nonpayable",
      "type": "constructor"
    },
    {
      "anonymous": false,
      "inputs": [
        {
          "indexed": true,
          "internalType": "bytes32",
          "name": "transferId",
          "type": "bytes32"
        },
        {
          "indexed": false,
          "internalType": "uint256",
          "name": "externalNonce",
          "type": "uint256"
        },
        {
          "indexed": false,
          "internalType": "bytes32",
          "name": "originalChain",
          "type": "bytes32"
        },
        {
          "indexed": false,
          "internalType": "bytes",
          "name": "originalToken",
          "type": "bytes"
        },
        {
          "indexed": false,
          "internalType": "bytes32",
          "name": "initialChain",
          "type": "bytes32"
        },
        {
          "indexed": false,
          "internalType": "bytes32",
          "name": "targetChain",
          "type": "bytes32"
        },
        {
          "indexed": false,
          "internalType": "uint256",
          "name": "tokenId",
          "type": "uint256"
        },
        {
          "indexed": false,
          "internalType": "bytes",
          "name": "sender",
          "type": "bytes"
        },
        {
          "indexed": false,
          "internalType": "bytes",
          "name": "recipient",
          "type": "bytes"
        }
      ],
      "name": "TransferFromOtherChain",
      "type": "event"
    },
    {
      "anonymous": false,
      "inputs": [
        {
          "indexed": true,
          "internalType": "bytes32",
          "name": "transferId",
          "type": "bytes32"
        },
        {
          "indexed": false,
          "internalType": "uint256",
          "name": "nonce",
          "type": "uint256"
        },
        {
          "indexed": false,
          "internalType": "bytes32",
          "name": "initialChain",
          "type": "bytes32"
        },
        {
          "indexed": false,
          "internalType": "bytes32",
          "name": "originalChain",
          "type": "bytes32"
        },
        {
          "indexed": false,
          "internalType": "bytes",
          "name": "originalTokenAddress",
          "type": "bytes"
        },
        {
          "indexed": false,
          "internalType": "bytes32",
          "name": "targetChain",
          "type": "bytes32"
        },
        {
          "indexed": false,
          "internalType": "uint256",
          "name": "tokenId",
          "type": "uint256"
        },
        {
          "indexed": false,
          "internalType": "bytes",
          "name": "sender",
          "type": "bytes"
        },
        {
          "indexed": false,
          "internalType": "bytes",
          "name": "recipient",
          "type": "bytes"
        },
        {
          "indexed": false,
          "internalType": "string",
          "name": "tokenName",
          "type": "string"
        },
        {
          "indexed": false,
          "internalType": "string",
          "name": "tokenSymbol",
          "type": "string"
        }
      ],
      "name": "TransferToOtherChain",
      "type": "event"
    },
    {
      "inputs": [
        {
          "internalType": "bytes32",
          "name": "_originalChain",
          "type": "bytes32"
        },
        {
          "internalType": "bytes",
          "name": "_originalToken",
          "type": "bytes"
        },
        {
          "internalType": "address",
          "name": "_account",
          "type": "address"
        }
      ],
      "name": "balances",
      "outputs": [
        {
          "internalType": "uint256",
          "name": "",
          "type": "uint256"
        }
      ],
      "stateMutability": "view",
      "type": "function"
    },
    {
      "inputs": [],
      "name": "currentChain",
      "outputs": [
        {
          "internalType": "bytes32",
          "name": "",
          "type": "bytes32"
        }
      ],
      "stateMutability": "view",
      "type": "function"
    },
    {
      "inputs": [
        {
          "internalType": "bytes32",
          "name": "_originalChain",
          "type": "bytes32"
        },
        {
          "internalType": "bytes",
          "name": "_originalToken",
          "type": "bytes"
        }
      ],
      "name": "getIssuedTokenAddress",
      "outputs": [
        {
          "internalType": "address",
          "name": "",
          "type": "address"
        }
      ],
      "stateMutability": "view",
      "type": "function"
    },
    {
      "inputs": [
        {
          "internalType": "uint256",
          "name": "_nonce",
          "type": "uint256"
        },
        {
          "internalType": "bytes32",
          "name": "_initialChain",
          "type": "bytes32"
        }
      ],
      "name": "getTranferId",
      "outputs": [
        {
          "internalType": "bytes32",
          "name": "",
          "type": "bytes32"
        }
      ],
      "stateMutability": "pure",
      "type": "function"
    },
    {
      "inputs": [
        {
          "internalType": "uint256",
          "name": "_nonce",
          "type": "uint256"
        },
        {
          "internalType": "bytes32",
          "name": "_initialChain",
          "type": "bytes32"
        }
      ],
      "name": "getTransferId",
      "outputs": [
        {
          "internalType": "bytes32",
          "name": "",
          "type": "bytes32"
        }
      ],
      "stateMutability": "pure",
      "type": "function"
    },
    {
      "inputs": [],
      "name": "initBlock",
      "outputs": [
        {
          "internalType": "uint256",
          "name": "",
          "type": "uint256"
        }
      ],
      "stateMutability": "view",
      "type": "function"
    },
    {
      "inputs": [
        {
          "internalType": "address",
          "name": "_issuedToken",
          "type": "address"
        }
      ],
      "name": "isIssuedTokenPublished",
      "outputs": [
        {
          "internalType": "bool",
          "name": "",
          "type": "bool"
        }
      ],
      "stateMutability": "view",
      "type": "function"
    },
    {
      "inputs": [],
      "name": "isProxyChain",
      "outputs": [
        {
          "internalType": "bool",
          "name": "",
          "type": "bool"
        }
      ],
      "stateMutability": "view",
      "type": "function"
    },
    {
      "inputs": [],
      "name": "issuedTokenImplementation",
      "outputs": [
        {
          "internalType": "address",
          "name": "",
          "type": "address"
        }
      ],
      "stateMutability": "view",
      "type": "function"
    },
    {
      "inputs": [
        {
          "internalType": "address",
          "name": "",
          "type": "address"
        }
      ],
      "name": "issuedTokens",
      "outputs": [
        {
          "internalType": "bool",
          "name": "",
          "type": "bool"
        }
      ],
      "stateMutability": "view",
      "type": "function"
    },
    {
      "inputs": [],
      "name": "nonce",
      "outputs": [
        {
          "internalType": "uint256",
          "name": "",
          "type": "uint256"
        }
      ],
      "stateMutability": "view",
      "type": "function"
    },
    {
      "inputs": [
        {
          "internalType": "address",
          "name": "_operator",
          "type": "address"
        },
        {
          "internalType": "address",
          "name": "_from",
          "type": "address"
        },
        {
          "internalType": "uint256",
          "name": "_tokenId",
          "type": "uint256"
        },
        {
          "internalType": "bytes",
          "name": "_data",
          "type": "bytes"
        }
      ],
      "name": "onERC721Received",
      "outputs": [
        {
          "internalType": "bytes4",
          "name": "",
          "type": "bytes4"
        }
      ],
      "stateMutability": "pure",
      "type": "function"
    },
    {
      "inputs": [
        {
          "internalType": "bytes32",
          "name": "",
          "type": "bytes32"
        }
      ],
      "name": "registeredChains",
      "outputs": [
        {
          "internalType": "bool",
          "name": "",
          "type": "bool"
        }
      ],
      "stateMutability": "view",
      "type": "function"
    },
    {
      "inputs": [
        {
          "internalType": "bytes32",
          "name": "",
          "type": "bytes32"
        },
        {
          "internalType": "uint256",
          "name": "",
          "type": "uint256"
        }
      ],
      "name": "registeredNonces",
      "outputs": [
        {
          "internalType": "bool",
          "name": "",
          "type": "bool"
        }
      ],
      "stateMutability": "view",
      "type": "function"
    },
    {
      "inputs": [
        {
          "internalType": "bytes32",
          "name": "_chain",
          "type": "bytes32"
        },
        {
          "internalType": "bool",
          "name": "_value",
          "type": "bool"
        }
      ],
      "name": "setChainRegister",
      "outputs": [],
      "stateMutability": "nonpayable",
      "type": "function"
    },
    {
      "inputs": [
        {
          "internalType": "address",
          "name": "_newValidator",
          "type": "address"
        }
      ],
      "name": "setValidator",
      "outputs": [],
      "stateMutability": "nonpayable",
      "type": "function"
    },
    {
      "inputs": [
        {
          "internalType": "uint256",
          "name": "_externalNonce",
          "type": "uint256"
        },
        {
          "internalType": "bytes32",
          "name": "_originalChain",
          "type": "bytes32"
        },
        {
          "internalType": "bytes",
          "name": "_originalToken",
          "type": "bytes"
        },
        {
          "internalType": "bytes32",
          "name": "_initialChain",
          "type": "bytes32"
        },
        {
          "internalType": "bytes32",
          "name": "_targetChain",
          "type": "bytes32"
        },
        {
          "internalType": "uint256",
          "name": "_tokenId",
          "type": "uint256"
        },
        {
          "internalType": "bytes",
          "name": "_sender",
          "type": "bytes"
        },
        {
          "internalType": "bytes",
          "name": "_recipient",
          "type": "bytes"
        },
        {
          "components": [
            {
              "internalType": "string",
              "name": "name",
              "type": "string"
            },
            {
              "internalType": "string",
              "name": "symbol",
              "type": "string"
            }
          ],
          "internalType": "struct BridgeERC721.TokenInfo",
          "name": "_tokenInfo",
          "type": "tuple"
        }
      ],
      "name": "tranferFromOtherChain",
      "outputs": [],
      "stateMutability": "nonpayable",
      "type": "function"
    },
    {
      "inputs": [
        {
          "internalType": "address",
          "name": "_transferedToken",
          "type": "address"
        },
        {
          "internalType": "uint256",
          "name": "_tokenId",
          "type": "uint256"
        },
        {
          "internalType": "bytes32",
          "name": "_targetChain",
          "type": "bytes32"
        },
        {
          "internalType": "bytes",
          "name": "_recipient",
          "type": "bytes"
        }
      ],
      "name": "tranferToOtherChain",
      "outputs": [],
      "stateMutability": "nonpayable",
      "type": "function"
    },
    {
      "inputs": [],
      "name": "validator",
      "outputs": [
        {
          "internalType": "address",
          "name": "",
          "type": "address"
        }
      ],
      "stateMutability": "view",
      "type": "function"
    }
  ],
  "transactionHash": "0x7ce84d8c3fab200a2c7f3d25db167e77dcb99db43bf9c10cac4a6c4d634ee5fe",
  "args": [
    "0xf9b1779dd736d62f9a5815f9f11cb752f6342e8584a01f22e1b19b9a8cb5694e",
    false,
    [
      "0xc5a260213bed973cb2f8d4637aa3ef27b0571649e067f5604af98967165ee957",
      "0x88243e88525a258200bf5ca869571208956d07a0fa57c175fe0c198c7a0c5c26",
      "0x888ddba0dff61733aea9d240a62a83cee02ac4a5c8e58fbc448c21d3b250d4bb",
      "0x7319d77b282d06f1398943db85efac6f25008b7706c519a44e88de5e3c6f0a9e"
    ],
    "0xa2238a2160d44fbf2E53B4AED998Db5148b23EA5",
    "0xd74e8903131F56e6b20d806525ba958cE7B71F85"
  ],
  "numDeployments": 2,
  "solcInputHash": "d20b48e94a7cc765be5a22fd4c193467",
  "bytecode": "0x60406080815234620001915762002114803803806200001e81620001ac565b928339810160a0828203126200019157815191602080820151908115158092036200019157828601516001600160401b0390818111620001915784019480601f8701121562000191578551918211620001965760059582871b90848062000087818501620001ac565b809681520192820101928311620001915784809101915b838310620001805750505050620000c66080620000be60608701620001d2565b9501620001d2565b9343600855600196875560ff199360ff856003541691161760035560018060a01b038060018060a01b031992168260075416176007556000951690855416178455805194845b86811062000123578851611f2c9081620001e88239f35b82518110156200016c5780821b830184015186526004845288862080548616891790556000198114620001585787016200010c565b634e487b7160e01b86526011600452602486fd5b634e487b7160e01b86526032600452602486fd5b82518152918101918591016200009e565b600080fd5b634e487b7160e01b600052604160045260246000fd5b6040519190601f01601f191682016001600160401b038111838210176200019657604052565b51906001600160a01b0382168203620001915756fe608080604052600436101561001357600080fd5b6000803560e01c9182630c1ab73014610aa657508163101c575a14610a7e57816311921fad14610a505781631327d3d814610a10578163150b7a02146109b157816328177228146109565781633a5381b5146109305781633da998fa14610913578163457322b91461080e57816348b4fa58146108f15781635d05125b146108d45781639a573d5d146108845781639d95a7921461084c578163a0b498a41461080e578163affed0e0146107f1578163b00a0be6146107ac578163deddb93c1461010457508063e3cd51e5146100fb5763f7e03bad146100f3575b600080fd5b6100ee610f5c565b506100ee610f5c565b346107a957600319610120368201126107a5576001600160401b03906044358281116105ae57610138903690600401610f2f565b60c4358481116107a157610150903690600401610f2f565b949060e43582811161079d5761016a903690600401610f2f565b959092610104351161079d5760409061010435360301126103395761018e33610f7e565b6064358752600660205260408720600435885260205260ff604088205416610749576064358752600660205260408720600435885260205260408720600160ff1982541617905560015480606435146106f1576064358852600460205260ff60408920541615610699576084350361042057866001600160a01b03610215848801856111bd565b166024356001541460001461034c576001600160a01b03610238878701886111bd565b16803b1561034857604051632142170760e11b81523060048201526001600160a01b0392909216602483015260a435604483015282908290606490829084905af1801561033d57610321575b5050907f93ed05a8c697097712ecd9a75d512ed9bd401c4d006f5050685cfe71a6371a259461030d61031b935b6102bf60643560043561105a565b986102e76040519889986004358a5260243560208b01526101008060408c01528a019161116a565b916064356060890152608435608089015260a43560a089015287830360c089015261116a565b9184830360e086015261116a565b0390a280f35b61032d90939293610fda565b61033957908688610284565b8680fd5b6040513d84823e3d90fd5b8280fd5b6001600160a01b0361036186886024356111dc565b16808352600560205260ff60408420541615610406575b803b15610348576040516340c10f1960e01b81526001600160a01b0392909216600483015260a435602483015282908290604490829084905af1801561033d576103ee575b5050907f93ed05a8c697097712ecd9a75d512ed9bd401c4d006f5050685cfe71a6371a259461030d61031b936102b1565b6103fa90939293610fda565b610339579086886103bd565b61041a6101043560040187896024356112a4565b50610378565b909460ff60035416156106555786916001600160a01b0361044485876024356111dc565b16808452600560205260ff6040852054161561063b575b608435602435036105d157803b156105ae57838091602460405180948193630852cd8d60e31b835260a43560048401525af19081156105c65784916105b2575b50505b6104a78261108e565b916104b56040519384611039565b80835236818301116105ae577f15df3afa97c0595fdf464d97e786a4abd28c060186309d1ff13284f5b7efbdca9661031b9460208361059f9461058296838901378601015261053161059061050e60643560043561105a565b9a6101043560040193610521858061118b565b949095602461010435019061118b565b9790986105646040519d8e9d8e60043581526064356020820152602435604082015261014090816060820152019161116a565b60843560808e015260a43560a08e01528c810360c08e015290611145565b918a830360e08c015261116a565b9187830361010089015261116a565b9184830361012086015261116a565b8380fd5b6105bb90610fda565b61034857828961049b565b6040513d86823e3d90fd5b602435606435146105e3575b5061049e565b803b156105ae576040516340c10f1960e01b815230600482015260a43560248201529084908290604490829084905af19081156105c6578491610627575b506105dd565b61063090610fda565b610348578289610621565b61064f6101043560040186886024356112a4565b5061045b565b606460405162461bcd60e51b815260206004820152602060248201527f4272696467654552433732313a204f6e6c792070726f787920627269646765216044820152fd5b60405162461bcd60e51b815260206004820152602a60248201527f4272696467654552433732313a20496e697469616c20636861696e206e6f74206044820152691c9959da5cdd195c995960b21b6064820152608490fd5b60405162461bcd60e51b815260206004820152602a60248201527f4272696467654552433732313a20696e697469616c436861696e203d3d206375604482015269393932b73a21b430b4b760b11b6064820152608490fd5b60405162461bcd60e51b815260206004820152602660248201527f4272696467654552433732313a206e6f6e636520616c726561647920726567696044820152651cdd195c995960d21b6064820152608490fd5b8780fd5b8580fd5b5080fd5b80fd5b346107a95760403660031901126107a9576024358015158091036107a5576107d333610f7e565b60043582526004602052604082209060ff8019835416911617905580f35b346107a957806003193601126107a9576020600254604051908152f35b346107a95760203660031901126107a95760209060ff906040906001600160a01b03610838610f19565b168152600584522054166040519015158152f35b346107a95760403660031901126107a95760ff6040602092600435815260068452818120602435825284522054166040519015158152f35b346107a95760403660031901126107a957602435906001600160401b0382116107a95760206108c26108b93660048601610f2f565b906004356111dc565b6040516001600160a01b039091168152f35b346107a957806003193601126107a9576020600854604051908152f35b346107a957806003193601126107a957602060ff600354166040519015158152f35b346107a957806003193601126107a9576020600154604051908152f35b346107a957806003193601126107a957546040516001600160a01b039091168152602090f35b346107a95760603660031901126107a9576024356001600160401b0381116107a557610986903690600401610f2f565b906044356001600160a01b03811681036100ee576020926109a992600435611432565b604051908152f35b346107a95760803660031901126107a9576109ca610f19565b506024356001600160a01b038116036100ee576064356001600160401b0381116107a5576109fc903690600401610f2f565b5050604051630a85bd0160e11b8152602090f35b346107a95760203660031901126107a957610a29610f19565b610a3233610f7e565b81546001600160a01b0319166001600160a01b039190911617815580f35b346107a95760203660031901126107a95760ff60406020926004358152600484522054166040519015158152f35b346107a957806003193601126107a9576007546040516001600160a01b039091168152602090f35b346107a55760803660031901126107a557610abf610f19565b60243591906001600160401b036064358181116107a157610ae4903690600401610f2f565b9490604435938488526020956004875260ff60408a20541615610ecc57506001600160a01b031680885260058652604088205460015460025492989296909160ff166000198814610eb8576001880160025515610d7d57604051634c4f708d60e11b8152948a866004818d5afa998a15610d72578b809b8198829a8392610ce8575b5050989791848d1480610cdc575b15610c9157803b156107a55760405163ab1a63cd60e01b8152336004820152306024820152604481018590529082908290606490829084905af1801561033d57610c79575b50505b610bc6848a61105a565b9a60405194338c8701528b8652610bdc86611003565b6040519b8c9b8c528b015260408a01526101408060608b01528901610c0091611145565b91608089015260a088015286810360c0880152610c1c91611145565b9085820360e0870152610c2e9261116a565b838103610100850152610c4091611145565b828103610120840152610c5291611145565b037f15df3afa97c0595fdf464d97e786a4abd28c060186309d1ff13284f5b7efbdca91a280f35b610c8290610fda565b610c8d578b8d610bb9565b8b80fd5b803b156107a557818091602460405180948193630852cd8d60e31b83528960048401525af1801561033d57610cc8575b5050610bbc565b610cd190610fda565b610c8d578b8d610cc1565b5060ff60035416610b74565b99509950505099503d808c893e610cff8189611039565b8701996080888c0312610c8d578b8851988b8101518981116103485781018d601f82011215610348578d818e610d37935191016110cc565b9c60408201518a81116105ae5781610d50918401611103565b9960608301519081116105ae57610d679201611103565b989b97988e80610b66565b6040513d8d823e3d90fd5b97945080976040518689820152888152610d9681611003565b946040516306fdde0360e01b81528b816004818b5afa8c9181610e9b575b50610e955750604051610dc68161101e565b8b8152955b6040516395d89b4160e01b81528c80826004818d5afa90918282610e70575b5050610e6a5750604051610dfd8161101e565b8c8152975b803b15610e6657604051632142170760e11b815233600482015230602482015260448101849052908d908290606490829084905af18015610e5b57610e48575b50610bbc565b610e54909c919c610fda565b9a8c610e42565b6040513d8f823e3d90fd5b8c80fd5b97610e02565b610e8d9293503d8091833e610e858183611039565b810190611120565b908e8e610dea565b95610dcb565b610eb19192508d3d8091833e610e858183611039565b908d610db4565b634e487b7160e01b8b52601160045260248bfd5b62461bcd60e51b815260048101879052602260248201527f4272696467654552433732313a20636861696e206e6f74207265676973746572604482015261195960f21b6064820152608490fd5b600435906001600160a01b03821682036100ee57565b9181601f840112156100ee578235916001600160401b0383116100ee57602083818601950101116100ee57565b50346100ee5760403660031901126100ee5760206109a960243560043561105a565b6000546001600160a01b03908116911603610f9557565b60405162461bcd60e51b815260206004820152601d60248201527f4272696467654552433732313a204f6e6c792076616c696461746f72210000006044820152606490fd5b6001600160401b038111610fed57604052565b634e487b7160e01b600052604160045260246000fd5b604081019081106001600160401b03821117610fed57604052565b602081019081106001600160401b03821117610fed57604052565b90601f801991011681019081106001600160401b03821117610fed57604052565b906040519060208201928352604082015260408152606081018181106001600160401b03821117610fed5760405251902090565b6001600160401b038111610fed57601f01601f191660200190565b60005b8381106110bc5750506000910152565b81810151838201526020016110ac565b909291926110d98161108e565b916110e76040519384611039565b8294828452828201116100ee5760206111019301906110a9565b565b9080601f830112156100ee57815161111d926020016110cc565b90565b906020828203126100ee5781516001600160401b0381116100ee5761111d9201611103565b9060209161115e815180928185528580860191016110a9565b601f01601f1916010190565b908060209392818452848401376000828201840152601f01601f1916010190565b903590601e19813603018212156100ee57018035906001600160401b0382116100ee576020019181360383136100ee57565b908160209103126100ee57356001600160a01b03811681036100ee5790565b91909160409161120d8380518381946020988984019788528484013781016000838201520386810184520182611039565b519020906104d1815161122285830182611039565b8181528481019161155583396112558584518093611248838301968792519283916110a9565b8101038084520182611039565b51902081519384019260ff60f81b84523060601b6021860152603585015260558401526055835260808301908382106001600160401b03831117610fed5752905190206001600160a01b031690565b9091604092835192602084016000948282528484888301376112d787828781018983820152036020810184520182611039565b51902085516104d1808201908282106001600160401b0383111761141e57908291611a268339039086f5958615611414576007546001600160a01b0397881697169261139f92916113919161136e90611382611343611336858061118b565b919095602081019061118b565b9490938d519b8c99630f29f33560e11b60208c015260248b0152608060448b015260a48a019161116a565b9060231995868984030160648a015261116a565b9285840301608486015261116a565b03601f198101845283611039565b843b15610348576113d29183918551938492839263c0d91eaf60e01b845260048401528760248401526044830190611145565b038183885af1801561140a576113fb575b50828152600560205220805460ff1916600117905590565b61140490610fda565b386113e3565b83513d84823e3d90fd5b85513d86823e3d90fd5b634e487b7160e01b88526041600452602488fd5b90929181600154146114e1576001600160a01b039384926114549291906111dc565b1690600092828452600560205260ff604085205416156114db57602460209260405194859384926370a0823160e01b84521660048301525afa9182156114cf57809261149f57505090565b9091506020823d82116114c7575b816114ba60209383611039565b810103126107a957505190565b3d91506114ad565b604051903d90823e3d90fd5b50505090565b91926020926001600160a01b039250602491839161150291908101906111bd565b169360405194859384926370a0823160e01b84521660048301525afa90811561154857600091611530575090565b906020823d82116114c757816114ba60209383611039565b6040513d6000823e3d90fdfe60808060405234610016576104b5908161001c8239f35b600080fdfe6080604052600436101561002c575b361561001f575b61001d610147565b005b610027610147565b610015565b6000803560e01c63c0d91eaf14610043575061000e565b346100cf5760403660031901126100cf576004356001600160a01b03811681036100c75760243567ffffffffffffffff81116100cb57366023820112156100cb578060040135918361009c6100978561011c565b6100e9565b9284845236602486830101116100c757846100c4956024602093018387013784010152610194565b80f35b5080fd5b8280fd5b80fd5b50634e487b7160e01b600052604160045260246000fd5b6040519190601f01601f1916820167ffffffffffffffff81118382101761010f57604052565b6101176100d2565b604052565b60209067ffffffffffffffff811161013a575b601f01601f19160190565b6101426100d2565b61012f565b507f360894a13ba1a3210667c828492db98dca3e2076cc3735a920a3ca505d382bbc54600090819081906001600160a01b0316368280378136915af43d82803e15610190573d90f35b3d90fd5b60ff600054166102aa57803b1561024f577f360894a13ba1a3210667c828492db98dca3e2076cc3735a920a3ca505d382bbc80546001600160a01b0319166001600160a01b0383169081179091557fbc7cd75a20ee27fd9adebab32041f755214dbc6bffa90cc0225b39da2e5c2d3b600080a2815115801590610247575b61022d575b505061022b600160ff196000541617600055565b565b61023f916102396102f9565b91610361565b503880610217565b506000610212565b60405162461bcd60e51b815260206004820152602d60248201527f455243313936373a206e657720696d706c656d656e746174696f6e206973206e60448201526c1bdd08184818dbdb9d1c9858dd609a1b6064820152608490fd5b60405162461bcd60e51b815260206004820152602160248201527f4552433139363750726f7879437265617465323a20616c726561647920696e696044820152601d60fa1b6064820152608490fd5b604051906060820182811067ffffffffffffffff821117610354575b60405260278252660819985a5b195960ca1b6040837f416464726573733a206c6f772d6c6576656c2064656c65676174652063616c6c60208201520152565b61035c6100d2565b610315565b6000806103969493602081519101845af43d15610399573d916103866100978461011c565b9283523d6000602085013e6103ed565b90565b6060916103ed565b156103a857565b60405162461bcd60e51b815260206004820152601d60248201527f416464726573733a2063616c6c20746f206e6f6e2d636f6e74726163740000006044820152606490fd5b9192901561040d5750815115610401575090565b610396903b15156103a1565b8251909150156104205750805190602001fd5b6040519062461bcd60e51b82528160208060048301528251908160248401526000935b828510610466575050604492506000838284010152601f80199101168101030190fd5b848101820151868601604401529381019385935061044356fea26469706673582212204dde7cc5adcf980b8e42581204cfa621f554155a4614ece46fe895090c92f2d464736f6c6343000811003360808060405234610016576104b5908161001c8239f35b600080fdfe6080604052600436101561002c575b361561001f575b61001d610147565b005b610027610147565b610015565b6000803560e01c63c0d91eaf14610043575061000e565b346100cf5760403660031901126100cf576004356001600160a01b03811681036100c75760243567ffffffffffffffff81116100cb57366023820112156100cb578060040135918361009c6100978561011c565b6100e9565b9284845236602486830101116100c757846100c4956024602093018387013784010152610194565b80f35b5080fd5b8280fd5b80fd5b50634e487b7160e01b600052604160045260246000fd5b6040519190601f01601f1916820167ffffffffffffffff81118382101761010f57604052565b6101176100d2565b604052565b60209067ffffffffffffffff811161013a575b601f01601f19160190565b6101426100d2565b61012f565b507f360894a13ba1a3210667c828492db98dca3e2076cc3735a920a3ca505d382bbc54600090819081906001600160a01b0316368280378136915af43d82803e15610190573d90f35b3d90fd5b60ff600054166102aa57803b1561024f577f360894a13ba1a3210667c828492db98dca3e2076cc3735a920a3ca505d382bbc80546001600160a01b0319166001600160a01b0383169081179091557fbc7cd75a20ee27fd9adebab32041f755214dbc6bffa90cc0225b39da2e5c2d3b600080a2815115801590610247575b61022d575b505061022b600160ff196000541617600055565b565b61023f916102396102f9565b91610361565b503880610217565b506000610212565b60405162461bcd60e51b815260206004820152602d60248201527f455243313936373a206e657720696d706c656d656e746174696f6e206973206e60448201526c1bdd08184818dbdb9d1c9858dd609a1b6064820152608490fd5b60405162461bcd60e51b815260206004820152602160248201527f4552433139363750726f7879437265617465323a20616c726561647920696e696044820152601d60fa1b6064820152608490fd5b604051906060820182811067ffffffffffffffff821117610354575b60405260278252660819985a5b195960ca1b6040837f416464726573733a206c6f772d6c6576656c2064656c65676174652063616c6c60208201520152565b61035c6100d2565b610315565b6000806103969493602081519101845af43d15610399573d916103866100978461011c565b9283523d6000602085013e6103ed565b90565b6060916103ed565b156103a857565b60405162461bcd60e51b815260206004820152601d60248201527f416464726573733a2063616c6c20746f206e6f6e2d636f6e74726163740000006044820152606490fd5b9192901561040d5750815115610401575090565b610396903b15156103a1565b8251909150156104205750805190602001fd5b6040519062461bcd60e51b82528160208060048301528251908160248401526000935b828510610466575050604492506000838284010152601f80199101168101030190fd5b848101820151868601604401529381019385935061044356fea26469706673582212204dde7cc5adcf980b8e42581204cfa621f554155a4614ece46fe895090c92f2d464736f6c63430008110033a264697066735822122025005707c2470ae9e993e8f384ac1b072060b7703f8197dc5962114e898b0bbe64736f6c63430008110033",
  "devdoc": {
    "kind": "dev",
    "methods": {},
    "version": 1
  },
  "userdoc": {
    "kind": "user",
    "methods": {},
    "version": 1
  },
  "storageLayout": {
    "storage": [
      {
        "astId": 4772,
        "contract": "contracts/BridgeERC721.sol:BridgeERC721",
        "label": "validator",
        "offset": 0,
        "slot": "0",
        "type": "t_address"
      },
      {
        "astId": 4774,
        "contract": "contracts/BridgeERC721.sol:BridgeERC721",
        "label": "currentChain",
        "offset": 0,
        "slot": "1",
        "type": "t_bytes32"
      },
      {
        "astId": 4776,
        "contract": "contracts/BridgeERC721.sol:BridgeERC721",
        "label": "nonce",
        "offset": 0,
        "slot": "2",
        "type": "t_uint256"
      },
      {
        "astId": 4778,
        "contract": "contracts/BridgeERC721.sol:BridgeERC721",
        "label": "isProxyChain",
        "offset": 0,
        "slot": "3",
        "type": "t_bool"
      },
      {
        "astId": 4782,
        "contract": "contracts/BridgeERC721.sol:BridgeERC721",
        "label": "registeredChains",
        "offset": 0,
        "slot": "4",
        "type": "t_mapping(t_bytes32,t_bool)"
      },
      {
        "astId": 4786,
        "contract": "contracts/BridgeERC721.sol:BridgeERC721",
        "label": "issuedTokens",
        "offset": 0,
        "slot": "5",
        "type": "t_mapping(t_address,t_bool)"
      },
      {
        "astId": 4792,
        "contract": "contracts/BridgeERC721.sol:BridgeERC721",
        "label": "registeredNonces",
        "offset": 0,
        "slot": "6",
        "type": "t_mapping(t_bytes32,t_mapping(t_uint256,t_bool))"
      },
      {
        "astId": 4794,
        "contract": "contracts/BridgeERC721.sol:BridgeERC721",
        "label": "issuedTokenImplementation",
        "offset": 0,
        "slot": "7",
        "type": "t_address"
      },
      {
        "astId": 4796,
        "contract": "contracts/BridgeERC721.sol:BridgeERC721",
        "label": "initBlock",
        "offset": 0,
        "slot": "8",
        "type": "t_uint256"
      }
    ],
    "types": {
      "t_address": {
        "encoding": "inplace",
        "label": "address",
        "numberOfBytes": "20"
      },
      "t_bool": {
        "encoding": "inplace",
        "label": "bool",
        "numberOfBytes": "1"
      },
      "t_bytes32": {
        "encoding": "inplace",
        "label": "bytes32",
        "numberOfBytes": "32"
      },
      "t_mapping(t_address,t_bool)": {
        "encoding": "mapping",
        "key": "t_address",
        "label": "mapping(address => bool)",
        "numberOfBytes": "32",
        "value": "t_bool"
      },
      "t_mapping(t_bytes32,t_bool)": {
        "encoding": "mapping",
        "key": "t_bytes32",
        "label": "mapping(bytes32 => bool)",
        "numberOfBytes": "32",
        "value": "t_bool"
      },
      "t_mapping(t_bytes32,t_mapping(t_uint256,t_bool))": {
        "encoding": "mapping",
        "key": "t_bytes32",
        "label": "mapping(bytes32 => mapping(uint256 => bool))",
        "numberOfBytes": "32",
        "value": "t_mapping(t_uint256,t_bool)"
      },
      "t_mapping(t_uint256,t_bool)": {
        "encoding": "mapping",
        "key": "t_uint256",
        "label": "mapping(uint256 => bool)",
        "numberOfBytes": "32",
        "value": "t_bool"
      },
      "t_uint256": {
        "encoding": "inplace",
        "label": "uint256",
        "numberOfBytes": "32"
      }
    }
  }
}