{
  "address": "0xAf680aeAB2fcc16cC0d7311D1c4552550eC4AEC4",
  "abi": [
    {
      "anonymous": false,
      "inputs": [
        {
          "indexed": true,
          "internalType": "address",
          "name": "owner",
          "type": "address"
        },
        {
          "indexed": true,
          "internalType": "address",
          "name": "spender",
          "type": "address"
        },
        {
          "indexed": false,
          "internalType": "uint256",
          "name": "value",
          "type": "uint256"
        }
      ],
      "name": "Approval",
      "type": "event"
    },
    {
      "anonymous": false,
      "inputs": [
        {
          "indexed": false,
          "internalType": "uint8",
          "name": "version",
          "type": "uint8"
        }
      ],
      "name": "Initialized",
      "type": "event"
    },
    {
      "anonymous": false,
      "inputs": [
        {
          "indexed": true,
          "internalType": "address",
          "name": "previousOwner",
          "type": "address"
        },
        {
          "indexed": true,
          "internalType": "address",
          "name": "newOwner",
          "type": "address"
        }
      ],
      "name": "OwnershipTransferred",
      "type": "event"
    },
    {
      "anonymous": false,
      "inputs": [
        {
          "indexed": true,
          "internalType": "address",
          "name": "from",
          "type": "address"
        },
        {
          "indexed": true,
          "internalType": "address",
          "name": "to",
          "type": "address"
        },
        {
          "indexed": false,
          "internalType": "uint256",
          "name": "value",
          "type": "uint256"
        }
      ],
      "name": "Transfer",
      "type": "event"
    },
    {
      "inputs": [
        {
          "internalType": "address",
          "name": "owner",
          "type": "address"
        },
        {
          "internalType": "address",
          "name": "spender",
          "type": "address"
        }
      ],
      "name": "allowance",
      "outputs": [
        {
          "internalType": "uint256",
          "name": "",
          "type": "uint256"
        }
      ],
      "stateMutability": "view",
      "type": "function"
    },
    {
      "inputs": [
        {
          "internalType": "address",
          "name": "spender",
          "type": "address"
        },
        {
          "internalType": "uint256",
          "name": "amount",
          "type": "uint256"
        }
      ],
      "name": "approve",
      "outputs": [
        {
          "internalType": "bool",
          "name": "",
          "type": "bool"
        }
      ],
      "stateMutability": "nonpayable",
      "type": "function"
    },
    {
      "inputs": [
        {
          "internalType": "address",
          "name": "account",
          "type": "address"
        }
      ],
      "name": "balanceOf",
      "outputs": [
        {
          "internalType": "uint256",
          "name": "",
          "type": "uint256"
        }
      ],
      "stateMutability": "view",
      "type": "function"
    },
    {
      "inputs": [
        {
          "internalType": "address",
          "name": "_from",
          "type": "address"
        },
        {
          "internalType": "uint256",
          "name": "_amount",
          "type": "uint256"
        }
      ],
      "name": "burn",
      "outputs": [],
      "stateMutability": "nonpayable",
      "type": "function"
    },
    {
      "inputs": [],
      "name": "decimals",
      "outputs": [
        {
          "internalType": "uint8",
          "name": "",
          "type": "uint8"
        }
      ],
      "stateMutability": "view",
      "type": "function"
    },
    {
      "inputs": [
        {
          "internalType": "address",
          "name": "spender",
          "type": "address"
        },
        {
          "internalType": "uint256",
          "name": "subtractedValue",
          "type": "uint256"
        }
      ],
      "name": "decreaseAllowance",
      "outputs": [
        {
          "internalType": "bool",
          "name": "",
          "type": "bool"
        }
      ],
      "stateMutability": "nonpayable",
      "type": "function"
    },
    {
      "inputs": [],
      "name": "getOriginalTokenInfo",
      "outputs": [
        {
          "internalType": "bytes32",
          "name": "",
          "type": "bytes32"
        },
        {
          "internalType": "bytes",
          "name": "",
          "type": "bytes"
        },
        {
          "internalType": "string",
          "name": "",
          "type": "string"
        },
        {
          "internalType": "string",
          "name": "",
          "type": "string"
        },
        {
          "internalType": "uint8",
          "name": "",
          "type": "uint8"
        }
      ],
      "stateMutability": "view",
      "type": "function"
    },
    {
      "inputs": [
        {
          "internalType": "address",
          "name": "spender",
          "type": "address"
        },
        {
          "internalType": "uint256",
          "name": "addedValue",
          "type": "uint256"
        }
      ],
      "name": "increaseAllowance",
      "outputs": [
        {
          "internalType": "bool",
          "name": "",
          "type": "bool"
        }
      ],
      "stateMutability": "nonpayable",
      "type": "function"
    },
    {
      "inputs": [
        {
          "internalType": "bytes32",
          "name": "_originalChain",
          "type": "bytes32"
        },
        {
          "internalType": "bytes",
          "name": "_originalToken",
          "type": "bytes"
        },
        {
          "internalType": "string",
          "name": "_originalTokenName",
          "type": "string"
        },
        {
          "internalType": "string",
          "name": "_originalTokenSymbol",
          "type": "string"
        },
        {
          "internalType": "uint8",
          "name": "_originalTokenDecimals",
          "type": "uint8"
        }
      ],
      "name": "initialize",
      "outputs": [],
      "stateMutability": "nonpayable",
      "type": "function"
    },
    {
      "inputs": [
        {
          "internalType": "address",
          "name": "_recipient",
          "type": "address"
        },
        {
          "internalType": "uint256",
          "name": "_amount",
          "type": "uint256"
        }
      ],
      "name": "mint",
      "outputs": [],
      "stateMutability": "nonpayable",
      "type": "function"
    },
    {
      "inputs": [],
      "name": "name",
      "outputs": [
        {
          "internalType": "string",
          "name": "",
          "type": "string"
        }
      ],
      "stateMutability": "view",
      "type": "function"
    },
    {
      "inputs": [],
      "name": "originalChain",
      "outputs": [
        {
          "internalType": "bytes32",
          "name": "",
          "type": "bytes32"
        }
      ],
      "stateMutability": "view",
      "type": "function"
    },
    {
      "inputs": [],
      "name": "originalToken",
      "outputs": [
        {
          "internalType": "bytes",
          "name": "",
          "type": "bytes"
        }
      ],
      "stateMutability": "view",
      "type": "function"
    },
    {
      "inputs": [],
      "name": "originalTokenName",
      "outputs": [
        {
          "internalType": "string",
          "name": "",
          "type": "string"
        }
      ],
      "stateMutability": "view",
      "type": "function"
    },
    {
      "inputs": [],
      "name": "originalTokenSymbol",
      "outputs": [
        {
          "internalType": "string",
          "name": "",
          "type": "string"
        }
      ],
      "stateMutability": "view",
      "type": "function"
    },
    {
      "inputs": [],
      "name": "owner",
      "outputs": [
        {
          "internalType": "address",
          "name": "",
          "type": "address"
        }
      ],
      "stateMutability": "view",
      "type": "function"
    },
    {
      "inputs": [
        {
          "internalType": "address",
          "name": "from",
          "type": "address"
        },
        {
          "internalType": "address",
          "name": "to",
          "type": "address"
        },
        {
          "internalType": "uint256",
          "name": "amount",
          "type": "uint256"
        }
      ],
      "name": "permissionedTransferFrom",
      "outputs": [],
      "stateMutability": "nonpayable",
      "type": "function"
    },
    {
      "inputs": [],
      "name": "renounceOwnership",
      "outputs": [],
      "stateMutability": "nonpayable",
      "type": "function"
    },
    {
      "inputs": [],
      "name": "symbol",
      "outputs": [
        {
          "internalType": "string",
          "name": "",
          "type": "string"
        }
      ],
      "stateMutability": "view",
      "type": "function"
    },
    {
      "inputs": [],
      "name": "totalSupply",
      "outputs": [
        {
          "internalType": "uint256",
          "name": "",
          "type": "uint256"
        }
      ],
      "stateMutability": "view",
      "type": "function"
    },
    {
      "inputs": [
        {
          "internalType": "address",
          "name": "to",
          "type": "address"
        },
        {
          "internalType": "uint256",
          "name": "amount",
          "type": "uint256"
        }
      ],
      "name": "transfer",
      "outputs": [
        {
          "internalType": "bool",
          "name": "",
          "type": "bool"
        }
      ],
      "stateMutability": "nonpayable",
      "type": "function"
    },
    {
      "inputs": [
        {
          "internalType": "address",
          "name": "from",
          "type": "address"
        },
        {
          "internalType": "address",
          "name": "to",
          "type": "address"
        },
        {
          "internalType": "uint256",
          "name": "amount",
          "type": "uint256"
        }
      ],
      "name": "transferFrom",
      "outputs": [
        {
          "internalType": "bool",
          "name": "",
          "type": "bool"
        }
      ],
      "stateMutability": "nonpayable",
      "type": "function"
    },
    {
      "inputs": [
        {
          "internalType": "address",
          "name": "newOwner",
          "type": "address"
        }
      ],
      "name": "transferOwnership",
      "outputs": [],
      "stateMutability": "nonpayable",
      "type": "function"
    }
  ],
  "transactionHash": "0x530bee60609b970652e8d2ffbc7a5d89b1dadd01560d7370e633be5d6ff87c2a",
  "args": [],
  "numDeployments": 1,
  "solcInputHash": "f927012e6aa6fda3a07dd46a8e12e942",
  "bytecode": "0x6080806040523461001657611a84908161001c8239f35b600080fdfe608080604052600436101561001357600080fd5b60003560e01c90816306fdde031461144a57508063095ea7b3146114245780630e7c1cb51461139057806318160ddd1461137257806323b872dd146112ca578063313ce567146112a9578063395093511461125857806340c10f191461118f57806352694c6b146110fb57806353638be5146110dd57806370a08231146110a3578063715018a6146110465780638da5cb5b1461101d57806395d89b4114610f77578063989ee11a14610d1c5780639dc29fac14610bec578063a457c2d714610b45578063a9059cbb14610b14578063ab1a63cd14610af5578063b13806fa146102d9578063dd62ed3e14610284578063e8cfdce9146101b05763f2fde38b1461011c57600080fd5b346101ab5760203660031901126101ab57610135611535565b61013d611641565b6001600160a01b038116156101575761015590611699565b005b60405162461bcd60e51b815260206004820152602660248201527f4f776e61626c653a206e6577206f776e657220697320746865207a65726f206160448201526564647265737360d01b6064820152608490fd5b600080fd5b346101ab5760003660031901126101ab576040516000609b546101d28161154b565b8084529060019081811690811561025d5750600114610214575b610210846101fc81860382611585565b604051918291602083526020830190611510565b0390f35b609b60009081529250600080516020611a0f8339815191525b8284106102455750505081016020016101fc826101ec565b8054602085870181019190915290930192810161022d565b60ff191660208087019190915292151560051b850190920192506101fc91508390506101ec565b346101ab5760403660031901126101ab5761029d611535565b6001600160a01b0360243581811692908390036101ab571660005260346020526040600020906000526020526020604060002054604051908152f35b346101ab5760a03660031901126101ab5760243567ffffffffffffffff81116101ab57366023820112156101ab5761031b9036906024816004013591016115dc565b60443567ffffffffffffffff81116101ab5761033b903690600401611623565b60643567ffffffffffffffff81116101ab5761035b903690600401611623565b916084359060ff821682036101ab576000549260ff8460081c161593848095610ae8575b8015610ad1575b15610a755760ff19811660011760005584610a63575b50604051607960f81b60208201526103d260218284516103c281848401602089016114ed565b8101036001810184520182611585565b60405190607960f81b602083015261040960218389516103f9818c602086860191016114ed565b8101036001810185520183611585565b61042360ff60005460081c1661041e8161198e565b61198e565b80519067ffffffffffffffff821161070b57819061044260365461154b565b601f8111610a14575b50602090601f831160011461098a5760009261097f575b50508160011b916000199060031b1c1916176036555b80519067ffffffffffffffff821161070b57819061049760375461154b565b601f8111610930575b50602090601f83116001146108a65760009261089b575b50508160011b916000199060031b1c1916176037555b6104e260ff60005460081c1661041e8161198e565b6104eb33611699565b80519067ffffffffffffffff821161070b57819061050a609a5461154b565b601f811161085e575b50602090601f83116001146107e6576000926107db575b50508160011b916000199060031b1c191617609a555b835167ffffffffffffffff811161070b5761055c609b5461154b565b601f811161079e575b50602094601f821160011461072c57948192939495600092610721575b50508160011b916000199060031b1c191617609b555b60043560975580519067ffffffffffffffff821161070b576105bb60985461154b565b601f81116106c3575b50602090601f831160011461064c5760ff93929160009183610641575b50508160011b916000199060031b1c1916176098555b1660ff19609954161760995561060957005b61ff0019600054166000557f7f26b83ff96e1f2b6a682f133852f6798a09c465da95921460cefb3847402498602060405160018152a1005b0151905085806105e1565b90601f198316916098600052600080516020611a2f8339815191529260005b8181106106ab575091600193918560ff97969410610692575b505050811b016098556105f7565b015160001960f88460031b161c19169055858080610684565b9293602060018192878601518155019501930161066b565b6106fb906098600052600080516020611a2f833981519152601f850160051c81019160208610610701575b601f0160051c0190611977565b846105c4565b90915081906106ee565b634e487b7160e01b600052604160045260246000fd5b015190508580610582565b601f19821695609b600052600080516020611a0f8339815191529160005b8881106107865750836001959697981061076d575b505050811b01609b55610598565b015160001960f88460031b161c1916905585808061075f565b9192602060018192868501518155019401920161074a565b6107d590609b600052600080516020611a0f833981519152601f840160051c8101916020851061070157601f0160051c0190611977565b85610565565b01519050868061052a565b9250609a6000526000805160206119ef833981519152906000935b601f1984168510610843576001945083601f1981161061082a575b505050811b01609a55610540565b015160001960f88460031b161c1916905586808061081c565b81810151835560209485019460019093019290910190610801565b61089590609a6000526000805160206119ef833981519152601f850160051c8101916020861061070157601f0160051c0190611977565b87610513565b0151905087806104b7565b925060376000527f42a7b7dd785cd69714a189dffb3fd7d7174edc9ece837694ce50f7078f7c31ae906000935b601f1984168510610915576001945083601f198116106108fc575b505050811b016037556104cd565b015160001960f88460031b161c191690558780806108ee565b818101518355602094850194600190930192909101906108d3565b6109799060376000527f42a7b7dd785cd69714a189dffb3fd7d7174edc9ece837694ce50f7078f7c31ae601f850160051c8101916020861061070157601f0160051c0190611977565b886104a0565b015190508880610462565b925060366000527f4a11f94e20a93c79f6ec743a1954ec4fc2c08429ae2122118bf234b2185c81b8906000935b601f19841685106109f9576001945083601f198116106109e0575b505050811b01603655610478565b015160001960f88460031b161c191690558880806109d2565b818101518355602094850194600190930192909101906109b7565b610a5d9060366000527f4a11f94e20a93c79f6ec743a1954ec4fc2c08429ae2122118bf234b2185c81b8601f850160051c8101916020861061070157601f0160051c0190611977565b8961044b565b61ffff1916610101176000558561039c565b60405162461bcd60e51b815260206004820152602e60248201527f496e697469616c697a61626c653a20636f6e747261637420697320616c72656160448201526d191e481a5b9a5d1a585b1a5e995960921b6064820152608490fd5b50303b1580156103865750600160ff821614610386565b50600160ff82161061037f565b346101ab57610155610b06366115a7565b91610b0f611641565b611705565b346101ab5760403660031901126101ab57610b3a610b30611535565b6024359033611705565b602060405160018152f35b346101ab5760403660031901126101ab57610b5e611535565b60243590336000526034602052604060002060018060a01b03821660005260205260406000205491808310610b9957610b3a92039033611875565b60405162461bcd60e51b815260206004820152602560248201527f45524332303a2064656372656173656420616c6c6f77616e63652062656c6f77604482015264207a65726f60d81b6064820152608490fd5b346101ab5760403660031901126101ab57610c05611535565b60243590610c11611641565b6001600160a01b03168015610ccd5780600052603360205260406000205491808310610c7d576020817fddf252ad1be2c89b69c2b068fc378daa952ba7f163c4a11628f55a4df523b3ef92600095858752603384520360408620558060355403603555604051908152a3005b60405162461bcd60e51b815260206004820152602260248201527f45524332303a206275726e20616d6f756e7420657863656564732062616c616e604482015261636560f01b6064820152608490fd5b60405162461bcd60e51b815260206004820152602160248201527f45524332303a206275726e2066726f6d20746865207a65726f206164647265736044820152607360f81b6064820152608490fd5b346101ab5760003660031901126101ab5760975460ff60995416906040519160006098549084610d4b8361154b565b918282526001938481169081600014610f585750600114610f09575b610d7392500385611585565b604051609a54816000610d858361154b565b80835292858116908115610eea5750600114610e9b575b610da892500382611585565b60405191600090609b5490610dbc8261154b565b80865291818116908115610e745750600114610e2b575b50508291610de9610e2194610e13930384611585565b610e05604051978897885260a0602089015260a0880190611510565b908682036040880152611510565b908482036060860152611510565b9060808301520390f35b609b60009081529250600080516020611a0f8339815191525b828410610e5c57505050820160200181610de9610dd3565b80546020858801810191909152909301928101610e44565b60ff191660208088019190915292151560051b86019092019250839150610de99050610dd3565b5090609a6000526000805160206119ef83398151915290846000925b828410610ed057505050906020610da892820101610d9c565b602092945080548385880101520191019091848493610eb7565b60209250610da894915060ff191682840152151560051b820101610d9c565b50906098600052600080516020611a2f83398151915290836000925b828410610f3e57505050906020610d7392820101610d67565b6020929450805483858b0101520191019091838793610f25565b60209250610d7394915060ff191682840152151560051b820101610d67565b346101ab5760003660031901126101ab576040516000603754610f998161154b565b8084529060019081811690811561025d5750600114610fc257610210846101fc81860382611585565b6037600090815292507f42a7b7dd785cd69714a189dffb3fd7d7174edc9ece837694ce50f7078f7c31ae5b8284106110055750505081016020016101fc826101ec565b80546020858701810191909152909301928101610fed565b346101ab5760003660031901126101ab576065546040516001600160a01b039091168152602090f35b346101ab5760003660031901126101ab5761105f611641565b606580546001600160a01b031981169091556000906001600160a01b03167f8be0079c531659141344cd1fd0a4f28419497f9722a3daafe3b4186f6b6457e08280a3005b346101ab5760203660031901126101ab576001600160a01b036110c4611535565b1660005260336020526020604060002054604051908152f35b346101ab5760003660031901126101ab576020609754604051908152f35b346101ab5760003660031901126101ab576040516000609a5461111d8161154b565b8084529060019081811690811561025d575060011461114657610210846101fc81860382611585565b609a600090815292506000805160206119ef8339815191525b8284106111775750505081016020016101fc826101ec565b8054602085870181019190915290930192810161115f565b346101ab5760403660031901126101ab576111a8611535565b602435906111b4611641565b6001600160a01b0316908115611213577fddf252ad1be2c89b69c2b068fc378daa952ba7f163c4a11628f55a4df523b3ef6020826111f66000946035546116e2565b6035558484526033825260408420818154019055604051908152a3005b60405162461bcd60e51b815260206004820152601f60248201527f45524332303a206d696e7420746f20746865207a65726f2061646472657373006044820152606490fd5b346101ab5760403660031901126101ab57610b3a611274611535565b336000526034602052604060002060018060a01b0382166000526020526112a26024356040600020546116e2565b9033611875565b346101ab5760003660031901126101ab57602060ff60995416604051908152f35b346101ab576112d8366115a7565b9060018060a01b0383166000526034602052604060002033600052602052604060002054926000198403611311575b610b3a9350611705565b82841061132d5761132883610b3a95033383611875565b611307565b60405162461bcd60e51b815260206004820152601d60248201527f45524332303a20696e73756666696369656e7420616c6c6f77616e63650000006044820152606490fd5b346101ab5760003660031901126101ab576020603554604051908152f35b346101ab5760003660031901126101ab5760405160006098546113b28161154b565b8084529060019081811690811561025d57506001146113db57610210846101fc81860382611585565b609860009081529250600080516020611a2f8339815191525b82841061140c5750505081016020016101fc826101ec565b805460208587018101919091529093019281016113f4565b346101ab5760403660031901126101ab57610b3a611440611535565b6024359033611875565b346101ab5760003660031901126101ab5760006036546114698161154b565b8084529060019081811690811561025d575060011461149257610210846101fc81860382611585565b6036600090815292507f4a11f94e20a93c79f6ec743a1954ec4fc2c08429ae2122118bf234b2185c81b85b8284106114d55750505081016020016101fc826101ec565b805460208587018101919091529093019281016114bd565b60005b8381106115005750506000910152565b81810151838201526020016114f0565b90602091611529815180928185528580860191016114ed565b601f01601f1916010190565b600435906001600160a01b03821682036101ab57565b90600182811c9216801561157b575b602083101461156557565b634e487b7160e01b600052602260045260246000fd5b91607f169161155a565b90601f8019910116810190811067ffffffffffffffff82111761070b57604052565b60609060031901126101ab576001600160a01b039060043582811681036101ab579160243590811681036101ab579060443590565b92919267ffffffffffffffff821161070b5760405191611606601f8201601f191660200184611585565b8294818452818301116101ab578281602093846000960137010152565b9080601f830112156101ab5781602061163e933591016115dc565b90565b6065546001600160a01b0316330361165557565b606460405162461bcd60e51b815260206004820152602060248201527f4f776e61626c653a2063616c6c6572206973206e6f7420746865206f776e65726044820152fd5b606580546001600160a01b039283166001600160a01b0319821681179092559091167f8be0079c531659141344cd1fd0a4f28419497f9722a3daafe3b4186f6b6457e0600080a3565b919082018092116116ef57565b634e487b7160e01b600052601160045260246000fd5b6001600160a01b0390811691821561182257169182156117d1576000828152603360205260408120549180831061177d57604082827fddf252ad1be2c89b69c2b068fc378daa952ba7f163c4a11628f55a4df523b3ef95876020965260338652038282205586815220818154019055604051908152a3565b60405162461bcd60e51b815260206004820152602660248201527f45524332303a207472616e7366657220616d6f756e7420657863656564732062604482015265616c616e636560d01b6064820152608490fd5b60405162461bcd60e51b815260206004820152602360248201527f45524332303a207472616e7366657220746f20746865207a65726f206164647260448201526265737360e81b6064820152608490fd5b60405162461bcd60e51b815260206004820152602560248201527f45524332303a207472616e736665722066726f6d20746865207a65726f206164604482015264647265737360d81b6064820152608490fd5b6001600160a01b0390811691821561192657169182156118d65760207f8c5be1e5ebec7d5bd14f71427d1e84f3dd0314c0f7b2291e5b200ac8c7c3b925918360005260348252604060002085600052825280604060002055604051908152a3565b60405162461bcd60e51b815260206004820152602260248201527f45524332303a20617070726f766520746f20746865207a65726f206164647265604482015261737360f01b6064820152608490fd5b60405162461bcd60e51b8152602060048201526024808201527f45524332303a20617070726f76652066726f6d20746865207a65726f206164646044820152637265737360e01b6064820152608490fd5b818110611982575050565b60008155600101611977565b1561199557565b60405162461bcd60e51b815260206004820152602b60248201527f496e697469616c697a61626c653a20636f6e7472616374206973206e6f74206960448201526a6e697469616c697a696e6760a81b6064820152608490fdfe44da158ba27f9252712a74ff6a55c5d531f69609f1f6e7f17c4443a8e2089be4bba9db4cdbea0a37c207bbb83e20f828cd4441c49891101dc94fd20dc8efc3492237a976fa961f5921fd19f2b03c925c725d77b20ce8f790c19709c03de4d814a26469706673582212204b9dd8204328300467caf214a219e13092562013c4542383e9be97526c39dc6964736f6c63430008110033",
  "devdoc": {
    "kind": "dev",
    "methods": {
      "allowance(address,address)": {
        "details": "See {IERC20-allowance}."
      },
      "approve(address,uint256)": {
        "details": "See {IERC20-approve}. NOTE: If `amount` is the maximum `uint256`, the allowance is not updated on `transferFrom`. This is semantically equivalent to an infinite approval. Requirements: - `spender` cannot be the zero address."
      },
      "balanceOf(address)": {
        "details": "See {IERC20-balanceOf}."
      },
      "decimals()": {
        "details": "Returns the number of decimals used to get its user representation. For example, if `decimals` equals `2`, a balance of `505` tokens should be displayed to a user as `5.05` (`505 / 10 ** 2`). Tokens usually opt for a value of 18, imitating the relationship between Ether and Wei. This is the value {ERC20} uses, unless this function is overridden; NOTE: This information is only used for _display_ purposes: it in no way affects any of the arithmetic of the contract, including {IERC20-balanceOf} and {IERC20-transfer}."
      },
      "decreaseAllowance(address,uint256)": {
        "details": "Atomically decreases the allowance granted to `spender` by the caller. This is an alternative to {approve} that can be used as a mitigation for problems described in {IERC20-approve}. Emits an {Approval} event indicating the updated allowance. Requirements: - `spender` cannot be the zero address. - `spender` must have allowance for the caller of at least `subtractedValue`."
      },
      "increaseAllowance(address,uint256)": {
        "details": "Atomically increases the allowance granted to `spender` by the caller. This is an alternative to {approve} that can be used as a mitigation for problems described in {IERC20-approve}. Emits an {Approval} event indicating the updated allowance. Requirements: - `spender` cannot be the zero address."
      },
      "name()": {
        "details": "Returns the name of the token."
      },
      "owner()": {
        "details": "Returns the address of the current owner."
      },
      "renounceOwnership()": {
        "details": "Leaves the contract without owner. It will not be possible to call `onlyOwner` functions anymore. Can only be called by the current owner. NOTE: Renouncing ownership will leave the contract without an owner, thereby removing any functionality that is only available to the owner."
      },
      "symbol()": {
        "details": "Returns the symbol of the token, usually a shorter version of the name."
      },
      "totalSupply()": {
        "details": "See {IERC20-totalSupply}."
      },
      "transfer(address,uint256)": {
        "details": "See {IERC20-transfer}. Requirements: - `to` cannot be the zero address. - the caller must have a balance of at least `amount`."
      },
      "transferFrom(address,address,uint256)": {
        "details": "See {IERC20-transferFrom}. Emits an {Approval} event indicating the updated allowance. This is not required by the EIP. See the note at the beginning of {ERC20}. NOTE: Does not update the allowance if the current allowance is the maximum `uint256`. Requirements: - `from` and `to` cannot be the zero address. - `from` must have a balance of at least `amount`. - the caller must have allowance for ``from``'s tokens of at least `amount`."
      },
      "transferOwnership(address)": {
        "details": "Transfers ownership of the contract to a new account (`newOwner`). Can only be called by the current owner."
      }
    },
    "version": 1
  },
  "userdoc": {
    "kind": "user",
    "methods": {},
    "version": 1
  },
  "storageLayout": {
    "storage": [
      {
        "astId": 138,
        "contract": "contracts/tokens/IssuedERC20.sol:IssuedERC20",
        "label": "_initialized",
        "offset": 0,
        "slot": "0",
        "type": "t_uint8"
      },
      {
        "astId": 141,
        "contract": "contracts/tokens/IssuedERC20.sol:IssuedERC20",
        "label": "_initializing",
        "offset": 1,
        "slot": "0",
        "type": "t_bool"
      },
      {
        "astId": 3876,
        "contract": "contracts/tokens/IssuedERC20.sol:IssuedERC20",
        "label": "__gap",
        "offset": 0,
        "slot": "1",
        "type": "t_array(t_uint256)50_storage"
      },
      {
        "astId": 1742,
        "contract": "contracts/tokens/IssuedERC20.sol:IssuedERC20",
        "label": "_balances",
        "offset": 0,
        "slot": "51",
        "type": "t_mapping(t_address,t_uint256)"
      },
      {
        "astId": 1748,
        "contract": "contracts/tokens/IssuedERC20.sol:IssuedERC20",
        "label": "_allowances",
        "offset": 0,
        "slot": "52",
        "type": "t_mapping(t_address,t_mapping(t_address,t_uint256))"
      },
      {
        "astId": 1750,
        "contract": "contracts/tokens/IssuedERC20.sol:IssuedERC20",
        "label": "_totalSupply",
        "offset": 0,
        "slot": "53",
        "type": "t_uint256"
      },
      {
        "astId": 1752,
        "contract": "contracts/tokens/IssuedERC20.sol:IssuedERC20",
        "label": "_name",
        "offset": 0,
        "slot": "54",
        "type": "t_string_storage"
      },
      {
        "astId": 1754,
        "contract": "contracts/tokens/IssuedERC20.sol:IssuedERC20",
        "label": "_symbol",
        "offset": 0,
        "slot": "55",
        "type": "t_string_storage"
      },
      {
        "astId": 2334,
        "contract": "contracts/tokens/IssuedERC20.sol:IssuedERC20",
        "label": "__gap",
        "offset": 0,
        "slot": "56",
        "type": "t_array(t_uint256)45_storage"
      },
      {
        "astId": 10,
        "contract": "contracts/tokens/IssuedERC20.sol:IssuedERC20",
        "label": "_owner",
        "offset": 0,
        "slot": "101",
        "type": "t_address"
      },
      {
        "astId": 130,
        "contract": "contracts/tokens/IssuedERC20.sol:IssuedERC20",
        "label": "__gap",
        "offset": 0,
        "slot": "102",
        "type": "t_array(t_uint256)49_storage"
      },
      {
        "astId": 13519,
        "contract": "contracts/tokens/IssuedERC20.sol:IssuedERC20",
        "label": "originalChain",
        "offset": 0,
        "slot": "151",
        "type": "t_bytes32"
      },
      {
        "astId": 13521,
        "contract": "contracts/tokens/IssuedERC20.sol:IssuedERC20",
        "label": "originalToken",
        "offset": 0,
        "slot": "152",
        "type": "t_bytes_storage"
      },
      {
        "astId": 13523,
        "contract": "contracts/tokens/IssuedERC20.sol:IssuedERC20",
        "label": "originalTokenDecimals",
        "offset": 0,
        "slot": "153",
        "type": "t_uint8"
      },
      {
        "astId": 13525,
        "contract": "contracts/tokens/IssuedERC20.sol:IssuedERC20",
        "label": "originalTokenName",
        "offset": 0,
        "slot": "154",
        "type": "t_string_storage"
      },
      {
        "astId": 13527,
        "contract": "contracts/tokens/IssuedERC20.sol:IssuedERC20",
        "label": "originalTokenSymbol",
        "offset": 0,
        "slot": "155",
        "type": "t_string_storage"
      }
    ],
    "types": {
      "t_address": {
        "encoding": "inplace",
        "label": "address",
        "numberOfBytes": "20"
      },
      "t_array(t_uint256)45_storage": {
        "base": "t_uint256",
        "encoding": "inplace",
        "label": "uint256[45]",
        "numberOfBytes": "1440"
      },
      "t_array(t_uint256)49_storage": {
        "base": "t_uint256",
        "encoding": "inplace",
        "label": "uint256[49]",
        "numberOfBytes": "1568"
      },
      "t_array(t_uint256)50_storage": {
        "base": "t_uint256",
        "encoding": "inplace",
        "label": "uint256[50]",
        "numberOfBytes": "1600"
      },
      "t_bool": {
        "encoding": "inplace",
        "label": "bool",
        "numberOfBytes": "1"
      },
      "t_bytes32": {
        "encoding": "inplace",
        "label": "bytes32",
        "numberOfBytes": "32"
      },
      "t_bytes_storage": {
        "encoding": "bytes",
        "label": "bytes",
        "numberOfBytes": "32"
      },
      "t_mapping(t_address,t_mapping(t_address,t_uint256))": {
        "encoding": "mapping",
        "key": "t_address",
        "label": "mapping(address => mapping(address => uint256))",
        "numberOfBytes": "32",
        "value": "t_mapping(t_address,t_uint256)"
      },
      "t_mapping(t_address,t_uint256)": {
        "encoding": "mapping",
        "key": "t_address",
        "label": "mapping(address => uint256)",
        "numberOfBytes": "32",
        "value": "t_uint256"
      },
      "t_string_storage": {
        "encoding": "bytes",
        "label": "string",
        "numberOfBytes": "32"
      },
      "t_uint256": {
        "encoding": "inplace",
        "label": "uint256",
        "numberOfBytes": "32"
      },
      "t_uint8": {
        "encoding": "inplace",
        "label": "uint8",
        "numberOfBytes": "1"
      }
    }
  }
}