{
  "address": "0xEf0019636737cFE11062d7507d417cdeC34d3D4F",
  "abi": [
    {
      "anonymous": false,
      "inputs": [
        {
          "indexed": true,
          "internalType": "address",
          "name": "account",
          "type": "address"
        },
        {
          "indexed": true,
          "internalType": "address",
          "name": "operator",
          "type": "address"
        },
        {
          "indexed": false,
          "internalType": "bool",
          "name": "approved",
          "type": "bool"
        }
      ],
      "name": "ApprovalForAll",
      "type": "event"
    },
    {
      "anonymous": false,
      "inputs": [
        {
          "indexed": false,
          "internalType": "uint8",
          "name": "version",
          "type": "uint8"
        }
      ],
      "name": "Initialized",
      "type": "event"
    },
    {
      "anonymous": false,
      "inputs": [
        {
          "indexed": true,
          "internalType": "address",
          "name": "previousOwner",
          "type": "address"
        },
        {
          "indexed": true,
          "internalType": "address",
          "name": "newOwner",
          "type": "address"
        }
      ],
      "name": "OwnershipTransferred",
      "type": "event"
    },
    {
      "anonymous": false,
      "inputs": [
        {
          "indexed": true,
          "internalType": "address",
          "name": "operator",
          "type": "address"
        },
        {
          "indexed": true,
          "internalType": "address",
          "name": "from",
          "type": "address"
        },
        {
          "indexed": true,
          "internalType": "address",
          "name": "to",
          "type": "address"
        },
        {
          "indexed": false,
          "internalType": "uint256[]",
          "name": "ids",
          "type": "uint256[]"
        },
        {
          "indexed": false,
          "internalType": "uint256[]",
          "name": "values",
          "type": "uint256[]"
        }
      ],
      "name": "TransferBatch",
      "type": "event"
    },
    {
      "anonymous": false,
      "inputs": [
        {
          "indexed": true,
          "internalType": "address",
          "name": "operator",
          "type": "address"
        },
        {
          "indexed": true,
          "internalType": "address",
          "name": "from",
          "type": "address"
        },
        {
          "indexed": true,
          "internalType": "address",
          "name": "to",
          "type": "address"
        },
        {
          "indexed": false,
          "internalType": "uint256",
          "name": "id",
          "type": "uint256"
        },
        {
          "indexed": false,
          "internalType": "uint256",
          "name": "value",
          "type": "uint256"
        }
      ],
      "name": "TransferSingle",
      "type": "event"
    },
    {
      "anonymous": false,
      "inputs": [
        {
          "indexed": false,
          "internalType": "string",
          "name": "value",
          "type": "string"
        },
        {
          "indexed": true,
          "internalType": "uint256",
          "name": "id",
          "type": "uint256"
        }
      ],
      "name": "URI",
      "type": "event"
    },
    {
      "inputs": [
        {
          "internalType": "address",
          "name": "account",
          "type": "address"
        },
        {
          "internalType": "uint256",
          "name": "id",
          "type": "uint256"
        }
      ],
      "name": "balanceOf",
      "outputs": [
        {
          "internalType": "uint256",
          "name": "",
          "type": "uint256"
        }
      ],
      "stateMutability": "view",
      "type": "function"
    },
    {
      "inputs": [
        {
          "internalType": "address[]",
          "name": "accounts",
          "type": "address[]"
        },
        {
          "internalType": "uint256[]",
          "name": "ids",
          "type": "uint256[]"
        }
      ],
      "name": "balanceOfBatch",
      "outputs": [
        {
          "internalType": "uint256[]",
          "name": "",
          "type": "uint256[]"
        }
      ],
      "stateMutability": "view",
      "type": "function"
    },
    {
      "inputs": [
        {
          "internalType": "address",
          "name": "_account",
          "type": "address"
        },
        {
          "internalType": "uint256",
          "name": "_tokenId",
          "type": "uint256"
        },
        {
          "internalType": "uint256",
          "name": "_amount",
          "type": "uint256"
        }
      ],
      "name": "burn",
      "outputs": [],
      "stateMutability": "nonpayable",
      "type": "function"
    },
    {
      "inputs": [
        {
          "internalType": "address",
          "name": "_account",
          "type": "address"
        },
        {
          "internalType": "uint256[]",
          "name": "_tokenIds",
          "type": "uint256[]"
        },
        {
          "internalType": "uint256[]",
          "name": "_amounts",
          "type": "uint256[]"
        }
      ],
      "name": "burnBatch",
      "outputs": [],
      "stateMutability": "nonpayable",
      "type": "function"
    },
    {
      "inputs": [],
      "name": "getOriginalTokenInfo",
      "outputs": [
        {
          "internalType": "bytes32",
          "name": "",
          "type": "bytes32"
        },
        {
          "internalType": "bytes",
          "name": "",
          "type": "bytes"
        }
      ],
      "stateMutability": "view",
      "type": "function"
    },
    {
      "inputs": [
        {
          "internalType": "bytes32",
          "name": "_originalChain",
          "type": "bytes32"
        },
        {
          "internalType": "bytes",
          "name": "_originalToken",
          "type": "bytes"
        }
      ],
      "name": "initialize",
      "outputs": [],
      "stateMutability": "nonpayable",
      "type": "function"
    },
    {
      "inputs": [
        {
          "internalType": "address",
          "name": "account",
          "type": "address"
        },
        {
          "internalType": "address",
          "name": "operator",
          "type": "address"
        }
      ],
      "name": "isApprovedForAll",
      "outputs": [
        {
          "internalType": "bool",
          "name": "",
          "type": "bool"
        }
      ],
      "stateMutability": "view",
      "type": "function"
    },
    {
      "inputs": [
        {
          "internalType": "address",
          "name": "_recipient",
          "type": "address"
        },
        {
          "internalType": "uint256",
          "name": "_tokenId",
          "type": "uint256"
        },
        {
          "internalType": "uint256",
          "name": "_amount",
          "type": "uint256"
        },
        {
          "internalType": "string",
          "name": "_uri",
          "type": "string"
        }
      ],
      "name": "mint",
      "outputs": [],
      "stateMutability": "nonpayable",
      "type": "function"
    },
    {
      "inputs": [
        {
          "internalType": "address",
          "name": "_recipient",
          "type": "address"
        },
        {
          "internalType": "uint256[]",
          "name": "_tokenIds",
          "type": "uint256[]"
        },
        {
          "internalType": "uint256[]",
          "name": "_amounts",
          "type": "uint256[]"
        },
        {
          "internalType": "string[]",
          "name": "_uris",
          "type": "string[]"
        }
      ],
      "name": "mintBatch",
      "outputs": [],
      "stateMutability": "nonpayable",
      "type": "function"
    },
    {
      "inputs": [],
      "name": "originalChain",
      "outputs": [
        {
          "internalType": "bytes32",
          "name": "",
          "type": "bytes32"
        }
      ],
      "stateMutability": "view",
      "type": "function"
    },
    {
      "inputs": [],
      "name": "originalToken",
      "outputs": [
        {
          "internalType": "bytes",
          "name": "",
          "type": "bytes"
        }
      ],
      "stateMutability": "view",
      "type": "function"
    },
    {
      "inputs": [],
      "name": "owner",
      "outputs": [
        {
          "internalType": "address",
          "name": "",
          "type": "address"
        }
      ],
      "stateMutability": "view",
      "type": "function"
    },
    {
      "inputs": [
        {
          "internalType": "address",
          "name": "_from",
          "type": "address"
        },
        {
          "internalType": "address",
          "name": "_to",
          "type": "address"
        },
        {
          "internalType": "uint256[]",
          "name": "_tokenIds",
          "type": "uint256[]"
        },
        {
          "internalType": "uint256[]",
          "name": "_amounts",
          "type": "uint256[]"
        }
      ],
      "name": "permissionedBatchTransferFrom",
      "outputs": [],
      "stateMutability": "nonpayable",
      "type": "function"
    },
    {
      "inputs": [
        {
          "internalType": "address",
          "name": "_from",
          "type": "address"
        },
        {
          "internalType": "address",
          "name": "_to",
          "type": "address"
        },
        {
          "internalType": "uint256",
          "name": "_tokenId",
          "type": "uint256"
        },
        {
          "internalType": "uint256",
          "name": "_amount",
          "type": "uint256"
        }
      ],
      "name": "permissionedTransferFrom",
      "outputs": [],
      "stateMutability": "nonpayable",
      "type": "function"
    },
    {
      "inputs": [],
      "name": "renounceOwnership",
      "outputs": [],
      "stateMutability": "nonpayable",
      "type": "function"
    },
    {
      "inputs": [
        {
          "internalType": "address",
          "name": "from",
          "type": "address"
        },
        {
          "internalType": "address",
          "name": "to",
          "type": "address"
        },
        {
          "internalType": "uint256[]",
          "name": "ids",
          "type": "uint256[]"
        },
        {
          "internalType": "uint256[]",
          "name": "amounts",
          "type": "uint256[]"
        },
        {
          "internalType": "bytes",
          "name": "data",
          "type": "bytes"
        }
      ],
      "name": "safeBatchTransferFrom",
      "outputs": [],
      "stateMutability": "nonpayable",
      "type": "function"
    },
    {
      "inputs": [
        {
          "internalType": "address",
          "name": "from",
          "type": "address"
        },
        {
          "internalType": "address",
          "name": "to",
          "type": "address"
        },
        {
          "internalType": "uint256",
          "name": "id",
          "type": "uint256"
        },
        {
          "internalType": "uint256",
          "name": "amount",
          "type": "uint256"
        },
        {
          "internalType": "bytes",
          "name": "data",
          "type": "bytes"
        }
      ],
      "name": "safeTransferFrom",
      "outputs": [],
      "stateMutability": "nonpayable",
      "type": "function"
    },
    {
      "inputs": [
        {
          "internalType": "address",
          "name": "operator",
          "type": "address"
        },
        {
          "internalType": "bool",
          "name": "approved",
          "type": "bool"
        }
      ],
      "name": "setApprovalForAll",
      "outputs": [],
      "stateMutability": "nonpayable",
      "type": "function"
    },
    {
      "inputs": [
        {
          "internalType": "bytes4",
          "name": "interfaceId",
          "type": "bytes4"
        }
      ],
      "name": "supportsInterface",
      "outputs": [
        {
          "internalType": "bool",
          "name": "",
          "type": "bool"
        }
      ],
      "stateMutability": "view",
      "type": "function"
    },
    {
      "inputs": [
        {
          "internalType": "address",
          "name": "newOwner",
          "type": "address"
        }
      ],
      "name": "transferOwnership",
      "outputs": [],
      "stateMutability": "nonpayable",
      "type": "function"
    },
    {
      "inputs": [
        {
          "internalType": "uint256",
          "name": "_tokenId",
          "type": "uint256"
        }
      ],
      "name": "uri",
      "outputs": [
        {
          "internalType": "string",
          "name": "",
          "type": "string"
        }
      ],
      "stateMutability": "view",
      "type": "function"
    },
    {
      "inputs": [
        {
          "internalType": "uint256[]",
          "name": "_tokenIds",
          "type": "uint256[]"
        }
      ],
      "name": "uriBatch",
      "outputs": [
        {
          "internalType": "string[]",
          "name": "",
          "type": "string[]"
        }
      ],
      "stateMutability": "view",
      "type": "function"
    }
  ],
  "transactionHash": "0xc4e28b80766e0bff623d35a1294b454d5fc7042a2192c067c42b8776a441168d",
  "args": [],
  "numDeployments": 1,
  "solcInputHash": "f927012e6aa6fda3a07dd46a8e12e942",
  "bytecode": "0x6080806040523461001657612605908161001c8239f35b600080fdfe6040608081526004908136101561001557600080fd5b600091823560e01c908162fdd58e146118e957816301ffc9a71461187b5781630d1ac6f8146117ff5781630e7c1cb51461172c5781630e89341c146116535781631d8aca74146116075781632eb2c2d6146115465781634e1273f4146113ad57816353638be51461138e57816366e7990d14610fc25781636b20c45414610e8b578163715018a614610e2e5781638da5cb5b14610e0557816396d7e22914610c50578163989ee11a14610b71578163a22cb46514610a93578163a55784ef1461066d578163bb7fde7114610364578163e985e9c514610316578163f242432a1461027e578163f2fde38b146101eb575063f5298aca1461011457600080fd5b346101e75760603660031901126101e7576101e49082610132611919565b60243560443591610141611b23565b6001600160a01b0316916101568315156124ff565b61015f826123b6565b50610169816123b6565b508385516101768161194a565b528184526065602052848420838552602052808585205461019982821015612557565b83865260656020528686208587526020520385852055845191825260208201527fc3d58168c5ae7397731d063d5bbf3d657854427343f4c083240f7aacaa2d0f62843392a45161194a565b80f35b5080fd5b90503461027a57602036600319011261027a57610206611919565b9161020f611b23565b6001600160a01b0383161561022857836101e484611b7b565b906020608492519162461bcd60e51b8352820152602660248201527f4f776e61626c653a206e6577206f776e657220697320746865207a65726f206160448201526564647265737360d01b6064820152fd5b8280fd5b9190503461027a5760a036600319011261027a5761029a611919565b6102a2611934565b90608435936001600160401b038511610312576102c86102e6916101e496369101611ad1565b936001600160a01b038316338114919082156102f3575b5050611c98565b6064359160443591611dc1565b60ff9250885260666020528088203389526020528720541638806102df565b8580fd5b5050346101e757806003193601126101e75760ff81602093610336611919565b61033e611934565b6001600160a01b0391821683526066875283832091168252855220549151911615158152f35b9190503461027a57608036600319011261027a57610380611919565b6024906001600160401b03908590604435908435606435858111610669573660238201121561066957808901359586116106695736878783010111610669576103c7611b23565b81855260209560cb875287898720926103ea836103e48654611a11565b86612402565b8790601f84116001146105e95788929190846105dc575b5050508160011b916000199060031b1c19161790555b8651916104238361194a565b8483526001600160a01b0381169061043c8215156124a9565b610445836123b6565b5061044f856123b6565b5082865260658752888620828752875288862061046d868254611db4565b905581868a51858152878a8201527fc3d58168c5ae7397731d063d5bbf3d657854427343f4c083240f7aacaa2d0f628c3392a43b6104a9578480f35b848995886104ea89968c519889978896879563f23a6e6160e01b9d8e885233908801528601526044850152606484015260a0608484015260a4830190611a4b565b03925af18791816105ad575b5061057a5750506001916105086122d5565b6308c379a014610546575b50506105295750505b3880808084818080808480f35b5162461bcd60e51b815291508190610542908201612361565b0390fd5b61054e6122f3565b908161055a5750610513565b845162461bcd60e51b815280870193909352829161054291830190611a4b565b6001600160e01b031916039150610594905057505061051c565b5162461bcd60e51b81529150819061054290820161228c565b6105ce919250843d86116105d5575b6105c6818361197b565b81019061226c565b90386104f6565b503d6105bc565b0101359050883880610401565b848952898920929091601f1985168a5b8c82821061063c57505090856001969594939210610620575b50505050811b019055610417565b60001960f88660031b161c199201013516905538808a81610612565b92969798999a9b509394600190839294888801013581550195019201918b918f9a999897969594936105f9565b8480fd5b8383346101e75760031991608036840112610a905761068a611919565b926001600160401b0360248035828111610669576106ab90369089016119b3565b96604435838111610312576106c390369083016119b3565b91606435848111610a8c5736602382011215610a8c5780830135946106e78661199c565b916106f48a51938461197b565b868352602096848885019160051b83010191368311610a8857858101915b838310610a4d5750505050610725611b23565b8a518251036109f0578a51918b895b8481106108f2575050505050865161074b8161194a565b8681526001600160a01b038916956107648715156124a9565b6107718b51865114611fb0565b875b8b518110156107bf57808c6107968261078f6107ba958b611c6e565b5192611c6e565b518b52606589528b8b208a8c5289526107b38c8c20918254611db4565b9055611c49565b610773565b509195878b92959499989a82828b517f4a39dc06d4c0dbc64b70af90fd698a233a518aa5d07e595d983b8c0526c8f7fb3391806107fd8c8b8361200d565b0390a43b6108085780f35b80888b9789968c519889978896879563bc197c8160e01b9d8e885233908801528601526044850160a0905260a4850161084091611aef565b8285820301606486015261085391611aef565b9083820301608484015261086691611a4b565b03925af18791816108d3575b506108b95750506001916108846122d5565b6308c379a0146108a5575b50506105295750505b8180808080808080808980f35b6108ad6122f3565b908161055a575061088f565b6001600160e01b0319160391506105949050575050610898565b6108eb919250843d86116105d5576105c6818361197b565b9088610872565b610907816109008186611c6e565b5193611c6e565b518b5260cb89528b8b2082518581116109de5761092e816109288454611a11565b84612402565b8a8d601f8311600114610971579061095f9583610966575b50508160011b916000199060031b1c1916179055611c49565b8c90610734565b015190503880610946565b91929394601f1984168584528d80852094905b8282106109c7575050908461095f979695949392106109ae575b505050600190811b019055611c49565b015160001960f88460031b161c1916905538808061099e565b60018596829396860151815501950193018e610984565b634e487b7160e01b8d5260418952878dfd5b885162461bcd60e51b81528085018790526032818501527f497373756564455243313135353a205f746f6b656e49647320616e64205f75726044820152710d2e640d8cadccee8d040dad2e6dac2e8c6d60731b6064820152608490fd5b8235858111610a8457820136604382011215610a84578a91610a798392369060448c8201359101611a8b565b815201920191610712565b8c80fd5b8a80fd5b8680fd5b80fd5b9190503461027a578060031936011261027a57610aae611919565b9060243591821515809303610669576001600160a01b031692338414610b1d5750338452606660205280842083855260205280842060ff1981541660ff8416179055519081527f17307eab39ab6107e8899845ad3d59bd9653f200f220920489ca2b5937696c3160203392a380f35b6020608492519162461bcd60e51b8352820152602960248201527f455243313135353a2073657474696e6720617070726f76616c20737461747573604482015268103337b91039b2b63360b91b6064820152fd5b828434610a905780600319360112610a905760c954908251908060ca54610b9781611a11565b80855291600191808316908115610c265750600114610bdd575b50505090610bc481610bd993038261197b565b83519384938452806020850152830190611a4b565b0390f35b925060ca83526000805160206125b08339815191525b828410610c0e575050508101602001610bc482610bd9610bb1565b80546020858701810191909152909301928101610bf3565b869550610bd996935060209250610bc494915060ff191682840152151560051b8201019293610bb1565b90508234610a9057602091826003193601126101e75780356001600160401b03811161027a57610c82913691016119b3565b908151610c8e8161199c565b92610c9b8651948561197b565b818452601f19610caa8361199c565b0185845b828110610df557505050825b828110610d1d5750505083519280840190808552835180925280868601968360051b870101940192955b828710610cf15785850386f35b909192938280610d0d600193603f198a82030186528851611a4b565b9601920196019592919092610ce4565b610d278183611c6e565b51845260cb86528684208751908590805490610d4282611a11565b908185526001928b8482169182600014610dce575050600114610d94575b50505090610d7481610d8f9493038261197b565b610d7e8288611c6e565b52610d898187611c6e565b50611c49565b610cba565b8a935088528288209188925b828410610db957505050820101610d7482610d8f610d60565b80548685018601528b94909301928101610da0565b60ff19168782015292151560051b86019092019350610d749250849150610d8f9050610d60565b6060828289010152018690610cae565b5050346101e757816003193601126101e75760975490516001600160a01b039091168152602090f35b8334610a905780600319360112610a9057610e47611b23565b609780546001600160a01b0319811690915581906001600160a01b03167f8be0079c531659141344cd1fd0a4f28419497f9722a3daafe3b4186f6b6457e08280a380f35b90508234610a90576060366003190112610a9057610ea7611919565b926001600160401b0392602435848111610fbe57610ec890369083016119b3565b93604435908111610fbe57610edf913691016119b3565b93610ee8611b23565b6001600160a01b0316610efc8115156124ff565b610f098451865114611fb0565b828251610f158161194a565b52825b8451811015610f7b5780610f2f610f769287611c6e565b51610f3a8289611c6e565b51908087526065602090808252878920878a5282528789205492610f6085851015612557565b8952815286882090868952520384862055611c49565b610f18565b50916101e49281947f4a39dc06d4c0dbc64b70af90fd698a233a518aa5d07e595d983b8c0526c8f7fb610fb588865191829133958361200d565b0390a45161194a565b8380fd5b9190503461027a578060031936011261027a576001600160401b0360243581811161066957610ff49036908501611ad1565b9084549360ff8560081c161592838094611381575b801561136a575b1561131057600195848760ff1983161789556112ff575b508451916110348361194a565b87835261105060ff895460081c1661104b81612449565b612449565b82518481116112ec5780611065606754611a11565b94601f958681116112a0575b50602090868311600114611221578b92611216575b5050600019600383901b1c191690881b176067555b6110af60ff895460081c1661104b81612449565b6110b833611b7b565b803560c955815193841161120357509082916110d560ca54611a11565b8281116111bf575b506020918311600114611152578792611147575b5050600019600383901b1c191690841b1760ca555b61110e578280f35b825461ff0019168355519081527f7f26b83ff96e1f2b6a682f133852f6798a09c465da95921460cefb384740249890602090a138808280f35b0151905038806110f1565b60ca88528693506000805160206125b08339815191529190601f198416895b8181106111a75750841161118e575b505050811b0160ca55611106565b015160001960f88460031b161c19169055388080611180565b82840151855589969094019360209384019301611171565b6111f49060ca8a526000805160206125b08339815191528480870160051c820192602088106111fa575b0160051c01906123eb565b386110dd565b925081926111e9565b634e487b7160e01b885260419052602487fd5b015190503880611086565b60678c528a93507f9787eeb91fe3101235e4a76063c7023ecb40f923f97916639c598592fa30d6ae9190601f1984168d5b8181106112885750841161126f575b505050811b0160675561109b565b015160001960f88460031b161c19169055388080611261565b8284015185558d969094019360209384019301611252565b6112e69060678d527f9787eeb91fe3101235e4a76063c7023ecb40f923f97916639c598592fa30d6ae8880860160051c820192602087106111fa570160051c01906123eb565b38611071565b634e487b7160e01b895260418252602489fd5b61ffff191661010117875538611027565b845162461bcd60e51b8152602081840152602e60248201527f496e697469616c697a61626c653a20636f6e747261637420697320616c72656160448201526d191e481a5b9a5d1a585b1a5e995960921b6064820152608490fd5b50303b1580156110105750600160ff871614611010565b50600160ff871610611009565b5050346101e757816003193601126101e75760209060c9549051908152f35b90503461027a578160031936011261027a5780356001600160401b0380821161066957366023830112156106695781830135906113e98261199c565b926113f68651948561197b565b82845260209260248486019160051b8301019136831161154257602401905b82821061151f575050506024359081116103125761143690369085016119b3565b9282518451036114cc575081519461144d8661199c565b9561145a8651978861197b565b808752611469601f199161199c565b0136838801375b82518110156114ba576114b5906114a56001600160a01b036114928387611c6e565b511661149e8388611c6e565b5190611bc4565b6114af8289611c6e565b52611c49565b611470565b845182815280610bd981850189611aef565b60849185519162461bcd60e51b8352820152602960248201527f455243313135353a206163636f756e747320616e6420696473206c656e677468604482015268040dad2e6dac2e8c6d60bb1b6064820152fd5b81356001600160a01b038116810361153e578152908401908401611415565b8980fd5b8880fd5b9190503461027a5760a036600319011261027a57611562611919565b9161156b611934565b6001600160401b039390604435858111610a8c5761158c90369085016119b3565b91606435868111611603576115a490369086016119b3565b93608435968711611603576115c26115df916101e498369101611ad1565b956001600160a01b038316338114919082156115e4575050611c98565b612032565b60ff92508a526066602052808a20338b526020528920541638806102df565b8780fd5b5050346101e75760803660031901126101e7576101e490611626611919565b9061162f611934565b90611638611b23565b51916116438361194a565b8483526064359160443591611dc1565b9190503461027a5760209182600319360112610fbe5735835260cb825280832081519384918181549061168582611a11565b928386526001928884821691826000146117025750506001146116c4575b8588610bd9896116b5848a038561197b565b51928284938452830190611a4b565b87945081939291528383205b8284106116ea57505050820101816116b5610bd9386116a3565b8054848a0186015288955087949093019281016116d0565b60ff19168882015294151560051b870190940194508593506116b59250610bd991503890506116a3565b5050346101e757816003193601126101e7578051908260ca5461174e81611a11565b808552916001918083169081156117d7575060011461178c575b50505061177a82610bd994038361197b565b51918291602083526020830190611a4b565b945060ca85526000805160206125b08339815191525b8286106117bf5750505061177a826020610bd99582010194611768565b805460208787018101919091529095019481016117a2565b610bd997508693506020925061177a94915060ff191682840152151560051b82010194611768565b9190503461027a57608036600319011261027a5761181b611919565b90611824611934565b6001600160401b0390604435828111610a8c5761184490369087016119b3565b91606435908111610a8c576101e49561185f913691016119b3565b92611868611b23565b51936118738561194a565b868552612032565b90503461027a57602036600319011261027a57359063ffffffff60e01b821680920361027a5760209250636cdb3d1360e11b82149182156118d8575b82156118c7575b50519015158152f35b6301ffc9a760e01b149150386118be565b6303a24d0760e21b811492506118b7565b5050346101e757806003193601126101e757602090611912611909611919565b60243590611bc4565b9051908152f35b600435906001600160a01b038216820361192f57565b600080fd5b602435906001600160a01b038216820361192f57565b602081019081106001600160401b0382111761196557604052565b634e487b7160e01b600052604160045260246000fd5b90601f801991011681019081106001600160401b0382111761196557604052565b6001600160401b0381116119655760051b60200190565b81601f8201121561192f578035916119ca8361199c565b926119d8604051948561197b565b808452602092838086019260051b82010192831161192f578301905b828210611a02575050505090565b813581529083019083016119f4565b90600182811c92168015611a41575b6020831014611a2b57565b634e487b7160e01b600052602260045260246000fd5b91607f1691611a20565b919082519283825260005b848110611a77575050826000602080949584010152601f8019910116010190565b602081830181015184830182015201611a56565b9291926001600160401b0382116119655760405191611ab4601f8201601f19166020018461197b565b82948184528183011161192f578281602093846000960137010152565b9080601f8301121561192f57816020611aec93359101611a8b565b90565b90815180825260208080930193019160005b828110611b0f575050505090565b835185529381019392810192600101611b01565b6097546001600160a01b03163303611b3757565b606460405162461bcd60e51b815260206004820152602060248201527f4f776e61626c653a2063616c6c6572206973206e6f7420746865206f776e65726044820152fd5b609780546001600160a01b039283166001600160a01b0319821681179092559091167f8be0079c531659141344cd1fd0a4f28419497f9722a3daafe3b4186f6b6457e0600080a3565b6001600160a01b0316908115611bf157600052606560205260406000209060005260205260406000205490565b60405162461bcd60e51b815260206004820152602a60248201527f455243313135353a2061646472657373207a65726f206973206e6f742061207660448201526930b634b21037bbb732b960b11b6064820152608490fd5b6000198114611c585760010190565b634e487b7160e01b600052601160045260246000fd5b8051821015611c825760209160051b010190565b634e487b7160e01b600052603260045260246000fd5b15611c9f57565b60405162461bcd60e51b815260206004820152602e60248201527f455243313135353a2063616c6c6572206973206e6f7420746f6b656e206f776e60448201526d195c881bdc88185c1c1c9bdd995960921b6064820152608490fd5b15611d0257565b60405162461bcd60e51b815260206004820152602560248201527f455243313135353a207472616e7366657220746f20746865207a65726f206164604482015264647265737360d81b6064820152608490fd5b15611d5c57565b60405162461bcd60e51b815260206004820152602a60248201527f455243313135353a20696e73756666696369656e742062616c616e636520666f60448201526939103a3930b739b332b960b11b6064820152608490fd5b91908201809211611c5857565b6001600160a01b03949193858516939192909190611de0851515611cfb565b611de9826123b6565b50611df3836123b6565b506000948286526020966065885260409889882096169586885288528489882054611e2082821015611d55565b85895260658a528a8920888a528a520389882055838752606588528887208288528852888720611e51868254611db4565b905581868a51868152878b8201527fc3d58168c5ae7397731d063d5bbf3d657854427343f4c083240f7aacaa2d0f628c3392a43b611e94575b5050505050505050565b611ed6938688948a519687958694859363f23a6e6160e01b9b8c865233600487015260248601526044850152606484015260a0608484015260a4830190611a4b565b03925af1839181611f91575b50611f61575050600191611ef46122d5565b6308c379a014611f2b575b5050611f1457505b3880808080808080611e8a565b5162461bcd60e51b81528061054260048201612361565b611f336122f3565b9182611f3f5750611eff565b8461054291505192839262461bcd60e51b845260048401526024830190611a4b565b6001600160e01b031916039150611f7a90505750611f07565b5162461bcd60e51b8152806105426004820161228c565b611fa9919250853d87116105d5576105c6818361197b565b9038611ee2565b15611fb757565b60405162461bcd60e51b815260206004820152602860248201527f455243313135353a2069647320616e6420616d6f756e7473206c656e677468206044820152670dad2e6dac2e8c6d60c31b6064820152608490fd5b9091612024611aec93604084526040840190611aef565b916020818403910152611aef565b94916120418151855114611fb0565b6001600160a01b039282841692612059841515611cfb565b60005b83518110156120eb57806120736120e69286611c6e565b516107b3888c612083858d611c6e565b51938060005260659085602093838552604095866000209116908160005285528560002054906120b583831015611d55565b8360005284865286600020906000528552038460002055600052815281600020908a60005252600020918254611db4565b61205c565b5095949291939096169481866040517f4a39dc06d4c0dbc64b70af90fd698a233a518aa5d07e595d983b8c0526c8f7fb339180612129898b8361200d565b0390a43b612139575b5050505050565b61217a600060209461219c61218d956040519889978896879563bc197c8160e01b9d8e8852336004890152602488015260a0604488015260a4870190611aef565b6003199384878303016064880152611aef565b91848303016084850152611a4b565b03925af16000918161224c575b5061222457505060016121ba6122d5565b6308c379a0146121ed575b6121d4575b3880808080612132565b60405162461bcd60e51b81528061054260048201612361565b6121f56122f3565b8061220057506121c5565b60405162461bcd60e51b815260206004820152908190610542906024830190611a4b565b6001600160e01b031916146121ca5760405162461bcd60e51b8152806105426004820161228c565b61226591925060203d81116105d5576105c6818361197b565b90386121a9565b9081602091031261192f57516001600160e01b03198116810361192f5790565b60809060208152602860208201527f455243313135353a204552433131353552656365697665722072656a656374656040820152676420746f6b656e7360c01b60608201520190565b60009060033d116122e257565b905060046000803e60005160e01c90565b600060443d10611aec57604051600319913d83016004833e81516001600160401b03918282113d60248401111761235057818401948551938411612358573d850101602084870101116123505750611aec9291016020019061197b565b949350505050565b50949350505050565b60809060208152603460208201527f455243313135353a207472616e7366657220746f206e6f6e2d455243313135356040820152732932b1b2b4bb32b91034b6b83632b6b2b73a32b960611b60608201520190565b60405190604082018281106001600160401b038211176119655760405260018252602082016020368237825115611c82575290565b8181106123f6575050565b600081556001016123eb565b9190601f811161241157505050565b61243d926000526020600020906020601f840160051c8301931061243f575b601f0160051c01906123eb565b565b9091508190612430565b1561245057565b60405162461bcd60e51b815260206004820152602b60248201527f496e697469616c697a61626c653a20636f6e7472616374206973206e6f74206960448201526a6e697469616c697a696e6760a81b6064820152608490fd5b156124b057565b60405162461bcd60e51b815260206004820152602160248201527f455243313135353a206d696e7420746f20746865207a65726f206164647265736044820152607360f81b6064820152608490fd5b1561250657565b60405162461bcd60e51b815260206004820152602360248201527f455243313135353a206275726e2066726f6d20746865207a65726f206164647260448201526265737360e81b6064820152608490fd5b1561255e57565b60405162461bcd60e51b8152602060048201526024808201527f455243313135353a206275726e20616d6f756e7420657863656564732062616c604482015263616e636560e01b6064820152608490fdfe42d72674974f694b5f5159593243114d38a5c39c89d6b62fee061ff523240ee1a26469706673582212203b7faa7fa4ff5d90db722df109711333da75e2eb83c4fadd5517fb2a6810821364736f6c63430008110033",
  "devdoc": {
    "kind": "dev",
    "methods": {
      "balanceOf(address,uint256)": {
        "details": "See {IERC1155-balanceOf}. Requirements: - `account` cannot be the zero address."
      },
      "balanceOfBatch(address[],uint256[])": {
        "details": "See {IERC1155-balanceOfBatch}. Requirements: - `accounts` and `ids` must have the same length."
      },
      "isApprovedForAll(address,address)": {
        "details": "See {IERC1155-isApprovedForAll}."
      },
      "owner()": {
        "details": "Returns the address of the current owner."
      },
      "renounceOwnership()": {
        "details": "Leaves the contract without owner. It will not be possible to call `onlyOwner` functions anymore. Can only be called by the current owner. NOTE: Renouncing ownership will leave the contract without an owner, thereby removing any functionality that is only available to the owner."
      },
      "safeBatchTransferFrom(address,address,uint256[],uint256[],bytes)": {
        "details": "See {IERC1155-safeBatchTransferFrom}."
      },
      "safeTransferFrom(address,address,uint256,uint256,bytes)": {
        "details": "See {IERC1155-safeTransferFrom}."
      },
      "setApprovalForAll(address,bool)": {
        "details": "See {IERC1155-setApprovalForAll}."
      },
      "supportsInterface(bytes4)": {
        "details": "See {IERC165-supportsInterface}."
      },
      "transferOwnership(address)": {
        "details": "Transfers ownership of the contract to a new account (`newOwner`). Can only be called by the current owner."
      }
    },
    "version": 1
  },
  "userdoc": {
    "kind": "user",
    "methods": {},
    "version": 1
  },
  "storageLayout": {
    "storage": [
      {
        "astId": 138,
        "contract": "contracts/tokens/IssuedERC1155.sol:IssuedERC1155",
        "label": "_initialized",
        "offset": 0,
        "slot": "0",
        "type": "t_uint8"
      },
      {
        "astId": 141,
        "contract": "contracts/tokens/IssuedERC1155.sol:IssuedERC1155",
        "label": "_initializing",
        "offset": 1,
        "slot": "0",
        "type": "t_bool"
      },
      {
        "astId": 3876,
        "contract": "contracts/tokens/IssuedERC1155.sol:IssuedERC1155",
        "label": "__gap",
        "offset": 0,
        "slot": "1",
        "type": "t_array(t_uint256)50_storage"
      },
      {
        "astId": 4095,
        "contract": "contracts/tokens/IssuedERC1155.sol:IssuedERC1155",
        "label": "__gap",
        "offset": 0,
        "slot": "51",
        "type": "t_array(t_uint256)50_storage"
      },
      {
        "astId": 329,
        "contract": "contracts/tokens/IssuedERC1155.sol:IssuedERC1155",
        "label": "_balances",
        "offset": 0,
        "slot": "101",
        "type": "t_mapping(t_uint256,t_mapping(t_address,t_uint256))"
      },
      {
        "astId": 335,
        "contract": "contracts/tokens/IssuedERC1155.sol:IssuedERC1155",
        "label": "_operatorApprovals",
        "offset": 0,
        "slot": "102",
        "type": "t_mapping(t_address,t_mapping(t_address,t_bool))"
      },
      {
        "astId": 337,
        "contract": "contracts/tokens/IssuedERC1155.sol:IssuedERC1155",
        "label": "_uri",
        "offset": 0,
        "slot": "103",
        "type": "t_string_storage"
      },
      {
        "astId": 1544,
        "contract": "contracts/tokens/IssuedERC1155.sol:IssuedERC1155",
        "label": "__gap",
        "offset": 0,
        "slot": "104",
        "type": "t_array(t_uint256)47_storage"
      },
      {
        "astId": 10,
        "contract": "contracts/tokens/IssuedERC1155.sol:IssuedERC1155",
        "label": "_owner",
        "offset": 0,
        "slot": "151",
        "type": "t_address"
      },
      {
        "astId": 130,
        "contract": "contracts/tokens/IssuedERC1155.sol:IssuedERC1155",
        "label": "__gap",
        "offset": 0,
        "slot": "152",
        "type": "t_array(t_uint256)49_storage"
      },
      {
        "astId": 13223,
        "contract": "contracts/tokens/IssuedERC1155.sol:IssuedERC1155",
        "label": "originalChain",
        "offset": 0,
        "slot": "201",
        "type": "t_bytes32"
      },
      {
        "astId": 13225,
        "contract": "contracts/tokens/IssuedERC1155.sol:IssuedERC1155",
        "label": "originalToken",
        "offset": 0,
        "slot": "202",
        "type": "t_bytes_storage"
      },
      {
        "astId": 13229,
        "contract": "contracts/tokens/IssuedERC1155.sol:IssuedERC1155",
        "label": "uris",
        "offset": 0,
        "slot": "203",
        "type": "t_mapping(t_uint256,t_string_storage)"
      }
    ],
    "types": {
      "t_address": {
        "encoding": "inplace",
        "label": "address",
        "numberOfBytes": "20"
      },
      "t_array(t_uint256)47_storage": {
        "base": "t_uint256",
        "encoding": "inplace",
        "label": "uint256[47]",
        "numberOfBytes": "1504"
      },
      "t_array(t_uint256)49_storage": {
        "base": "t_uint256",
        "encoding": "inplace",
        "label": "uint256[49]",
        "numberOfBytes": "1568"
      },
      "t_array(t_uint256)50_storage": {
        "base": "t_uint256",
        "encoding": "inplace",
        "label": "uint256[50]",
        "numberOfBytes": "1600"
      },
      "t_bool": {
        "encoding": "inplace",
        "label": "bool",
        "numberOfBytes": "1"
      },
      "t_bytes32": {
        "encoding": "inplace",
        "label": "bytes32",
        "numberOfBytes": "32"
      },
      "t_bytes_storage": {
        "encoding": "bytes",
        "label": "bytes",
        "numberOfBytes": "32"
      },
      "t_mapping(t_address,t_bool)": {
        "encoding": "mapping",
        "key": "t_address",
        "label": "mapping(address => bool)",
        "numberOfBytes": "32",
        "value": "t_bool"
      },
      "t_mapping(t_address,t_mapping(t_address,t_bool))": {
        "encoding": "mapping",
        "key": "t_address",
        "label": "mapping(address => mapping(address => bool))",
        "numberOfBytes": "32",
        "value": "t_mapping(t_address,t_bool)"
      },
      "t_mapping(t_address,t_uint256)": {
        "encoding": "mapping",
        "key": "t_address",
        "label": "mapping(address => uint256)",
        "numberOfBytes": "32",
        "value": "t_uint256"
      },
      "t_mapping(t_uint256,t_mapping(t_address,t_uint256))": {
        "encoding": "mapping",
        "key": "t_uint256",
        "label": "mapping(uint256 => mapping(address => uint256))",
        "numberOfBytes": "32",
        "value": "t_mapping(t_address,t_uint256)"
      },
      "t_mapping(t_uint256,t_string_storage)": {
        "encoding": "mapping",
        "key": "t_uint256",
        "label": "mapping(uint256 => string)",
        "numberOfBytes": "32",
        "value": "t_string_storage"
      },
      "t_string_storage": {
        "encoding": "bytes",
        "label": "string",
        "numberOfBytes": "32"
      },
      "t_uint256": {
        "encoding": "inplace",
        "label": "uint256",
        "numberOfBytes": "32"
      },
      "t_uint8": {
        "encoding": "inplace",
        "label": "uint8",
        "numberOfBytes": "1"
      }
    }
  }
}