{
  "address": "0x7207E5bE17217E4043073e2B24a22e5Aea6FddF5",
  "abi": [
    {
      "inputs": [
        {
          "internalType": "bytes32",
          "name": "_currentChain",
          "type": "bytes32"
        },
        {
          "internalType": "bool",
          "name": "_isProxyChain",
          "type": "bool"
        },
        {
          "internalType": "bytes32[]",
          "name": "_registeredChains",
          "type": "bytes32[]"
        },
        {
          "internalType": "address",
          "name": "_issuedTokenImplementation",
          "type": "address"
        },
        {
          "internalType": "address",
          "name": "_validator",
          "type": "address"
        }
      ],
      "stateMutability": "nonpayable",
      "type": "constructor"
    },
    {
      "anonymous": false,
      "inputs": [
        {
          "indexed": true,
          "internalType": "bytes32",
          "name": "transferId",
          "type": "bytes32"
        },
        {
          "indexed": false,
          "internalType": "uint256",
          "name": "externalNonce",
          "type": "uint256"
        },
        {
          "indexed": false,
          "internalType": "bytes32",
          "name": "originalChain",
          "type": "bytes32"
        },
        {
          "indexed": false,
          "internalType": "bytes",
          "name": "originalToken",
          "type": "bytes"
        },
        {
          "indexed": false,
          "internalType": "bytes32",
          "name": "initialChain",
          "type": "bytes32"
        },
        {
          "indexed": false,
          "internalType": "bytes32",
          "name": "targetChain",
          "type": "bytes32"
        },
        {
          "indexed": false,
          "internalType": "uint256[]",
          "name": "tokenIds",
          "type": "uint256[]"
        },
        {
          "indexed": false,
          "internalType": "uint256[]",
          "name": "amounts",
          "type": "uint256[]"
        },
        {
          "indexed": false,
          "internalType": "bytes",
          "name": "sender",
          "type": "bytes"
        },
        {
          "indexed": false,
          "internalType": "bytes",
          "name": "recipient",
          "type": "bytes"
        }
      ],
      "name": "BatchTransferFromOtherChain",
      "type": "event"
    },
    {
      "anonymous": false,
      "inputs": [
        {
          "indexed": true,
          "internalType": "bytes32",
          "name": "transferId",
          "type": "bytes32"
        },
        {
          "indexed": false,
          "internalType": "uint256",
          "name": "nonce",
          "type": "uint256"
        },
        {
          "indexed": false,
          "internalType": "bytes32",
          "name": "initialChain",
          "type": "bytes32"
        },
        {
          "indexed": false,
          "internalType": "bytes32",
          "name": "originalChain",
          "type": "bytes32"
        },
        {
          "indexed": false,
          "internalType": "bytes",
          "name": "originalTokenAddress",
          "type": "bytes"
        },
        {
          "indexed": false,
          "internalType": "bytes32",
          "name": "targetChain",
          "type": "bytes32"
        },
        {
          "indexed": false,
          "internalType": "uint256[]",
          "name": "tokenIds",
          "type": "uint256[]"
        },
        {
          "indexed": false,
          "internalType": "uint256[]",
          "name": "amounts",
          "type": "uint256[]"
        },
        {
          "indexed": false,
          "internalType": "bytes",
          "name": "sender",
          "type": "bytes"
        },
        {
          "indexed": false,
          "internalType": "bytes",
          "name": "recipient",
          "type": "bytes"
        },
        {
          "indexed": false,
          "internalType": "string[]",
          "name": "tokenUris",
          "type": "string[]"
        }
      ],
      "name": "BatchTransferToOtherChain",
      "type": "event"
    },
    {
      "anonymous": false,
      "inputs": [
        {
          "indexed": true,
          "internalType": "bytes32",
          "name": "transferId",
          "type": "bytes32"
        },
        {
          "indexed": false,
          "internalType": "uint256",
          "name": "externalNonce",
          "type": "uint256"
        },
        {
          "indexed": false,
          "internalType": "bytes32",
          "name": "originalChain",
          "type": "bytes32"
        },
        {
          "indexed": false,
          "internalType": "bytes",
          "name": "originalToken",
          "type": "bytes"
        },
        {
          "indexed": false,
          "internalType": "bytes32",
          "name": "initialChain",
          "type": "bytes32"
        },
        {
          "indexed": false,
          "internalType": "bytes32",
          "name": "targetChain",
          "type": "bytes32"
        },
        {
          "indexed": false,
          "internalType": "uint256",
          "name": "tokenId",
          "type": "uint256"
        },
        {
          "indexed": false,
          "internalType": "uint256",
          "name": "amount",
          "type": "uint256"
        },
        {
          "indexed": false,
          "internalType": "bytes",
          "name": "sender",
          "type": "bytes"
        },
        {
          "indexed": false,
          "internalType": "bytes",
          "name": "recipient",
          "type": "bytes"
        }
      ],
      "name": "TransferFromOtherChain",
      "type": "event"
    },
    {
      "anonymous": false,
      "inputs": [
        {
          "indexed": true,
          "internalType": "bytes32",
          "name": "transferId",
          "type": "bytes32"
        },
        {
          "indexed": false,
          "internalType": "uint256",
          "name": "nonce",
          "type": "uint256"
        },
        {
          "indexed": false,
          "internalType": "bytes32",
          "name": "initialChain",
          "type": "bytes32"
        },
        {
          "indexed": false,
          "internalType": "bytes32",
          "name": "originalChain",
          "type": "bytes32"
        },
        {
          "indexed": false,
          "internalType": "bytes",
          "name": "originalTokenAddress",
          "type": "bytes"
        },
        {
          "indexed": false,
          "internalType": "bytes32",
          "name": "targetChain",
          "type": "bytes32"
        },
        {
          "indexed": false,
          "internalType": "uint256",
          "name": "tokenId",
          "type": "uint256"
        },
        {
          "indexed": false,
          "internalType": "uint256",
          "name": "amount",
          "type": "uint256"
        },
        {
          "indexed": false,
          "internalType": "bytes",
          "name": "sender",
          "type": "bytes"
        },
        {
          "indexed": false,
          "internalType": "bytes",
          "name": "recipient",
          "type": "bytes"
        },
        {
          "indexed": false,
          "internalType": "string",
          "name": "tokenUri",
          "type": "string"
        }
      ],
      "name": "TransferToOtherChain",
      "type": "event"
    },
    {
      "inputs": [
        {
          "internalType": "bytes32",
          "name": "_originalChain",
          "type": "bytes32"
        },
        {
          "internalType": "bytes",
          "name": "_originalToken",
          "type": "bytes"
        },
        {
          "internalType": "address",
          "name": "_account",
          "type": "address"
        },
        {
          "internalType": "uint256",
          "name": "_tokenId",
          "type": "uint256"
        }
      ],
      "name": "balances",
      "outputs": [
        {
          "internalType": "uint256",
          "name": "",
          "type": "uint256"
        }
      ],
      "stateMutability": "view",
      "type": "function"
    },
    {
      "inputs": [
        {
          "internalType": "uint256",
          "name": "_externalNonce",
          "type": "uint256"
        },
        {
          "internalType": "bytes32",
          "name": "_originalChain",
          "type": "bytes32"
        },
        {
          "internalType": "bytes",
          "name": "_originalToken",
          "type": "bytes"
        },
        {
          "internalType": "bytes32",
          "name": "_initialChain",
          "type": "bytes32"
        },
        {
          "internalType": "bytes32",
          "name": "_targetChain",
          "type": "bytes32"
        },
        {
          "internalType": "uint256[]",
          "name": "_tokenIds",
          "type": "uint256[]"
        },
        {
          "internalType": "uint256[]",
          "name": "_amounts",
          "type": "uint256[]"
        },
        {
          "internalType": "bytes",
          "name": "_sender",
          "type": "bytes"
        },
        {
          "internalType": "bytes",
          "name": "_recipient",
          "type": "bytes"
        },
        {
          "internalType": "string[]",
          "name": "_tokenUris",
          "type": "string[]"
        }
      ],
      "name": "batchTranferFromOtherChain",
      "outputs": [],
      "stateMutability": "nonpayable",
      "type": "function"
    },
    {
      "inputs": [
        {
          "internalType": "address",
          "name": "_transferedToken",
          "type": "address"
        },
        {
          "internalType": "uint256[]",
          "name": "_tokenIds",
          "type": "uint256[]"
        },
        {
          "internalType": "uint256[]",
          "name": "_amounts",
          "type": "uint256[]"
        },
        {
          "internalType": "bytes32",
          "name": "_targetChain",
          "type": "bytes32"
        },
        {
          "internalType": "bytes",
          "name": "_recipient",
          "type": "bytes"
        }
      ],
      "name": "batchTranferToOtherChain",
      "outputs": [],
      "stateMutability": "nonpayable",
      "type": "function"
    },
    {
      "inputs": [],
      "name": "currentChain",
      "outputs": [
        {
          "internalType": "bytes32",
          "name": "",
          "type": "bytes32"
        }
      ],
      "stateMutability": "view",
      "type": "function"
    },
    {
      "inputs": [
        {
          "internalType": "bytes32",
          "name": "_originalChain",
          "type": "bytes32"
        },
        {
          "internalType": "bytes",
          "name": "_originalToken",
          "type": "bytes"
        }
      ],
      "name": "getIssuedTokenAddress",
      "outputs": [
        {
          "internalType": "address",
          "name": "",
          "type": "address"
        }
      ],
      "stateMutability": "view",
      "type": "function"
    },
    {
      "inputs": [
        {
          "internalType": "uint256",
          "name": "_nonce",
          "type": "uint256"
        },
        {
          "internalType": "bytes32",
          "name": "_initialChain",
          "type": "bytes32"
        }
      ],
      "name": "getTranferId",
      "outputs": [
        {
          "internalType": "bytes32",
          "name": "",
          "type": "bytes32"
        }
      ],
      "stateMutability": "pure",
      "type": "function"
    },
    {
      "inputs": [
        {
          "internalType": "uint256",
          "name": "_nonce",
          "type": "uint256"
        },
        {
          "internalType": "bytes32",
          "name": "_initialChain",
          "type": "bytes32"
        }
      ],
      "name": "getTransferId",
      "outputs": [
        {
          "internalType": "bytes32",
          "name": "",
          "type": "bytes32"
        }
      ],
      "stateMutability": "pure",
      "type": "function"
    },
    {
      "inputs": [],
      "name": "initBlock",
      "outputs": [
        {
          "internalType": "uint256",
          "name": "",
          "type": "uint256"
        }
      ],
      "stateMutability": "view",
      "type": "function"
    },
    {
      "inputs": [
        {
          "internalType": "address",
          "name": "_issuedToken",
          "type": "address"
        }
      ],
      "name": "isIssuedTokenPublished",
      "outputs": [
        {
          "internalType": "bool",
          "name": "",
          "type": "bool"
        }
      ],
      "stateMutability": "view",
      "type": "function"
    },
    {
      "inputs": [],
      "name": "isProxyChain",
      "outputs": [
        {
          "internalType": "bool",
          "name": "",
          "type": "bool"
        }
      ],
      "stateMutability": "view",
      "type": "function"
    },
    {
      "inputs": [],
      "name": "issuedTokenImplementation",
      "outputs": [
        {
          "internalType": "address",
          "name": "",
          "type": "address"
        }
      ],
      "stateMutability": "view",
      "type": "function"
    },
    {
      "inputs": [
        {
          "internalType": "address",
          "name": "",
          "type": "address"
        }
      ],
      "name": "issuedTokens",
      "outputs": [
        {
          "internalType": "bool",
          "name": "",
          "type": "bool"
        }
      ],
      "stateMutability": "view",
      "type": "function"
    },
    {
      "inputs": [],
      "name": "nonce",
      "outputs": [
        {
          "internalType": "uint256",
          "name": "",
          "type": "uint256"
        }
      ],
      "stateMutability": "view",
      "type": "function"
    },
    {
      "inputs": [
        {
          "internalType": "address",
          "name": "operator",
          "type": "address"
        },
        {
          "internalType": "address",
          "name": "from",
          "type": "address"
        },
        {
          "internalType": "uint256[]",
          "name": "ids",
          "type": "uint256[]"
        },
        {
          "internalType": "uint256[]",
          "name": "values",
          "type": "uint256[]"
        },
        {
          "internalType": "bytes",
          "name": "data",
          "type": "bytes"
        }
      ],
      "name": "onERC1155BatchReceived",
      "outputs": [
        {
          "internalType": "bytes4",
          "name": "",
          "type": "bytes4"
        }
      ],
      "stateMutability": "pure",
      "type": "function"
    },
    {
      "inputs": [
        {
          "internalType": "address",
          "name": "operator",
          "type": "address"
        },
        {
          "internalType": "address",
          "name": "from",
          "type": "address"
        },
        {
          "internalType": "uint256",
          "name": "id",
          "type": "uint256"
        },
        {
          "internalType": "uint256",
          "name": "value",
          "type": "uint256"
        },
        {
          "internalType": "bytes",
          "name": "data",
          "type": "bytes"
        }
      ],
      "name": "onERC1155Received",
      "outputs": [
        {
          "internalType": "bytes4",
          "name": "",
          "type": "bytes4"
        }
      ],
      "stateMutability": "pure",
      "type": "function"
    },
    {
      "inputs": [
        {
          "internalType": "bytes32",
          "name": "",
          "type": "bytes32"
        }
      ],
      "name": "registeredChains",
      "outputs": [
        {
          "internalType": "bool",
          "name": "",
          "type": "bool"
        }
      ],
      "stateMutability": "view",
      "type": "function"
    },
    {
      "inputs": [
        {
          "internalType": "bytes32",
          "name": "",
          "type": "bytes32"
        },
        {
          "internalType": "uint256",
          "name": "",
          "type": "uint256"
        }
      ],
      "name": "registeredNonces",
      "outputs": [
        {
          "internalType": "bool",
          "name": "",
          "type": "bool"
        }
      ],
      "stateMutability": "view",
      "type": "function"
    },
    {
      "inputs": [
        {
          "internalType": "bytes32",
          "name": "_chain",
          "type": "bytes32"
        },
        {
          "internalType": "bool",
          "name": "_value",
          "type": "bool"
        }
      ],
      "name": "setChainRegister",
      "outputs": [],
      "stateMutability": "nonpayable",
      "type": "function"
    },
    {
      "inputs": [
        {
          "internalType": "address",
          "name": "_newValidator",
          "type": "address"
        }
      ],
      "name": "setValidator",
      "outputs": [],
      "stateMutability": "nonpayable",
      "type": "function"
    },
    {
      "inputs": [
        {
          "internalType": "bytes4",
          "name": "interfaceID",
          "type": "bytes4"
        }
      ],
      "name": "supportsInterface",
      "outputs": [
        {
          "internalType": "bool",
          "name": "",
          "type": "bool"
        }
      ],
      "stateMutability": "pure",
      "type": "function"
    },
    {
      "inputs": [
        {
          "internalType": "uint256",
          "name": "_externalNonce",
          "type": "uint256"
        },
        {
          "internalType": "bytes32",
          "name": "_originalChain",
          "type": "bytes32"
        },
        {
          "internalType": "bytes",
          "name": "_originalToken",
          "type": "bytes"
        },
        {
          "internalType": "bytes32",
          "name": "_initialChain",
          "type": "bytes32"
        },
        {
          "internalType": "bytes32",
          "name": "_targetChain",
          "type": "bytes32"
        },
        {
          "internalType": "uint256",
          "name": "_tokenId",
          "type": "uint256"
        },
        {
          "internalType": "uint256",
          "name": "_amount",
          "type": "uint256"
        },
        {
          "internalType": "bytes",
          "name": "_sender",
          "type": "bytes"
        },
        {
          "internalType": "bytes",
          "name": "_recipient",
          "type": "bytes"
        },
        {
          "internalType": "string",
          "name": "_tokenUri",
          "type": "string"
        }
      ],
      "name": "tranferFromOtherChain",
      "outputs": [],
      "stateMutability": "nonpayable",
      "type": "function"
    },
    {
      "inputs": [
        {
          "internalType": "address",
          "name": "_transferedToken",
          "type": "address"
        },
        {
          "internalType": "uint256",
          "name": "_tokenId",
          "type": "uint256"
        },
        {
          "internalType": "uint256",
          "name": "_amount",
          "type": "uint256"
        },
        {
          "internalType": "bytes32",
          "name": "_targetChain",
          "type": "bytes32"
        },
        {
          "internalType": "bytes",
          "name": "_recipient",
          "type": "bytes"
        }
      ],
      "name": "tranferToOtherChain",
      "outputs": [],
      "stateMutability": "nonpayable",
      "type": "function"
    },
    {
      "inputs": [],
      "name": "validator",
      "outputs": [
        {
          "internalType": "address",
          "name": "",
          "type": "address"
        }
      ],
      "stateMutability": "view",
      "type": "function"
    }
  ],
  "transactionHash": "0xc6d06fe7a55763a09fdaf3277b0c83835a9fbb41c37675c93a9aa6282f1f33cb",
  "args": [
    "0x888ddba0dff61733aea9d240a62a83cee02ac4a5c8e58fbc448c21d3b250d4bb",
    false,
    [
      "0xc5a260213bed973cb2f8d4637aa3ef27b0571649e067f5604af98967165ee957",
      "0x88243e88525a258200bf5ca869571208956d07a0fa57c175fe0c198c7a0c5c26",
      "0xf9b1779dd736d62f9a5815f9f11cb752f6342e8584a01f22e1b19b9a8cb5694e",
      "0x7319d77b282d06f1398943db85efac6f25008b7706c519a44e88de5e3c6f0a9e"
    ],
    "0x8dfDFa22A8A1D720FE9C3Ef5e94ec0cEd1DCe5A5",
    "0xc01aABaf32bC56ab4c0F033fEA3B6935Eb7Ab8bb"
  ],
  "numDeployments": 1,
  "solcInputHash": "03a9c54fc26d4d46e0442780ce9532f3",
  "bytecode": "0x60406080815234620001915762003224803803806200001e81620001ac565b928339810160a0828203126200019157815191602080820151908115158092036200019157828601516001600160401b0390818111620001915784019480601f8701121562000191578551918211620001965760059582871b90848062000087818501620001ac565b809681520192820101928311620001915784809101915b838310620001805750505050620000c66080620000be60608701620001d2565b9501620001d2565b9343600855600196875560ff199360ff856003541691161760035560018060a01b038060018060a01b031992168260075416176007556000951690855416178455805194845b8681106200012357885161303c9081620001e88239f35b82518110156200016c5780821b830184015186526004845288862080548616891790556000198114620001585787016200010c565b634e487b7160e01b86526011600452602486fd5b634e487b7160e01b86526032600452602486fd5b82518152918101918591016200009e565b600080fd5b634e487b7160e01b600052604160045260246000fd5b6040519190601f01601f191682016001600160401b038111838210176200019657604052565b51906001600160a01b0382168203620001915756fe60c0806040526004361015610014575b600080fd5b6000908160a052813560e01c90816301ffc9a714611a6d57508063101c575a14611a4257806311921fad14611a0f5780631327d3d8146119ca5780633a5381b5146119a15780633da998fa14611981578063457322b9146112b557806348b4fa581461195c5780635d05125b1461193c5780638d8fc87d146113895780639a573d5d146113395780639d95a792146112f6578063a0b498a4146112b5578063affed0e014611295578063b00a0be61461124a578063bc197c81146111bf578063bd4aed311461115c578063dae5d0b014610c2f578063e3cd51e514610bcf578063f23a6e6114610bd9578063f7e03bad14610bcf578063f7e04b1a146105785763fdfc8b191461012357600080fd5b346103435760a03660031901126103435761013c611aca565b6001600160401b0391906084358381116103435761015e903690600401611bd0565b93906024948535801561053457606435908160a051526020956004875261018d60ff604060a051205416611d31565b60018060a01b0316978860a051526005875260ff604060a0512054169560015498600254976101bb89611d89565b6002551561041457505060405198634c4f708d60e11b8a5260a0518a600481845afa80156103365760a0519a8b916103ed575b50918a916040516303a24d0760e21b815285600482015260a051818481855afa801561033657879160a051916103cc575b509c14806103c0575b1561034957803b156103435760405191630762b29d60e21b8352336004840152309083015284604483015260443560648301528160848160a05180945af1801561033657610320575b50610308938861031797946102d98c9d98956102f9956102a0600080516020612fe78339815191529f8e611cfd565b9f60405195338188015286526102b586611b1f565b6040519e8f9e8f908152015260408d015260608c61014091829101528c0190611e88565b9260808b015260a08a015260443560c08a015288820360e08a0152611e88565b91868303610100880152611ead565b90838203610120850152611e88565b0390a260a05180f35b61032990611af6565b60a0518015610271575b80fd5b6040513d60a051823e3d90fd5b60a05180fd5b8091503b1561034357604051637a94c56560e11b815260a08051336004840152602483018790526044803590840152905191929091839160649183915af18015610336576103205750610308938861031797946102d98c9d98956102f9956102a0600080516020612fe78339815191529f8e611cfd565b5060ff60035416610228565b6103e7913d8091833e6103df8183611b3a565b810190611e25565b3861021f565b905061040b919a3d8091833e6104038183611b3a565b810190611e4a565b999099386101ee565b89916040518c8b8201528a815261042a81611b1f565b936040516303a24d0760e21b81528660048201528d81838160a051935afa60a0519181610519575b5061050f5750604051928b8401928311848410176104fe57505060405260a0518152995b803b1561034357604051637921219560e11b815260a08051336004840152306024840152604480840188905235606484015260848301829052600060a4840152905191929091839160c49183915af18015610336576103205750610308938861031797946102d98c9d98956102f9956102a0600080516020612fe78339815191529f8e611cfd565b634e487b7160e01b81526041600452fd5b9250505099610476565b61052d91923d8091833e6103df8183611b3a565b9038610452565b60405162461bcd60e51b815260206004820152601b818901527f427269646765455243313135353a205f746f6b656e4964203c203000000000006044820152606490fd5b3461034357610140366003190112610343576044356001600160401b038111610343576105a9903690600401611bd0565b9060a4356001600160401b038111610343576105c9903690600401611b72565b9060c4356001600160401b038111610343576105e9903690600401611b72565b9260e4356001600160401b03811161034357610609903690600401611bd0565b90610104356001600160401b0381116103435761062a903690600401611bd0565b9290966001600160401b03610124351161034357366023610124350112156103435761065c6101243560040135611b5b565b6106696040519182611b3a565b6101243560040135815260208101366024610124356004013560051b610124350101116103435760246101243501905b6024610124356004013560051b6101243501018210610b8c5750506106bd33611ca1565b6106c988511515611ece565b6106d68851835114611f26565b60643560a05152600660205260a0516040812090600435905260205261070560ff604060a051205416156120cb565b60643560a05152600660205260a05160408120906004359052602052604060a05120600160ff19825416179055600154610743816064351415612127565b60643560a05152600460205261076160ff604060a051205416612187565b60843503610988576001600160a01b0361077d8a87018b612268565b1690602435600154146000146108b757506001600160a01b036107a288880189612268565b1690813b1561034357826107d2928a604051809581948293631759616b60e11b845260a051973060048601611feb565b039160a051905af18015610336576108a2575b507f0dc55e89b364f61875007b1fcb2ba8ba9009992fd7c1f4c01d3aa3074cbbaa98969792610317949261087f61088d935b610871610828606435600435611cfd565b9c6108536040519c8d9c8d60043590528d60206024359101528d610120908160408201520191611ead565b9060643560608d015260843560808d01528b820360a08d0152611fb7565b9089820360c08b0152611fb7565b9187830360e0890152611ead565b91848303610100860152611ead565b60a05180f35b6108ab90611af6565b60a05180156107e55780fd5b906001600160a01b036108cd888a6024356122cb565b16918260a05152600560205260ff604060a05120541615610975575b823b156103435761091792848b6040519586948593849363a55784ef60e01b855260a0519860048601612287565b039160a051905af1801561033657610960575b507f0dc55e89b364f61875007b1fcb2ba8ba9009992fd7c1f4c01d3aa3074cbbaa98969792610317949261087f61088d93610817565b61096990611af6565b60a051801561092a5780fd5b610982888a602435612393565b506108e9565b9597949692909161099d60ff600354166121e7565b6001600160a01b036109b2898b6024356122cb565b168060a05152600560205260ff604060a05120541615610b79575b60843560243503610ae657803b1561034357604051631ac8311560e21b815260a051909182908180610a04898b3060048501612039565b039160a051905af1801561033657610ad1575b50936102f9600080516020612fc7833981519152989794610aac610aba95610a9e610a4c6101409b97610ac99b5b3691611c6a565b93610a88610a5e606435600435611cfd565b9f6040519e8f9e8f6004358152606435602082015260243560408201528160608201520191611ead565b60843560808e01528c810360a08e015290611fb7565b908a820360c08c0152611fb7565b9088820360e08a0152611e88565b9083820361012085015261206f565b0390a261089c565b610ada90611af6565b60a0518015610a175780fd5b60243560643514610b24575b50936102f9600080516020612fc7833981519152989794610aac610aba95610a9e610a4c6101409b97610ac99b610a45565b803b156103435760405163a55784ef60e01b815260a051909182908180610b518d8a8c3060048601612287565b039160a051905af180156103365715610af257610b6d90611af6565b60a0518015610af25780fd5b610b86898b602435612393565b506109cd565b81356001600160401b0381116103435761012435013660438201121561034357602091610bc483923690604460248201359101611c6a565b815201910190610699565b505061000f611c2d565b346103435760a036600319011261034357610bf2611aca565b50610bfb611ae0565b506084356001600160401b03811161034357610c1b903690600401611bd0565b505060405163f23a6e6160e01b8152602090f35b3461034357610140366003190112610343576001600160401b0360443581811161034357610c61903690600401611bd0565b9060e43583811161034357610c7a903690600401611bd0565b92906101043585811161034357610c95903690600401611bd0565b9190956101243590811161034357610cb1903690600401611bd0565b610cba33611ca1565b60643560a05152600660205260a05160408120906004359052602052610ce960ff604060a051205416156120cb565b60643560a05152600660205260a05160408120906004359052602052604060a05120600160ff19825416179055600154610d27816064351415612127565b60643560a051526004602052610d4560ff604060a051205416612187565b60843503610f65576001600160a01b03610d618986018a612268565b169060243560015414600014610e96575090506001600160a01b03610d8886860187612268565b1690813b1561034357604051637921219560e11b815260a080513060048401526001600160a01b0393909316602483015260a48035604484015260c4803560648501526084840183905260009184019190915290519193849283915af1801561033657610e81575b50946103179161088d7f2959210af9c4a93bb19a5140a970cfd9164cf262bb889aadc9eedb099248082e96975b610e2b606435600435611cfd565b98610e536040519889986004358a5260243560208b01526101208060408c01528a0191611ead565b916064356060890152608435608089015260a43560a089015260c43560c089015287830360e0890152611ead565b610e8a90611af6565b60a0518015610df05780fd5b6001600160a01b03610eab87896024356122cb565b168060a05152600560205260ff604060a05120541615610f52575b803b1561034357610ef99360405180958194829363bb7fde7160e01b845260a0519760c4359060a435906004870161223d565b039160a051905af1801561033657610f3d575b50946103179161088d7f2959210af9c4a93bb19a5140a970cfd9164cf262bb889aadc9eedb099248082e9697610e1d565b610f4690611af6565b60a0518015610f0c5780fd5b610f5f8789602435612393565b50610ec6565b9295610f7960ff60039994939954166121e7565b6001600160a01b03610f8e86886024356122cb565b168060a05152600560205260ff604060a05120541615611149575b608435602435036110bf57803b1561034357604051637a94c56560e11b815260a0805130600484015260a435602484015260c4356044840152905191929091839160649183915af18015610336576110aa575b50600080516020612fe7833981519152969792611022610ac9959361109b933691611c6a565b9861108c611034606435600435611cfd565b9a6110666040519a8b9a6004358c5260643560208d015260243560408d015261014060608d01526101408c0191611ead565b9060843560808b015260a43560a08b015260c43560c08b015289820360e08b0152611e88565b91878303610100890152611ead565b91848303610120860152611ead565b6110b390611af6565b60a0518015610ffc5780fd5b602435606435146110ef575b50600080516020612fe7833981519152969792611022610ac9959361109b93610a45565b803b156103435760405163bb7fde7160e01b815260a0519091829081806111218a8f60c43560a435306004870161223d565b039160a051905af1801561033657156110cb5761113d90611af6565b60a05180156110cb5780fd5b6111568688602435612393565b50610fa9565b5034610343576080366003190112610343576024356001600160401b0381116103435761118d903690600401611bd0565b909160443591906001600160a01b03831683036103335760206111b76064358585886004356124d6565b604051908152f35b346103435760a0366003190112610343576111d8611aca565b506111e1611ae0565b506001600160401b0360443581811161034357611202903690600401611bfd565b50506064358181116103435761121c903690600401611bfd565b505060843590811161034357611236903690600401611bd0565b505060405163bc197c8160e01b8152602090f35b34610343576040366003190112610343576024358015158091036103435761127133611ca1565b60043560a05152600460205260a05190604082209060ff8019835416911617905580f35b346103435760a05180600319360112610333576020600254604051908152f35b34610343576020366003190112610343576001600160a01b036112d6611aca565b1660a051526005602052602060ff604060a0512054166040519015158152f35b346103435760403660031901126103435760043560a05152600660205260a05160408120906024359052602052602060ff604060a0512054166040519015158152f35b34610343576040366003190112610343576024356001600160401b0381116103435761137761136e6020923690600401611bd0565b906004356122cb565b6040516001600160a01b039091168152f35b346103435760a0366003190112610343576113a2611aca565b6024356001600160401b038111610343576113c1903690600401611b72565b6044356001600160401b038111610343576113e0903690600401611b72565b906084356001600160401b03811161034357611400903690600401611bd0565b61140c83511515611ece565b6114198351855114611f26565b60643560a05152600460205261143760ff604060a051205416611d31565b60a080516001600160a01b0387169052600560205251604090205460015460025495909160ff1661146787611d89565b60025560a051608052156117a757604051634c4f708d60e11b815260a051909590866004816001600160a01b038c165afa80156103365760a051968791611788575b5060805285976040516396d7e22960e01b81526020600482015260a05181806114d56024820187611fb7565b03816001600160a01b0386165afa9081156103365760a051916116b9575b509660643514806116ad575b15611619576001600160a01b0381163b15610343576040516301a358df60e31b81523360048201523060248201526080604482015290816115436084820185611fb7565b91600319828403016064830152818061155f60a0519589611fb7565b60a051919003926001600160a01b03165af1801561033657611604575b5093610317936102f960209794610aac610aba95610a9e600080516020612fc78339815191529c9a5b6115af858d611cfd565b9e60405195338f8801528e87526115c587611b1f565b6040519e8f9e8f908152015260408d01526115ee60608d61014091829101528d01608051611e88565b60643560808e01528c810360a08e015290611fb7565b61160d90611af6565b60a051801561157c5780fd5b6001600160a01b0381163b1561034357604051631ac8311560e21b815260a05190918290818061164e88883360048501612039565b60a051919003926001600160a01b03165af1801561033657611698575b5093610317936102f960209794610aac610aba95610a9e600080516020612fc78339815191529c9a6115a5565b6116a190611af6565b60a051801561166b5780fd5b5060ff600354166114ff565b903d8091833e6116c98183611b3a565b6020828281010312610343578151916001600160401b03831161034357818101601f84830101121561034357828101519061170382611b5b565b936117116040519586611b3a565b828552602085019084830160208560051b83860101011161034357602081840101915b60208560051b83860101018310611751575050505050508a6114f3565b8251906001600160401b03821161034357602080929161177b8293838b8a0191888b010101611e08565b8152019301929050611734565b905061179e91963d8091833e6104038183611b3a565b959095896114a9565b919094929593859660405160018060a01b0387166020820152602081526117cd81611b1f565b6080528151926117dc84611b5b565b936117ea6040519586611b3a565b808552601f196117f982611b5b565b0160a0515b81811061192b5750508460a0515b8281106118a4575050506001600160a01b0387163b1561034357604051631759616b60e11b815260a05190978890818061184c8a89303360048601611feb565b60a051919003926001600160a01b03165af192831561033657600080516020612fc783398151915298610aac61031797610a9e6102f99460209c610aba99611895575b506115a5565b61189e90611af6565b8f61188f565b806118b26118ef9288611f8d565b51604051906303a24d0760e21b825260048201528b8160248160a0519360018060a01b03165afa60a0519181611910575b506118f4575b50611d89565b61180c565b6118fe8285611f8d565b526119098184611f8d565b508d6118e9565b61192491923d8091833e6103df8183611b3a565b908f6118e3565b806060602080938a010152016117fe565b346103435760a05180600319360112610333576020600854604051908152f35b346103435760a0518060031936011261033357602060ff600354166040519015158152f35b346103435760a05180600319360112610333576020600154604051908152f35b346103435760a0518060031936011261033357546040516001600160a01b039091168152602090f35b34610343576020366003190112610343576119e3611aca565b6119ec33611ca1565b60a05180546001600160a01b0319166001600160a01b0390921691909117815580f35b346103435760203660031901126103435760043560a051526004602052602060ff604060a0512054166040519015158152f35b346103435760a05180600319360112610333576007546040516001600160a01b039091168152602090f35b905034611ac6576020366003190112611ac65760043563ffffffff60e01b8116809103611ac257602092506301ffc9a760e01b8114908115611ab1575b5015158152f35b630271189760e51b14905038611aaa565b8280fd5b5080fd5b600435906001600160a01b038216820361000f57565b602435906001600160a01b038216820361000f57565b6001600160401b038111611b0957604052565b634e487b7160e01b600052604160045260246000fd5b604081019081106001600160401b03821117611b0957604052565b90601f801991011681019081106001600160401b03821117611b0957604052565b6001600160401b038111611b095760051b60200190565b81601f8201121561000f57803591611b8983611b5b565b92611b976040519485611b3a565b808452602092838086019260051b82010192831161000f578301905b828210611bc1575050505090565b81358152908301908301611bb3565b9181601f8401121561000f578235916001600160401b03831161000f576020838186019501011161000f57565b9181601f8401121561000f578235916001600160401b03831161000f576020808501948460051b01011161000f57565b503461000f57604036600319011261000f5760206111b7602435600435611cfd565b6001600160401b038111611b0957601f01601f191660200190565b929192611c7682611c4f565b91611c846040519384611b3a565b82948184528183011161000f578281602093846000960137010152565b6000546001600160a01b03908116911603611cb857565b60405162461bcd60e51b815260206004820152601e60248201527f427269646765455243313135353a204f6e6c792076616c696461746f722100006044820152606490fd5b906040519060208201928352604082015260408152606081018181106001600160401b03821117611b095760405251902090565b15611d3857565b60405162461bcd60e51b815260206004820152602360248201527f427269646765455243313135353a20636861696e206e6f7420726567697374656044820152621c995960ea1b6064820152608490fd5b6000198114611d985760010190565b634e487b7160e01b600052601160045260246000fd5b60005b838110611dc15750506000910152565b8181015183820152602001611db1565b90929192611dde81611c4f565b91611dec6040519384611b3a565b82948284528282011161000f576020611e06930190611dae565b565b9080601f8301121561000f578151611e2292602001611dd1565b90565b9060208282031261000f5781516001600160401b03811161000f57611e229201611e08565b919060408382031261000f578251926020810151906001600160401b03821161000f57019080601f8301121561000f578151611e2292602001611dd1565b90602091611ea181518092818552858086019101611dae565b601f01601f1916010190565b908060209392818452848401376000828201840152601f01601f1916010190565b15611ed557565b60405162461bcd60e51b8152602060048201526024808201527f427269646765455243313135353a205f746f6b656e4964732e6c656e6774682060448201526303d3d20360e41b6064820152608490fd5b15611f2d57565b60405162461bcd60e51b815260206004820152603260248201527f427269646765455243313135353a205f746f6b656e4964732e6c656e677468206044820152710427a40bec2dadeeadce8e65cd8cadccee8d60731b6064820152608490fd5b8051821015611fa15760209160051b010190565b634e487b7160e01b600052603260045260246000fd5b90815180825260208080930193019160005b828110611fd7575050505090565b835185529381019392810192600101611fc9565b9261201a90602095926120289460018060a01b038092168752168686015260a0604086015260a0850190611fb7565b908382036060850152611fb7565b906080818303910152600081520190565b6001600160a01b039091168152606060208201819052611e2293919261206191840190611fb7565b916040818403910152611fb7565b908082519081815260208091019281808460051b8301019501936000915b84831061209d5750505050505090565b90919293949584806120bb600193601f198682030187528a51611e88565b980193019301919493929061208d565b156120d257565b60405162461bcd60e51b815260206004820152602760248201527f427269646765455243313135353a206e6f6e636520616c7265616479207265676044820152661a5cdd195c995960ca1b6064820152608490fd5b1561212e57565b60405162461bcd60e51b815260206004820152602b60248201527f427269646765455243313135353a20696e697469616c436861696e203d3d206360448201526a3ab93932b73a21b430b4b760a91b6064820152608490fd5b1561218e57565b60405162461bcd60e51b815260206004820152602b60248201527f427269646765455243313135353a20496e697469616c20636861696e206e6f7460448201526a081c9959da5cdd195c995960aa1b6064820152608490fd5b156121ee57565b60405162461bcd60e51b815260206004820152602160248201527f427269646765455243313135353a204f6e6c792070726f7879206272696467656044820152602160f81b6064820152608490fd5b9092608092611e22969460018060a01b03168352602083015260408201528160608201520191611ead565b9081602091031261000f57356001600160a01b038116810361000f5790565b926122af611e2295936122bd9360018060a01b03168652608060208701526080860190611fb7565b908482036040860152611fb7565b91606081840391015261206f565b9190916040916122fc8380518381946020988984019788528484013781016000838201520386810184520182611b3a565b519020906104d1815161231185830182611b3a565b818152848101916126258339612344858451809361233783830196879251928391611dae565b8101038084520182611b3a565b51902081519384019260ff60f81b84523060601b6021860152603585015260558401526055835260808301908382106001600160401b03831117611b095752905190206001600160a01b031690565b9190604091825191602083016000938682528383878301376123c686828681018883820152036020810184520182611b3a565b51902084516104d1808201908282106001600160401b038311176124c257908291612af68339039085f59485156124b8576124439061243560018060a01b0380981697600754169387519586936366e7990d60e01b602086015260248501528860448501526064840191611ead565b03601f198101845283611b3a565b843b15611ac2576124769183918551938492839263c0d91eaf60e01b845260048401528760248401526044830190611e88565b038183885af180156124ae5761249f575b50828152600560205220805460ff1916600117905590565b6124a890611af6565b38612487565b83513d84823e3d90fd5b84513d85823e3d90fd5b634e487b7160e01b87526041600452602487fd5b91908260015414612592576001600160a01b03926124f59291906122cb565b1690600092828452600560205260ff6040852054161561258c57604051627eeac760e11b81526001600160a01b03929092166004830152602482015290602090829060449082905afa91821561258057809261255057505090565b9091506020823d8211612578575b8161256b60209383611b3a565b8101031261033357505190565b3d915061255e565b604051903d90823e3d90fd5b50505090565b6125ea94602094909350916001600160a01b03916125b291810190612268565b604051627eeac760e11b81526001600160a01b0390931660048401526024830193909352909384929190911690829081906044820190565b03915afa90811561261857600091612600575090565b906020823d8211612578578161256b60209383611b3a565b6040513d6000823e3d90fdfe60808060405234610016576104b5908161001c8239f35b600080fdfe6080604052600436101561002c575b361561001f575b61001d610147565b005b610027610147565b610015565b6000803560e01c63c0d91eaf14610043575061000e565b346100cf5760403660031901126100cf576004356001600160a01b03811681036100c75760243567ffffffffffffffff81116100cb57366023820112156100cb578060040135918361009c6100978561011c565b6100e9565b9284845236602486830101116100c757846100c4956024602093018387013784010152610194565b80f35b5080fd5b8280fd5b80fd5b50634e487b7160e01b600052604160045260246000fd5b6040519190601f01601f1916820167ffffffffffffffff81118382101761010f57604052565b6101176100d2565b604052565b60209067ffffffffffffffff811161013a575b601f01601f19160190565b6101426100d2565b61012f565b507f360894a13ba1a3210667c828492db98dca3e2076cc3735a920a3ca505d382bbc54600090819081906001600160a01b0316368280378136915af43d82803e15610190573d90f35b3d90fd5b60ff600054166102aa57803b1561024f577f360894a13ba1a3210667c828492db98dca3e2076cc3735a920a3ca505d382bbc80546001600160a01b0319166001600160a01b0383169081179091557fbc7cd75a20ee27fd9adebab32041f755214dbc6bffa90cc0225b39da2e5c2d3b600080a2815115801590610247575b61022d575b505061022b600160ff196000541617600055565b565b61023f916102396102f9565b91610361565b503880610217565b506000610212565b60405162461bcd60e51b815260206004820152602d60248201527f455243313936373a206e657720696d706c656d656e746174696f6e206973206e60448201526c1bdd08184818dbdb9d1c9858dd609a1b6064820152608490fd5b60405162461bcd60e51b815260206004820152602160248201527f4552433139363750726f7879437265617465323a20616c726561647920696e696044820152601d60fa1b6064820152608490fd5b604051906060820182811067ffffffffffffffff821117610354575b60405260278252660819985a5b195960ca1b6040837f416464726573733a206c6f772d6c6576656c2064656c65676174652063616c6c60208201520152565b61035c6100d2565b610315565b6000806103969493602081519101845af43d15610399573d916103866100978461011c565b9283523d6000602085013e6103ed565b90565b6060916103ed565b156103a857565b60405162461bcd60e51b815260206004820152601d60248201527f416464726573733a2063616c6c20746f206e6f6e2d636f6e74726163740000006044820152606490fd5b9192901561040d5750815115610401575090565b610396903b15156103a1565b8251909150156104205750805190602001fd5b6040519062461bcd60e51b82528160208060048301528251908160248401526000935b828510610466575050604492506000838284010152601f80199101168101030190fd5b848101820151868601604401529381019385935061044356fea26469706673582212204dde7cc5adcf980b8e42581204cfa621f554155a4614ece46fe895090c92f2d464736f6c6343000811003360808060405234610016576104b5908161001c8239f35b600080fdfe6080604052600436101561002c575b361561001f575b61001d610147565b005b610027610147565b610015565b6000803560e01c63c0d91eaf14610043575061000e565b346100cf5760403660031901126100cf576004356001600160a01b03811681036100c75760243567ffffffffffffffff81116100cb57366023820112156100cb578060040135918361009c6100978561011c565b6100e9565b9284845236602486830101116100c757846100c4956024602093018387013784010152610194565b80f35b5080fd5b8280fd5b80fd5b50634e487b7160e01b600052604160045260246000fd5b6040519190601f01601f1916820167ffffffffffffffff81118382101761010f57604052565b6101176100d2565b604052565b60209067ffffffffffffffff811161013a575b601f01601f19160190565b6101426100d2565b61012f565b507f360894a13ba1a3210667c828492db98dca3e2076cc3735a920a3ca505d382bbc54600090819081906001600160a01b0316368280378136915af43d82803e15610190573d90f35b3d90fd5b60ff600054166102aa57803b1561024f577f360894a13ba1a3210667c828492db98dca3e2076cc3735a920a3ca505d382bbc80546001600160a01b0319166001600160a01b0383169081179091557fbc7cd75a20ee27fd9adebab32041f755214dbc6bffa90cc0225b39da2e5c2d3b600080a2815115801590610247575b61022d575b505061022b600160ff196000541617600055565b565b61023f916102396102f9565b91610361565b503880610217565b506000610212565b60405162461bcd60e51b815260206004820152602d60248201527f455243313936373a206e657720696d706c656d656e746174696f6e206973206e60448201526c1bdd08184818dbdb9d1c9858dd609a1b6064820152608490fd5b60405162461bcd60e51b815260206004820152602160248201527f4552433139363750726f7879437265617465323a20616c726561647920696e696044820152601d60fa1b6064820152608490fd5b604051906060820182811067ffffffffffffffff821117610354575b60405260278252660819985a5b195960ca1b6040837f416464726573733a206c6f772d6c6576656c2064656c65676174652063616c6c60208201520152565b61035c6100d2565b610315565b6000806103969493602081519101845af43d15610399573d916103866100978461011c565b9283523d6000602085013e6103ed565b90565b6060916103ed565b156103a857565b60405162461bcd60e51b815260206004820152601d60248201527f416464726573733a2063616c6c20746f206e6f6e2d636f6e74726163740000006044820152606490fd5b9192901561040d5750815115610401575090565b610396903b15156103a1565b8251909150156104205750805190602001fd5b6040519062461bcd60e51b82528160208060048301528251908160248401526000935b828510610466575050604492506000838284010152601f80199101168101030190fd5b848101820151868601604401529381019385935061044356fea26469706673582212204dde7cc5adcf980b8e42581204cfa621f554155a4614ece46fe895090c92f2d464736f6c63430008110033adcc33377c46a944a11f2f21ebf55753879ce3f00eca225c64b49a2b67c72315ec326f0b996a82b006d5da2d3f70e1f9e06fa32e9c23dcf9547796e1f64dddb6a264697066735822122062ca3e0328d07a2bda422c92718faa9b43854d953d380598ed45ae1ce6dabc3364736f6c63430008110033",
  "devdoc": {
    "kind": "dev",
    "methods": {
      "onERC1155BatchReceived(address,address,uint256[],uint256[],bytes)": {
        "details": "Handles the receipt of a multiple ERC1155 token types. This function is called at the end of a `safeBatchTransferFrom` after the balances have been updated. NOTE: To accept the transfer(s), this must return `bytes4(keccak256(\"onERC1155BatchReceived(address,address,uint256[],uint256[],bytes)\"))` (i.e. 0xbc197c81, or its own function selector).",
        "params": {
          "data": "Additional data with no specified format",
          "from": "The address which previously owned the token",
          "ids": "An array containing ids of each token being transferred (order and length must match values array)",
          "operator": "The address which initiated the batch transfer (i.e. msg.sender)",
          "values": "An array containing amounts of each token being transferred (order and length must match ids array)"
        },
        "returns": {
          "_0": "`bytes4(keccak256(\"onERC1155BatchReceived(address,address,uint256[],uint256[],bytes)\"))` if transfer is allowed"
        }
      },
      "onERC1155Received(address,address,uint256,uint256,bytes)": {
        "details": "Handles the receipt of a single ERC1155 token type. This function is called at the end of a `safeTransferFrom` after the balance has been updated. NOTE: To accept the transfer, this must return `bytes4(keccak256(\"onERC1155Received(address,address,uint256,uint256,bytes)\"))` (i.e. 0xf23a6e61, or its own function selector).",
        "params": {
          "data": "Additional data with no specified format",
          "from": "The address which previously owned the token",
          "id": "The ID of the token being transferred",
          "operator": "The address which initiated the transfer (i.e. msg.sender)",
          "value": "The amount of tokens being transferred"
        },
        "returns": {
          "_0": "`bytes4(keccak256(\"onERC1155Received(address,address,uint256,uint256,bytes)\"))` if transfer is allowed"
        }
      }
    },
    "version": 1
  },
  "userdoc": {
    "kind": "user",
    "methods": {},
    "version": 1
  },
  "storageLayout": {
    "storage": [
      {
        "astId": 983,
        "contract": "contracts/BridgeERC1155.sol:BridgeERC1155",
        "label": "validator",
        "offset": 0,
        "slot": "0",
        "type": "t_address"
      },
      {
        "astId": 985,
        "contract": "contracts/BridgeERC1155.sol:BridgeERC1155",
        "label": "currentChain",
        "offset": 0,
        "slot": "1",
        "type": "t_bytes32"
      },
      {
        "astId": 987,
        "contract": "contracts/BridgeERC1155.sol:BridgeERC1155",
        "label": "nonce",
        "offset": 0,
        "slot": "2",
        "type": "t_uint256"
      },
      {
        "astId": 989,
        "contract": "contracts/BridgeERC1155.sol:BridgeERC1155",
        "label": "isProxyChain",
        "offset": 0,
        "slot": "3",
        "type": "t_bool"
      },
      {
        "astId": 993,
        "contract": "contracts/BridgeERC1155.sol:BridgeERC1155",
        "label": "registeredChains",
        "offset": 0,
        "slot": "4",
        "type": "t_mapping(t_bytes32,t_bool)"
      },
      {
        "astId": 997,
        "contract": "contracts/BridgeERC1155.sol:BridgeERC1155",
        "label": "issuedTokens",
        "offset": 0,
        "slot": "5",
        "type": "t_mapping(t_address,t_bool)"
      },
      {
        "astId": 1003,
        "contract": "contracts/BridgeERC1155.sol:BridgeERC1155",
        "label": "registeredNonces",
        "offset": 0,
        "slot": "6",
        "type": "t_mapping(t_bytes32,t_mapping(t_uint256,t_bool))"
      },
      {
        "astId": 1005,
        "contract": "contracts/BridgeERC1155.sol:BridgeERC1155",
        "label": "issuedTokenImplementation",
        "offset": 0,
        "slot": "7",
        "type": "t_address"
      },
      {
        "astId": 1007,
        "contract": "contracts/BridgeERC1155.sol:BridgeERC1155",
        "label": "initBlock",
        "offset": 0,
        "slot": "8",
        "type": "t_uint256"
      }
    ],
    "types": {
      "t_address": {
        "encoding": "inplace",
        "label": "address",
        "numberOfBytes": "20"
      },
      "t_bool": {
        "encoding": "inplace",
        "label": "bool",
        "numberOfBytes": "1"
      },
      "t_bytes32": {
        "encoding": "inplace",
        "label": "bytes32",
        "numberOfBytes": "32"
      },
      "t_mapping(t_address,t_bool)": {
        "encoding": "mapping",
        "key": "t_address",
        "label": "mapping(address => bool)",
        "numberOfBytes": "32",
        "value": "t_bool"
      },
      "t_mapping(t_bytes32,t_bool)": {
        "encoding": "mapping",
        "key": "t_bytes32",
        "label": "mapping(bytes32 => bool)",
        "numberOfBytes": "32",
        "value": "t_bool"
      },
      "t_mapping(t_bytes32,t_mapping(t_uint256,t_bool))": {
        "encoding": "mapping",
        "key": "t_bytes32",
        "label": "mapping(bytes32 => mapping(uint256 => bool))",
        "numberOfBytes": "32",
        "value": "t_mapping(t_uint256,t_bool)"
      },
      "t_mapping(t_uint256,t_bool)": {
        "encoding": "mapping",
        "key": "t_uint256",
        "label": "mapping(uint256 => bool)",
        "numberOfBytes": "32",
        "value": "t_bool"
      },
      "t_uint256": {
        "encoding": "inplace",
        "label": "uint256",
        "numberOfBytes": "32"
      }
    }
  }
}