{
  "address": "0xd8BF76fA9596D7E3E64Cc23a386A788f9059a40A",
  "abi": [
    {
      "anonymous": false,
      "inputs": [
        {
          "indexed": true,
          "internalType": "address",
          "name": "owner",
          "type": "address"
        },
        {
          "indexed": true,
          "internalType": "address",
          "name": "approved",
          "type": "address"
        },
        {
          "indexed": true,
          "internalType": "uint256",
          "name": "tokenId",
          "type": "uint256"
        }
      ],
      "name": "Approval",
      "type": "event"
    },
    {
      "anonymous": false,
      "inputs": [
        {
          "indexed": true,
          "internalType": "address",
          "name": "owner",
          "type": "address"
        },
        {
          "indexed": true,
          "internalType": "address",
          "name": "operator",
          "type": "address"
        },
        {
          "indexed": false,
          "internalType": "bool",
          "name": "approved",
          "type": "bool"
        }
      ],
      "name": "ApprovalForAll",
      "type": "event"
    },
    {
      "anonymous": false,
      "inputs": [
        {
          "indexed": false,
          "internalType": "uint8",
          "name": "version",
          "type": "uint8"
        }
      ],
      "name": "Initialized",
      "type": "event"
    },
    {
      "anonymous": false,
      "inputs": [
        {
          "indexed": true,
          "internalType": "address",
          "name": "previousOwner",
          "type": "address"
        },
        {
          "indexed": true,
          "internalType": "address",
          "name": "newOwner",
          "type": "address"
        }
      ],
      "name": "OwnershipTransferred",
      "type": "event"
    },
    {
      "anonymous": false,
      "inputs": [
        {
          "indexed": true,
          "internalType": "address",
          "name": "from",
          "type": "address"
        },
        {
          "indexed": true,
          "internalType": "address",
          "name": "to",
          "type": "address"
        },
        {
          "indexed": true,
          "internalType": "uint256",
          "name": "tokenId",
          "type": "uint256"
        }
      ],
      "name": "Transfer",
      "type": "event"
    },
    {
      "inputs": [
        {
          "internalType": "address",
          "name": "to",
          "type": "address"
        },
        {
          "internalType": "uint256",
          "name": "tokenId",
          "type": "uint256"
        }
      ],
      "name": "approve",
      "outputs": [],
      "stateMutability": "nonpayable",
      "type": "function"
    },
    {
      "inputs": [
        {
          "internalType": "address",
          "name": "owner",
          "type": "address"
        }
      ],
      "name": "balanceOf",
      "outputs": [
        {
          "internalType": "uint256",
          "name": "",
          "type": "uint256"
        }
      ],
      "stateMutability": "view",
      "type": "function"
    },
    {
      "inputs": [
        {
          "internalType": "uint256",
          "name": "_tokenId",
          "type": "uint256"
        }
      ],
      "name": "burn",
      "outputs": [],
      "stateMutability": "nonpayable",
      "type": "function"
    },
    {
      "inputs": [
        {
          "internalType": "uint256",
          "name": "tokenId",
          "type": "uint256"
        }
      ],
      "name": "getApproved",
      "outputs": [
        {
          "internalType": "address",
          "name": "",
          "type": "address"
        }
      ],
      "stateMutability": "view",
      "type": "function"
    },
    {
      "inputs": [],
      "name": "getOriginalTokenInfo",
      "outputs": [
        {
          "internalType": "bytes32",
          "name": "",
          "type": "bytes32"
        },
        {
          "internalType": "bytes",
          "name": "",
          "type": "bytes"
        },
        {
          "internalType": "string",
          "name": "",
          "type": "string"
        },
        {
          "internalType": "string",
          "name": "",
          "type": "string"
        }
      ],
      "stateMutability": "view",
      "type": "function"
    },
    {
      "inputs": [
        {
          "internalType": "bytes32",
          "name": "_originalChain",
          "type": "bytes32"
        },
        {
          "internalType": "bytes",
          "name": "_originalToken",
          "type": "bytes"
        },
        {
          "internalType": "string",
          "name": "_originalTokenName",
          "type": "string"
        },
        {
          "internalType": "string",
          "name": "_originalTokenSymbol",
          "type": "string"
        }
      ],
      "name": "initialize",
      "outputs": [],
      "stateMutability": "nonpayable",
      "type": "function"
    },
    {
      "inputs": [
        {
          "internalType": "address",
          "name": "owner",
          "type": "address"
        },
        {
          "internalType": "address",
          "name": "operator",
          "type": "address"
        }
      ],
      "name": "isApprovedForAll",
      "outputs": [
        {
          "internalType": "bool",
          "name": "",
          "type": "bool"
        }
      ],
      "stateMutability": "view",
      "type": "function"
    },
    {
      "inputs": [
        {
          "internalType": "address",
          "name": "_recipient",
          "type": "address"
        },
        {
          "internalType": "uint256",
          "name": "_tokenId",
          "type": "uint256"
        }
      ],
      "name": "mint",
      "outputs": [],
      "stateMutability": "nonpayable",
      "type": "function"
    },
    {
      "inputs": [],
      "name": "name",
      "outputs": [
        {
          "internalType": "string",
          "name": "",
          "type": "string"
        }
      ],
      "stateMutability": "view",
      "type": "function"
    },
    {
      "inputs": [],
      "name": "originalChain",
      "outputs": [
        {
          "internalType": "bytes32",
          "name": "",
          "type": "bytes32"
        }
      ],
      "stateMutability": "view",
      "type": "function"
    },
    {
      "inputs": [],
      "name": "originalToken",
      "outputs": [
        {
          "internalType": "bytes",
          "name": "",
          "type": "bytes"
        }
      ],
      "stateMutability": "view",
      "type": "function"
    },
    {
      "inputs": [],
      "name": "originalTokenName",
      "outputs": [
        {
          "internalType": "string",
          "name": "",
          "type": "string"
        }
      ],
      "stateMutability": "view",
      "type": "function"
    },
    {
      "inputs": [],
      "name": "originalTokenSymbol",
      "outputs": [
        {
          "internalType": "string",
          "name": "",
          "type": "string"
        }
      ],
      "stateMutability": "view",
      "type": "function"
    },
    {
      "inputs": [],
      "name": "owner",
      "outputs": [
        {
          "internalType": "address",
          "name": "",
          "type": "address"
        }
      ],
      "stateMutability": "view",
      "type": "function"
    },
    {
      "inputs": [
        {
          "internalType": "uint256",
          "name": "tokenId",
          "type": "uint256"
        }
      ],
      "name": "ownerOf",
      "outputs": [
        {
          "internalType": "address",
          "name": "",
          "type": "address"
        }
      ],
      "stateMutability": "view",
      "type": "function"
    },
    {
      "inputs": [
        {
          "internalType": "address",
          "name": "_from",
          "type": "address"
        },
        {
          "internalType": "address",
          "name": "_to",
          "type": "address"
        },
        {
          "internalType": "uint256",
          "name": "_tokenId",
          "type": "uint256"
        }
      ],
      "name": "permissionedTransferFrom",
      "outputs": [],
      "stateMutability": "nonpayable",
      "type": "function"
    },
    {
      "inputs": [],
      "name": "renounceOwnership",
      "outputs": [],
      "stateMutability": "nonpayable",
      "type": "function"
    },
    {
      "inputs": [
        {
          "internalType": "address",
          "name": "from",
          "type": "address"
        },
        {
          "internalType": "address",
          "name": "to",
          "type": "address"
        },
        {
          "internalType": "uint256",
          "name": "tokenId",
          "type": "uint256"
        }
      ],
      "name": "safeTransferFrom",
      "outputs": [],
      "stateMutability": "nonpayable",
      "type": "function"
    },
    {
      "inputs": [
        {
          "internalType": "address",
          "name": "from",
          "type": "address"
        },
        {
          "internalType": "address",
          "name": "to",
          "type": "address"
        },
        {
          "internalType": "uint256",
          "name": "tokenId",
          "type": "uint256"
        },
        {
          "internalType": "bytes",
          "name": "data",
          "type": "bytes"
        }
      ],
      "name": "safeTransferFrom",
      "outputs": [],
      "stateMutability": "nonpayable",
      "type": "function"
    },
    {
      "inputs": [
        {
          "internalType": "address",
          "name": "operator",
          "type": "address"
        },
        {
          "internalType": "bool",
          "name": "approved",
          "type": "bool"
        }
      ],
      "name": "setApprovalForAll",
      "outputs": [],
      "stateMutability": "nonpayable",
      "type": "function"
    },
    {
      "inputs": [
        {
          "internalType": "bytes4",
          "name": "interfaceId",
          "type": "bytes4"
        }
      ],
      "name": "supportsInterface",
      "outputs": [
        {
          "internalType": "bool",
          "name": "",
          "type": "bool"
        }
      ],
      "stateMutability": "view",
      "type": "function"
    },
    {
      "inputs": [],
      "name": "symbol",
      "outputs": [
        {
          "internalType": "string",
          "name": "",
          "type": "string"
        }
      ],
      "stateMutability": "view",
      "type": "function"
    },
    {
      "inputs": [
        {
          "internalType": "uint256",
          "name": "tokenId",
          "type": "uint256"
        }
      ],
      "name": "tokenURI",
      "outputs": [
        {
          "internalType": "string",
          "name": "",
          "type": "string"
        }
      ],
      "stateMutability": "view",
      "type": "function"
    },
    {
      "inputs": [
        {
          "internalType": "address",
          "name": "from",
          "type": "address"
        },
        {
          "internalType": "address",
          "name": "to",
          "type": "address"
        },
        {
          "internalType": "uint256",
          "name": "tokenId",
          "type": "uint256"
        }
      ],
      "name": "transferFrom",
      "outputs": [],
      "stateMutability": "nonpayable",
      "type": "function"
    },
    {
      "inputs": [
        {
          "internalType": "address",
          "name": "newOwner",
          "type": "address"
        }
      ],
      "name": "transferOwnership",
      "outputs": [],
      "stateMutability": "nonpayable",
      "type": "function"
    }
  ],
  "transactionHash": "0x907f5513a2efb0774da467759a000ed37b4896a24f13a1ced78d75c499f4c675",
  "args": [],
  "numDeployments": 1,
  "solcInputHash": "063387764992fe8c2edb2880e7c8549e",
  "bytecode": "0x6080806040523461001657611fee908161001c8239f35b600080fdfe60806040818152600436101561001457600080fd5b600091823560e01c90816301ffc9a7146116da5750806306fdde0314611631578063081812fc14611611578063095ea7b3146114a35780630e7c1cb51461140c5780631e53e66a14610bfe57806323b872dd14610bd957806340c10f1914610a9d57806342842e0e14610a6a57806342966c68146109c457806352694c6b1461092d57806353638be51461090f5780636352211e146108de57806370a082311461084b578063715018a6146107ee5780638da5cb5b146107c657806395d89b411461071d578063989ee11a146104da578063a22cb4651461040d578063ab1a63cd146103d4578063b88d4fde14610357578063c87b56dd146102ec578063e8cfdce914610216578063e985e9c5146101c95763f2fde38b1461013557600080fd5b346101c55760203660031901126101c55761014e61178f565b906101576118e6565b6001600160a01b0382161561017357506101709061193e565b80f35b5162461bcd60e51b815260206004820152602660248201527f4f776e61626c653a206e6577206f776e657220697320746865207a65726f206160448201526564647265737360d01b6064820152608490fd5b5080fd5b50346101c557806003193601126101c55760ff816020936101e861178f565b6101f06117aa565b6001600160a01b039182168352606a875283832091168252855220549151911615158152f35b50346101c557816003193601126101c5578051908260cc54610237816117c0565b808552916001918083169081156102c45750600114610279575b5050506102638261027594038361182c565b5191829160208352602083019061176a565b0390f35b945060cc8552600080516020611f998339815191525b8286106102ac575050506102638260206102759582010194610251565b8054602087870181019190915290950194810161028f565b61027597508693506020925061026394915060ff191682840152151560051b82010194610251565b50346101c55760203660031901126101c55760043560009081526067602052604090205461027592919061032a906001600160a01b03161515611987565b818151610336816117fa565b52805191610343836117fa565b82525191829160208352602083019061176a565b82346103d15760803660031901126103d15761037161178f565b6103796117aa565b906064359060443567ffffffffffffffff83116103cd57610170936103a56103c894369060040161186a565b926103b86103b38433611b10565b611a37565b6103c3838383611bd8565b611e0a565b611aec565b8480fd5b80fd5b50346101c5576103c8610170916103ea366118b1565b91926103f46118e6565b51926103ff846117fa565b8684526103c3838383611bd8565b50346101c557806003193601126101c55761042661178f565b602435908115158092036104d6576001600160a01b03169133831461049357338452606a60205280842083855260205280842060ff1981541660ff8416179055519081527f17307eab39ab6107e8899845ad3d59bd9653f200f220920489ca2b5937696c3160203392a380f35b5162461bcd60e51b815260206004820152601960248201527f4552433732313a20617070726f766520746f2063616c6c6572000000000000006044820152606490fd5b8380fd5b5090346103d157806003193601126103d15760c954908251928160ca549085610502836117c0565b9182825260019384811690816000146106fe57506001146106b2575b61052a9250038661182c565b815190838260cb549161053c836117c0565b808352928481169081156106935750600114610647575b61055f9250038361182c565b825193809160cc5491610571836117c0565b8088529282811690811561061d57506001146105d6575b505050916105c8916105a0856102759695038561182c565b6105bb8251978897885260806020890152608088019061176a565b918683039087015261176a565b90838203606085015261176a565b925060cc8352600080516020611f998339815191525b828410610605575050508301602001816105a085610588565b805460208589018101919091529093019281016105ec565b60ff19166020808a019190915293151560051b880190930193508492506105a09150869050610588565b5060cb865290859083600080516020611f598339815191525b8284106106795750505090602061055f92820101610553565b602092945080548385890101520191019091838593610660565b6020925061055f94915060ff191682840152151560051b820101610553565b5060ca855290849083600080516020611f798339815191525b8284106106e45750505090602061052a9282010161051e565b6020929450805483858c01015201910190918388936106cb565b6020925061052a94915060ff191682840152151560051b82010161051e565b50346101c557816003193601126101c5578051908260665461073e816117c0565b808552916001918083169081156102c45750600114610769575050506102638261027594038361182c565b9450606685527f46501879b8ca8525e8c2fd519e2fbfcfa2ebea26501294aa02cbfcfb12e943545b8286106107ae575050506102638260206102759582010194610251565b80546020878701810191909152909501948101610791565b50346101c557816003193601126101c55760975490516001600160a01b039091168152602090f35b82346103d157806003193601126103d1576108076118e6565b609780546001600160a01b0319811690915581906001600160a01b03167f8be0079c531659141344cd1fd0a4f28419497f9722a3daafe3b4186f6b6457e08280a380f35b50346101c55760203660031901126101c5576001600160a01b0361086d61178f565b16801561088857828291602094526068845220549051908152f35b815162461bcd60e51b815260206004820152602960248201527f4552433732313a2061646472657373207a65726f206973206e6f7420612076616044820152683634b21037bbb732b960b91b6064820152608490fd5b50346101c55760203660031901126101c5576020906108fe6004356119d3565b90516001600160a01b039091168152f35b50346101c557816003193601126101c55760209060c9549051908152f35b50346101c557816003193601126101c5578051908260cb5461094e816117c0565b808552916001918083169081156102c45750600114610979575050506102638261027594038361182c565b945060cb8552600080516020611f598339815191525b8286106109ac575050506102638260206102759582010194610251565b8054602087870181019190915290950194810161098f565b50346101c55760203660031901126101c55781600435916109e36118e6565b6109ec836119d3565b506109f6836119d3565b8383526069602090815282842080546001600160a01b03199081169091556001600160a01b039092168085526068825283852080546000190190558585526067909152918320805490911690557fddf252ad1be2c89b69c2b068fc378daa952ba7f163c4a11628f55a4df523b3ef8280a480f35b50346101c5576103c861017091610a80366118b1565b91925192610a8d846117fa565b8684526103b86103b38433611b10565b50346101c557806003193601126101c557610ab661178f565b60243590610ac26118e6565b825192610ace846117fa565b8484526001600160a01b038216908115610b9657918380926101709694610b16610b106103c898600052606760205260018060a01b0360406000205416151590565b15611f0c565b600083815260676020526040902054610b39906001600160a01b03161515610b10565b81895260686020528089206001815401905582895260676020528820816bffffffffffffffffffffffff60a01b825416179055877fddf252ad1be2c89b69c2b068fc378daa952ba7f163c4a11628f55a4df523b3ef8180a4611cee565b5162461bcd60e51b815260206004820181905260248201527f4552433732313a206d696e7420746f20746865207a65726f20616464726573736044820152606490fd5b82346103d157610170610beb366118b1565b91610bf96103b38433611b10565b611bd8565b5090346103d15760803660031901126103d15760243567ffffffffffffffff81116101c557610c3190369060040161186a565b9160443567ffffffffffffffff811161140857610c5290369060040161186a565b60643567ffffffffffffffff81116104d657610c7290369060040161186a565b83549160ff8360081c1615928380946113fb575b80156113e4575b156113895760ff198116600117865583611378575b508351607960f81b90816020820152610cd96021828551610cc98184840160208a01611747565b810103600181018452018261182c565b8551916020830152610d096021838651610cf98184840160208b01611747565b810103600181018552018361182c565b610d2260ff885460081c16610d1d81611eac565b611eac565b80519067ffffffffffffffff8211611364578190610d416065546117c0565b601f8111611316575b50602090601f8311600114611293578992611288575b50508160011b916000199060031b1c1916176065555b80519067ffffffffffffffff8211611274578190610d956066546117c0565b601f8111611226575b50602090601f83116001146111a3578892611198575b50508160011b916000199060031b1c1916176066555b610dde60ff865460081c16610d1d81611eac565b610de73361193e565b80519067ffffffffffffffff8211611184578190610e0660cb546117c0565b601f8111611148575b50602090601f83116001146110d75787926110cc575b50508160011b916000199060031b1c19161760cb555b80519067ffffffffffffffff82116110b8578190610e5a60cc546117c0565b601f811161107c575b50602090601f831160011461100b578692611000575b50508160011b916000199060031b1c19161760cc555b60043560c955835167ffffffffffffffff8111610fec57610eb160ca546117c0565b601f8111610fa5575b50602094601f8211600114610f35579484958293949592610f2a575b50508160011b916000199060031b1c19161760ca555b610ef4575080f35b60207f7f26b83ff96e1f2b6a682f133852f6798a09c465da95921460cefb38474024989161ff001984541684555160018152a180f35b015190503880610ed6565b60ca8552601f19821695600080516020611f7983398151915291865b888110610f8d57508360019596979810610f74575b505050811b0160ca55610eec565b015160001960f88460031b161c19169055388080610f66565b91926020600181928685015181550194019201610f51565b610fdc9060ca8652600080516020611f79833981519152601f840160051c81019160208510610fe2575b601f0160051c0190611e95565b38610eba565b9091508190610fcf565b634e487b7160e01b84526041600452602484fd5b015190503880610e79565b60cc8752600080516020611f998339815191529250601f198416875b818110611064575090846001959493921061104b575b505050811b0160cc55610e8f565b015160001960f88460031b161c1916905538808061103d565b92936020600181928786015181550195019301611027565b6110b29060cc8852600080516020611f99833981519152601f850160051c81019160208610610fe257601f0160051c0190611e95565b38610e63565b634e487b7160e01b85526041600452602485fd5b015190503880610e25565b60cb8852600080516020611f598339815191529250601f198416885b8181106111305750908460019594939210611117575b505050811b0160cb55610e3b565b015160001960f88460031b161c19169055388080611109565b929360206001819287860151815501950193016110f3565b61117e9060cb8952600080516020611f59833981519152601f850160051c81019160208610610fe257601f0160051c0190611e95565b38610e0f565b634e487b7160e01b86526041600452602486fd5b015190503880610db4565b606689527f46501879b8ca8525e8c2fd519e2fbfcfa2ebea26501294aa02cbfcfb12e943549250601f198416895b81811061120e57509084600195949392106111f5575b505050811b01606655610dca565b015160001960f88460031b161c191690553880806111e7565b929360206001819287860151815501950193016111d1565b61126e9060668a527f46501879b8ca8525e8c2fd519e2fbfcfa2ebea26501294aa02cbfcfb12e94354601f850160051c81019160208610610fe257601f0160051c0190611e95565b38610d9e565b634e487b7160e01b87526041600452602487fd5b015190503880610d60565b60658a527f8ff97419363ffd7000167f130ef7168fbea05faf9251824ca5043f113cc6a7c79250601f1984168a5b8181106112fe57509084600195949392106112e5575b505050811b01606555610d76565b015160001960f88460031b161c191690553880806112d7565b929360206001819287860151815501950193016112c1565b61135e9060658b527f8ff97419363ffd7000167f130ef7168fbea05faf9251824ca5043f113cc6a7c7601f850160051c81019160208610610fe257601f0160051c0190611e95565b38610d4a565b634e487b7160e01b88526041600452602488fd5b61ffff191661010117855538610ca2565b845162461bcd60e51b815260206004820152602e60248201527f496e697469616c697a61626c653a20636f6e747261637420697320616c72656160448201526d191e481a5b9a5d1a585b1a5e995960921b6064820152608490fd5b50303b158015610c8d5750600160ff821614610c8d565b50600160ff821610610c86565b8280fd5b50346101c557816003193601126101c5578051908260ca5461142d816117c0565b808552916001918083169081156102c45750600114611458575050506102638261027594038361182c565b945060ca8552600080516020611f798339815191525b82861061148b575050506102638260206102759582010194610251565b8054602087870181019190915290950194810161146e565b50346101c557806003193601126101c5576114bc61178f565b602435916001600160a01b039081806114d4866119d3565b169316928084146115c3578033149081156115a4575b501561153b578385526069602052842080546001600160a01b03191683179055611513836119d3565b167f8c5be1e5ebec7d5bd14f71427d1e84f3dd0314c0f7b2291e5b200ac8c7c3b9258480a480f35b5162461bcd60e51b815260206004820152603d60248201527f4552433732313a20617070726f76652063616c6c6572206973206e6f7420746f60448201527f6b656e206f776e6572206f7220617070726f76656420666f7220616c6c0000006064820152608490fd5b90508552606a60205280852033865260205260ff8186205416386114ea565b815162461bcd60e51b815260206004820152602160248201527f4552433732313a20617070726f76616c20746f2063757272656e74206f776e656044820152603960f91b6064820152608490fd5b50346101c55760203660031901126101c5576020906108fe6004356119f9565b50346101c557816003193601126101c55780519082606554611652816117c0565b808552916001918083169081156102c4575060011461167d575050506102638261027594038361182c565b9450606585527f8ff97419363ffd7000167f130ef7168fbea05faf9251824ca5043f113cc6a7c75b8286106116c2575050506102638260206102759582010194610251565b805460208787018101919091529095019481016116a5565b8390346101c55760203660031901126101c55760043563ffffffff60e01b811680910361140857602092506380ac58cd60e01b8114908115611736575b8115611725575b5015158152f35b6301ffc9a760e01b1490508361171e565b635b5e139f60e01b81149150611717565b60005b83811061175a5750506000910152565b818101518382015260200161174a565b9060209161178381518092818552858086019101611747565b601f01601f1916010190565b600435906001600160a01b03821682036117a557565b600080fd5b602435906001600160a01b03821682036117a557565b90600182811c921680156117f0575b60208310146117da57565b634e487b7160e01b600052602260045260246000fd5b91607f16916117cf565b6020810190811067ffffffffffffffff82111761181657604052565b634e487b7160e01b600052604160045260246000fd5b90601f8019910116810190811067ffffffffffffffff82111761181657604052565b67ffffffffffffffff811161181657601f01601f191660200190565b81601f820112156117a5578035906118818261184e565b9261188f604051948561182c565b828452602083830101116117a557816000926020809301838601378301015290565b60609060031901126117a5576001600160a01b039060043582811681036117a5579160243590811681036117a5579060443590565b6097546001600160a01b031633036118fa57565b606460405162461bcd60e51b815260206004820152602060248201527f4f776e61626c653a2063616c6c6572206973206e6f7420746865206f776e65726044820152fd5b609780546001600160a01b039283166001600160a01b0319821681179092559091167f8be0079c531659141344cd1fd0a4f28419497f9722a3daafe3b4186f6b6457e0600080a3565b1561198e57565b60405162461bcd60e51b815260206004820152601860248201527f4552433732313a20696e76616c696420746f6b656e20494400000000000000006044820152606490fd5b6000908152606760205260409020546001600160a01b03166119f6811515611987565b90565b600081815260676020526040902054611a1c906001600160a01b03161515611987565b6000908152606960205260409020546001600160a01b031690565b15611a3e57565b60405162461bcd60e51b815260206004820152602d60248201527f4552433732313a2063616c6c6572206973206e6f7420746f6b656e206f776e6560448201526c1c881bdc88185c1c1c9bdd9959609a1b6064820152608490fd5b60809060208152603260208201527f4552433732313a207472616e7366657220746f206e6f6e20455243373231526560408201527131b2b4bb32b91034b6b83632b6b2b73a32b960711b60608201520190565b15611af357565b60405162461bcd60e51b815280611b0c60048201611a99565b0390fd5b906001600160a01b038080611b24846119d3565b16931691838314938415611b57575b508315611b41575b50505090565b611b4d919293506119f9565b1614388080611b3b565b909350600052606a60205260406000208260005260205260ff604060002054169238611b33565b15611b8557565b60405162461bcd60e51b815260206004820152602560248201527f4552433732313a207472616e736665722066726f6d20696e636f72726563742060448201526437bbb732b960d91b6064820152608490fd5b90611c0091611be6846119d3565b6001600160a01b0393918416928492909183168414611b7e565b16918215611c9d5781611c1d91611c16866119d3565b1614611b7e565b7fddf252ad1be2c89b69c2b068fc378daa952ba7f163c4a11628f55a4df523b3ef60008481526069602052604081206bffffffffffffffffffffffff60a01b9081815416905583825260686020526040822060001981540190558482526040822060018154019055858252606760205284604083209182541617905580a4565b60405162461bcd60e51b8152602060048201526024808201527f4552433732313a207472616e7366657220746f20746865207a65726f206164646044820152637265737360e01b6064820152608490fd5b9192600092909190803b15611e0057611d3c946040518092630a85bd0160e11b9485835233600484015287602484015260448301526080606483015281878160209a8b96608483019061176a565b03926001600160a01b03165af1849181611dc0575b50611daf575050503d600014611da7573d611d6b8161184e565b90611d79604051928361182c565b81528091833d92013e5b80519182611da45760405162461bcd60e51b815280611b0c60048201611a99565b01fd5b506060611d83565b6001600160e01b0319161492509050565b9091508581813d8311611df9575b611dd8818361182c565b810103126103cd57516001600160e01b0319811681036103cd579038611d51565b503d611dce565b5050915050600190565b9293600093909291803b15611e8a57948491611e649660405180948193630a85bd0160e11b9788845233600485015260018060a01b0380921660248501526044840152608060648401528260209b8c97608483019061176a565b0393165af1849181611dc05750611daf575050503d600014611da7573d611d6b8161184e565b505050915050600190565b818110611ea0575050565b60008155600101611e95565b15611eb357565b60405162461bcd60e51b815260206004820152602b60248201527f496e697469616c697a61626c653a20636f6e7472616374206973206e6f74206960448201526a6e697469616c697a696e6760a81b6064820152608490fd5b15611f1357565b60405162461bcd60e51b815260206004820152601c60248201527f4552433732313a20746f6b656e20616c7265616479206d696e746564000000006044820152606490fdfea7ce836d032b2bf62b7e2097a8e0a6d8aeb35405ad15271e96d3b0188a1d06fb42d72674974f694b5f5159593243114d38a5c39c89d6b62fee061ff523240ee147197230e1e4b29fc0bd84d7d78966c0925452aff72a2a121538b102457e9ebea2646970667358221220ccf7c50e1ff38d09a94aa8362a6700a7fd616e6b6ccaf9a9ee267f14d08d80e064736f6c63430008110033",
  "devdoc": {
    "kind": "dev",
    "methods": {
      "approve(address,uint256)": {
        "details": "See {IERC721-approve}."
      },
      "balanceOf(address)": {
        "details": "See {IERC721-balanceOf}."
      },
      "getApproved(uint256)": {
        "details": "See {IERC721-getApproved}."
      },
      "isApprovedForAll(address,address)": {
        "details": "See {IERC721-isApprovedForAll}."
      },
      "name()": {
        "details": "See {IERC721Metadata-name}."
      },
      "owner()": {
        "details": "Returns the address of the current owner."
      },
      "ownerOf(uint256)": {
        "details": "See {IERC721-ownerOf}."
      },
      "renounceOwnership()": {
        "details": "Leaves the contract without owner. It will not be possible to call `onlyOwner` functions anymore. Can only be called by the current owner. NOTE: Renouncing ownership will leave the contract without an owner, thereby removing any functionality that is only available to the owner."
      },
      "safeTransferFrom(address,address,uint256)": {
        "details": "See {IERC721-safeTransferFrom}."
      },
      "safeTransferFrom(address,address,uint256,bytes)": {
        "details": "See {IERC721-safeTransferFrom}."
      },
      "setApprovalForAll(address,bool)": {
        "details": "See {IERC721-setApprovalForAll}."
      },
      "supportsInterface(bytes4)": {
        "details": "See {IERC165-supportsInterface}."
      },
      "symbol()": {
        "details": "See {IERC721Metadata-symbol}."
      },
      "tokenURI(uint256)": {
        "details": "See {IERC721Metadata-tokenURI}."
      },
      "transferFrom(address,address,uint256)": {
        "details": "See {IERC721-transferFrom}."
      },
      "transferOwnership(address)": {
        "details": "Transfers ownership of the contract to a new account (`newOwner`). Can only be called by the current owner."
      }
    },
    "version": 1
  },
  "userdoc": {
    "kind": "user",
    "methods": {},
    "version": 1
  },
  "storageLayout": {
    "storage": [
      {
        "astId": 138,
        "contract": "contracts/tokens/IssuedERC721.sol:IssuedERC721",
        "label": "_initialized",
        "offset": 0,
        "slot": "0",
        "type": "t_uint8"
      },
      {
        "astId": 141,
        "contract": "contracts/tokens/IssuedERC721.sol:IssuedERC721",
        "label": "_initializing",
        "offset": 1,
        "slot": "0",
        "type": "t_bool"
      },
      {
        "astId": 2453,
        "contract": "contracts/tokens/IssuedERC721.sol:IssuedERC721",
        "label": "__gap",
        "offset": 0,
        "slot": "1",
        "type": "t_array(t_uint256)50_storage"
      },
      {
        "astId": 2672,
        "contract": "contracts/tokens/IssuedERC721.sol:IssuedERC721",
        "label": "__gap",
        "offset": 0,
        "slot": "51",
        "type": "t_array(t_uint256)50_storage"
      },
      {
        "astId": 1044,
        "contract": "contracts/tokens/IssuedERC721.sol:IssuedERC721",
        "label": "_name",
        "offset": 0,
        "slot": "101",
        "type": "t_string_storage"
      },
      {
        "astId": 1046,
        "contract": "contracts/tokens/IssuedERC721.sol:IssuedERC721",
        "label": "_symbol",
        "offset": 0,
        "slot": "102",
        "type": "t_string_storage"
      },
      {
        "astId": 1050,
        "contract": "contracts/tokens/IssuedERC721.sol:IssuedERC721",
        "label": "_owners",
        "offset": 0,
        "slot": "103",
        "type": "t_mapping(t_uint256,t_address)"
      },
      {
        "astId": 1054,
        "contract": "contracts/tokens/IssuedERC721.sol:IssuedERC721",
        "label": "_balances",
        "offset": 0,
        "slot": "104",
        "type": "t_mapping(t_address,t_uint256)"
      },
      {
        "astId": 1058,
        "contract": "contracts/tokens/IssuedERC721.sol:IssuedERC721",
        "label": "_tokenApprovals",
        "offset": 0,
        "slot": "105",
        "type": "t_mapping(t_uint256,t_address)"
      },
      {
        "astId": 1064,
        "contract": "contracts/tokens/IssuedERC721.sol:IssuedERC721",
        "label": "_operatorApprovals",
        "offset": 0,
        "slot": "106",
        "type": "t_mapping(t_address,t_mapping(t_address,t_bool))"
      },
      {
        "astId": 1966,
        "contract": "contracts/tokens/IssuedERC721.sol:IssuedERC721",
        "label": "__gap",
        "offset": 0,
        "slot": "107",
        "type": "t_array(t_uint256)44_storage"
      },
      {
        "astId": 10,
        "contract": "contracts/tokens/IssuedERC721.sol:IssuedERC721",
        "label": "_owner",
        "offset": 0,
        "slot": "151",
        "type": "t_address"
      },
      {
        "astId": 130,
        "contract": "contracts/tokens/IssuedERC721.sol:IssuedERC721",
        "label": "__gap",
        "offset": 0,
        "slot": "152",
        "type": "t_array(t_uint256)49_storage"
      },
      {
        "astId": 6840,
        "contract": "contracts/tokens/IssuedERC721.sol:IssuedERC721",
        "label": "originalChain",
        "offset": 0,
        "slot": "201",
        "type": "t_bytes32"
      },
      {
        "astId": 6842,
        "contract": "contracts/tokens/IssuedERC721.sol:IssuedERC721",
        "label": "originalToken",
        "offset": 0,
        "slot": "202",
        "type": "t_bytes_storage"
      },
      {
        "astId": 6844,
        "contract": "contracts/tokens/IssuedERC721.sol:IssuedERC721",
        "label": "originalTokenName",
        "offset": 0,
        "slot": "203",
        "type": "t_string_storage"
      },
      {
        "astId": 6846,
        "contract": "contracts/tokens/IssuedERC721.sol:IssuedERC721",
        "label": "originalTokenSymbol",
        "offset": 0,
        "slot": "204",
        "type": "t_string_storage"
      }
    ],
    "types": {
      "t_address": {
        "encoding": "inplace",
        "label": "address",
        "numberOfBytes": "20"
      },
      "t_array(t_uint256)44_storage": {
        "base": "t_uint256",
        "encoding": "inplace",
        "label": "uint256[44]",
        "numberOfBytes": "1408"
      },
      "t_array(t_uint256)49_storage": {
        "base": "t_uint256",
        "encoding": "inplace",
        "label": "uint256[49]",
        "numberOfBytes": "1568"
      },
      "t_array(t_uint256)50_storage": {
        "base": "t_uint256",
        "encoding": "inplace",
        "label": "uint256[50]",
        "numberOfBytes": "1600"
      },
      "t_bool": {
        "encoding": "inplace",
        "label": "bool",
        "numberOfBytes": "1"
      },
      "t_bytes32": {
        "encoding": "inplace",
        "label": "bytes32",
        "numberOfBytes": "32"
      },
      "t_bytes_storage": {
        "encoding": "bytes",
        "label": "bytes",
        "numberOfBytes": "32"
      },
      "t_mapping(t_address,t_bool)": {
        "encoding": "mapping",
        "key": "t_address",
        "label": "mapping(address => bool)",
        "numberOfBytes": "32",
        "value": "t_bool"
      },
      "t_mapping(t_address,t_mapping(t_address,t_bool))": {
        "encoding": "mapping",
        "key": "t_address",
        "label": "mapping(address => mapping(address => bool))",
        "numberOfBytes": "32",
        "value": "t_mapping(t_address,t_bool)"
      },
      "t_mapping(t_address,t_uint256)": {
        "encoding": "mapping",
        "key": "t_address",
        "label": "mapping(address => uint256)",
        "numberOfBytes": "32",
        "value": "t_uint256"
      },
      "t_mapping(t_uint256,t_address)": {
        "encoding": "mapping",
        "key": "t_uint256",
        "label": "mapping(uint256 => address)",
        "numberOfBytes": "32",
        "value": "t_address"
      },
      "t_string_storage": {
        "encoding": "bytes",
        "label": "string",
        "numberOfBytes": "32"
      },
      "t_uint256": {
        "encoding": "inplace",
        "label": "uint256",
        "numberOfBytes": "32"
      },
      "t_uint8": {
        "encoding": "inplace",
        "label": "uint8",
        "numberOfBytes": "1"
      }
    }
  }
}