{
  "address": "0x45583F5F22F124b5A4b0F3C38b470e5DD0eE8D61",
  "abi": [
    {
      "anonymous": false,
      "inputs": [
        {
          "indexed": true,
          "internalType": "address",
          "name": "owner",
          "type": "address"
        },
        {
          "indexed": true,
          "internalType": "address",
          "name": "approved",
          "type": "address"
        },
        {
          "indexed": true,
          "internalType": "uint256",
          "name": "tokenId",
          "type": "uint256"
        }
      ],
      "name": "Approval",
      "type": "event"
    },
    {
      "anonymous": false,
      "inputs": [
        {
          "indexed": true,
          "internalType": "address",
          "name": "owner",
          "type": "address"
        },
        {
          "indexed": true,
          "internalType": "address",
          "name": "operator",
          "type": "address"
        },
        {
          "indexed": false,
          "internalType": "bool",
          "name": "approved",
          "type": "bool"
        }
      ],
      "name": "ApprovalForAll",
      "type": "event"
    },
    {
      "anonymous": false,
      "inputs": [
        {
          "indexed": false,
          "internalType": "uint8",
          "name": "version",
          "type": "uint8"
        }
      ],
      "name": "Initialized",
      "type": "event"
    },
    {
      "anonymous": false,
      "inputs": [
        {
          "indexed": true,
          "internalType": "address",
          "name": "previousOwner",
          "type": "address"
        },
        {
          "indexed": true,
          "internalType": "address",
          "name": "newOwner",
          "type": "address"
        }
      ],
      "name": "OwnershipTransferred",
      "type": "event"
    },
    {
      "anonymous": false,
      "inputs": [
        {
          "indexed": true,
          "internalType": "address",
          "name": "from",
          "type": "address"
        },
        {
          "indexed": true,
          "internalType": "address",
          "name": "to",
          "type": "address"
        },
        {
          "indexed": true,
          "internalType": "uint256",
          "name": "tokenId",
          "type": "uint256"
        }
      ],
      "name": "Transfer",
      "type": "event"
    },
    {
      "inputs": [
        {
          "internalType": "address",
          "name": "to",
          "type": "address"
        },
        {
          "internalType": "uint256",
          "name": "tokenId",
          "type": "uint256"
        }
      ],
      "name": "approve",
      "outputs": [],
      "stateMutability": "nonpayable",
      "type": "function"
    },
    {
      "inputs": [
        {
          "internalType": "address",
          "name": "owner",
          "type": "address"
        }
      ],
      "name": "balanceOf",
      "outputs": [
        {
          "internalType": "uint256",
          "name": "",
          "type": "uint256"
        }
      ],
      "stateMutability": "view",
      "type": "function"
    },
    {
      "inputs": [
        {
          "internalType": "uint256",
          "name": "_tokenId",
          "type": "uint256"
        }
      ],
      "name": "burn",
      "outputs": [],
      "stateMutability": "nonpayable",
      "type": "function"
    },
    {
      "inputs": [
        {
          "internalType": "uint256",
          "name": "tokenId",
          "type": "uint256"
        }
      ],
      "name": "getApproved",
      "outputs": [
        {
          "internalType": "address",
          "name": "",
          "type": "address"
        }
      ],
      "stateMutability": "view",
      "type": "function"
    },
    {
      "inputs": [],
      "name": "getOriginalTokenInfo",
      "outputs": [
        {
          "internalType": "bytes32",
          "name": "",
          "type": "bytes32"
        },
        {
          "internalType": "bytes",
          "name": "",
          "type": "bytes"
        },
        {
          "internalType": "string",
          "name": "",
          "type": "string"
        },
        {
          "internalType": "string",
          "name": "",
          "type": "string"
        }
      ],
      "stateMutability": "view",
      "type": "function"
    },
    {
      "inputs": [
        {
          "internalType": "bytes32",
          "name": "_originalChain",
          "type": "bytes32"
        },
        {
          "internalType": "bytes",
          "name": "_originalToken",
          "type": "bytes"
        },
        {
          "internalType": "string",
          "name": "_originalTokenName",
          "type": "string"
        },
        {
          "internalType": "string",
          "name": "_originalTokenSymbol",
          "type": "string"
        }
      ],
      "name": "initialize",
      "outputs": [],
      "stateMutability": "nonpayable",
      "type": "function"
    },
    {
      "inputs": [
        {
          "internalType": "address",
          "name": "owner",
          "type": "address"
        },
        {
          "internalType": "address",
          "name": "operator",
          "type": "address"
        }
      ],
      "name": "isApprovedForAll",
      "outputs": [
        {
          "internalType": "bool",
          "name": "",
          "type": "bool"
        }
      ],
      "stateMutability": "view",
      "type": "function"
    },
    {
      "inputs": [
        {
          "internalType": "address",
          "name": "_recipient",
          "type": "address"
        },
        {
          "internalType": "uint256",
          "name": "_tokenId",
          "type": "uint256"
        },
        {
          "internalType": "string",
          "name": "_uri",
          "type": "string"
        }
      ],
      "name": "mint",
      "outputs": [],
      "stateMutability": "nonpayable",
      "type": "function"
    },
    {
      "inputs": [],
      "name": "name",
      "outputs": [
        {
          "internalType": "string",
          "name": "",
          "type": "string"
        }
      ],
      "stateMutability": "view",
      "type": "function"
    },
    {
      "inputs": [],
      "name": "originalChain",
      "outputs": [
        {
          "internalType": "bytes32",
          "name": "",
          "type": "bytes32"
        }
      ],
      "stateMutability": "view",
      "type": "function"
    },
    {
      "inputs": [],
      "name": "originalToken",
      "outputs": [
        {
          "internalType": "bytes",
          "name": "",
          "type": "bytes"
        }
      ],
      "stateMutability": "view",
      "type": "function"
    },
    {
      "inputs": [],
      "name": "originalTokenName",
      "outputs": [
        {
          "internalType": "string",
          "name": "",
          "type": "string"
        }
      ],
      "stateMutability": "view",
      "type": "function"
    },
    {
      "inputs": [],
      "name": "originalTokenSymbol",
      "outputs": [
        {
          "internalType": "string",
          "name": "",
          "type": "string"
        }
      ],
      "stateMutability": "view",
      "type": "function"
    },
    {
      "inputs": [],
      "name": "owner",
      "outputs": [
        {
          "internalType": "address",
          "name": "",
          "type": "address"
        }
      ],
      "stateMutability": "view",
      "type": "function"
    },
    {
      "inputs": [
        {
          "internalType": "uint256",
          "name": "tokenId",
          "type": "uint256"
        }
      ],
      "name": "ownerOf",
      "outputs": [
        {
          "internalType": "address",
          "name": "",
          "type": "address"
        }
      ],
      "stateMutability": "view",
      "type": "function"
    },
    {
      "inputs": [
        {
          "internalType": "address",
          "name": "_from",
          "type": "address"
        },
        {
          "internalType": "address",
          "name": "_to",
          "type": "address"
        },
        {
          "internalType": "uint256",
          "name": "_tokenId",
          "type": "uint256"
        }
      ],
      "name": "permissionedTransferFrom",
      "outputs": [],
      "stateMutability": "nonpayable",
      "type": "function"
    },
    {
      "inputs": [],
      "name": "renounceOwnership",
      "outputs": [],
      "stateMutability": "nonpayable",
      "type": "function"
    },
    {
      "inputs": [
        {
          "internalType": "address",
          "name": "from",
          "type": "address"
        },
        {
          "internalType": "address",
          "name": "to",
          "type": "address"
        },
        {
          "internalType": "uint256",
          "name": "tokenId",
          "type": "uint256"
        }
      ],
      "name": "safeTransferFrom",
      "outputs": [],
      "stateMutability": "nonpayable",
      "type": "function"
    },
    {
      "inputs": [
        {
          "internalType": "address",
          "name": "from",
          "type": "address"
        },
        {
          "internalType": "address",
          "name": "to",
          "type": "address"
        },
        {
          "internalType": "uint256",
          "name": "tokenId",
          "type": "uint256"
        },
        {
          "internalType": "bytes",
          "name": "data",
          "type": "bytes"
        }
      ],
      "name": "safeTransferFrom",
      "outputs": [],
      "stateMutability": "nonpayable",
      "type": "function"
    },
    {
      "inputs": [
        {
          "internalType": "address",
          "name": "operator",
          "type": "address"
        },
        {
          "internalType": "bool",
          "name": "approved",
          "type": "bool"
        }
      ],
      "name": "setApprovalForAll",
      "outputs": [],
      "stateMutability": "nonpayable",
      "type": "function"
    },
    {
      "inputs": [
        {
          "internalType": "bytes4",
          "name": "interfaceId",
          "type": "bytes4"
        }
      ],
      "name": "supportsInterface",
      "outputs": [
        {
          "internalType": "bool",
          "name": "",
          "type": "bool"
        }
      ],
      "stateMutability": "view",
      "type": "function"
    },
    {
      "inputs": [],
      "name": "symbol",
      "outputs": [
        {
          "internalType": "string",
          "name": "",
          "type": "string"
        }
      ],
      "stateMutability": "view",
      "type": "function"
    },
    {
      "inputs": [
        {
          "internalType": "uint256",
          "name": "_tokenId",
          "type": "uint256"
        }
      ],
      "name": "tokenURI",
      "outputs": [
        {
          "internalType": "string",
          "name": "",
          "type": "string"
        }
      ],
      "stateMutability": "view",
      "type": "function"
    },
    {
      "inputs": [
        {
          "internalType": "address",
          "name": "from",
          "type": "address"
        },
        {
          "internalType": "address",
          "name": "to",
          "type": "address"
        },
        {
          "internalType": "uint256",
          "name": "tokenId",
          "type": "uint256"
        }
      ],
      "name": "transferFrom",
      "outputs": [],
      "stateMutability": "nonpayable",
      "type": "function"
    },
    {
      "inputs": [
        {
          "internalType": "address",
          "name": "newOwner",
          "type": "address"
        }
      ],
      "name": "transferOwnership",
      "outputs": [],
      "stateMutability": "nonpayable",
      "type": "function"
    }
  ],
  "transactionHash": "0x5d3be62393feee4998c3cb67427a377de7855bc22766e42cdf73c06e01ee36c2",
  "args": [],
  "numDeployments": 2,
  "solcInputHash": "7d55269557b8a660c4d3d009a83cddc9",
  "bytecode": "0x6080806040523461001657612199908161001c8239f35b600080fdfe60806040818152600436101561001457600080fd5b600091823560e01c90816301ffc9a7146118885750806306fdde03146117df578063081812fc146117bf578063095ea7b3146116515780630e7c1cb5146115ba5780631e53e66a14610dc357806323b872dd14610d9e57806342842e0e14610d6b57806342966c6814610cc557806352694c6b14610c2e57806353638be514610c105780636352211e14610bdf57806370a0823114610b4c578063715018a614610aef5780638da5cb5b14610ac757806395d89b4114610a1e578063989ee11a146107db578063a22cb4651461070e578063ab1a63cd146106d5578063b88d4fde1461065e578063c87b56dd14610581578063d3fc9864146102ec578063e8cfdce914610216578063e985e9c5146101c95763f2fde38b1461013557600080fd5b346101c55760203660031901126101c55761014e61193d565b90610157611a91565b6001600160a01b03821615610173575061017090611ae9565b80f35b5162461bcd60e51b815260206004820152602660248201527f4f776e61626c653a206e6577206f776e657220697320746865207a65726f206160448201526564647265737360d01b6064820152608490fd5b5080fd5b50346101c557806003193601126101c55760ff816020936101e861193d565b6101f0611958565b6001600160a01b039182168352606a875283832091168252855220549151911615158152f35b50346101c557816003193601126101c5578051908260cc546102378161196e565b808552916001918083169081156102c45750600114610279575b505050610263826102759403836119d9565b51918291602083526020830190611918565b0390f35b945060cc85526000805160206121448339815191525b8286106102ac575050506102638260206102759582010194610251565b8054602087870181019190915290950194810161028f565b61027597508693506020925061026394915060ff191682840152151560051b82010194610251565b50346101c55760603660031901126101c55761030661193d565b6001600160401b039160248035929160443585811161057d573660238201121561057d5780600401359086821161057957368483830101116105795761034a611a91565b85885260209160cd83528085858b20938b610365865461196e565b87601f8211610540575b505090601f84116001146104d3578c936104c6575b5050508160011b916000199060031b1c19161790555b815195818701908111878210176104b35782528686526001600160a01b0384169283156104725750938092610170969492606761046d976103f96103f386600052606760205260018060a01b0360406000205416151590565b156120b7565b60008581526067602052604090205461041c906001600160a01b031615156103f3565b838b5260688152828b2080546001019055848b5252882080546001600160a01b03191682179055877fddf252ad1be2c89b69c2b068fc378daa952ba7f163c4a11628f55a4df523b3ef8180a4611e99565b611c97565b915162461bcd60e51b815260048101829052918201527f4552433732313a206d696e7420746f20746865207a65726f20616464726573736044820152606490fd5b634e487b7160e01b885260416004528388fd5b0101359050853880610384565b858d52868d20601f198516955092509088908d5b888782106105255750508460019610610509575b50505050811b01905561039a565b60001960f88660031b161c1992010135169055388087816104fb565b8483019093013585556001909401938a9291820191016104e7565b8288610567945220601f860160051c81019189871061056f575b601f0160051c0190612040565b8b388761036f565b909150819061055a565b8780fd5b8680fd5b50346101c5576020908160031936011261065a57600435835260cd82528083208151938491818154906105b38261196e565b928386526001928884821691826000146106305750506001146105f2575b8588610275896105e3848a03856119d9565b51928284938452830190611918565b87945081939291528383205b82841061061857505050820101816105e3610275386105d1565b8054848a0186015288955087949093019281016105fe565b60ff19168882015294151560051b870190940194508593506105e3925061027591503890506105d1565b8280fd5b82346106d25760803660031901126106d25761067861193d565b610680611958565b90606435906044356001600160401b0383116106ce57610170936106ab61046d943690600401611a15565b926106be6106b98433611cbb565b611be2565b6106c9838383611d83565b611fb5565b8480fd5b80fd5b50346101c55761046d610170916106eb36611a5c565b91926106f5611a91565b5192610700846119a8565b8684526106c9838383611d83565b50346101c557806003193601126101c55761072761193d565b602435908115158092036107d7576001600160a01b03169133831461079457338452606a60205280842083855260205280842060ff1981541660ff8416179055519081527f17307eab39ab6107e8899845ad3d59bd9653f200f220920489ca2b5937696c3160203392a380f35b5162461bcd60e51b815260206004820152601960248201527f4552433732313a20617070726f766520746f2063616c6c6572000000000000006044820152606490fd5b8380fd5b5090346106d257806003193601126106d25760c954908251928160ca5490856108038361196e565b9182825260019384811690816000146109ff57506001146109b3575b61082b925003866119d9565b815190838260cb549161083d8361196e565b808352928481169081156109945750600114610948575b610860925003836119d9565b825193809160cc54916108728361196e565b8088529282811690811561091e57506001146108d7575b505050916108c9916108a185610275969503856119d9565b6108bc82519788978852608060208901526080880190611918565b9186830390870152611918565b908382036060850152611918565b925060cc83526000805160206121448339815191525b828410610906575050508301602001816108a185610889565b805460208589018101919091529093019281016108ed565b60ff19166020808a019190915293151560051b880190930193508492506108a19150869050610889565b5060cb8652908590836000805160206121048339815191525b82841061097a5750505090602061086092820101610854565b602092945080548385890101520191019091838593610961565b6020925061086094915060ff191682840152151560051b820101610854565b5060ca8552908490836000805160206121248339815191525b8284106109e55750505090602061082b9282010161081f565b6020929450805483858c01015201910190918388936109cc565b6020925061082b94915060ff191682840152151560051b82010161081f565b50346101c557816003193601126101c55780519082606654610a3f8161196e565b808552916001918083169081156102c45750600114610a6a57505050610263826102759403836119d9565b9450606685527f46501879b8ca8525e8c2fd519e2fbfcfa2ebea26501294aa02cbfcfb12e943545b828610610aaf575050506102638260206102759582010194610251565b80546020878701810191909152909501948101610a92565b50346101c557816003193601126101c55760975490516001600160a01b039091168152602090f35b82346106d257806003193601126106d257610b08611a91565b609780546001600160a01b0319811690915581906001600160a01b03167f8be0079c531659141344cd1fd0a4f28419497f9722a3daafe3b4186f6b6457e08280a380f35b50346101c55760203660031901126101c5576001600160a01b03610b6e61193d565b168015610b8957828291602094526068845220549051908152f35b815162461bcd60e51b815260206004820152602960248201527f4552433732313a2061646472657373207a65726f206973206e6f7420612076616044820152683634b21037bbb732b960b91b6064820152608490fd5b50346101c55760203660031901126101c557602090610bff600435611b7e565b90516001600160a01b039091168152f35b50346101c557816003193601126101c55760209060c9549051908152f35b50346101c557816003193601126101c5578051908260cb54610c4f8161196e565b808552916001918083169081156102c45750600114610c7a57505050610263826102759403836119d9565b945060cb85526000805160206121048339815191525b828610610cad575050506102638260206102759582010194610251565b80546020878701810191909152909501948101610c90565b50346101c55760203660031901126101c5578160043591610ce4611a91565b610ced83611b7e565b50610cf783611b7e565b8383526069602090815282842080546001600160a01b03199081169091556001600160a01b039092168085526068825283852080546000190190558585526067909152918320805490911690557fddf252ad1be2c89b69c2b068fc378daa952ba7f163c4a11628f55a4df523b3ef8280a480f35b50346101c55761046d61017091610d8136611a5c565b91925192610d8e846119a8565b8684526106be6106b98433611cbb565b82346106d257610170610db036611a5c565b91610dbe6106b98433611cbb565b611d83565b5090346106d25760803660031901126106d2576024356001600160401b0381116101c557610df5903690600401611a15565b916044356001600160401b03811161065a57610e15903690600401611a15565b6064356001600160401b0381116107d757610e34903690600401611a15565b83549160ff8360081c1615928380946115ad575b8015611596575b1561153b5760ff19811660011786558361152a575b508351607960f81b90816020820152610e9b6021828551610e8b8184840160208a016118f5565b81010360018101845201826119d9565b8551916020830152610ecb6021838651610ebb8184840160208b016118f5565b81010360018101855201836119d9565b610ee460ff885460081c16610edf81612057565b612057565b8051906001600160401b038211611516578190610f0260655461196e565b601f81116114c8575b50602090601f831160011461144557899261143a575b50508160011b916000199060031b1c1916176065555b8051906001600160401b038211611426578190610f5560665461196e565b601f81116113d8575b50602090601f831160011461135557889261134a575b50508160011b916000199060031b1c1916176066555b610f9e60ff865460081c16610edf81612057565b610fa733611ae9565b8051906001600160401b038211611336578190610fc560cb5461196e565b601f81116112fa575b50602090601f831160011461128957879261127e575b50508160011b916000199060031b1c19161760cb555b8051906001600160401b03821161126a57819061101860cc5461196e565b601f811161122e575b50602090601f83116001146111bd5786926111b2575b50508160011b916000199060031b1c19161760cc555b60043560c95583516001600160401b03811161119e5761106e60ca5461196e565b601f8111611162575b50602094601f82116001146110f25794849582939495926110e7575b50508160011b916000199060031b1c19161760ca555b6110b1575080f35b60207f7f26b83ff96e1f2b6a682f133852f6798a09c465da95921460cefb38474024989161ff001984541684555160018152a180f35b015190503880611093565b60ca8552601f1982169560008051602061212483398151915291865b88811061114a57508360019596979810611131575b505050811b0160ca556110a9565b015160001960f88460031b161c19169055388080611123565b9192602060018192868501518155019401920161110e565b6111989060ca8652600080516020612124833981519152601f840160051c8101916020851061056f57601f0160051c0190612040565b38611077565b634e487b7160e01b84526041600452602484fd5b015190503880611037565b60cc87526000805160206121448339815191529250601f198416875b81811061121657509084600195949392106111fd575b505050811b0160cc5561104d565b015160001960f88460031b161c191690553880806111ef565b929360206001819287860151815501950193016111d9565b6112649060cc8852600080516020612144833981519152601f850160051c8101916020861061056f57601f0160051c0190612040565b38611021565b634e487b7160e01b85526041600452602485fd5b015190503880610fe4565b60cb88526000805160206121048339815191529250601f198416885b8181106112e257509084600195949392106112c9575b505050811b0160cb55610ffa565b015160001960f88460031b161c191690553880806112bb565b929360206001819287860151815501950193016112a5565b6113309060cb8952600080516020612104833981519152601f850160051c8101916020861061056f57601f0160051c0190612040565b38610fce565b634e487b7160e01b86526041600452602486fd5b015190503880610f74565b606689527f46501879b8ca8525e8c2fd519e2fbfcfa2ebea26501294aa02cbfcfb12e943549250601f198416895b8181106113c057509084600195949392106113a7575b505050811b01606655610f8a565b015160001960f88460031b161c19169055388080611399565b92936020600181928786015181550195019301611383565b6114209060668a527f46501879b8ca8525e8c2fd519e2fbfcfa2ebea26501294aa02cbfcfb12e94354601f850160051c8101916020861061056f57601f0160051c0190612040565b38610f5e565b634e487b7160e01b87526041600452602487fd5b015190503880610f21565b60658a527f8ff97419363ffd7000167f130ef7168fbea05faf9251824ca5043f113cc6a7c79250601f1984168a5b8181106114b05750908460019594939210611497575b505050811b01606555610f37565b015160001960f88460031b161c19169055388080611489565b92936020600181928786015181550195019301611473565b6115109060658b527f8ff97419363ffd7000167f130ef7168fbea05faf9251824ca5043f113cc6a7c7601f850160051c8101916020861061056f57601f0160051c0190612040565b38610f0b565b634e487b7160e01b88526041600452602488fd5b61ffff191661010117855538610e64565b845162461bcd60e51b815260206004820152602e60248201527f496e697469616c697a61626c653a20636f6e747261637420697320616c72656160448201526d191e481a5b9a5d1a585b1a5e995960921b6064820152608490fd5b50303b158015610e4f5750600160ff821614610e4f565b50600160ff821610610e48565b50346101c557816003193601126101c5578051908260ca546115db8161196e565b808552916001918083169081156102c4575060011461160657505050610263826102759403836119d9565b945060ca85526000805160206121248339815191525b828610611639575050506102638260206102759582010194610251565b8054602087870181019190915290950194810161161c565b50346101c557806003193601126101c55761166a61193d565b602435916001600160a01b0390818061168286611b7e565b1693169280841461177157803314908115611752575b50156116e9578385526069602052842080546001600160a01b031916831790556116c183611b7e565b167f8c5be1e5ebec7d5bd14f71427d1e84f3dd0314c0f7b2291e5b200ac8c7c3b9258480a480f35b5162461bcd60e51b815260206004820152603d60248201527f4552433732313a20617070726f76652063616c6c6572206973206e6f7420746f60448201527f6b656e206f776e6572206f7220617070726f76656420666f7220616c6c0000006064820152608490fd5b90508552606a60205280852033865260205260ff818620541638611698565b815162461bcd60e51b815260206004820152602160248201527f4552433732313a20617070726f76616c20746f2063757272656e74206f776e656044820152603960f91b6064820152608490fd5b50346101c55760203660031901126101c557602090610bff600435611ba4565b50346101c557816003193601126101c557805190826065546118008161196e565b808552916001918083169081156102c4575060011461182b57505050610263826102759403836119d9565b9450606585527f8ff97419363ffd7000167f130ef7168fbea05faf9251824ca5043f113cc6a7c75b828610611870575050506102638260206102759582010194610251565b80546020878701810191909152909501948101611853565b8390346101c55760203660031901126101c55760043563ffffffff60e01b811680910361065a57602092506380ac58cd60e01b81149081156118e4575b81156118d3575b5015158152f35b6301ffc9a760e01b149050836118cc565b635b5e139f60e01b811491506118c5565b60005b8381106119085750506000910152565b81810151838201526020016118f8565b90602091611931815180928185528580860191016118f5565b601f01601f1916010190565b600435906001600160a01b038216820361195357565b600080fd5b602435906001600160a01b038216820361195357565b90600182811c9216801561199e575b602083101461198857565b634e487b7160e01b600052602260045260246000fd5b91607f169161197d565b602081019081106001600160401b038211176119c357604052565b634e487b7160e01b600052604160045260246000fd5b90601f801991011681019081106001600160401b038211176119c357604052565b6001600160401b0381116119c357601f01601f191660200190565b81601f8201121561195357803590611a2c826119fa565b92611a3a60405194856119d9565b8284526020838301011161195357816000926020809301838601378301015290565b6060906003190112611953576001600160a01b0390600435828116810361195357916024359081168103611953579060443590565b6097546001600160a01b03163303611aa557565b606460405162461bcd60e51b815260206004820152602060248201527f4f776e61626c653a2063616c6c6572206973206e6f7420746865206f776e65726044820152fd5b609780546001600160a01b039283166001600160a01b0319821681179092559091167f8be0079c531659141344cd1fd0a4f28419497f9722a3daafe3b4186f6b6457e0600080a3565b15611b3957565b60405162461bcd60e51b815260206004820152601860248201527f4552433732313a20696e76616c696420746f6b656e20494400000000000000006044820152606490fd5b6000908152606760205260409020546001600160a01b0316611ba1811515611b32565b90565b600081815260676020526040902054611bc7906001600160a01b03161515611b32565b6000908152606960205260409020546001600160a01b031690565b15611be957565b60405162461bcd60e51b815260206004820152602d60248201527f4552433732313a2063616c6c6572206973206e6f7420746f6b656e206f776e6560448201526c1c881bdc88185c1c1c9bdd9959609a1b6064820152608490fd5b60809060208152603260208201527f4552433732313a207472616e7366657220746f206e6f6e20455243373231526560408201527131b2b4bb32b91034b6b83632b6b2b73a32b960711b60608201520190565b15611c9e57565b60405162461bcd60e51b815280611cb760048201611c44565b0390fd5b906001600160a01b038080611ccf84611b7e565b16931691838314938415611d02575b508315611cec575b50505090565b611cf891929350611ba4565b1614388080611ce6565b909350600052606a60205260406000208260005260205260ff604060002054169238611cde565b15611d3057565b60405162461bcd60e51b815260206004820152602560248201527f4552433732313a207472616e736665722066726f6d20696e636f72726563742060448201526437bbb732b960d91b6064820152608490fd5b90611dab91611d9184611b7e565b6001600160a01b0393918416928492909183168414611d29565b16918215611e485781611dc891611dc186611b7e565b1614611d29565b7fddf252ad1be2c89b69c2b068fc378daa952ba7f163c4a11628f55a4df523b3ef60008481526069602052604081206bffffffffffffffffffffffff60a01b9081815416905583825260686020526040822060001981540190558482526040822060018154019055858252606760205284604083209182541617905580a4565b60405162461bcd60e51b8152602060048201526024808201527f4552433732313a207472616e7366657220746f20746865207a65726f206164646044820152637265737360e01b6064820152608490fd5b9192600092909190803b15611fab57611ee7946040518092630a85bd0160e11b9485835233600484015287602484015260448301526080606483015281878160209a8b966084830190611918565b03926001600160a01b03165af1849181611f6b575b50611f5a575050503d600014611f52573d611f16816119fa565b90611f2460405192836119d9565b81528091833d92013e5b80519182611f4f5760405162461bcd60e51b815280611cb760048201611c44565b01fd5b506060611f2e565b6001600160e01b0319161492509050565b9091508581813d8311611fa4575b611f8381836119d9565b810103126106ce57516001600160e01b0319811681036106ce579038611efc565b503d611f79565b5050915050600190565b9293600093909291803b156120355794849161200f9660405180948193630a85bd0160e11b9788845233600485015260018060a01b0380921660248501526044840152608060648401528260209b8c976084830190611918565b0393165af1849181611f6b5750611f5a575050503d600014611f52573d611f16816119fa565b505050915050600190565b81811061204b575050565b60008155600101612040565b1561205e57565b60405162461bcd60e51b815260206004820152602b60248201527f496e697469616c697a61626c653a20636f6e7472616374206973206e6f74206960448201526a6e697469616c697a696e6760a81b6064820152608490fd5b156120be57565b60405162461bcd60e51b815260206004820152601c60248201527f4552433732313a20746f6b656e20616c7265616479206d696e746564000000006044820152606490fdfea7ce836d032b2bf62b7e2097a8e0a6d8aeb35405ad15271e96d3b0188a1d06fb42d72674974f694b5f5159593243114d38a5c39c89d6b62fee061ff523240ee147197230e1e4b29fc0bd84d7d78966c0925452aff72a2a121538b102457e9ebea2646970667358221220314282f0c2c4da7d0e458be13558cacfdc2c37fdba2ef7a29728a1b9e96fd14864736f6c63430008110033",
  "devdoc": {
    "kind": "dev",
    "methods": {
      "approve(address,uint256)": {
        "details": "See {IERC721-approve}."
      },
      "balanceOf(address)": {
        "details": "See {IERC721-balanceOf}."
      },
      "getApproved(uint256)": {
        "details": "See {IERC721-getApproved}."
      },
      "isApprovedForAll(address,address)": {
        "details": "See {IERC721-isApprovedForAll}."
      },
      "name()": {
        "details": "See {IERC721Metadata-name}."
      },
      "owner()": {
        "details": "Returns the address of the current owner."
      },
      "ownerOf(uint256)": {
        "details": "See {IERC721-ownerOf}."
      },
      "renounceOwnership()": {
        "details": "Leaves the contract without owner. It will not be possible to call `onlyOwner` functions anymore. Can only be called by the current owner. NOTE: Renouncing ownership will leave the contract without an owner, thereby removing any functionality that is only available to the owner."
      },
      "safeTransferFrom(address,address,uint256)": {
        "details": "See {IERC721-safeTransferFrom}."
      },
      "safeTransferFrom(address,address,uint256,bytes)": {
        "details": "See {IERC721-safeTransferFrom}."
      },
      "setApprovalForAll(address,bool)": {
        "details": "See {IERC721-setApprovalForAll}."
      },
      "supportsInterface(bytes4)": {
        "details": "See {IERC165-supportsInterface}."
      },
      "symbol()": {
        "details": "See {IERC721Metadata-symbol}."
      },
      "transferFrom(address,address,uint256)": {
        "details": "See {IERC721-transferFrom}."
      },
      "transferOwnership(address)": {
        "details": "Transfers ownership of the contract to a new account (`newOwner`). Can only be called by the current owner."
      }
    },
    "version": 1
  },
  "userdoc": {
    "kind": "user",
    "methods": {},
    "version": 1
  },
  "storageLayout": {
    "storage": [
      {
        "astId": 138,
        "contract": "contracts/tokens/IssuedERC721.sol:IssuedERC721",
        "label": "_initialized",
        "offset": 0,
        "slot": "0",
        "type": "t_uint8"
      },
      {
        "astId": 141,
        "contract": "contracts/tokens/IssuedERC721.sol:IssuedERC721",
        "label": "_initializing",
        "offset": 1,
        "slot": "0",
        "type": "t_bool"
      },
      {
        "astId": 1738,
        "contract": "contracts/tokens/IssuedERC721.sol:IssuedERC721",
        "label": "__gap",
        "offset": 0,
        "slot": "1",
        "type": "t_array(t_uint256)50_storage"
      },
      {
        "astId": 1957,
        "contract": "contracts/tokens/IssuedERC721.sol:IssuedERC721",
        "label": "__gap",
        "offset": 0,
        "slot": "51",
        "type": "t_array(t_uint256)50_storage"
      },
      {
        "astId": 329,
        "contract": "contracts/tokens/IssuedERC721.sol:IssuedERC721",
        "label": "_name",
        "offset": 0,
        "slot": "101",
        "type": "t_string_storage"
      },
      {
        "astId": 331,
        "contract": "contracts/tokens/IssuedERC721.sol:IssuedERC721",
        "label": "_symbol",
        "offset": 0,
        "slot": "102",
        "type": "t_string_storage"
      },
      {
        "astId": 335,
        "contract": "contracts/tokens/IssuedERC721.sol:IssuedERC721",
        "label": "_owners",
        "offset": 0,
        "slot": "103",
        "type": "t_mapping(t_uint256,t_address)"
      },
      {
        "astId": 339,
        "contract": "contracts/tokens/IssuedERC721.sol:IssuedERC721",
        "label": "_balances",
        "offset": 0,
        "slot": "104",
        "type": "t_mapping(t_address,t_uint256)"
      },
      {
        "astId": 343,
        "contract": "contracts/tokens/IssuedERC721.sol:IssuedERC721",
        "label": "_tokenApprovals",
        "offset": 0,
        "slot": "105",
        "type": "t_mapping(t_uint256,t_address)"
      },
      {
        "astId": 349,
        "contract": "contracts/tokens/IssuedERC721.sol:IssuedERC721",
        "label": "_operatorApprovals",
        "offset": 0,
        "slot": "106",
        "type": "t_mapping(t_address,t_mapping(t_address,t_bool))"
      },
      {
        "astId": 1251,
        "contract": "contracts/tokens/IssuedERC721.sol:IssuedERC721",
        "label": "__gap",
        "offset": 0,
        "slot": "107",
        "type": "t_array(t_uint256)44_storage"
      },
      {
        "astId": 10,
        "contract": "contracts/tokens/IssuedERC721.sol:IssuedERC721",
        "label": "_owner",
        "offset": 0,
        "slot": "151",
        "type": "t_address"
      },
      {
        "astId": 130,
        "contract": "contracts/tokens/IssuedERC721.sol:IssuedERC721",
        "label": "__gap",
        "offset": 0,
        "slot": "152",
        "type": "t_array(t_uint256)49_storage"
      },
      {
        "astId": 4735,
        "contract": "contracts/tokens/IssuedERC721.sol:IssuedERC721",
        "label": "originalChain",
        "offset": 0,
        "slot": "201",
        "type": "t_bytes32"
      },
      {
        "astId": 4737,
        "contract": "contracts/tokens/IssuedERC721.sol:IssuedERC721",
        "label": "originalToken",
        "offset": 0,
        "slot": "202",
        "type": "t_bytes_storage"
      },
      {
        "astId": 4739,
        "contract": "contracts/tokens/IssuedERC721.sol:IssuedERC721",
        "label": "originalTokenName",
        "offset": 0,
        "slot": "203",
        "type": "t_string_storage"
      },
      {
        "astId": 4741,
        "contract": "contracts/tokens/IssuedERC721.sol:IssuedERC721",
        "label": "originalTokenSymbol",
        "offset": 0,
        "slot": "204",
        "type": "t_string_storage"
      },
      {
        "astId": 4745,
        "contract": "contracts/tokens/IssuedERC721.sol:IssuedERC721",
        "label": "uris",
        "offset": 0,
        "slot": "205",
        "type": "t_mapping(t_uint256,t_string_storage)"
      }
    ],
    "types": {
      "t_address": {
        "encoding": "inplace",
        "label": "address",
        "numberOfBytes": "20"
      },
      "t_array(t_uint256)44_storage": {
        "base": "t_uint256",
        "encoding": "inplace",
        "label": "uint256[44]",
        "numberOfBytes": "1408"
      },
      "t_array(t_uint256)49_storage": {
        "base": "t_uint256",
        "encoding": "inplace",
        "label": "uint256[49]",
        "numberOfBytes": "1568"
      },
      "t_array(t_uint256)50_storage": {
        "base": "t_uint256",
        "encoding": "inplace",
        "label": "uint256[50]",
        "numberOfBytes": "1600"
      },
      "t_bool": {
        "encoding": "inplace",
        "label": "bool",
        "numberOfBytes": "1"
      },
      "t_bytes32": {
        "encoding": "inplace",
        "label": "bytes32",
        "numberOfBytes": "32"
      },
      "t_bytes_storage": {
        "encoding": "bytes",
        "label": "bytes",
        "numberOfBytes": "32"
      },
      "t_mapping(t_address,t_bool)": {
        "encoding": "mapping",
        "key": "t_address",
        "label": "mapping(address => bool)",
        "numberOfBytes": "32",
        "value": "t_bool"
      },
      "t_mapping(t_address,t_mapping(t_address,t_bool))": {
        "encoding": "mapping",
        "key": "t_address",
        "label": "mapping(address => mapping(address => bool))",
        "numberOfBytes": "32",
        "value": "t_mapping(t_address,t_bool)"
      },
      "t_mapping(t_address,t_uint256)": {
        "encoding": "mapping",
        "key": "t_address",
        "label": "mapping(address => uint256)",
        "numberOfBytes": "32",
        "value": "t_uint256"
      },
      "t_mapping(t_uint256,t_address)": {
        "encoding": "mapping",
        "key": "t_uint256",
        "label": "mapping(uint256 => address)",
        "numberOfBytes": "32",
        "value": "t_address"
      },
      "t_mapping(t_uint256,t_string_storage)": {
        "encoding": "mapping",
        "key": "t_uint256",
        "label": "mapping(uint256 => string)",
        "numberOfBytes": "32",
        "value": "t_string_storage"
      },
      "t_string_storage": {
        "encoding": "bytes",
        "label": "string",
        "numberOfBytes": "32"
      },
      "t_uint256": {
        "encoding": "inplace",
        "label": "uint256",
        "numberOfBytes": "32"
      },
      "t_uint8": {
        "encoding": "inplace",
        "label": "uint8",
        "numberOfBytes": "1"
      }
    }
  }
}