{
  "address": "0x93CA0C068C12a585BADA382d470F42C7C066908b",
  "abi": [
    {
      "inputs": [
        {
          "internalType": "bytes32",
          "name": "_currentChain",
          "type": "bytes32"
        },
        {
          "internalType": "bool",
          "name": "_isProxyChain",
          "type": "bool"
        },
        {
          "internalType": "bytes32[]",
          "name": "_registeredChains",
          "type": "bytes32[]"
        },
        {
          "internalType": "address",
          "name": "_issuedTokenImplementation",
          "type": "address"
        },
        {
          "internalType": "address",
          "name": "_validator",
          "type": "address"
        },
        {
          "internalType": "string",
          "name": "_nativeName",
          "type": "string"
        },
        {
          "internalType": "string",
          "name": "_nativeSymbol",
          "type": "string"
        },
        {
          "internalType": "uint8",
          "name": "_nativeDecimals",
          "type": "uint8"
        },
        {
          "internalType": "uint256",
          "name": "_nativeTransferGasLimit",
          "type": "uint256"
        }
      ],
      "stateMutability": "nonpayable",
      "type": "constructor"
    },
    {
      "anonymous": false,
      "inputs": [
        {
          "indexed": true,
          "internalType": "bytes32",
          "name": "transferId",
          "type": "bytes32"
        },
        {
          "indexed": false,
          "internalType": "uint256",
          "name": "externalNonce",
          "type": "uint256"
        },
        {
          "indexed": false,
          "internalType": "bytes32",
          "name": "originalChain",
          "type": "bytes32"
        },
        {
          "indexed": false,
          "internalType": "bytes",
          "name": "originalToken",
          "type": "bytes"
        },
        {
          "indexed": false,
          "internalType": "bytes32",
          "name": "initialChain",
          "type": "bytes32"
        },
        {
          "indexed": false,
          "internalType": "bytes32",
          "name": "targetChain",
          "type": "bytes32"
        },
        {
          "indexed": false,
          "internalType": "uint256",
          "name": "amount",
          "type": "uint256"
        },
        {
          "indexed": false,
          "internalType": "bytes",
          "name": "sender",
          "type": "bytes"
        },
        {
          "indexed": false,
          "internalType": "bytes",
          "name": "recipient",
          "type": "bytes"
        }
      ],
      "name": "TransferFromOtherChain",
      "type": "event"
    },
    {
      "anonymous": false,
      "inputs": [
        {
          "indexed": true,
          "internalType": "bytes32",
          "name": "transferId",
          "type": "bytes32"
        },
        {
          "indexed": false,
          "internalType": "uint256",
          "name": "nonce",
          "type": "uint256"
        },
        {
          "indexed": false,
          "internalType": "bytes32",
          "name": "initialChain",
          "type": "bytes32"
        },
        {
          "indexed": false,
          "internalType": "bytes32",
          "name": "originalChain",
          "type": "bytes32"
        },
        {
          "indexed": false,
          "internalType": "bytes",
          "name": "originalTokenAddress",
          "type": "bytes"
        },
        {
          "indexed": false,
          "internalType": "bytes32",
          "name": "targetChain",
          "type": "bytes32"
        },
        {
          "indexed": false,
          "internalType": "uint256",
          "name": "tokenAmount",
          "type": "uint256"
        },
        {
          "indexed": false,
          "internalType": "bytes",
          "name": "sender",
          "type": "bytes"
        },
        {
          "indexed": false,
          "internalType": "bytes",
          "name": "recipient",
          "type": "bytes"
        },
        {
          "indexed": false,
          "internalType": "string",
          "name": "tokenName",
          "type": "string"
        },
        {
          "indexed": false,
          "internalType": "string",
          "name": "tokenSymbol",
          "type": "string"
        },
        {
          "indexed": false,
          "internalType": "uint8",
          "name": "tokenDecimals",
          "type": "uint8"
        }
      ],
      "name": "TransferToOtherChain",
      "type": "event"
    },
    {
      "inputs": [
        {
          "internalType": "bytes32",
          "name": "_originalChain",
          "type": "bytes32"
        },
        {
          "internalType": "bytes",
          "name": "_originalToken",
          "type": "bytes"
        },
        {
          "internalType": "address",
          "name": "_account",
          "type": "address"
        }
      ],
      "name": "balances",
      "outputs": [
        {
          "internalType": "uint256",
          "name": "",
          "type": "uint256"
        }
      ],
      "stateMutability": "view",
      "type": "function"
    },
    {
      "inputs": [],
      "name": "currentChain",
      "outputs": [
        {
          "internalType": "bytes32",
          "name": "",
          "type": "bytes32"
        }
      ],
      "stateMutability": "view",
      "type": "function"
    },
    {
      "inputs": [
        {
          "internalType": "bytes32",
          "name": "_originalChain",
          "type": "bytes32"
        },
        {
          "internalType": "bytes",
          "name": "_originalToken",
          "type": "bytes"
        }
      ],
      "name": "getIssuedTokenAddress",
      "outputs": [
        {
          "internalType": "address",
          "name": "",
          "type": "address"
        }
      ],
      "stateMutability": "view",
      "type": "function"
    },
    {
      "inputs": [
        {
          "internalType": "uint256",
          "name": "_nonce",
          "type": "uint256"
        },
        {
          "internalType": "bytes32",
          "name": "_initialChain",
          "type": "bytes32"
        }
      ],
      "name": "getTranferId",
      "outputs": [
        {
          "internalType": "bytes32",
          "name": "",
          "type": "bytes32"
        }
      ],
      "stateMutability": "pure",
      "type": "function"
    },
    {
      "inputs": [
        {
          "internalType": "uint256",
          "name": "_nonce",
          "type": "uint256"
        },
        {
          "internalType": "bytes32",
          "name": "_initialChain",
          "type": "bytes32"
        }
      ],
      "name": "getTransferId",
      "outputs": [
        {
          "internalType": "bytes32",
          "name": "",
          "type": "bytes32"
        }
      ],
      "stateMutability": "pure",
      "type": "function"
    },
    {
      "inputs": [],
      "name": "initBlock",
      "outputs": [
        {
          "internalType": "uint256",
          "name": "",
          "type": "uint256"
        }
      ],
      "stateMutability": "view",
      "type": "function"
    },
    {
      "inputs": [
        {
          "internalType": "address",
          "name": "_issuedToken",
          "type": "address"
        }
      ],
      "name": "isIssuedTokenPublished",
      "outputs": [
        {
          "internalType": "bool",
          "name": "",
          "type": "bool"
        }
      ],
      "stateMutability": "view",
      "type": "function"
    },
    {
      "inputs": [],
      "name": "isProxyChain",
      "outputs": [
        {
          "internalType": "bool",
          "name": "",
          "type": "bool"
        }
      ],
      "stateMutability": "view",
      "type": "function"
    },
    {
      "inputs": [],
      "name": "issuedTokenImplementation",
      "outputs": [
        {
          "internalType": "address",
          "name": "",
          "type": "address"
        }
      ],
      "stateMutability": "view",
      "type": "function"
    },
    {
      "inputs": [
        {
          "internalType": "address",
          "name": "",
          "type": "address"
        }
      ],
      "name": "issuedTokens",
      "outputs": [
        {
          "internalType": "bool",
          "name": "",
          "type": "bool"
        }
      ],
      "stateMutability": "view",
      "type": "function"
    },
    {
      "inputs": [],
      "name": "nativeDecimals",
      "outputs": [
        {
          "internalType": "uint8",
          "name": "",
          "type": "uint8"
        }
      ],
      "stateMutability": "view",
      "type": "function"
    },
    {
      "inputs": [],
      "name": "nativeName",
      "outputs": [
        {
          "internalType": "string",
          "name": "",
          "type": "string"
        }
      ],
      "stateMutability": "view",
      "type": "function"
    },
    {
      "inputs": [],
      "name": "nativeSymbol",
      "outputs": [
        {
          "internalType": "string",
          "name": "",
          "type": "string"
        }
      ],
      "stateMutability": "view",
      "type": "function"
    },
    {
      "inputs": [],
      "name": "nativeTransferGasLimit",
      "outputs": [
        {
          "internalType": "uint256",
          "name": "",
          "type": "uint256"
        }
      ],
      "stateMutability": "view",
      "type": "function"
    },
    {
      "inputs": [],
      "name": "nonce",
      "outputs": [
        {
          "internalType": "uint256",
          "name": "",
          "type": "uint256"
        }
      ],
      "stateMutability": "view",
      "type": "function"
    },
    {
      "inputs": [
        {
          "internalType": "bytes32",
          "name": "",
          "type": "bytes32"
        }
      ],
      "name": "registeredChains",
      "outputs": [
        {
          "internalType": "bool",
          "name": "",
          "type": "bool"
        }
      ],
      "stateMutability": "view",
      "type": "function"
    },
    {
      "inputs": [
        {
          "internalType": "bytes32",
          "name": "",
          "type": "bytes32"
        },
        {
          "internalType": "uint256",
          "name": "",
          "type": "uint256"
        }
      ],
      "name": "registeredNonces",
      "outputs": [
        {
          "internalType": "bool",
          "name": "",
          "type": "bool"
        }
      ],
      "stateMutability": "view",
      "type": "function"
    },
    {
      "inputs": [
        {
          "internalType": "bytes32",
          "name": "_chain",
          "type": "bytes32"
        },
        {
          "internalType": "bool",
          "name": "_value",
          "type": "bool"
        }
      ],
      "name": "setChainRegister",
      "outputs": [],
      "stateMutability": "nonpayable",
      "type": "function"
    },
    {
      "inputs": [
        {
          "internalType": "address",
          "name": "_newValidator",
          "type": "address"
        }
      ],
      "name": "setValidator",
      "outputs": [],
      "stateMutability": "nonpayable",
      "type": "function"
    },
    {
      "inputs": [
        {
          "internalType": "uint256",
          "name": "_externalNonce",
          "type": "uint256"
        },
        {
          "internalType": "bytes32",
          "name": "_originalChain",
          "type": "bytes32"
        },
        {
          "internalType": "bytes",
          "name": "_originalToken",
          "type": "bytes"
        },
        {
          "internalType": "bytes32",
          "name": "_initialChain",
          "type": "bytes32"
        },
        {
          "internalType": "bytes32",
          "name": "_targetChain",
          "type": "bytes32"
        },
        {
          "internalType": "uint256",
          "name": "_amount",
          "type": "uint256"
        },
        {
          "internalType": "bytes",
          "name": "_sender",
          "type": "bytes"
        },
        {
          "internalType": "bytes",
          "name": "_recipient",
          "type": "bytes"
        },
        {
          "components": [
            {
              "internalType": "string",
              "name": "name",
              "type": "string"
            },
            {
              "internalType": "string",
              "name": "symbol",
              "type": "string"
            },
            {
              "internalType": "uint8",
              "name": "decimals",
              "type": "uint8"
            }
          ],
          "internalType": "struct BridgeERC20.TokenInfo",
          "name": "_tokenInfo",
          "type": "tuple"
        }
      ],
      "name": "tranferFromOtherChain",
      "outputs": [],
      "stateMutability": "nonpayable",
      "type": "function"
    },
    {
      "inputs": [
        {
          "internalType": "address",
          "name": "_transferedToken",
          "type": "address"
        },
        {
          "internalType": "uint256",
          "name": "_amount",
          "type": "uint256"
        },
        {
          "internalType": "bytes32",
          "name": "_targetChain",
          "type": "bytes32"
        },
        {
          "internalType": "bytes",
          "name": "_recipient",
          "type": "bytes"
        }
      ],
      "name": "tranferToOtherChain",
      "outputs": [],
      "stateMutability": "payable",
      "type": "function"
    },
    {
      "inputs": [],
      "name": "validator",
      "outputs": [
        {
          "internalType": "address",
          "name": "",
          "type": "address"
        }
      ],
      "stateMutability": "view",
      "type": "function"
    }
  ],
  "transactionHash": "0x9a795a5473b8d69d7c9b144872174354fb6ad0e85d073cd05b14c10674fabb38",
  "args": [
    "0xc5a260213bed973cb2f8d4637aa3ef27b0571649e067f5604af98967165ee957",
    false,
    [
      "0x888ddba0dff61733aea9d240a62a83cee02ac4a5c8e58fbc448c21d3b250d4bb",
      "0xf9b1779dd736d62f9a5815f9f11cb752f6342e8584a01f22e1b19b9a8cb5694e",
      "0x7319d77b282d06f1398943db85efac6f25008b7706c519a44e88de5e3c6f0a9e",
      "0x88243e88525a258200bf5ca869571208956d07a0fa57c175fe0c198c7a0c5c26",
      "0x642106d7ec84c5a51daf323a9cac483d643c5c0ed5c92e3db79f5aae302d83fd",
      "0x87550faf95af7bb3758cd1eca43d7facddb6bbe801af833914faa99ba86070e3",
      "0x49f18ed70c3220abb735efdc7fce309e384d008d4bc14c846dcce9e31050e29b",
      "0xa96b772a8c17d9c8cf2c92a171b3dcdcf9453b286b3b47d988d07a79acc72567"
    ],
    "0xcCD79fB5E3F0a5957FaF06c18bD76c4425Af0773",
    "0xf113545bEADD45D21c4EAa01cbA58e309c223630",
    "MATIC Token",
    "MATIC",
    18,
    35000
  ],
  "numDeployments": 2,
  "solcInputHash": "60f1d74e7755691c1c9d129dd0963cd3",
  "bytecode": "0x60406080815234620004825762002c27803803806200001e81620004ae565b92833981019061012081830312620004825780516020808301518015158091036200048257838601516001600160401b0391908281116200048257850193601f8781870112156200048257855197848911620004985760059689881b878062000089818401620004ae565b809d8152019183010191838311620004825788809101915b838310620004875750505050620000bb60608901620004d4565b96620000ca60808a01620004d4565b9060a08a0151878111620004825783620000e6918c01620004e9565b9260c08b015190888211620004825762000102918c01620004e9565b9260e08b01519a60ff8c16809c03620004825761010001519b43600855600196875560ff199a60039860ff8d8b5416911617895560018060a01b038060018060a01b031992168260075416176007556000951690855416178455805190845b828110620004255750505080519088821162000411576009548781811c9116801562000406575b8b821014620003f257908187849311620003a0575b508a908783116001146200033a5785926200032e575b505060001982891b1c191690861b176009555b82519687116200031a57600a54908582811c921680156200030f575b89831014620002fb57848211620002b4575b505086928611600114620002465794955085929190836200023a575b50501b92600019911b1c191617600a555b600b541617600b55600c55516126cb90816200055c8239f35b01519350388062000210565b600a815286812093969394938691601f198316915b898383106200029957505050106200027e575b50505050811b01600a5562000221565b01519060f884600019921b161c19169055388080806200026e565b8587015189559097019694850194889350908101906200025b565b600a83528883209085808a01821c8301938b8b10620002f1575b01901c019085905b828110620002e55750620001f4565b838155018590620002d6565b93508293620002ce565b634e487b7160e01b83526022600452602483fd5b91607f1691620001e2565b634e487b7160e01b82526041600452602482fd5b015190503880620001b3565b600986528b86208994509190601f198416878e5b8282106200038857505084116200036f575b505050811b01600955620001c6565b0151600019838b1b60f8161c1916905538808062000360565b8385015186558c979095019493840193018e6200034e565b909150600985528a852087808501861c8201928d8610620003e8575b918a918695949301871c01915b828110620003d95750506200019d565b8781558594508a9101620003c9565b92508192620003bc565b634e487b7160e01b85526022600452602485fd5b90607f169062000188565b634e487b7160e01b84526041600452602484fd5b81518110156200046e5780851b82018c0151865260048c528f862080548e168a17905560001981146200045a57880162000161565b634e487b7160e01b86526011600452602486fd5b634e487b7160e01b86526032600452602486fd5b600080fd5b8251815291810191899101620000a1565b634e487b7160e01b600052604160045260246000fd5b6040519190601f01601f191682016001600160401b038111838210176200049857604052565b51906001600160a01b03821682036200048257565b919080601f84011215620004825782516001600160401b03811162000498576020906200051f601f8201601f19168301620004ae565b92818452828287010111620004825760005b8181106200054757508260009394955001015290565b85810183015184820184015282016200053156fe608080604052600436101561001357600080fd5b6000803560e01c9182630c1ab73014610d1f57508163101c575a14610cf757816311921fad14610cc95781631327d3d814610c895781632817722814610c2e5781633a5381b514610c085781633da998fa14610beb578163457322b914610a0457816348b4fa5814610bc95781635d05125b14610bac578163768ea56a14610b8c5781637fedad5514610aca5781639a573d5d14610a7a5781639d95a79214610a42578163a0b498a414610a04578163affed0e0146109e7578163b00a0be6146109a2578163c4b2a23f14610254578163d631752614610237578163dfe70cef1461012557508063e3cd51e51461011c5763f7e03bad14610114575b600080fd5b61010f6115c8565b5061010f6115c8565b3461023457806003193601126102345760405160095460018082169180821c91600091841561022a575b60209485851081146102165784875286939291869082156101f6575050600114610199575b506101819250038361155f565b6101956040519282849384528301906115a3565b0390f35b84915060096000527f6e1540171b6c0c960b71a7020d9f60077f6af931a8bbf590da0223dacf75c7af906000915b8583106101de575050610181935082010185610174565b805483890185015287945086939092019181016101c7565b60ff19168582015261018195151560051b85010192508791506101749050565b634e487b7160e01b84526022600452602484fd5b92607f169261014f565b80fd5b346102345780600319360112610234576020600c54604051908152f35b3461023457600319610120368201126107bd576001600160401b039060443582811161099e576102889036906004016114d3565b60c43584811161099a576102a09036906004016114d3565b9460e435818111610996576102b99036906004016114d3565b95909161010435116109965760609061010435360301126105c1576102dd336115ea565b6064358752600660205260408720600435885260205260ff604088205416610943576064358752600660205260408720600435885260205260408720600160ff1982541617905560015480606435146108ec576064358852600460205260ff6040892054161561089557608435036105ee57866001600160a01b0361036483880184611934565b1660243560015414600014610504576001600160a01b0361038787870188611934565b168061048757508180809260a43590600c54f16103a2611827565b5015610442577f93ed05a8c697097712ecd9a75d512ed9bd401c4d006f5050685cfe71a6371a259461042e61043c935b6103e0606435600435611646565b986104086040519889986004358a5260243560208b01526101008060408c01528a019161171c565b916064356060890152608435608089015260a43560a089015287830360c089015261171c565b9184830360e086015261171c565b0390a280f35b60405162461bcd60e51b815260206004820152601e60248201527f6661696c6564207472616e73666572206e617469766520746f6b656e732100006044820152606490fd5b60405163a9059cbb60e01b60208201526001600160a01b03909216602483015260a43560448301527f93ed05a8c697097712ecd9a75d512ed9bd401c4d006f5050685cfe71a6371a259761043c9590935061042e9290916104ff91906104fa82606481015b03601f19810184528361155f565b61173d565b6103d2565b9192916001600160a01b0361051c8688602435611953565b16808352600560205260ff604084205416156105d4575b803b156105d0576040516340c10f1960e01b81526001600160a01b0392909216600483015260a435602483015282908290604490829084905af180156105c5576105a9575b5050907f93ed05a8c697097712ecd9a75d512ed9bd401c4d006f5050685cfe71a6371a259461042e61043c936103d2565b6105b590939293611500565b6105c157908688610578565b8680fd5b6040513d84823e3d90fd5b8280fd5b6105e8610104356004018789602435611a1b565b50610533565b9460ff600395929394955416156108505786906001600160a01b036106168688602435611953565b16808352600560205260ff60408420541615610836575b608435602435036107cc57803b156105d057604051632770a7eb60e21b815230600482015260a43560248201529083908290604490829084905af19081156107c15783916107a9575b50505b6106828161167a565b93610690604051958661155f565b81855236828201116105d057819060208601378301602001526106b7606435600435611646565b94610104356004016106c981806118f4565b9091610104356024016106db916118f4565b939094610104356044016106ee90611926565b96604051998a996004358b5260643560208c015260243560408c01526101608060608d01528b019061071f9261171c565b60843560808b015260a43560a08b015289810360c08b0152610740916115a3565b9088820360e08a01526107529261171c565b908682036101008801526107659261171c565b908482036101208601526107789261171c565b9060ff16610140830152037fb7769b1013165b15c4e57ac1d4419b6798fd9188ac4f25bf32b2143946bbb81491a280f35b6107b290611500565b6107bd578189610676565b5080fd5b6040513d85823e3d90fd5b602435606435146107de575b50610679565b803b156105d0576040516340c10f1960e01b815230600482015260a43560248201529083908290604490829084905af19081156107c1578391610822575b506107d8565b61082b90611500565b6107bd57818961081c565b61084a610104356004018789602435611a1b565b5061062d565b60405162461bcd60e51b815260206004820152601f60248201527f42726964676545524332303a204f6e6c792070726f78792062726964676521006044820152606490fd5b60405162461bcd60e51b815260206004820152602960248201527f42726964676545524332303a20496e697469616c20636861696e206e6f7420726044820152681959da5cdd195c995960ba1b6064820152608490fd5b60405162461bcd60e51b815260206004820152602960248201527f42726964676545524332303a20696e697469616c436861696e203d3d206375726044820152683932b73a21b430b4b760b91b6064820152608490fd5b60405162461bcd60e51b815260206004820152602560248201527f42726964676545524332303a206e6f6e636520616c72656164792072656769736044820152641d195c995960da1b6064820152608490fd5b8780fd5b8580fd5b8380fd5b34610234576040366003190112610234576024358015158091036107bd576109c9336115ea565b60043582526004602052604082209060ff8019835416911617905580f35b346102345780600319360112610234576020600254604051908152f35b346102345760203660031901126102345760209060ff906040906001600160a01b03610a2e6114bd565b168152600584522054166040519015158152f35b346102345760403660031901126102345760ff6040602092600435815260068452818120602435825284522054166040519015158152f35b3461023457604036600319011261023457602435906001600160401b038211610234576020610ab8610aaf36600486016114d3565b90600435611953565b6040516001600160a01b039091168152f35b34610234578060031936011261023457604051600a5460018082169180821c916000918415610b82575b60209485851081146102165784875286939291869082156101f6575050600114610b2557506101819250038361155f565b849150600a6000527fc65a7bb8d6351c1cf70c95a316cc6a92839c986682d98bc35f958f4883f9d2a8906000915b858310610b6a575050610181935082010185610174565b80548389018501528794508693909201918101610b53565b92607f1692610af4565b34610234578060031936011261023457602060ff600b5416604051908152f35b346102345780600319360112610234576020600854604051908152f35b34610234578060031936011261023457602060ff600354166040519015158152f35b346102345780600319360112610234576020600154604051908152f35b34610234578060031936011261023457546040516001600160a01b039091168152602090f35b34610234576060366003190112610234576024356001600160401b0381116107bd57610c5e9036906004016114d3565b906044356001600160a01b038116810361010f57602092610c8192600435611bbc565b604051908152f35b3461023457602036600319011261023457610ca26114bd565b610cab336115ea565b81546001600160a01b0319166001600160a01b039190911617815580f35b346102345760203660031901126102345760ff60406020926004358152600484522054166040519015158152f35b346102345780600319360112610234576007546040516001600160a01b039091168152602090f35b60803660031901126107bd57610d336114bd565b906001600160401b036064358181116114b957610d549036906004016114d3565b926024351561147757506044358552600460205260ff60408620541615611428576001600160a01b038416855260056020526040852054600154600254909490939160ff16600019851461141457600185016002551561103657604051634c4f708d60e11b81529287846004816001600160a01b038b165afa91821561102b5788898094819682988392610f8b575b505096959499826044351480610f7f575b15610f08576001600160a01b0381163b156107bd5760405163ab1a63cd60e01b8152336004820152306024808301919091523560448201529082908290606490829084906001600160a01b03165af180156105c557610ef0575b50505b610e5b8888611646565b986040519133602084015260208352610e7383611529565b604051998a998a5260208a015260408901526101608060608a01528801610e99916115a3565b604435608089015260243560a089015287810360c0890152610eba916115a3565b9086820360e0880152610ecc9261171c565b848103610100860152610ede916115a3565b838103610120850152610778916115a3565b610ef990611500565b610f0457898b610e4e565b8980fd5b90506001600160a01b0381163b15610f7b57604051632770a7eb60e21b81523360048201526024803590820152908b908290604490829084906001600160a01b03165af18015610f7057610f5d575b50610e51565b610f69909a919a611500565b988a610f57565b6040513d8d823e3d90fd5b8a80fd5b5060ff60035416610df4565b9750975050505091503d8089853e610fa3818561155f565b83019160a084840312611027578351948960208601518281116107bd57860185601f820112156107bd5785816020610fdd93519101611695565b9160408701518181116105d05786610ff69189016116cc565b9560608801519182116105d05761101460809161101b938a016116cc565b970161170e565b96919495968c80610de3565b8880fd5b6040513d8a823e3d90fd5b9050839160405160018060a01b03871660208201526020815261105881611529565b956001600160a01b038116611284575034602435036112495760405187600954908160011c91600181161561123f575b60208310600182161461122b578284528391906001811690811561120c57506001146111ae575b6110bb9250038261155f565b9060405188600a54908160011c9160018116156111a4575b60208310600182161461119057828452839190600181169081156111715750600114611113575b6111069250038261155f565b9260ff600b541694610e51565b50600a8b52908a907fc65a7bb8d6351c1cf70c95a316cc6a92839c986682d98bc35f958f4883f9d2a85b818310611155575050906020611106928201016110fa565b602091935080600191548385880101520191019091839261113d565b6020925061110694915060ff191682840152151560051b8201016110fa565b634e487b7160e01b8c52602260045260248cfd5b91607f16916110d3565b5060098a529089907f6e1540171b6c0c960b71a7020d9f60077f6af931a8bbf590da0223dacf75c7af5b8183106111f05750509060206110bb928201016110af565b60209193508060019154838588010152019101909183926111d8565b602092506110bb94915060ff191682840152151560051b8201016110af565b634e487b7160e01b8b52602260045260248bfd5b91607f1691611088565b60405162461bcd60e51b8152602060048201526013602482015272616d6f756e74203c206d73672e76616c75652160681b6044820152606490fd5b6040516306fdde0360e01b8152909392919088816004816001600160a01b0389165afa8991816113f8575b506113f257506040516112c181611544565b888152915b6040516395d89b4160e01b815289816004816001600160a01b038a165afa8a91816113ce575b506113c857506040516112fe81611544565b898152935b60405163313ce56760e01b81526020816004816001600160a01b038b165afa8b9181611388575b5061137e57506113796001965b6040516323b872dd60e01b6020820152336024808301919091523060448301523560648201529061136b82608481016104ec565b6001600160a01b031661173d565b610e51565b6113799096611337565b9091506020813d6020116113c0575b816113a46020938361155f565b810103126113bc576113b59061170e565b908c61132a565b8b80fd5b3d9150611397565b93611303565b6113eb9192503d808d833e6113e3818361155f565b8101906116e9565b908b6112ec565b916112c6565b61140d9192503d808c833e6113e3818361155f565b908a6112af565b634e487b7160e01b88526011600452602488fd5b60405162461bcd60e51b815260206004820152602160248201527f42726964676545524332303a20636861696e206e6f74207265676973746572656044820152601960fa1b6064820152608490fd5b62461bcd60e51b815260206004820152601860248201527f42726964676545524332303a205f616d6f756e74203c203000000000000000006044820152606490fd5b8480fd5b600435906001600160a01b038216820361010f57565b9181601f8401121561010f578235916001600160401b03831161010f576020838186019501011161010f57565b6001600160401b03811161151357604052565b634e487b7160e01b600052604160045260246000fd5b604081019081106001600160401b0382111761151357604052565b602081019081106001600160401b0382111761151357604052565b90601f801991011681019081106001600160401b0382111761151357604052565b60005b8381106115935750506000910152565b8181015183820152602001611583565b906020916115bc81518092818552858086019101611580565b601f01601f1916010190565b503461010f57604036600319011261010f576020610c81602435600435611646565b6000546001600160a01b0390811691160361160157565b60405162461bcd60e51b815260206004820152601c60248201527f42726964676545524332303a204f6e6c792076616c696461746f7221000000006044820152606490fd5b906040519060208201928352604082015260408152606081018181106001600160401b038211176115135760405251902090565b6001600160401b03811161151357601f01601f191660200190565b909291926116a28161167a565b916116b0604051938461155f565b82948284528282011161010f5760206116ca930190611580565b565b9080601f8301121561010f5781516116e692602001611695565b90565b9060208282031261010f5781516001600160401b03811161010f576116e692016116cc565b519060ff8216820361010f57565b908060209392818452848401376000828201840152601f01601f1916010190565b60018060a01b03169061179c60405161175581611529565b6020938482527f5361666545524332303a206c6f772d6c6576656c2063616c6c206661696c6564858301526000808587829751910182855af1611796611827565b91611857565b8051806117aa575b50505050565b818491810103126107bd578201519081159182150361023457506117d0578080806117a4565b6084906040519062461bcd60e51b82526004820152602a60248201527f5361666545524332303a204552433230206f7065726174696f6e20646964206e6044820152691bdd081cdd58d8d9595960b21b6064820152fd5b3d15611852573d906118388261167a565b91611846604051938461155f565b82523d6000602084013e565b606090565b919290156118b9575081511561186b575090565b3b156118745790565b60405162461bcd60e51b815260206004820152601d60248201527f416464726573733a2063616c6c20746f206e6f6e2d636f6e74726163740000006044820152606490fd5b8251909150156118cc5750805190602001fd5b60405162461bcd60e51b8152602060048201529081906118f09060248301906115a3565b0390fd5b903590601e198136030182121561010f57018035906001600160401b03821161010f5760200191813603831361010f57565b3560ff8116810361010f5790565b9081602091031261010f57356001600160a01b038116810361010f5790565b919091604091611984838051838194602098898401978852848401378101600083820152038681018452018261155f565b519020906104d181516119998583018261155f565b81815284810191611cf483396119cc85845180936119bf83830196879251928391611580565b810103808452018261155f565b51902081519384019260ff60f81b84523060601b6021860152603585015260558401526055835260808301908382106001600160401b038311176115135752905190206001600160a01b031690565b90929160409283519260208401600094828252848888830137611a4f8782878101898382015203602081018452018261155f565b51902085516104d1808201908282106001600160401b03831117611ba8579082916121c58339039086f5958615611b9e57908560ff611b14611b29948360018060a01b03809c169b6007541697611b05611af1611aac83806118f4565b919095611ac8611abf60208701876118f4565b97909601611926565b99519d8e9b8c602063589c037d60e11b91015260248d015260a060448d015260c48c019161171c565b9060231995868b84030160648c015261171c565b9287840301608488015261171c565b911660a483015203601f19810184528361155f565b843b156105d057611b5c9183918551938492839263c0d91eaf60e01b8452600484015287602484015260448301906115a3565b038183885af18015611b9457611b85575b50828152600560205220805460ff1916600117905590565b611b8e90611500565b38611b6d565b83513d84823e3d90fd5b85513d86823e3d90fd5b634e487b7160e01b88526041600452602488fd5b9092918160015414611c6b576001600160a01b03938492611bde929190611953565b1690600092828452600560205260ff60408520541615611c6557602460209260405194859384926370a0823160e01b84521660048301525afa918215611c59578092611c2957505090565b9091506020823d8211611c51575b81611c446020938361155f565b8101031261023457505190565b3d9150611c37565b604051903d90823e3d90fd5b50505090565b9192918201916001600160a01b03915081611c868483611934565b16611c92575050503190565b81611ca1602094602493611934565b169360405194859384926370a0823160e01b84521660048301525afa908115611ce757600091611ccf575090565b906020823d8211611c515781611c446020938361155f565b6040513d6000823e3d90fdfe60808060405234610016576104b5908161001c8239f35b600080fdfe6080604052600436101561002c575b361561001f575b61001d610147565b005b610027610147565b610015565b6000803560e01c63c0d91eaf14610043575061000e565b346100cf5760403660031901126100cf576004356001600160a01b03811681036100c75760243567ffffffffffffffff81116100cb57366023820112156100cb578060040135918361009c6100978561011c565b6100e9565b9284845236602486830101116100c757846100c4956024602093018387013784010152610194565b80f35b5080fd5b8280fd5b80fd5b50634e487b7160e01b600052604160045260246000fd5b6040519190601f01601f1916820167ffffffffffffffff81118382101761010f57604052565b6101176100d2565b604052565b60209067ffffffffffffffff811161013a575b601f01601f19160190565b6101426100d2565b61012f565b507f360894a13ba1a3210667c828492db98dca3e2076cc3735a920a3ca505d382bbc54600090819081906001600160a01b0316368280378136915af43d82803e15610190573d90f35b3d90fd5b60ff600054166102aa57803b1561024f577f360894a13ba1a3210667c828492db98dca3e2076cc3735a920a3ca505d382bbc80546001600160a01b0319166001600160a01b0383169081179091557fbc7cd75a20ee27fd9adebab32041f755214dbc6bffa90cc0225b39da2e5c2d3b600080a2815115801590610247575b61022d575b505061022b600160ff196000541617600055565b565b61023f916102396102f9565b91610361565b503880610217565b506000610212565b60405162461bcd60e51b815260206004820152602d60248201527f455243313936373a206e657720696d706c656d656e746174696f6e206973206e60448201526c1bdd08184818dbdb9d1c9858dd609a1b6064820152608490fd5b60405162461bcd60e51b815260206004820152602160248201527f4552433139363750726f7879437265617465323a20616c726561647920696e696044820152601d60fa1b6064820152608490fd5b604051906060820182811067ffffffffffffffff821117610354575b60405260278252660819985a5b195960ca1b6040837f416464726573733a206c6f772d6c6576656c2064656c65676174652063616c6c60208201520152565b61035c6100d2565b610315565b6000806103969493602081519101845af43d15610399573d916103866100978461011c565b9283523d6000602085013e6103ed565b90565b6060916103ed565b156103a857565b60405162461bcd60e51b815260206004820152601d60248201527f416464726573733a2063616c6c20746f206e6f6e2d636f6e74726163740000006044820152606490fd5b9192901561040d5750815115610401575090565b610396903b15156103a1565b8251909150156104205750805190602001fd5b6040519062461bcd60e51b82528160208060048301528251908160248401526000935b828510610466575050604492506000838284010152601f80199101168101030190fd5b848101820151868601604401529381019385935061044356fea26469706673582212204dde7cc5adcf980b8e42581204cfa621f554155a4614ece46fe895090c92f2d464736f6c6343000811003360808060405234610016576104b5908161001c8239f35b600080fdfe6080604052600436101561002c575b361561001f575b61001d610147565b005b610027610147565b610015565b6000803560e01c63c0d91eaf14610043575061000e565b346100cf5760403660031901126100cf576004356001600160a01b03811681036100c75760243567ffffffffffffffff81116100cb57366023820112156100cb578060040135918361009c6100978561011c565b6100e9565b9284845236602486830101116100c757846100c4956024602093018387013784010152610194565b80f35b5080fd5b8280fd5b80fd5b50634e487b7160e01b600052604160045260246000fd5b6040519190601f01601f1916820167ffffffffffffffff81118382101761010f57604052565b6101176100d2565b604052565b60209067ffffffffffffffff811161013a575b601f01601f19160190565b6101426100d2565b61012f565b507f360894a13ba1a3210667c828492db98dca3e2076cc3735a920a3ca505d382bbc54600090819081906001600160a01b0316368280378136915af43d82803e15610190573d90f35b3d90fd5b60ff600054166102aa57803b1561024f577f360894a13ba1a3210667c828492db98dca3e2076cc3735a920a3ca505d382bbc80546001600160a01b0319166001600160a01b0383169081179091557fbc7cd75a20ee27fd9adebab32041f755214dbc6bffa90cc0225b39da2e5c2d3b600080a2815115801590610247575b61022d575b505061022b600160ff196000541617600055565b565b61023f916102396102f9565b91610361565b503880610217565b506000610212565b60405162461bcd60e51b815260206004820152602d60248201527f455243313936373a206e657720696d706c656d656e746174696f6e206973206e60448201526c1bdd08184818dbdb9d1c9858dd609a1b6064820152608490fd5b60405162461bcd60e51b815260206004820152602160248201527f4552433139363750726f7879437265617465323a20616c726561647920696e696044820152601d60fa1b6064820152608490fd5b604051906060820182811067ffffffffffffffff821117610354575b60405260278252660819985a5b195960ca1b6040837f416464726573733a206c6f772d6c6576656c2064656c65676174652063616c6c60208201520152565b61035c6100d2565b610315565b6000806103969493602081519101845af43d15610399573d916103866100978461011c565b9283523d6000602085013e6103ed565b90565b6060916103ed565b156103a857565b60405162461bcd60e51b815260206004820152601d60248201527f416464726573733a2063616c6c20746f206e6f6e2d636f6e74726163740000006044820152606490fd5b9192901561040d5750815115610401575090565b610396903b15156103a1565b8251909150156104205750805190602001fd5b6040519062461bcd60e51b82528160208060048301528251908160248401526000935b828510610466575050604492506000838284010152601f80199101168101030190fd5b848101820151868601604401529381019385935061044356fea26469706673582212204dde7cc5adcf980b8e42581204cfa621f554155a4614ece46fe895090c92f2d464736f6c63430008110033a264697066735822122004d9cab0357e41a0c1d9d7c35766119a9656d3eb784820faa9d6798ca243801b64736f6c63430008110033",
  "devdoc": {
    "kind": "dev",
    "methods": {},
    "version": 1
  },
  "userdoc": {
    "kind": "user",
    "methods": {},
    "version": 1
  },
  "storageLayout": {
    "storage": [
      {
        "astId": 1215,
        "contract": "contracts/BridgeERC20.sol:BridgeERC20",
        "label": "validator",
        "offset": 0,
        "slot": "0",
        "type": "t_address"
      },
      {
        "astId": 1217,
        "contract": "contracts/BridgeERC20.sol:BridgeERC20",
        "label": "currentChain",
        "offset": 0,
        "slot": "1",
        "type": "t_bytes32"
      },
      {
        "astId": 1219,
        "contract": "contracts/BridgeERC20.sol:BridgeERC20",
        "label": "nonce",
        "offset": 0,
        "slot": "2",
        "type": "t_uint256"
      },
      {
        "astId": 1221,
        "contract": "contracts/BridgeERC20.sol:BridgeERC20",
        "label": "isProxyChain",
        "offset": 0,
        "slot": "3",
        "type": "t_bool"
      },
      {
        "astId": 1225,
        "contract": "contracts/BridgeERC20.sol:BridgeERC20",
        "label": "registeredChains",
        "offset": 0,
        "slot": "4",
        "type": "t_mapping(t_bytes32,t_bool)"
      },
      {
        "astId": 1229,
        "contract": "contracts/BridgeERC20.sol:BridgeERC20",
        "label": "issuedTokens",
        "offset": 0,
        "slot": "5",
        "type": "t_mapping(t_address,t_bool)"
      },
      {
        "astId": 1235,
        "contract": "contracts/BridgeERC20.sol:BridgeERC20",
        "label": "registeredNonces",
        "offset": 0,
        "slot": "6",
        "type": "t_mapping(t_bytes32,t_mapping(t_uint256,t_bool))"
      },
      {
        "astId": 1237,
        "contract": "contracts/BridgeERC20.sol:BridgeERC20",
        "label": "issuedTokenImplementation",
        "offset": 0,
        "slot": "7",
        "type": "t_address"
      },
      {
        "astId": 1239,
        "contract": "contracts/BridgeERC20.sol:BridgeERC20",
        "label": "initBlock",
        "offset": 0,
        "slot": "8",
        "type": "t_uint256"
      },
      {
        "astId": 1241,
        "contract": "contracts/BridgeERC20.sol:BridgeERC20",
        "label": "nativeName",
        "offset": 0,
        "slot": "9",
        "type": "t_string_storage"
      },
      {
        "astId": 1243,
        "contract": "contracts/BridgeERC20.sol:BridgeERC20",
        "label": "nativeSymbol",
        "offset": 0,
        "slot": "10",
        "type": "t_string_storage"
      },
      {
        "astId": 1245,
        "contract": "contracts/BridgeERC20.sol:BridgeERC20",
        "label": "nativeDecimals",
        "offset": 0,
        "slot": "11",
        "type": "t_uint8"
      },
      {
        "astId": 1247,
        "contract": "contracts/BridgeERC20.sol:BridgeERC20",
        "label": "nativeTransferGasLimit",
        "offset": 0,
        "slot": "12",
        "type": "t_uint256"
      }
    ],
    "types": {
      "t_address": {
        "encoding": "inplace",
        "label": "address",
        "numberOfBytes": "20"
      },
      "t_bool": {
        "encoding": "inplace",
        "label": "bool",
        "numberOfBytes": "1"
      },
      "t_bytes32": {
        "encoding": "inplace",
        "label": "bytes32",
        "numberOfBytes": "32"
      },
      "t_mapping(t_address,t_bool)": {
        "encoding": "mapping",
        "key": "t_address",
        "label": "mapping(address => bool)",
        "numberOfBytes": "32",
        "value": "t_bool"
      },
      "t_mapping(t_bytes32,t_bool)": {
        "encoding": "mapping",
        "key": "t_bytes32",
        "label": "mapping(bytes32 => bool)",
        "numberOfBytes": "32",
        "value": "t_bool"
      },
      "t_mapping(t_bytes32,t_mapping(t_uint256,t_bool))": {
        "encoding": "mapping",
        "key": "t_bytes32",
        "label": "mapping(bytes32 => mapping(uint256 => bool))",
        "numberOfBytes": "32",
        "value": "t_mapping(t_uint256,t_bool)"
      },
      "t_mapping(t_uint256,t_bool)": {
        "encoding": "mapping",
        "key": "t_uint256",
        "label": "mapping(uint256 => bool)",
        "numberOfBytes": "32",
        "value": "t_bool"
      },
      "t_string_storage": {
        "encoding": "bytes",
        "label": "string",
        "numberOfBytes": "32"
      },
      "t_uint256": {
        "encoding": "inplace",
        "label": "uint256",
        "numberOfBytes": "32"
      },
      "t_uint8": {
        "encoding": "inplace",
        "label": "uint8",
        "numberOfBytes": "1"
      }
    }
  }
}