{
  "address": "0xb1205Da599C346E599784BE5d9241D79D440C9A4",
  "abi": [
    {
      "anonymous": false,
      "inputs": [
        {
          "indexed": false,
          "internalType": "string",
          "name": "originalChainName",
          "type": "string"
        },
        {
          "indexed": false,
          "internalType": "string",
          "name": "originalTokenAddress",
          "type": "string"
        },
        {
          "indexed": true,
          "internalType": "bytes32",
          "name": "tokenId",
          "type": "bytes32"
        },
        {
          "indexed": false,
          "internalType": "address",
          "name": "createdToken",
          "type": "address"
        }
      ],
      "name": "ERC20DriverPublishedToken",
      "type": "event"
    },
    {
      "anonymous": false,
      "inputs": [
        {
          "indexed": true,
          "internalType": "bytes32",
          "name": "transferId",
          "type": "bytes32"
        },
        {
          "indexed": false,
          "internalType": "uint256",
          "name": "externalNonce",
          "type": "uint256"
        },
        {
          "indexed": false,
          "internalType": "string",
          "name": "originalChainName",
          "type": "string"
        },
        {
          "indexed": false,
          "internalType": "string",
          "name": "originalTokenAddress",
          "type": "string"
        },
        {
          "indexed": false,
          "internalType": "string",
          "name": "initialChainName",
          "type": "string"
        },
        {
          "indexed": false,
          "internalType": "string",
          "name": "targetChainName",
          "type": "string"
        },
        {
          "indexed": false,
          "internalType": "uint256",
          "name": "amount",
          "type": "uint256"
        },
        {
          "indexed": false,
          "internalType": "string",
          "name": "sender",
          "type": "string"
        },
        {
          "indexed": false,
          "internalType": "string",
          "name": "recipient",
          "type": "string"
        }
      ],
      "name": "ERC20DriverTransferFromOtherChain",
      "type": "event"
    },
    {
      "anonymous": false,
      "inputs": [
        {
          "indexed": true,
          "internalType": "bytes32",
          "name": "transferId",
          "type": "bytes32"
        },
        {
          "indexed": false,
          "internalType": "uint256",
          "name": "nonce",
          "type": "uint256"
        },
        {
          "indexed": false,
          "internalType": "string",
          "name": "initialChainName",
          "type": "string"
        },
        {
          "indexed": false,
          "internalType": "string",
          "name": "originalChainName",
          "type": "string"
        },
        {
          "indexed": false,
          "internalType": "string",
          "name": "originalTokenAddress",
          "type": "string"
        },
        {
          "indexed": false,
          "internalType": "string",
          "name": "targetChainName",
          "type": "string"
        },
        {
          "indexed": false,
          "internalType": "uint256",
          "name": "tokenAmount",
          "type": "uint256"
        },
        {
          "indexed": false,
          "internalType": "string",
          "name": "sender",
          "type": "string"
        },
        {
          "indexed": false,
          "internalType": "string",
          "name": "recipient",
          "type": "string"
        }
      ],
      "name": "ERC20DriverTransferToOtherChain",
      "type": "event"
    },
    {
      "inputs": [
        {
          "internalType": "string",
          "name": "_originalChainName",
          "type": "string"
        },
        {
          "internalType": "string",
          "name": "_originalTokenAddress",
          "type": "string"
        },
        {
          "internalType": "address",
          "name": "_account",
          "type": "address"
        }
      ],
      "name": "balancesERC20",
      "outputs": [
        {
          "internalType": "uint256",
          "name": "",
          "type": "uint256"
        }
      ],
      "stateMutability": "view",
      "type": "function"
    },
    {
      "inputs": [
        {
          "internalType": "string",
          "name": "_originalChainName",
          "type": "string"
        },
        {
          "internalType": "string",
          "name": "_originalTokenAddress",
          "type": "string"
        }
      ],
      "name": "getIssuedTokenAddressERC20",
      "outputs": [
        {
          "internalType": "address",
          "name": "",
          "type": "address"
        }
      ],
      "stateMutability": "view",
      "type": "function"
    },
    {
      "inputs": [
        {
          "internalType": "string",
          "name": "_originalChainName",
          "type": "string"
        },
        {
          "internalType": "string",
          "name": "_originalTokenAddress",
          "type": "string"
        }
      ],
      "name": "getTokenIdERC20",
      "outputs": [
        {
          "internalType": "bytes32",
          "name": "",
          "type": "bytes32"
        }
      ],
      "stateMutability": "pure",
      "type": "function"
    },
    {
      "inputs": [
        {
          "internalType": "uint256",
          "name": "_nonce",
          "type": "uint256"
        },
        {
          "internalType": "string",
          "name": "_initialChainName",
          "type": "string"
        }
      ],
      "name": "getTranferIdERC20",
      "outputs": [
        {
          "internalType": "bytes32",
          "name": "",
          "type": "bytes32"
        }
      ],
      "stateMutability": "pure",
      "type": "function"
    },
    {
      "inputs": [],
      "name": "initialBlockNumberERC20",
      "outputs": [
        {
          "internalType": "uint256",
          "name": "",
          "type": "uint256"
        }
      ],
      "stateMutability": "view",
      "type": "function"
    },
    {
      "inputs": [
        {
          "internalType": "string",
          "name": "_initialChainName",
          "type": "string"
        },
        {
          "internalType": "uint256",
          "name": "_externalNonce",
          "type": "uint256"
        }
      ],
      "name": "isExternalNonceAlreadyRegisteredERC20",
      "outputs": [
        {
          "internalType": "bool",
          "name": "",
          "type": "bool"
        }
      ],
      "stateMutability": "view",
      "type": "function"
    },
    {
      "inputs": [
        {
          "internalType": "string",
          "name": "_originalChainName",
          "type": "string"
        },
        {
          "internalType": "string",
          "name": "_originalTokenAddress",
          "type": "string"
        }
      ],
      "name": "isIssuedTokenCreatedERC20",
      "outputs": [
        {
          "internalType": "bool",
          "name": "",
          "type": "bool"
        }
      ],
      "stateMutability": "view",
      "type": "function"
    },
    {
      "inputs": [],
      "name": "nonceERC20",
      "outputs": [
        {
          "internalType": "uint256",
          "name": "",
          "type": "uint256"
        }
      ],
      "stateMutability": "view",
      "type": "function"
    },
    {
      "inputs": [
        {
          "internalType": "string",
          "name": "_chainName",
          "type": "string"
        },
        {
          "internalType": "bool",
          "name": "_value",
          "type": "bool"
        }
      ],
      "name": "setChainRegistrationERC20",
      "outputs": [],
      "stateMutability": "nonpayable",
      "type": "function"
    },
    {
      "inputs": [
        {
          "internalType": "address",
          "name": "_issuedTokenImplementation",
          "type": "address"
        }
      ],
      "name": "setIssuedTokenImplementation",
      "outputs": [],
      "stateMutability": "nonpayable",
      "type": "function"
    },
    {
      "inputs": [
        {
          "internalType": "uint256",
          "name": "_externalNonce",
          "type": "uint256"
        },
        {
          "internalType": "string",
          "name": "_originalChainName",
          "type": "string"
        },
        {
          "internalType": "string",
          "name": "_originalTokenAddress",
          "type": "string"
        },
        {
          "internalType": "string",
          "name": "_initialChainName",
          "type": "string"
        },
        {
          "internalType": "string",
          "name": "_targetChainName",
          "type": "string"
        },
        {
          "internalType": "uint256",
          "name": "_amount",
          "type": "uint256"
        },
        {
          "internalType": "string",
          "name": "_sender",
          "type": "string"
        },
        {
          "components": [
            {
              "internalType": "address",
              "name": "evmAddress",
              "type": "address"
            },
            {
              "internalType": "string",
              "name": "noEvmAddress",
              "type": "string"
            }
          ],
          "internalType": "struct UniversalAddressUtils.UniversalAddress",
          "name": "_recipient",
          "type": "tuple"
        },
        {
          "components": [
            {
              "internalType": "string",
              "name": "tokenName",
              "type": "string"
            },
            {
              "internalType": "string",
              "name": "tokenSymbol",
              "type": "string"
            },
            {
              "internalType": "uint8",
              "name": "tokenDecimals",
              "type": "uint8"
            }
          ],
          "internalType": "struct LibERC20Driver.TokenCreateInfo",
          "name": "_tokenCreateInfo",
          "type": "tuple"
        }
      ],
      "name": "tranferFromOtherChainERC20",
      "outputs": [],
      "stateMutability": "nonpayable",
      "type": "function"
    },
    {
      "inputs": [
        {
          "internalType": "address",
          "name": "_transferedToken",
          "type": "address"
        },
        {
          "internalType": "uint256",
          "name": "_amount",
          "type": "uint256"
        },
        {
          "internalType": "string",
          "name": "_targetChainName",
          "type": "string"
        },
        {
          "components": [
            {
              "internalType": "address",
              "name": "evmAddress",
              "type": "address"
            },
            {
              "internalType": "string",
              "name": "noEvmAddress",
              "type": "string"
            }
          ],
          "internalType": "struct UniversalAddressUtils.UniversalAddress",
          "name": "_recipient",
          "type": "tuple"
        }
      ],
      "name": "tranferToOtherChainERC20",
      "outputs": [],
      "stateMutability": "nonpayable",
      "type": "function"
    }
  ],
  "transactionHash": "0x3ebaef5eceb34a235386205ed4e2f1d022de59969ec9741f866aeb06842ae87f",
  "args": [],
  "numDeployments": 1,
  "solcInputHash": "08541191232a20d41dd2483aa4db3f2b",
  "bytecode": "0x6080806040523461001657612576908161001c8239f35b600080fdfe608060405260043610156200001357600080fd5b6000803560e01c80632751ed8c146200128f57806339126238146200124d5780633acaf5ec1462000b915780633b9549b31462000b3557806342ec61c81462000acc57806349a759ad1462000a8d57806365a6e6a71462000a49578063690622b81462000a0a5780637958b3c5146200099f578063803a8225146200097d578063d1cd7a8914620001095763f4fb387414620000ae57600080fd5b34620001065760403660031901126200010657602435906001600160401b03821162000106576020620000fe620000f5620000ed36600487016200130d565b369162001982565b60043562001b8a565b604051908152f35b80fd5b503462000106576003196101203682011262000674576001600160401b036024358181116200097957620001429036906004016200130d565b6044939193358381116200097557620001609036906004016200130d565b909260643585811162000971576200017d9036906004016200130d565b9590966084358281116200096d576200019b9036906004016200130d565b909760c4358481116200096557620001b89036906004016200130d565b9590948060e43511620009695760408260e4353603011262000969576101043511620009655760609061010435360301126200050257620001f86200200f565b62000204818b620013e2565b6004358c5260205260ff60408c2054166200090f5762000225818b620013e2565b6004358c5260205260408b20600160ff198254161790556200024c60e4356004016200209a565b156200089a5760405162000277816200026860208201620018bb565b03601f198101835282620014b9565b602081519101208b604051620002a5602082818101948d8a87378d82019083820152038084520182620014b9565b519020908c8c8c6040518760208201928337620002d26020828a81018783820152038084520182620014b9565b51902091620002fc60206040518093898383019687378982019083820152038084520182620014b9565b51902090828214620008145760ff620003178f8790620013aa565b5416156200079e578281036200057057506001600160a01b03905062000342600460e4350162001a3c565b161562000515570362000432577f277405b64a3261050d82a2a3317c85db9f75f3d2e172674de0474f649a9a78e8986200042c969594939291620003f4620003df6001600160a01b03620003978a8e6200141a565b5416620003ee620003ad60e43560040162001a3c565b60405163a9059cbb60e01b60208201526001600160a01b03909116602482015260a43560448201529283906064820190565b03601f198101845283620014b9565b620015b1565b62000405620000f536838f62001982565b9b6200041660e435600401620020c7565b976040519b8c9b60a435978d60043590620019be565b0390a280f35b8a6001600160a01b036200045060046101043501898c8c8962001bfe565b166200046160e43560040162001a3c565b90803b1562000511576040516340c10f1960e01b81526001600160a01b0392909216600483015260a435602483015282908290604490829084905af180156200050657620004de575b5050907f277405b64a3261050d82a2a3317c85db9f75f3d2e172674de0474f649a9a78e8986200042c9695949392620003f4565b620004f090979695949392976200148f565b620005025790919293948a38620004aa565b8a80fd5b6040513d84823e3d90fd5b8280fd5b60405162461bcd60e51b815260206004820152602d60248201527f4c696245524332304472697665723a20726563697069656e74206e6f7420686160448201526c732065766d206164647265737360981b6064820152608490fd5b91509160ff7f1ac0c65048e05abc6ec58fabb62503cd4926ef6a22676f8a0942f241754a9ba69d969b9d9a99949a5416156200071e578d9281620005c08f878f918e610104356004019362001bfe565b9303620006785750506001600160a01b0316803b156200067457604051632770a7eb60e21b815230600482015260a43560248201529082908290604490829084905af18015620005065762000650575b5050907fb9c175d2cd95c2ccff290252181cf6c9d56e2d758e27e3a611af2b4608da1f7a986200042c96959493925b62000405620000f5368b8762001982565b6200066290979695949392976200148f565b620005025790919293948a3862000610565b5080fd5b14620006b3575b5050907fb9c175d2cd95c2ccff290252181cf6c9d56e2d758e27e3a611af2b4608da1f7a986200042c96959493926200063f565b6001600160a01b0316803b1562000674576040516340c10f1960e01b815230600482015260a43560248201529082908290604490829084905af180156200050657156200067f576200070c90979695949392976200148f565b620005025790919293948a386200067f565b60405162461bcd60e51b815260206004820152604c60248201527f4c696245524332304472697665723a204f6e6c792070726f787920627269646760448201527f652063616e2062652063757272656e74436861696e4e616d6520213d2074617260648201526b676574436861696e4e616d6560a01b608482015260a490fd5b60405162461bcd60e51b815260206004820152604260248201527f4c696245524332304472697665722e7472616e66657246726f6d4f746865724360448201527f6861696e3a20496e697469616c20636861696e206e6f74207265676973746572606482015261195960f21b608482015260a490fd5b60405162461bcd60e51b815260206004820152605260248201527f4c696245524332304472697665722e7472616e66657246726f6d4f746865724360448201527f6861696e3a20496e697469616c20636861696e2063616e206e6f74206265206560648201527138bab0b61031bab93932b73a1031b430b4b760711b608482015260a490fd5b60405162461bcd60e51b815260206004820152604160248201527f4c696245524332304472697665722e7472616e66657246726f6d4f746865724360448201527f6861696e3a20726563697069656e742061646472657373206e6f742076616c696064820152601960fa1b608482015260a490fd5b60405162461bcd60e51b815260206004820152602860248201527f4c696245524332304472697665723a206e6f6e636520616c726561647920726560448201526719da5cdd195c995960c21b6064820152608490fd5b8b80fd5b8c80fd5b8980fd5b8780fd5b8580fd5b8380fd5b503462000106576020620000fe620009953662001359565b9291909162001bc8565b50346200010657604036600319011262000106576004356001600160401b0381116200067457620009d59036906004016200130d565b90602435918215158093036200097957620009fa91620009f46200200f565b620013aa565b9060ff8019835416911617905580f35b5034620001065780600319360112620001065760207f46bc5be21f6ba06b486f29ccd1182724e01483672510527c7bbd2f354bf91f3254604051908152f35b5034620001065760209062000a62620009953662001359565b8152600080516020620025218339815191528252604060018060a01b03912054161515604051908152f35b5034620001065780600319360112620001065760207f46bc5be21f6ba06b486f29ccd1182724e01483672510527c7bbd2f354bf91f3a54604051908152f35b503462000106576020366003190112620001065762000aea62001342565b62000af46200200f565b7f46bc5be21f6ba06b486f29ccd1182724e01483672510527c7bbd2f354bf91f3380546001600160a01b0319166001600160a01b0390921691909117905580f35b50346200010657604036600319011262000106576004356001600160401b0381116200067457604060209262000b7d62000b7660ff9436906004016200130d565b90620013e2565b602435825284522054166040519015158152f35b5034620001065760031990608036830112620001065762000bb162001342565b6001600160401b039290604435848111620009795762000bd69036906004016200130d565b92606435908682116200097557604090823603011262001249576024918235918215620011ed5760ff62000c0b8784620013aa565b54161562001183576004019062000c22826200209a565b1562001119576001600160a01b03851660009081527f46bc5be21f6ba06b486f29ccd1182724e01483672510527c7bbd2f354bf91f356020526040902054956040519588977f1ac0c65048e05abc6ec58fabb62503cd4926ef6a22676f8a0942f241754a9ba58881549a62000c978c62001452565b9283835260019c8d81169081600014620010f5575060011462001095575b5062000cc492500389620014b9565b1562000fdc57604051634c4f708d60e11b81526001600160a01b0391909116979089816004818c5afa90811562000eed578a9b8b9262000f7e575b5050978a8a6040519160209262000d3584828162000d278183019687815193849201620014db565b8101038084520182620014b9565b5190209162000d5e604051918281810194898b87378982019083820152038084520182620014b9565b51902014158062000f52575b1562000ef857803b156200096d5760405163ab1a63cd60e01b815233600482015230602482015260448101879052908a908290606490829084905af1801562000eed57908a9162000ed1575b50505b7f46bc5be21f6ba06b486f29ccd1182724e01483672510527c7bbd2f354bf91f3a90815496600019881462000ebf575062000eb0936200042c96937fb9c175d2cd95c2ccff290252181cf6c9d56e2d758e27e3a611af2b4608da1f7a9a9b9c969362000e9c938a01905562000e8d62000e338b8b62001b8a565b9c62000e7e62000e4e62000e47336200177f565b97620020c7565b9962000e6f6040519e8f9e8f90815261010090816020820152019062001569565b8d810360408f01529062001569565b908b820360608d015262001569565b9189830360808b015262001590565b9160a087015285820360c087015262001569565b9083820360e085015262001569565b634e487b7160e01b8b5260116004528afd5b62000edc906200148f565b62000ee957883862000db6565b8880fd5b6040513d8c823e3d90fd5b803b156200096d57604051632770a7eb60e21b815233600482015260248101879052908a908290604490829084905af1801562000eed5762000f3c575b5062000db9565b62000f4a909991996200148f565b973862000f35565b5060ff7f1ac0c65048e05abc6ec58fabb62503cd4926ef6a22676f8a0942f241754a9ba6541662000d6a565b91509a503d808b8d3e62000f93818d620014b9565b8b019060408c83031262000502578b5181811162000965578262000fb9918e016200151c565b9b6020810151918211620009655762000fd49291016200151c565b388062000cff565b96985085986200108f62000ff0896200177f565b986200100c60208b8160405193828580945193849201620014db565b7f46bc5be21f6ba06b486f29ccd1182724e01483672510527c7bbd2f354bf91f399082019081520301902080546001600160a01b0319166001600160a01b039092169182179055604080516323b872dd60e01b602080830191909152338b830190815230918101919091529182018990529190620003ee908390606001620003df565b62000db9565b8d5250908b908b7fdc5d12dbc606c4b58c1834e3ea9b4bb05648cd8e6f9896a777fa9708701729e75b828410620010db5750505090602062000cc4928201013862000cb5565b60209294838583549201015201910190918b8b93620010be565b90506020925062000cc494915060ff191682840152151560051b8201013862000cb5565b60405162461bcd60e51b815260206004820152603f818601527f4c696245524332304472697665722e7472616e666572546f4f7468657243686160448201527f696e3a20726563697069656e742061646472657373206e6f742076616c6964006064820152608490fd5b60405162461bcd60e51b8152602060048201526038818601527f4c696245524332304472697665722e7472616e666572546f4f7468657243686160448201527f696e3a20636861696e206e6f74207265676973746572656400000000000000006064820152608490fd5b60405162461bcd60e51b815260206004820152602f818601527f4c696245524332304472697665722e7472616e666572546f4f7468657243686160448201526e0696e3a20616d6f756e74203c3d203608c1b6064820152608490fd5b8480fd5b5034620001065760209062001266620009953662001359565b8152600080516020620025218339815191528252604060018060a01b0391205416604051908152f35b50346200010657606036600319011262000106576001600160401b036004358181116200051157620012c69036906004016200130d565b916024359081116200097957620012e29036906004016200130d565b6044359490939192906001600160a01b038616860362000106576020620000fe878787878762001a51565b9181601f840112156200133d578235916001600160401b0383116200133d57602083818601950101116200133d57565b600080fd5b600435906001600160a01b03821682036200133d57565b60406003198201126200133d576001600160401b03916004358381116200133d578262001389916004016200130d565b939093926024359182116200133d57620013a6916004016200130d565b9091565b60209082604051938492833781017f46bc5be21f6ba06b486f29ccd1182724e01483672510527c7bbd2f354bf91f3881520301902090565b60209082604051938492833781017f46bc5be21f6ba06b486f29ccd1182724e01483672510527c7bbd2f354bf91f3b81520301902090565b60209082604051938492833781017f46bc5be21f6ba06b486f29ccd1182724e01483672510527c7bbd2f354bf91f3981520301902090565b90600182811c9216801562001484575b60208310146200146e57565b634e487b7160e01b600052602260045260246000fd5b91607f169162001462565b6001600160401b038111620014a357604052565b634e487b7160e01b600052604160045260246000fd5b90601f801991011681019081106001600160401b03821117620014a357604052565b60005b838110620014ef5750506000910152565b8181015183820152602001620014de565b6001600160401b038111620014a357601f01601f191660200190565b81601f820112156200133d578051620015358162001500565b92620015456040519485620014b9565b818452602082840101116200133d57620015669160208085019101620014db565b90565b906020916200158481518092818552858086019101620014db565b601f01601f1916010190565b908060209392818452848401376000828201840152601f01601f1916010190565b60018060a01b03169060405160408101908082106001600160401b03831117620014a35762001648916040526020938482527f5361666545524332303a206c6f772d6c6576656c2063616c6c206661696c6564858301526000808587829751910182855af13d15620016d8573d916200162a8362001500565b926200163a6040519485620014b9565b83523d868885013e620016dc565b80518062001657575b50505050565b81849181010312620006745782015190811591821503620001065750620016815780808062001651565b6084906040519062461bcd60e51b82526004820152602a60248201527f5361666545524332303a204552433230206f7065726174696f6e20646964206e6044820152691bdd081cdd58d8d9595960b21b6064820152fd5b6060915b91929015620017415750815115620016f2575090565b3b15620016fc5790565b60405162461bcd60e51b815260206004820152601d60248201527f416464726573733a2063616c6c20746f206e6f6e2d636f6e74726163740000006044820152606490fd5b825190915015620017555750805190602001fd5b60405162461bcd60e51b8152602060048201529081906200177b90602483019062001569565b0390fd5b604051906001600160a01b0316606082016001600160401b03811183821017620014a357604052602a82526020908183016040368237835115620018a557603090538251600190811015620018a557607860218501536029905b8082116200182f575050620017ec575090565b6064906040519062461bcd60e51b825280600483015260248201527f537472696e67733a20686578206c656e67746820696e73756666696369656e746044820152fd5b9091600f811660108110156200189057855184101562001890576f181899199a1a9b1b9c1cb0b131b232b360811b901a85840185015360041c9180156200187b576000190190620017d9565b60246000634e487b7160e01b81526011600452fd5b60246000634e487b7160e01b81526032600452fd5b634e487b7160e01b600052603260045260246000fd5b906000917f1ac0c65048e05abc6ec58fabb62503cd4926ef6a22676f8a0942f241754a9ba5908154620018ee8162001452565b926001918083169081156200196657506001146200190c5750505050565b9091929394506000527fdc5d12dbc606c4b58c1834e3ea9b4bb05648cd8e6f9896a777fa9708701729e7906000915b848310620019525750505001903880808062001651565b81816020925485870152019201916200193b565b60ff191684525050508115159091020191503880808062001651565b929192620019908262001500565b91620019a06040519384620014b9565b8294818452818301116200133d578281602093846000960137010152565b9b97948c62001a0a91620015669f9d999396620019fb62001a199a9662001a2d9f9e999862000e8d99865261010080602088015286019162001590565b92604081850391015262001590565b8c810360608e01529162001590565b9260a087015285830360c087015262001590565b9160e081840391015262001569565b356001600160a01b03811681036200133d5790565b93919092604051936020948581019062001a70816200026884620018bb565b5190209560405196868801838382378389019862001a9d898260009c8d83820152038084520182620014b9565b5190200362001b5557506001600160a01b039262001abd9291506200141a565b54165b6001600160a01b03908116918262001ad9575050505090565b6040516370a0823160e01b8152911660048201529192908390839060249082905afa92831562001b4857819362001b11575b50505090565b9091809350813d831162001b40575b62001b2c8183620014b9565b810103126200010657505138808062001b0b565b503d62001b20565b50604051903d90823e3d90fd5b9062001b62939162001bc8565b835260008051602062002521833981519152825260408320546001600160a01b031662001ac0565b9062001bc26040805180936020820195865262001bb18151809260208686019101620014db565b8101036020810184520182620014b9565b51902090565b929162001bc2918360209260405195838794868601998a37840191858301600081523701600083820152038084520182620014b9565b939091929362001c118585858462001bc8565b926000938452600080516020620025218339815191529460209580875260018060a01b0397604092898489205416998a1562001c55575b5050505050505050505090565b9091929394959697989a995062001c6f8383888a62001bc8565b97888a52848c5281868b20541662001f8757858c8b62001c90848062001fcb565b928086019362001cef602162001ca7878a62001fcb565b93909884818c019a62001cba8c62002000565b9251968488958a87019b8c378501918983018c815237019060ff60f81b9060f81b1686820152036001810184520182620014b9565b519181831115938462001f5a575b5050505062001f16578989928f92867f46bc5be21f6ba06b486f29ccd1182724e01483672510527c7bbd2f354bf91f3354169562001d3c818062001fcb565b9262001d49919262001fcb565b91909362001d579062002000565b948d51978897637cfc672b60e01b908901526024880160a0905260c488019062001d819262001590565b92602319938488820301604489015262001d9d908d8d62001590565b908488830301606489015262001db39262001590565b9185830301608486015262001dc89262001590565b9060ff1660a483015203601f198101825262001de59082620014b9565b86519161041690818401918483106001600160401b0384111762001f02578f928a62001e239487969482946200210b89398352820152019062001569565b03908af0801562001ef857918562001ee194927f4e26b9e79b6d53886b2814dc5d5ec399638c0de5b33b2c6e54bf478a5027e3499a9b9c9d94169b8c968c62001e9d8960018060a01b03166000527f46bc5be21f6ba06b486f29ccd1182724e01483672510527c7bbd2f354bf91f35602052604060002090565b558c8252855220856bffffffffffffffffffffffff60a01b82541617905562001ed3865198899860608a5260608a019162001590565b928784039088015262001590565b918301520390a23880808080808080808062001c48565b85513d8b823e3d90fd5b634e487b7160e01b8e52604160045260248efd5b875162461bcd60e51b8152600481018f9052601a60248201527f4e6f742068617320746f6b656e2063726561746520696e666f210000000000006044820152606490fd5b505192509081811062001f75575b505015388f818f62001cfd565b600019910360031b1b168e3862001f68565b855162461bcd60e51b8152600481018d9052601760248201527f546f6b656e20616c7265616479207075626c69736865640000000000000000006044820152606490fd5b903590601e19813603018212156200133d57018035906001600160401b0382116200133d576020019181360383136200133d57565b3560ff811681036200133d5790565b7f0d39ce5c7c188987150498f1f6b834805bd8d7ecf27e970807b2a7a1a5207023546001600160a01b031633036200204357565b60405162461bcd60e51b815260206004820152602960248201527f4c696256616c696461746f72436f6e74726f6c6c65723a204d757374206265206044820152683b30b634b230ba37b960b91b6064820152608490fd5b620020bf6001600160a01b03620020b18362001a3c565b161591602081019062001fcb565b905015141590565b6001600160a01b03620020da8262001a3c565b1615620020f657620020f0620015669162001a3c565b6200177f565b620000ed8160206200156693019062001fcb56fe604060808152610416908138038061001681610218565b93843982019181818403126102135780516001600160a01b038116808203610213576020838101516001600160401b0394919391858211610213570186601f820112156102135780519061007161006c83610253565b610218565b918083528583019886828401011161021357888661008f930161026e565b813b156101b9577f360894a13ba1a3210667c828492db98dca3e2076cc3735a920a3ca505d382bbc80546001600160a01b031916841790556000927fbc7cd75a20ee27fd9adebab32041f755214dbc6bffa90cc0225b39da2e5c2d3b8480a28051158015906101b2575b61010b575b855160d190816103458239f35b855194606086019081118682101761019e578697849283926101889952602788527f416464726573733a206c6f772d6c6576656c2064656c65676174652063616c6c87890152660819985a5b195960ca1b8a8901525190845af4913d15610194573d9061017a61006c83610253565b91825281943d92013e610291565b508038808080806100fe565b5060609250610291565b634e487b7160e01b84526041600452602484fd5b50826100f9565b855162461bcd60e51b815260048101859052602d60248201527f455243313936373a206e657720696d706c656d656e746174696f6e206973206e60448201526c1bdd08184818dbdb9d1c9858dd609a1b6064820152608490fd5b600080fd5b6040519190601f01601f191682016001600160401b0381118382101761023d57604052565b634e487b7160e01b600052604160045260246000fd5b6001600160401b03811161023d57601f01601f191660200190565b60005b8381106102815750506000910152565b8181015183820152602001610271565b919290156102f357508151156102a5575090565b3b156102ae5790565b60405162461bcd60e51b815260206004820152601d60248201527f416464726573733a2063616c6c20746f206e6f6e2d636f6e74726163740000006044820152606490fd5b8251909150156103065750805190602001fd5b6044604051809262461bcd60e51b825260206004830152610336815180928160248601526020868601910161026e565b601f01601f19168101030190fdfe608060405236156054577f360894a13ba1a3210667c828492db98dca3e2076cc3735a920a3ca505d382bbc54600090819081906001600160a01b0316368280378136915af43d82803e156050573d90f35b3d90fd5b7f360894a13ba1a3210667c828492db98dca3e2076cc3735a920a3ca505d382bbc54600090819081906001600160a01b0316368280378136915af43d82803e156050573d90f3fea264697066735822122064a19d9702f4c0cafcae104799296bb333bea4a6f73053ad2d6b4326dd6fd25264736f6c6343000811003346bc5be21f6ba06b486f29ccd1182724e01483672510527c7bbd2f354bf91f34a2646970667358221220fb609b06a6ccab32b90e6f86134d5c3650ecd3a3bc542a448c3edaa73e6dabd764736f6c63430008110033",
  "devdoc": {
    "kind": "dev",
    "methods": {},
    "version": 1
  },
  "userdoc": {
    "kind": "user",
    "methods": {},
    "version": 1
  },
  "storageLayout": {
    "storage": [],
    "types": null
  }
}