{
  "address": "0x625Ddc123B786c75344fB0C9901dc83BE8A358e2",
  "abi": [
    {
      "inputs": [
        {
          "internalType": "bytes32",
          "name": "_currentChain",
          "type": "bytes32"
        },
        {
          "internalType": "bool",
          "name": "_isProxyChain",
          "type": "bool"
        },
        {
          "internalType": "bytes32[]",
          "name": "_registeredChains",
          "type": "bytes32[]"
        },
        {
          "internalType": "address",
          "name": "_issuedTokenImplementation",
          "type": "address"
        },
        {
          "internalType": "address",
          "name": "_validator",
          "type": "address"
        }
      ],
      "stateMutability": "nonpayable",
      "type": "constructor"
    },
    {
      "anonymous": false,
      "inputs": [
        {
          "indexed": true,
          "internalType": "bytes32",
          "name": "transferId",
          "type": "bytes32"
        },
        {
          "indexed": false,
          "internalType": "uint256",
          "name": "externalNonce",
          "type": "uint256"
        },
        {
          "indexed": false,
          "internalType": "bytes32",
          "name": "originalChain",
          "type": "bytes32"
        },
        {
          "indexed": false,
          "internalType": "bytes",
          "name": "originalToken",
          "type": "bytes"
        },
        {
          "indexed": false,
          "internalType": "bytes32",
          "name": "initialChain",
          "type": "bytes32"
        },
        {
          "indexed": false,
          "internalType": "bytes32",
          "name": "targetChain",
          "type": "bytes32"
        },
        {
          "indexed": false,
          "internalType": "uint256",
          "name": "tokenId",
          "type": "uint256"
        },
        {
          "indexed": false,
          "internalType": "bytes",
          "name": "sender",
          "type": "bytes"
        },
        {
          "indexed": false,
          "internalType": "bytes",
          "name": "recipient",
          "type": "bytes"
        }
      ],
      "name": "TransferFromOtherChain",
      "type": "event"
    },
    {
      "anonymous": false,
      "inputs": [
        {
          "indexed": true,
          "internalType": "bytes32",
          "name": "transferId",
          "type": "bytes32"
        },
        {
          "indexed": false,
          "internalType": "uint256",
          "name": "nonce",
          "type": "uint256"
        },
        {
          "indexed": false,
          "internalType": "bytes32",
          "name": "initialChain",
          "type": "bytes32"
        },
        {
          "indexed": false,
          "internalType": "bytes32",
          "name": "originalChain",
          "type": "bytes32"
        },
        {
          "indexed": false,
          "internalType": "bytes",
          "name": "originalTokenAddress",
          "type": "bytes"
        },
        {
          "indexed": false,
          "internalType": "bytes32",
          "name": "targetChain",
          "type": "bytes32"
        },
        {
          "indexed": false,
          "internalType": "uint256",
          "name": "tokenId",
          "type": "uint256"
        },
        {
          "indexed": false,
          "internalType": "bytes",
          "name": "sender",
          "type": "bytes"
        },
        {
          "indexed": false,
          "internalType": "bytes",
          "name": "recipient",
          "type": "bytes"
        },
        {
          "indexed": false,
          "internalType": "string",
          "name": "tokenName",
          "type": "string"
        },
        {
          "indexed": false,
          "internalType": "string",
          "name": "tokenSymbol",
          "type": "string"
        },
        {
          "indexed": false,
          "internalType": "string",
          "name": "tokenUri",
          "type": "string"
        }
      ],
      "name": "TransferToOtherChain",
      "type": "event"
    },
    {
      "inputs": [
        {
          "internalType": "bytes32",
          "name": "_originalChain",
          "type": "bytes32"
        },
        {
          "internalType": "bytes",
          "name": "_originalToken",
          "type": "bytes"
        },
        {
          "internalType": "address",
          "name": "_account",
          "type": "address"
        }
      ],
      "name": "balances",
      "outputs": [
        {
          "internalType": "uint256",
          "name": "",
          "type": "uint256"
        }
      ],
      "stateMutability": "view",
      "type": "function"
    },
    {
      "inputs": [],
      "name": "currentChain",
      "outputs": [
        {
          "internalType": "bytes32",
          "name": "",
          "type": "bytes32"
        }
      ],
      "stateMutability": "view",
      "type": "function"
    },
    {
      "inputs": [
        {
          "internalType": "bytes32",
          "name": "_originalChain",
          "type": "bytes32"
        },
        {
          "internalType": "bytes",
          "name": "_originalToken",
          "type": "bytes"
        }
      ],
      "name": "getIssuedTokenAddress",
      "outputs": [
        {
          "internalType": "address",
          "name": "",
          "type": "address"
        }
      ],
      "stateMutability": "view",
      "type": "function"
    },
    {
      "inputs": [
        {
          "internalType": "uint256",
          "name": "_nonce",
          "type": "uint256"
        },
        {
          "internalType": "bytes32",
          "name": "_initialChain",
          "type": "bytes32"
        }
      ],
      "name": "getTranferId",
      "outputs": [
        {
          "internalType": "bytes32",
          "name": "",
          "type": "bytes32"
        }
      ],
      "stateMutability": "pure",
      "type": "function"
    },
    {
      "inputs": [
        {
          "internalType": "uint256",
          "name": "_nonce",
          "type": "uint256"
        },
        {
          "internalType": "bytes32",
          "name": "_initialChain",
          "type": "bytes32"
        }
      ],
      "name": "getTransferId",
      "outputs": [
        {
          "internalType": "bytes32",
          "name": "",
          "type": "bytes32"
        }
      ],
      "stateMutability": "pure",
      "type": "function"
    },
    {
      "inputs": [],
      "name": "initBlock",
      "outputs": [
        {
          "internalType": "uint256",
          "name": "",
          "type": "uint256"
        }
      ],
      "stateMutability": "view",
      "type": "function"
    },
    {
      "inputs": [
        {
          "internalType": "address",
          "name": "_issuedToken",
          "type": "address"
        }
      ],
      "name": "isIssuedTokenPublished",
      "outputs": [
        {
          "internalType": "bool",
          "name": "",
          "type": "bool"
        }
      ],
      "stateMutability": "view",
      "type": "function"
    },
    {
      "inputs": [],
      "name": "isProxyChain",
      "outputs": [
        {
          "internalType": "bool",
          "name": "",
          "type": "bool"
        }
      ],
      "stateMutability": "view",
      "type": "function"
    },
    {
      "inputs": [],
      "name": "issuedTokenImplementation",
      "outputs": [
        {
          "internalType": "address",
          "name": "",
          "type": "address"
        }
      ],
      "stateMutability": "view",
      "type": "function"
    },
    {
      "inputs": [
        {
          "internalType": "address",
          "name": "",
          "type": "address"
        }
      ],
      "name": "issuedTokens",
      "outputs": [
        {
          "internalType": "bool",
          "name": "",
          "type": "bool"
        }
      ],
      "stateMutability": "view",
      "type": "function"
    },
    {
      "inputs": [],
      "name": "nonce",
      "outputs": [
        {
          "internalType": "uint256",
          "name": "",
          "type": "uint256"
        }
      ],
      "stateMutability": "view",
      "type": "function"
    },
    {
      "inputs": [
        {
          "internalType": "address",
          "name": "_operator",
          "type": "address"
        },
        {
          "internalType": "address",
          "name": "_from",
          "type": "address"
        },
        {
          "internalType": "uint256",
          "name": "_tokenId",
          "type": "uint256"
        },
        {
          "internalType": "bytes",
          "name": "_data",
          "type": "bytes"
        }
      ],
      "name": "onERC721Received",
      "outputs": [
        {
          "internalType": "bytes4",
          "name": "",
          "type": "bytes4"
        }
      ],
      "stateMutability": "pure",
      "type": "function"
    },
    {
      "inputs": [
        {
          "internalType": "bytes32",
          "name": "",
          "type": "bytes32"
        }
      ],
      "name": "registeredChains",
      "outputs": [
        {
          "internalType": "bool",
          "name": "",
          "type": "bool"
        }
      ],
      "stateMutability": "view",
      "type": "function"
    },
    {
      "inputs": [
        {
          "internalType": "bytes32",
          "name": "",
          "type": "bytes32"
        },
        {
          "internalType": "uint256",
          "name": "",
          "type": "uint256"
        }
      ],
      "name": "registeredNonces",
      "outputs": [
        {
          "internalType": "bool",
          "name": "",
          "type": "bool"
        }
      ],
      "stateMutability": "view",
      "type": "function"
    },
    {
      "inputs": [
        {
          "internalType": "bytes32",
          "name": "_chain",
          "type": "bytes32"
        },
        {
          "internalType": "bool",
          "name": "_value",
          "type": "bool"
        }
      ],
      "name": "setChainRegister",
      "outputs": [],
      "stateMutability": "nonpayable",
      "type": "function"
    },
    {
      "inputs": [
        {
          "internalType": "address",
          "name": "_newValidator",
          "type": "address"
        }
      ],
      "name": "setValidator",
      "outputs": [],
      "stateMutability": "nonpayable",
      "type": "function"
    },
    {
      "inputs": [
        {
          "internalType": "uint256",
          "name": "_externalNonce",
          "type": "uint256"
        },
        {
          "internalType": "bytes32",
          "name": "_originalChain",
          "type": "bytes32"
        },
        {
          "internalType": "bytes",
          "name": "_originalToken",
          "type": "bytes"
        },
        {
          "internalType": "bytes32",
          "name": "_initialChain",
          "type": "bytes32"
        },
        {
          "internalType": "bytes32",
          "name": "_targetChain",
          "type": "bytes32"
        },
        {
          "internalType": "uint256",
          "name": "_tokenId",
          "type": "uint256"
        },
        {
          "internalType": "bytes",
          "name": "_sender",
          "type": "bytes"
        },
        {
          "internalType": "bytes",
          "name": "_recipient",
          "type": "bytes"
        },
        {
          "components": [
            {
              "internalType": "string",
              "name": "name",
              "type": "string"
            },
            {
              "internalType": "string",
              "name": "symbol",
              "type": "string"
            },
            {
              "internalType": "string",
              "name": "tokenUri",
              "type": "string"
            }
          ],
          "internalType": "struct BridgeERC721.TokenInfo",
          "name": "_tokenInfo",
          "type": "tuple"
        }
      ],
      "name": "tranferFromOtherChain",
      "outputs": [],
      "stateMutability": "nonpayable",
      "type": "function"
    },
    {
      "inputs": [
        {
          "internalType": "address",
          "name": "_transferedToken",
          "type": "address"
        },
        {
          "internalType": "uint256",
          "name": "_tokenId",
          "type": "uint256"
        },
        {
          "internalType": "bytes32",
          "name": "_targetChain",
          "type": "bytes32"
        },
        {
          "internalType": "bytes",
          "name": "_recipient",
          "type": "bytes"
        }
      ],
      "name": "tranferToOtherChain",
      "outputs": [],
      "stateMutability": "nonpayable",
      "type": "function"
    },
    {
      "inputs": [],
      "name": "validator",
      "outputs": [
        {
          "internalType": "address",
          "name": "",
          "type": "address"
        }
      ],
      "stateMutability": "view",
      "type": "function"
    }
  ],
  "transactionHash": "0x6a9285a60c81685be6d3e6d59ae7dc03f5e049fcfdc3ee0e3ccf0b6b1f1cce1c",
  "args": [
    "0x88243e88525a258200bf5ca869571208956d07a0fa57c175fe0c198c7a0c5c26",
    true,
    [
      "0x888ddba0dff61733aea9d240a62a83cee02ac4a5c8e58fbc448c21d3b250d4bb",
      "0xf9b1779dd736d62f9a5815f9f11cb752f6342e8584a01f22e1b19b9a8cb5694e",
      "0xc5a260213bed973cb2f8d4637aa3ef27b0571649e067f5604af98967165ee957",
      "0x7319d77b282d06f1398943db85efac6f25008b7706c519a44e88de5e3c6f0a9e",
      "0x642106d7ec84c5a51daf323a9cac483d643c5c0ed5c92e3db79f5aae302d83fd",
      "0x87550faf95af7bb3758cd1eca43d7facddb6bbe801af833914faa99ba86070e3",
      "0x49f18ed70c3220abb735efdc7fce309e384d008d4bc14c846dcce9e31050e29b",
      "0xa96b772a8c17d9c8cf2c92a171b3dcdcf9453b286b3b47d988d07a79acc72567"
    ],
    "0x8Ee032154A4D27e31591864daD56DeAf4478D253",
    "0x8E016C3BaD9953f53c1f5EC56F98d243047b5B95"
  ],
  "numDeployments": 1,
  "solcInputHash": "f927012e6aa6fda3a07dd46a8e12e942",
  "bytecode": "0x604060808152346200019157620022bf803803806200001e81620001ac565b928339810160a0828203126200019157815191602080820151908115158092036200019157828601516001600160401b0390818111620001915784019480601f8701121562000191578551918211620001965760059582871b90848062000087818501620001ac565b809681520192820101928311620001915784809101915b838310620001805750505050620000c66080620000be60608701620001d2565b9501620001d2565b9343600855600196875560ff199360ff856003541691161760035560018060a01b038060018060a01b031992168260075416176007556000951690855416178455805194845b868110620001235788516120d79081620001e88239f35b82518110156200016c5780821b830184015186526004845288862080548616891790556000198114620001585787016200010c565b634e487b7160e01b86526011600452602486fd5b634e487b7160e01b86526032600452602486fd5b82518152918101918591016200009e565b600080fd5b634e487b7160e01b600052604160045260246000fd5b6040519190601f01601f191682016001600160401b038111838210176200019657604052565b51906001600160a01b0382168203620001915756fe608080604052600436101561001357600080fd5b6000803560e01c9182630c1ab73014610b0257508163101c575a14610ada57816311921fad14610aac5781631327d3d814610a6c578163150b7a0214610a0d57816328177228146109b257816337c823f2146102b55781633a5381b51461028f5781633da998fa14610272578163457322b91461016d57816348b4fa58146102505781635d05125b146102335781639a573d5d146101e35781639d95a792146101ab578163a0b498a41461016d578163affed0e014610150578163b00a0be61461010457508063e3cd51e5146100fb5763f7e03bad146100f3575b600080fd5b6100ee6110e3565b506100ee6110e3565b3461014d57604036600319011261014d576024358015158091036101495761012b33611105565b60043582526004602052604082209060ff8019835416911617905580f35b5080fd5b80fd5b3461014d578060031936011261014d576020600254604051908152f35b3461014d57602036600319011261014d5760209060ff906040906001600160a01b036101976110a0565b168152600584522054166040519015158152f35b3461014d57604036600319011261014d5760ff6040602092600435815260068452818120602435825284522054166040519015158152f35b3461014d57604036600319011261014d57602435906001600160401b03821161014d57602061022161021836600486016110b6565b90600435611387565b6040516001600160a01b039091168152f35b3461014d578060031936011261014d576020600854604051908152f35b3461014d578060031936011261014d57602060ff600354166040519015158152f35b3461014d578060031936011261014d576020600154604051908152f35b3461014d578060031936011261014d57546040516001600160a01b039091168152602090f35b3461014d5760031961012036820112610149576001600160401b03906044358281116109ae576102e99036906004016110b6565b60c4358481116109aa576103019036906004016110b6565b949060e4358281116109a65761031b9036906004016110b6565b95909261010435116109a65760609061010435360301126104ea5761033f33611105565b6064358752600660205260408720600435885260205260ff604088205416610952576064358752600660205260408720600435885260205260408720600160ff1982541617905560015480606435146108fa576064358852600460205260ff604089205416156108a257608435036105e757866001600160a01b036103c684880185611368565b16602435600154146000146104fd576001600160a01b036103e987870188611368565b16803b156104f957604051632142170760e11b81523060048201526001600160a01b0392909216602483015260a435604483015282908290606490829084905af180156104ee576104d2575b5050907f93ed05a8c697097712ecd9a75d512ed9bd401c4d006f5050685cfe71a6371a25946104be6104cc935b6104706064356004356111e1565b986104986040519889986004358a5260243560208b01526101008060408c01528a01916112f1565b916064356060890152608435608089015260a43560a089015287830360c08901526112f1565b9184830360e08601526112f1565b0390a280f35b6104de90939293611161565b6104ea57908688610435565b8680fd5b6040513d84823e3d90fd5b8280fd5b6001600160a01b036105128688602435611387565b1690818352600560205260ff604084205416156105cd575b6105406044610104350161010435600401611312565b9092803b156105c95761057193858094604051968795869485936334ff261960e21b855260a4359060048601611344565b03925af180156104ee576105b1575b5050907f93ed05a8c697097712ecd9a75d512ed9bd401c4d006f5050685cfe71a6371a25946104be6104cc93610462565b6105bd90939293611161565b6104ea57908688610580565b8480fd5b6105e161010435600401878960243561144f565b5061052a565b919293909460ff600354161561085e5786906001600160a01b0361060e8688602435611387565b16808352600560205260ff60408420541615610844575b608435602435036107c257803b156104f957828091602460405180948193630852cd8d60e31b835260a43560048401525af19081156107b75783916107a3575b50505b61067181611215565b9361067f60405195866111c0565b81855236828201116104f957819060208601378301602001526106a66064356004356111e1565b9461010435600401906106b98280611312565b6106c96024610104350185611312565b939094610104356044016106dc91611312565b9690976040519a8b9a6004358c5260643560208d015260243560408d01528b6101606060819201528c0190610710926112f1565b60843560808c015260a43560a08c01528a810360c08c0152610731916112cc565b9089820360e08b0152610743926112f1565b90878203610100890152610756926112f1565b90858203610120870152610769926112f1565b9083820361014085015261077c926112f1565b037f67b434b69d836f87a524f117d784d7fc348e50d2df59011961fa143a7df8ebac91a280f35b6107ac90611161565b610149578189610665565b6040513d85823e3d90fd5b602435606435146107d4575b50610668565b6107ea6044610104350161010435600401611312565b823b156105c957610818928592836040518096819582946334ff261960e21b845260a4353060048601611344565b03925af19081156107b7578391610830575b506107ce565b61083990611161565b61014957818961082a565b61085861010435600401878960243561144f565b50610625565b606460405162461bcd60e51b815260206004820152602060248201527f4272696467654552433732313a204f6e6c792070726f787920627269646765216044820152fd5b60405162461bcd60e51b815260206004820152602a60248201527f4272696467654552433732313a20496e697469616c20636861696e206e6f74206044820152691c9959da5cdd195c995960b21b6064820152608490fd5b60405162461bcd60e51b815260206004820152602a60248201527f4272696467654552433732313a20696e697469616c436861696e203d3d206375604482015269393932b73a21b430b4b760b11b6064820152608490fd5b60405162461bcd60e51b815260206004820152602660248201527f4272696467654552433732313a206e6f6e636520616c726561647920726567696044820152651cdd195c995960d21b6064820152608490fd5b8780fd5b8580fd5b8380fd5b3461014d57606036600319011261014d576024356001600160401b038111610149576109e29036906004016110b6565b906044356001600160a01b03811681036100ee57602092610a05926004356115dd565b604051908152f35b3461014d57608036600319011261014d57610a266110a0565b506024356001600160a01b038116036100ee576064356001600160401b03811161014957610a589036906004016110b6565b5050604051630a85bd0160e11b8152602090f35b3461014d57602036600319011261014d57610a856110a0565b610a8e33611105565b81546001600160a01b0319166001600160a01b039190911617815580f35b3461014d57602036600319011261014d5760ff60406020926004358152600484522054166040519015158152f35b3461014d578060031936011261014d576007546040516001600160a01b039091168152602090f35b3461014957608036600319011261014957610b1b6110a0565b906064356001600160401b0381116109ae57610b3b9036906004016110b6565b90916044358552600460205260ff6040862054161561105357506001600160a01b038316845260056020526040842054600154600254909390929160ff16600019841461103f576001840160025515610e7a57604051634c4f708d60e11b81529086826004816001600160a01b038a165afa908115610e6f578793889289948a91610dbc575b5093929789869160405163c87b56dd60e01b81526024356004820152828160248160018060a01b0386165afa9081156107b7578391610d9a575b50976044351480610d8e575b15610d2d576001600160a01b0381163b156101495760405163ab1a63cd60e01b8152336004820152306024808301919091523560448201529082908290606490829084906001600160a01b03165af180156104ee57610d15575b50505b610c6e88886111e1565b986040519133602084015260208352610c868361118a565b604051998a998a5260208a015260408901526101608060608a01528801610cac916112cc565b604435608089015260243560a089015287810360c0890152610ccd916112cc565b9086820360e0880152610cdf926112f1565b848103610100860152610cf1916112cc565b838103610120850152610d03916112cc565b82810361014084015261077c916112cc565b610d1e90611161565b610d2957898b610c61565b8980fd5b6001600160a01b0381163b1561014957604051630852cd8d60e31b8152602480356004830152909183918391829084906001600160a01b03165af180156104ee57610d7a575b5050610c64565b610d8390611161565b610d2957898b610d73565b5060ff60035416610c07565b610db691503d8085833e610dae81836111c0565b8101906112a7565b8d610bfb565b935050925092503d928388833e610dd384836111c0565b60808285810103126109a65781519260208301516001600160401b038111610d2957858401601f828601011215610d295783018051610e19918588019190602001611253565b9460408401516001600160401b038111610e6b57610e3c9082860190860161128a565b9360608101516001600160401b038111610e6757610e5d928201910161128a565b939492938a610bc1565b8b80fd5b8a80fd5b6040513d89823e3d90fd5b9390839060405160018060a01b038416602082015260208152610e9c8161118a565b6040516306fdde0360e01b815290969088816004816001600160a01b0389165afa899181611023575b5061101d5750604051610ed7816111a5565b888152915b6040516395d89b4160e01b815289816004816001600160a01b038a165afa8a9181611001575b50610ffb5750604051610f14816111a5565b898152935b60405163c87b56dd60e01b81526024803560048301528b908290816001600160a01b038b165afa8b9181610fde575b50610fd85750604051610f5a816111a5565b8a8152955b6001600160a01b0381163b15610e6b57604051632142170760e11b815233600482015230602480830191909152356044820152908b908290606490829084906001600160a01b03165af18015610fcd57610fba575b50610c64565b610fc6909a919a611161565b988a610fb4565b6040513d8d823e3d90fd5b95610f5f565b610ff49192508c3d8091833e610dae81836111c0565b908c610f48565b93610f19565b6110169192503d808d833e610dae81836111c0565b908b610f02565b91610edc565b6110389192503d808c833e610dae81836111c0565b908a610ec5565b634e487b7160e01b87526011600452602487fd5b62461bcd60e51b815260206004820152602260248201527f4272696467654552433732313a20636861696e206e6f74207265676973746572604482015261195960f21b6064820152608490fd5b600435906001600160a01b03821682036100ee57565b9181601f840112156100ee578235916001600160401b0383116100ee57602083818601950101116100ee57565b50346100ee5760403660031901126100ee576020610a056024356004356111e1565b6000546001600160a01b0390811691160361111c57565b60405162461bcd60e51b815260206004820152601d60248201527f4272696467654552433732313a204f6e6c792076616c696461746f72210000006044820152606490fd5b6001600160401b03811161117457604052565b634e487b7160e01b600052604160045260246000fd5b604081019081106001600160401b0382111761117457604052565b602081019081106001600160401b0382111761117457604052565b90601f801991011681019081106001600160401b0382111761117457604052565b906040519060208201928352604082015260408152606081018181106001600160401b038211176111745760405251902090565b6001600160401b03811161117457601f01601f191660200190565b60005b8381106112435750506000910152565b8181015183820152602001611233565b9092919261126081611215565b9161126e60405193846111c0565b8294828452828201116100ee576020611288930190611230565b565b9080601f830112156100ee5781516112a492602001611253565b90565b906020828203126100ee5781516001600160401b0381116100ee576112a4920161128a565b906020916112e581518092818552858086019101611230565b601f01601f1916010190565b908060209392818452848401376000828201840152601f01601f1916010190565b903590601e19813603018212156100ee57018035906001600160401b0382116100ee576020019181360383136100ee57565b6112a4949260609260018060a01b03168252602082015281604082015201916112f1565b908160209103126100ee57356001600160a01b03811681036100ee5790565b9190916040916113b883805183819460209889840197885284840137810160008382015203868101845201826111c0565b519020906104d181516113cd858301826111c0565b81815284810191611700833961140085845180936113f383830196879251928391611230565b81010380845201826111c0565b51902081519384019260ff60f81b84523060601b6021860152603585015260558401526055835260808301908382106001600160401b038311176111745752905190206001600160a01b031690565b909160409283519260208401600094828252848488830137611482878287810189838201520360208101845201826111c0565b51902085516104d1808201908282106001600160401b038311176115c957908291611bd18339039086f59586156115bf576007546001600160a01b0397881697169261154a929161153c916115199061152d6114ee6114e18580611312565b9190956020810190611312565b9490938d519b8c99630f29f33560e11b60208c015260248b0152608060448b015260a48a01916112f1565b9060231995868984030160648a01526112f1565b928584030160848601526112f1565b03601f1981018452836111c0565b843b156104f95761157d9183918551938492839263c0d91eaf60e01b8452600484015287602484015260448301906112cc565b038183885af180156115b5576115a6575b50828152600560205220805460ff1916600117905590565b6115af90611161565b3861158e565b83513d84823e3d90fd5b85513d86823e3d90fd5b634e487b7160e01b88526041600452602488fd5b909291816001541461168c576001600160a01b039384926115ff929190611387565b1690600092828452600560205260ff6040852054161561168657602460209260405194859384926370a0823160e01b84521660048301525afa91821561167a57809261164a57505090565b9091506020823d8211611672575b81611665602093836111c0565b8101031261014d57505190565b3d9150611658565b604051903d90823e3d90fd5b50505090565b91926020926001600160a01b03925060249183916116ad9190810190611368565b169360405194859384926370a0823160e01b84521660048301525afa9081156116f3576000916116db575090565b906020823d82116116725781611665602093836111c0565b6040513d6000823e3d90fdfe60808060405234610016576104b5908161001c8239f35b600080fdfe6080604052600436101561002c575b361561001f575b61001d610147565b005b610027610147565b610015565b6000803560e01c63c0d91eaf14610043575061000e565b346100cf5760403660031901126100cf576004356001600160a01b03811681036100c75760243567ffffffffffffffff81116100cb57366023820112156100cb578060040135918361009c6100978561011c565b6100e9565b9284845236602486830101116100c757846100c4956024602093018387013784010152610194565b80f35b5080fd5b8280fd5b80fd5b50634e487b7160e01b600052604160045260246000fd5b6040519190601f01601f1916820167ffffffffffffffff81118382101761010f57604052565b6101176100d2565b604052565b60209067ffffffffffffffff811161013a575b601f01601f19160190565b6101426100d2565b61012f565b507f360894a13ba1a3210667c828492db98dca3e2076cc3735a920a3ca505d382bbc54600090819081906001600160a01b0316368280378136915af43d82803e15610190573d90f35b3d90fd5b60ff600054166102aa57803b1561024f577f360894a13ba1a3210667c828492db98dca3e2076cc3735a920a3ca505d382bbc80546001600160a01b0319166001600160a01b0383169081179091557fbc7cd75a20ee27fd9adebab32041f755214dbc6bffa90cc0225b39da2e5c2d3b600080a2815115801590610247575b61022d575b505061022b600160ff196000541617600055565b565b61023f916102396102f9565b91610361565b503880610217565b506000610212565b60405162461bcd60e51b815260206004820152602d60248201527f455243313936373a206e657720696d706c656d656e746174696f6e206973206e60448201526c1bdd08184818dbdb9d1c9858dd609a1b6064820152608490fd5b60405162461bcd60e51b815260206004820152602160248201527f4552433139363750726f7879437265617465323a20616c726561647920696e696044820152601d60fa1b6064820152608490fd5b604051906060820182811067ffffffffffffffff821117610354575b60405260278252660819985a5b195960ca1b6040837f416464726573733a206c6f772d6c6576656c2064656c65676174652063616c6c60208201520152565b61035c6100d2565b610315565b6000806103969493602081519101845af43d15610399573d916103866100978461011c565b9283523d6000602085013e6103ed565b90565b6060916103ed565b156103a857565b60405162461bcd60e51b815260206004820152601d60248201527f416464726573733a2063616c6c20746f206e6f6e2d636f6e74726163740000006044820152606490fd5b9192901561040d5750815115610401575090565b610396903b15156103a1565b8251909150156104205750805190602001fd5b6040519062461bcd60e51b82528160208060048301528251908160248401526000935b828510610466575050604492506000838284010152601f80199101168101030190fd5b848101820151868601604401529381019385935061044356fea26469706673582212204dde7cc5adcf980b8e42581204cfa621f554155a4614ece46fe895090c92f2d464736f6c6343000811003360808060405234610016576104b5908161001c8239f35b600080fdfe6080604052600436101561002c575b361561001f575b61001d610147565b005b610027610147565b610015565b6000803560e01c63c0d91eaf14610043575061000e565b346100cf5760403660031901126100cf576004356001600160a01b03811681036100c75760243567ffffffffffffffff81116100cb57366023820112156100cb578060040135918361009c6100978561011c565b6100e9565b9284845236602486830101116100c757846100c4956024602093018387013784010152610194565b80f35b5080fd5b8280fd5b80fd5b50634e487b7160e01b600052604160045260246000fd5b6040519190601f01601f1916820167ffffffffffffffff81118382101761010f57604052565b6101176100d2565b604052565b60209067ffffffffffffffff811161013a575b601f01601f19160190565b6101426100d2565b61012f565b507f360894a13ba1a3210667c828492db98dca3e2076cc3735a920a3ca505d382bbc54600090819081906001600160a01b0316368280378136915af43d82803e15610190573d90f35b3d90fd5b60ff600054166102aa57803b1561024f577f360894a13ba1a3210667c828492db98dca3e2076cc3735a920a3ca505d382bbc80546001600160a01b0319166001600160a01b0383169081179091557fbc7cd75a20ee27fd9adebab32041f755214dbc6bffa90cc0225b39da2e5c2d3b600080a2815115801590610247575b61022d575b505061022b600160ff196000541617600055565b565b61023f916102396102f9565b91610361565b503880610217565b506000610212565b60405162461bcd60e51b815260206004820152602d60248201527f455243313936373a206e657720696d706c656d656e746174696f6e206973206e60448201526c1bdd08184818dbdb9d1c9858dd609a1b6064820152608490fd5b60405162461bcd60e51b815260206004820152602160248201527f4552433139363750726f7879437265617465323a20616c726561647920696e696044820152601d60fa1b6064820152608490fd5b604051906060820182811067ffffffffffffffff821117610354575b60405260278252660819985a5b195960ca1b6040837f416464726573733a206c6f772d6c6576656c2064656c65676174652063616c6c60208201520152565b61035c6100d2565b610315565b6000806103969493602081519101845af43d15610399573d916103866100978461011c565b9283523d6000602085013e6103ed565b90565b6060916103ed565b156103a857565b60405162461bcd60e51b815260206004820152601d60248201527f416464726573733a2063616c6c20746f206e6f6e2d636f6e74726163740000006044820152606490fd5b9192901561040d5750815115610401575090565b610396903b15156103a1565b8251909150156104205750805190602001fd5b6040519062461bcd60e51b82528160208060048301528251908160248401526000935b828510610466575050604492506000838284010152601f80199101168101030190fd5b848101820151868601604401529381019385935061044356fea26469706673582212204dde7cc5adcf980b8e42581204cfa621f554155a4614ece46fe895090c92f2d464736f6c63430008110033a264697066735822122087caff690a610478ef021b385bdf294e466d5af79e3c785f02a48fdad060555464736f6c63430008110033",
  "devdoc": {
    "kind": "dev",
    "methods": {},
    "version": 1
  },
  "userdoc": {
    "kind": "user",
    "methods": {},
    "version": 1
  },
  "storageLayout": {
    "storage": [
      {
        "astId": 12058,
        "contract": "contracts/BridgeERC721.sol:BridgeERC721",
        "label": "validator",
        "offset": 0,
        "slot": "0",
        "type": "t_address"
      },
      {
        "astId": 12060,
        "contract": "contracts/BridgeERC721.sol:BridgeERC721",
        "label": "currentChain",
        "offset": 0,
        "slot": "1",
        "type": "t_bytes32"
      },
      {
        "astId": 12062,
        "contract": "contracts/BridgeERC721.sol:BridgeERC721",
        "label": "nonce",
        "offset": 0,
        "slot": "2",
        "type": "t_uint256"
      },
      {
        "astId": 12064,
        "contract": "contracts/BridgeERC721.sol:BridgeERC721",
        "label": "isProxyChain",
        "offset": 0,
        "slot": "3",
        "type": "t_bool"
      },
      {
        "astId": 12068,
        "contract": "contracts/BridgeERC721.sol:BridgeERC721",
        "label": "registeredChains",
        "offset": 0,
        "slot": "4",
        "type": "t_mapping(t_bytes32,t_bool)"
      },
      {
        "astId": 12072,
        "contract": "contracts/BridgeERC721.sol:BridgeERC721",
        "label": "issuedTokens",
        "offset": 0,
        "slot": "5",
        "type": "t_mapping(t_address,t_bool)"
      },
      {
        "astId": 12078,
        "contract": "contracts/BridgeERC721.sol:BridgeERC721",
        "label": "registeredNonces",
        "offset": 0,
        "slot": "6",
        "type": "t_mapping(t_bytes32,t_mapping(t_uint256,t_bool))"
      },
      {
        "astId": 12080,
        "contract": "contracts/BridgeERC721.sol:BridgeERC721",
        "label": "issuedTokenImplementation",
        "offset": 0,
        "slot": "7",
        "type": "t_address"
      },
      {
        "astId": 12082,
        "contract": "contracts/BridgeERC721.sol:BridgeERC721",
        "label": "initBlock",
        "offset": 0,
        "slot": "8",
        "type": "t_uint256"
      }
    ],
    "types": {
      "t_address": {
        "encoding": "inplace",
        "label": "address",
        "numberOfBytes": "20"
      },
      "t_bool": {
        "encoding": "inplace",
        "label": "bool",
        "numberOfBytes": "1"
      },
      "t_bytes32": {
        "encoding": "inplace",
        "label": "bytes32",
        "numberOfBytes": "32"
      },
      "t_mapping(t_address,t_bool)": {
        "encoding": "mapping",
        "key": "t_address",
        "label": "mapping(address => bool)",
        "numberOfBytes": "32",
        "value": "t_bool"
      },
      "t_mapping(t_bytes32,t_bool)": {
        "encoding": "mapping",
        "key": "t_bytes32",
        "label": "mapping(bytes32 => bool)",
        "numberOfBytes": "32",
        "value": "t_bool"
      },
      "t_mapping(t_bytes32,t_mapping(t_uint256,t_bool))": {
        "encoding": "mapping",
        "key": "t_bytes32",
        "label": "mapping(bytes32 => mapping(uint256 => bool))",
        "numberOfBytes": "32",
        "value": "t_mapping(t_uint256,t_bool)"
      },
      "t_mapping(t_uint256,t_bool)": {
        "encoding": "mapping",
        "key": "t_uint256",
        "label": "mapping(uint256 => bool)",
        "numberOfBytes": "32",
        "value": "t_bool"
      },
      "t_uint256": {
        "encoding": "inplace",
        "label": "uint256",
        "numberOfBytes": "32"
      }
    }
  }
}