{
  "address": "0xcad7d671990EA7a2E98E97d71F73b13659cE2B6D",
  "abi": [
    {
      "inputs": [],
      "name": "chainName",
      "outputs": [
        {
          "internalType": "string",
          "name": "",
          "type": "string"
        }
      ],
      "stateMutability": "view",
      "type": "function"
    },
    {
      "inputs": [],
      "name": "isProxyChain",
      "outputs": [
        {
          "internalType": "bool",
          "name": "",
          "type": "bool"
        }
      ],
      "stateMutability": "view",
      "type": "function"
    }
  ],
  "transactionHash": "0x9abe3006773f7431bf4948f60bf443a7b6d5eea412347a5d18bc410b39b16ad6",
  "args": [],
  "numDeployments": 1,
  "solcInputHash": "08541191232a20d41dd2483aa4db3f2b",
  "bytecode": "0x608080604052346100165761023c908161001c8239f35b600080fdfe60806040818152600436101561001457600080fd5b600091823560e01c9081631c93b03a1461007d57506348b4fa581461003857600080fd5b3461007957816003193601126100795760209060ff7f1ac0c65048e05abc6ec58fabb62503cd4926ef6a22676f8a0942f241754a9ba6541690519015158152f35b5080fd5b83833461007957816003193601126100795781927f1ac0c65048e05abc6ec58fabb62503cd4926ef6a22676f8a0942f241754a9ba592835494600186811c958188169788156101fc575b60209889891081146101e8578887528993929181156101c4575060011461016f575b50505082939450601f801994859203011682019482861067ffffffffffffffff87111761015b5785929391838652818452845191828186015281955b8387106101435750508394508582601f949501015201168101030190f35b86810182015189880189015295810195889550610125565b634e487b7160e01b82526041600452602482fd5b845290915082907fdc5d12dbc606c4b58c1834e3ea9b4bb05648cd8e6f9896a777fa9708701729e75b8783106101b157509495508594508301018587806100e9565b8054868401850152918301918101610198565b60ff191684880152509596879650151560051b8501909101915086905087806100e9565b634e487b7160e01b86526022600452602486fd5b96607f16966100c756fea264697066735822122077050ea0f56a42d3a132e05a2af0a64ee574659c4b5618db24363b267d2a89d264736f6c63430008110033",
  "devdoc": {
    "kind": "dev",
    "methods": {},
    "version": 1
  },
  "userdoc": {
    "kind": "user",
    "methods": {},
    "version": 1
  },
  "storageLayout": {
    "storage": [],
    "types": null
  }
}