{
  "address": "0x7210147ca51315238Ad7be5C7921a3Da6613AB17",
  "abi": [
    {
      "anonymous": false,
      "inputs": [
        {
          "indexed": false,
          "internalType": "string",
          "name": "originalChainName",
          "type": "string"
        },
        {
          "indexed": false,
          "internalType": "string",
          "name": "originalTokenAddress",
          "type": "string"
        },
        {
          "indexed": true,
          "internalType": "bytes32",
          "name": "tokenId",
          "type": "bytes32"
        },
        {
          "indexed": false,
          "internalType": "address",
          "name": "createdToken",
          "type": "address"
        }
      ],
      "name": "ERC20DriverPublishedToken",
      "type": "event"
    },
    {
      "anonymous": false,
      "inputs": [
        {
          "indexed": true,
          "internalType": "bytes32",
          "name": "transferId",
          "type": "bytes32"
        },
        {
          "indexed": false,
          "internalType": "uint256",
          "name": "externalNonce",
          "type": "uint256"
        },
        {
          "indexed": false,
          "internalType": "string",
          "name": "originalChainName",
          "type": "string"
        },
        {
          "indexed": false,
          "internalType": "string",
          "name": "originalTokenAddress",
          "type": "string"
        },
        {
          "indexed": false,
          "internalType": "string",
          "name": "initialChainName",
          "type": "string"
        },
        {
          "indexed": false,
          "internalType": "string",
          "name": "targetChainName",
          "type": "string"
        },
        {
          "indexed": false,
          "internalType": "uint256",
          "name": "amount",
          "type": "uint256"
        },
        {
          "indexed": false,
          "internalType": "string",
          "name": "sender",
          "type": "string"
        },
        {
          "indexed": false,
          "internalType": "string",
          "name": "recipient",
          "type": "string"
        }
      ],
      "name": "ERC20DriverTransferFromOtherChain",
      "type": "event"
    },
    {
      "anonymous": false,
      "inputs": [
        {
          "indexed": true,
          "internalType": "bytes32",
          "name": "transferId",
          "type": "bytes32"
        },
        {
          "indexed": false,
          "internalType": "uint256",
          "name": "nonce",
          "type": "uint256"
        },
        {
          "indexed": false,
          "internalType": "string",
          "name": "initialChainName",
          "type": "string"
        },
        {
          "indexed": false,
          "internalType": "string",
          "name": "originalChainName",
          "type": "string"
        },
        {
          "indexed": false,
          "internalType": "string",
          "name": "originalTokenAddress",
          "type": "string"
        },
        {
          "indexed": false,
          "internalType": "string",
          "name": "targetChainName",
          "type": "string"
        },
        {
          "indexed": false,
          "internalType": "uint256",
          "name": "tokenAmount",
          "type": "uint256"
        },
        {
          "indexed": false,
          "internalType": "string",
          "name": "sender",
          "type": "string"
        },
        {
          "indexed": false,
          "internalType": "string",
          "name": "recipient",
          "type": "string"
        }
      ],
      "name": "ERC20DriverTransferToOtherChain",
      "type": "event"
    },
    {
      "inputs": [
        {
          "internalType": "string",
          "name": "_originalChainName",
          "type": "string"
        },
        {
          "internalType": "string",
          "name": "_originalTokenAddress",
          "type": "string"
        },
        {
          "internalType": "address",
          "name": "_account",
          "type": "address"
        }
      ],
      "name": "balancesERC20",
      "outputs": [
        {
          "internalType": "uint256",
          "name": "",
          "type": "uint256"
        }
      ],
      "stateMutability": "view",
      "type": "function"
    },
    {
      "inputs": [
        {
          "internalType": "string",
          "name": "_originalChainName",
          "type": "string"
        },
        {
          "internalType": "string",
          "name": "_originalTokenAddress",
          "type": "string"
        }
      ],
      "name": "getIssuedTokenAddressERC20",
      "outputs": [
        {
          "internalType": "address",
          "name": "",
          "type": "address"
        }
      ],
      "stateMutability": "view",
      "type": "function"
    },
    {
      "inputs": [
        {
          "internalType": "string",
          "name": "_originalChainName",
          "type": "string"
        },
        {
          "internalType": "string",
          "name": "_originalTokenAddress",
          "type": "string"
        }
      ],
      "name": "getTokenIdERC20",
      "outputs": [
        {
          "internalType": "bytes32",
          "name": "",
          "type": "bytes32"
        }
      ],
      "stateMutability": "pure",
      "type": "function"
    },
    {
      "inputs": [
        {
          "internalType": "uint256",
          "name": "_nonce",
          "type": "uint256"
        },
        {
          "internalType": "string",
          "name": "_initialChainName",
          "type": "string"
        }
      ],
      "name": "getTranferIdERC20",
      "outputs": [
        {
          "internalType": "bytes32",
          "name": "",
          "type": "bytes32"
        }
      ],
      "stateMutability": "pure",
      "type": "function"
    },
    {
      "inputs": [],
      "name": "initialBlockNumberERC20",
      "outputs": [
        {
          "internalType": "uint256",
          "name": "",
          "type": "uint256"
        }
      ],
      "stateMutability": "view",
      "type": "function"
    },
    {
      "inputs": [
        {
          "internalType": "string",
          "name": "_initialChainName",
          "type": "string"
        },
        {
          "internalType": "uint256",
          "name": "_externalNonce",
          "type": "uint256"
        }
      ],
      "name": "isExternalNonceAlreadyRegisteredERC20",
      "outputs": [
        {
          "internalType": "bool",
          "name": "",
          "type": "bool"
        }
      ],
      "stateMutability": "view",
      "type": "function"
    },
    {
      "inputs": [
        {
          "internalType": "address",
          "name": "_token",
          "type": "address"
        }
      ],
      "name": "isIssuedToken",
      "outputs": [
        {
          "internalType": "bool",
          "name": "",
          "type": "bool"
        }
      ],
      "stateMutability": "view",
      "type": "function"
    },
    {
      "inputs": [
        {
          "internalType": "string",
          "name": "_originalChainName",
          "type": "string"
        },
        {
          "internalType": "string",
          "name": "_originalTokenAddress",
          "type": "string"
        }
      ],
      "name": "isIssuedTokenCreatedERC20",
      "outputs": [
        {
          "internalType": "bool",
          "name": "",
          "type": "bool"
        }
      ],
      "stateMutability": "view",
      "type": "function"
    },
    {
      "inputs": [],
      "name": "nonceERC20",
      "outputs": [
        {
          "internalType": "uint256",
          "name": "",
          "type": "uint256"
        }
      ],
      "stateMutability": "view",
      "type": "function"
    },
    {
      "inputs": [
        {
          "internalType": "string",
          "name": "_chainName",
          "type": "string"
        },
        {
          "internalType": "bool",
          "name": "_value",
          "type": "bool"
        }
      ],
      "name": "setChainRegistrationERC20",
      "outputs": [],
      "stateMutability": "nonpayable",
      "type": "function"
    },
    {
      "inputs": [
        {
          "internalType": "address",
          "name": "_issuedTokenImplementation",
          "type": "address"
        }
      ],
      "name": "setIssuedTokenImplementation",
      "outputs": [],
      "stateMutability": "nonpayable",
      "type": "function"
    },
    {
      "inputs": [
        {
          "internalType": "uint256",
          "name": "_externalNonce",
          "type": "uint256"
        },
        {
          "internalType": "string",
          "name": "_originalChainName",
          "type": "string"
        },
        {
          "internalType": "string",
          "name": "_originalTokenAddress",
          "type": "string"
        },
        {
          "internalType": "string",
          "name": "_initialChainName",
          "type": "string"
        },
        {
          "internalType": "string",
          "name": "_targetChainName",
          "type": "string"
        },
        {
          "internalType": "uint256",
          "name": "_amount",
          "type": "uint256"
        },
        {
          "internalType": "string",
          "name": "_sender",
          "type": "string"
        },
        {
          "components": [
            {
              "internalType": "address",
              "name": "evmAddress",
              "type": "address"
            },
            {
              "internalType": "string",
              "name": "noEvmAddress",
              "type": "string"
            }
          ],
          "internalType": "struct UniversalAddressUtils.UniversalAddress",
          "name": "_recipient",
          "type": "tuple"
        },
        {
          "components": [
            {
              "internalType": "string",
              "name": "tokenName",
              "type": "string"
            },
            {
              "internalType": "string",
              "name": "tokenSymbol",
              "type": "string"
            },
            {
              "internalType": "uint8",
              "name": "tokenDecimals",
              "type": "uint8"
            }
          ],
          "internalType": "struct LibERC20Driver.TokenCreateInfo",
          "name": "_tokenCreateInfo",
          "type": "tuple"
        }
      ],
      "name": "tranferFromOtherChainERC20",
      "outputs": [],
      "stateMutability": "nonpayable",
      "type": "function"
    },
    {
      "inputs": [
        {
          "internalType": "address",
          "name": "_transferedToken",
          "type": "address"
        },
        {
          "internalType": "uint256",
          "name": "_amount",
          "type": "uint256"
        },
        {
          "internalType": "string",
          "name": "_targetChainName",
          "type": "string"
        },
        {
          "components": [
            {
              "internalType": "address",
              "name": "evmAddress",
              "type": "address"
            },
            {
              "internalType": "string",
              "name": "noEvmAddress",
              "type": "string"
            }
          ],
          "internalType": "struct UniversalAddressUtils.UniversalAddress",
          "name": "_recipient",
          "type": "tuple"
        }
      ],
      "name": "tranferToOtherChainERC20",
      "outputs": [],
      "stateMutability": "nonpayable",
      "type": "function"
    }
  ],
  "transactionHash": "0xf0f108c0931c95d9b58a3e03461073f07c9b170ea7cf90c6c150920a63f9c7d1",
  "args": [],
  "numDeployments": 2,
  "solcInputHash": "9bc53af4fa32756a262e09d5a2fac6c5",
  "bytecode": "0x6080806040523461001657612593908161001c8239f35b600080fdfe608060405260043610156200001357600080fd5b6000803560e01c80632751ed8c14620012a4578063335fe99e146200126f57806339126238146200122d5780633acaf5ec1462000b9d5780633b9549b31462000b4157806342ec61c81462000ad857806349a759ad1462000a9957806365a6e6a71462000a55578063690622b81462000a165780637958b3c514620009ab578063803a82251462000989578063d1cd7a8914620001155763f4fb387414620000ba57600080fd5b34620001125760403660031901126200011257602435906001600160401b038211620001125760206200010a62000101620000f9366004870162001322565b3691620019d0565b60043562001bd8565b604051908152f35b80fd5b503462000112576003196101203682011262000680576001600160401b0360243581811162000985576200014e90369060040162001322565b60449391933583811162000981576200016c90369060040162001322565b90926064358581116200097d576200018990369060040162001322565b9590966084358281116200097957620001a790369060040162001322565b909760c4358481116200097157620001c490369060040162001322565b9590948060e43511620009755760408260e4353603011262000975576101043511620009715760609061010435360301126200050e57620002046200202c565b62000210818b620013f7565b6004358c5260205260ff60408c2054166200091b5762000231818b620013f7565b6004358c5260205260408b20600160ff198254161790556200025860e435600401620020b7565b15620008a6576040516200028381620002746020820162001909565b03601f19810183528262001507565b602081519101208b604051620002b1602082818101948d8a87378d8201908382015203808452018262001507565b519020908c8c8c6040518760208201928337620002de6020828a8101878382015203808452018262001507565b51902091620003086020604051809389838301968737898201908382015203808452018262001507565b51902090828214620008205760ff620003238f8790620013bf565b541615620007aa578281036200057c57506001600160a01b0390506200034e600460e4350162001a8a565b16156200052157036200043e577f277405b64a3261050d82a2a3317c85db9f75f3d2e172674de0474f649a9a78e8986200043896959493929162000400620003eb6001600160a01b03620003a38a8e6200142f565b5416620003fa620003b960e43560040162001a8a565b60405163a9059cbb60e01b60208201526001600160a01b03909116602482015260a43560448201529283906064820190565b03601f19810184528362001507565b620015ff565b620004116200010136838f620019d0565b9b6200042260e435600401620020e4565b976040519b8c9b60a435978d6004359062001a0c565b0390a280f35b8a6001600160a01b036200045c60046101043501898c8c8962001c4c565b166200046d60e43560040162001a8a565b90803b156200051d576040516340c10f1960e01b81526001600160a01b0392909216600483015260a435602483015282908290604490829084905af180156200051257620004ea575b5050907f277405b64a3261050d82a2a3317c85db9f75f3d2e172674de0474f649a9a78e89862000438969594939262000400565b620004fc9097969594939297620014dd565b6200050e5790919293948a38620004b6565b8a80fd5b6040513d84823e3d90fd5b8280fd5b60405162461bcd60e51b815260206004820152602d60248201527f4c696245524332304472697665723a20726563697069656e74206e6f7420686160448201526c732065766d206164647265737360981b6064820152608490fd5b91509160ff7f1ac0c65048e05abc6ec58fabb62503cd4926ef6a22676f8a0942f241754a9ba69d969b9d9a99949a5416156200072a578d9281620005cc8f878f918e610104356004019362001c4c565b9303620006845750506001600160a01b0316803b156200068057604051632770a7eb60e21b815230600482015260a43560248201529082908290604490829084905af1801562000512576200065c575b5050907fb9c175d2cd95c2ccff290252181cf6c9d56e2d758e27e3a611af2b4608da1f7a986200043896959493925b6200041162000101368b87620019d0565b6200066e9097969594939297620014dd565b6200050e5790919293948a386200061c565b5080fd5b14620006bf575b5050907fb9c175d2cd95c2ccff290252181cf6c9d56e2d758e27e3a611af2b4608da1f7a986200043896959493926200064b565b6001600160a01b0316803b1562000680576040516340c10f1960e01b815230600482015260a43560248201529082908290604490829084905af180156200051257156200068b57620007189097969594939297620014dd565b6200050e5790919293948a386200068b565b60405162461bcd60e51b815260206004820152604c60248201527f4c696245524332304472697665723a204f6e6c792070726f787920627269646760448201527f652063616e2062652063757272656e74436861696e4e616d6520213d2074617260648201526b676574436861696e4e616d6560a01b608482015260a490fd5b60405162461bcd60e51b815260206004820152604260248201527f4c696245524332304472697665722e7472616e66657246726f6d4f746865724360448201527f6861696e3a20496e697469616c20636861696e206e6f74207265676973746572606482015261195960f21b608482015260a490fd5b60405162461bcd60e51b815260206004820152605260248201527f4c696245524332304472697665722e7472616e66657246726f6d4f746865724360448201527f6861696e3a20496e697469616c20636861696e2063616e206e6f74206265206560648201527138bab0b61031bab93932b73a1031b430b4b760711b608482015260a490fd5b60405162461bcd60e51b815260206004820152604160248201527f4c696245524332304472697665722e7472616e66657246726f6d4f746865724360448201527f6861696e3a20726563697069656e742061646472657373206e6f742076616c696064820152601960fa1b608482015260a490fd5b60405162461bcd60e51b815260206004820152602860248201527f4c696245524332304472697665723a206e6f6e636520616c726561647920726560448201526719da5cdd195c995960c21b6064820152608490fd5b8b80fd5b8c80fd5b8980fd5b8780fd5b8580fd5b8380fd5b5034620001125760206200010a620009a1366200136e565b9291909162001c16565b50346200011257604036600319011262000112576004356001600160401b0381116200068057620009e190369060040162001322565b9060243591821515809303620009855762000a069162000a006200202c565b620013bf565b9060ff8019835416911617905580f35b5034620001125780600319360112620001125760207f46bc5be21f6ba06b486f29ccd1182724e01483672510527c7bbd2f354bf91f3254604051908152f35b5034620001125760209062000a6e620009a1366200136e565b81526000805160206200253e8339815191528252604060018060a01b03912054161515604051908152f35b5034620001125780600319360112620001125760207f46bc5be21f6ba06b486f29ccd1182724e01483672510527c7bbd2f354bf91f3a54604051908152f35b503462000112576020366003190112620001125762000af662001357565b62000b006200202c565b7f46bc5be21f6ba06b486f29ccd1182724e01483672510527c7bbd2f354bf91f3380546001600160a01b0319166001600160a01b0390921691909117905580f35b50346200011257604036600319011262000112576004356001600160401b0381116200068057604060209262000b8962000b8260ff94369060040162001322565b90620013f7565b602435825284522054166040519015158152f35b5034620001125760031990608036830112620001125762000bbd62001357565b6001600160401b039290604435848111620009855762000be290369060040162001322565b92606435908682116200098157604090823603011262001229576024918235918215620011cd5760ff62000c178784620013bf565b54161562001163576004019062000c2e82620020b7565b15620010f95762000c3f8562001467565b54956040519588977f1ac0c65048e05abc6ec58fabb62503cd4926ef6a22676f8a0942f241754a9ba58881549a62000c778c620014a0565b9283835260019c8d81169081600014620010d5575060011462001075575b5062000ca49250038962001507565b1562000fbc57604051634c4f708d60e11b81526001600160a01b0391909116979089816004818c5afa90811562000ecd578a9b8b9262000f5e575b5050978a8a6040519160209262000d1584828162000d07818301968781519384920162001529565b810103808452018262001507565b5190209162000d3e604051918281810194898b8737898201908382015203808452018262001507565b51902014158062000f32575b1562000ed857803b15620009795760405163ab1a63cd60e01b815233600482015230602482015260448101879052908a908290606490829084905af1801562000ecd57908a9162000eb1575b50505b7f46bc5be21f6ba06b486f29ccd1182724e01483672510527c7bbd2f354bf91f3a90815496600019881462000e9f575062000e90936200043896937fb9c175d2cd95c2ccff290252181cf6c9d56e2d758e27e3a611af2b4608da1f7a9a9b9c969362000e7c938a01905562000e6d62000e138b8b62001bd8565b9c62000e5e62000e2e62000e2733620017cd565b97620020e4565b9962000e4f6040519e8f9e8f908152610100908160208201520190620015b7565b8d810360408f015290620015b7565b908b820360608d0152620015b7565b9189830360808b0152620015de565b9160a087015285820360c0870152620015b7565b9083820360e0850152620015b7565b634e487b7160e01b8b5260116004528afd5b62000ebc90620014dd565b62000ec957883862000d96565b8880fd5b6040513d8c823e3d90fd5b803b156200097957604051632770a7eb60e21b815233600482015260248101879052908a908290604490829084905af1801562000ecd5762000f1c575b5062000d99565b62000f2a90999199620014dd565b973862000f15565b5060ff7f1ac0c65048e05abc6ec58fabb62503cd4926ef6a22676f8a0942f241754a9ba6541662000d4a565b91509a503d808b8d3e62000f73818d62001507565b8b019060408c8303126200050e578b5181811162000971578262000f99918e016200156a565b9b6020810151918211620009715762000fb49291016200156a565b388062000cdf565b96985085986200106f62000fd089620017cd565b9862000fec60208b816040519382858094519384920162001529565b7f46bc5be21f6ba06b486f29ccd1182724e01483672510527c7bbd2f354bf91f399082019081520301902080546001600160a01b0319166001600160a01b039092169182179055604080516323b872dd60e01b602080830191909152338b830190815230918101919091529182018990529190620003fa908390606001620003eb565b62000d99565b8d5250908b908b7fdc5d12dbc606c4b58c1834e3ea9b4bb05648cd8e6f9896a777fa9708701729e75b828410620010bb5750505090602062000ca4928201013862000c95565b60209294838583549201015201910190918b8b936200109e565b90506020925062000ca494915060ff191682840152151560051b8201013862000c95565b60405162461bcd60e51b815260206004820152603f818601527f4c696245524332304472697665722e7472616e666572546f4f7468657243686160448201527f696e3a20726563697069656e742061646472657373206e6f742076616c6964006064820152608490fd5b60405162461bcd60e51b8152602060048201526038818601527f4c696245524332304472697665722e7472616e666572546f4f7468657243686160448201527f696e3a20636861696e206e6f74207265676973746572656400000000000000006064820152608490fd5b60405162461bcd60e51b815260206004820152602f818601527f4c696245524332304472697665722e7472616e666572546f4f7468657243686160448201526e0696e3a20616d6f756e74203c3d203608c1b6064820152608490fd5b8480fd5b5034620001125760209062001246620009a1366200136e565b81526000805160206200253e8339815191528252604060018060a01b0391205416604051908152f35b50346200011257602036600319011262000112576020620012996200129362001357565b62001467565b541515604051908152f35b50346200011257606036600319011262000112576001600160401b036004358181116200051d57620012db90369060040162001322565b916024359081116200098557620012f790369060040162001322565b6044359490939192906001600160a01b0386168603620001125760206200010a878787878762001a9f565b9181601f8401121562001352578235916001600160401b0383116200135257602083818601950101116200135257565b600080fd5b600435906001600160a01b03821682036200135257565b604060031982011262001352576001600160401b03916004358381116200135257826200139e9160040162001322565b939093926024359182116200135257620013bb9160040162001322565b9091565b60209082604051938492833781017f46bc5be21f6ba06b486f29ccd1182724e01483672510527c7bbd2f354bf91f3881520301902090565b60209082604051938492833781017f46bc5be21f6ba06b486f29ccd1182724e01483672510527c7bbd2f354bf91f3b81520301902090565b60209082604051938492833781017f46bc5be21f6ba06b486f29ccd1182724e01483672510527c7bbd2f354bf91f3981520301902090565b6001600160a01b031660009081527f46bc5be21f6ba06b486f29ccd1182724e01483672510527c7bbd2f354bf91f356020526040902090565b90600182811c92168015620014d2575b6020831014620014bc57565b634e487b7160e01b600052602260045260246000fd5b91607f1691620014b0565b6001600160401b038111620014f157604052565b634e487b7160e01b600052604160045260246000fd5b90601f801991011681019081106001600160401b03821117620014f157604052565b60005b8381106200153d5750506000910152565b81810151838201526020016200152c565b6001600160401b038111620014f157601f01601f191660200190565b81601f820112156200135257805162001583816200154e565b9262001593604051948562001507565b818452602082840101116200135257620015b4916020808501910162001529565b90565b90602091620015d28151809281855285808601910162001529565b601f01601f1916010190565b908060209392818452848401376000828201840152601f01601f1916010190565b60018060a01b03169060405160408101908082106001600160401b03831117620014f15762001696916040526020938482527f5361666545524332303a206c6f772d6c6576656c2063616c6c206661696c6564858301526000808587829751910182855af13d1562001726573d9162001678836200154e565b9262001688604051948562001507565b83523d868885013e6200172a565b805180620016a5575b50505050565b81849181010312620006805782015190811591821503620001125750620016cf578080806200169f565b6084906040519062461bcd60e51b82526004820152602a60248201527f5361666545524332303a204552433230206f7065726174696f6e20646964206e6044820152691bdd081cdd58d8d9595960b21b6064820152fd5b6060915b919290156200178f575081511562001740575090565b3b156200174a5790565b60405162461bcd60e51b815260206004820152601d60248201527f416464726573733a2063616c6c20746f206e6f6e2d636f6e74726163740000006044820152606490fd5b825190915015620017a35750805190602001fd5b60405162461bcd60e51b815260206004820152908190620017c9906024830190620015b7565b0390fd5b604051906001600160a01b0316606082016001600160401b03811183821017620014f157604052602a82526020908183016040368237835115620018f357603090538251600190811015620018f357607860218501536029905b8082116200187d5750506200183a575090565b6064906040519062461bcd60e51b825280600483015260248201527f537472696e67733a20686578206c656e67746820696e73756666696369656e746044820152fd5b9091600f81166010811015620018de578551841015620018de576f181899199a1a9b1b9c1cb0b131b232b360811b901a85840185015360041c918015620018c957600019019062001827565b60246000634e487b7160e01b81526011600452fd5b60246000634e487b7160e01b81526032600452fd5b634e487b7160e01b600052603260045260246000fd5b906000917f1ac0c65048e05abc6ec58fabb62503cd4926ef6a22676f8a0942f241754a9ba59081546200193c81620014a0565b92600191808316908115620019b457506001146200195a5750505050565b9091929394506000527fdc5d12dbc606c4b58c1834e3ea9b4bb05648cd8e6f9896a777fa9708701729e7906000915b848310620019a0575050500190388080806200169f565b818160209254858701520192019162001989565b60ff19168452505050811515909102019150388080806200169f565b929192620019de826200154e565b91620019ee604051938462001507565b82948184528183011162001352578281602093846000960137010152565b9b97948c62001a5891620015b49f9d99939662001a4962001a679a9662001a7b9f9e999862000e6d998652610100806020880152860191620015de565b926040818503910152620015de565b8c810360608e015291620015de565b9260a087015285830360c0870152620015de565b9160e0818403910152620015b7565b356001600160a01b0381168103620013525790565b93919092604051936020948581019062001abe81620002748462001909565b5190209560405196868801838382378389019862001aeb898260009c8d8382015203808452018262001507565b5190200362001ba357506001600160a01b039262001b0b9291506200142f565b54165b6001600160a01b03908116918262001b27575050505090565b6040516370a0823160e01b8152911660048201529192908390839060249082905afa92831562001b9657819362001b5f575b50505090565b9091809350813d831162001b8e575b62001b7a818362001507565b810103126200011257505138808062001b59565b503d62001b6e565b50604051903d90823e3d90fd5b9062001bb0939162001c16565b83526000805160206200253e833981519152825260408320546001600160a01b031662001b0e565b9062001c106040805180936020820195865262001bff815180926020868601910162001529565b810103602081018452018262001507565b51902090565b929162001c10918360209260405195838794868601998a3784019185830160008152370160008382015203808452018262001507565b939091929362001c5f8585858462001c16565b9260009384526000805160206200253e8339815191529460209580875260018060a01b0397604092898489205416998a1562001ca3575b5050505050505050505090565b9091929394959697989a995062001cbd8383888a62001c16565b97888a52848c5281868b20541662001fa457858c8b62001cde848062001fe8565b928086019362001d3d602162001cf5878a62001fe8565b93909884818c019a62001d088c6200201d565b9251968488958a87019b8c378501918983018c815237019060ff60f81b9060f81b168682015203600181018452018262001507565b519181831115938462001f77575b5050505062001f33578989928f92867f46bc5be21f6ba06b486f29ccd1182724e01483672510527c7bbd2f354bf91f3354169562001d8a818062001fe8565b9262001d97919262001fe8565b91909362001da5906200201d565b948d51978897637cfc672b60e01b908901526024880160a0905260c488019062001dcf92620015de565b92602319938488820301604489015262001deb908d8d620015de565b908488830301606489015262001e0192620015de565b9185830301608486015262001e1692620015de565b9060ff1660a483015203601f198101825262001e33908262001507565b86519161041690818401918483106001600160401b0384111762001f1f578f928a62001e7194879694829462002128893983528201520190620015b7565b03908af0801562001f1557918562001efe94927f4e26b9e79b6d53886b2814dc5d5ec399638c0de5b33b2c6e54bf478a5027e3499a9b9c9d94169b8c968c62001eba8962001467565b558c8252855220856bffffffffffffffffffffffff60a01b82541617905562001ef0865198899860608a5260608a0191620015de565b9287840390880152620015de565b918301520390a23880808080808080808062001c96565b85513d8b823e3d90fd5b634e487b7160e01b8e52604160045260248efd5b875162461bcd60e51b8152600481018f9052601a60248201527f4e6f742068617320746f6b656e2063726561746520696e666f210000000000006044820152606490fd5b505192509081811062001f92575b505015388f818f62001d4b565b600019910360031b1b168e3862001f85565b855162461bcd60e51b8152600481018d9052601760248201527f546f6b656e20616c7265616479207075626c69736865640000000000000000006044820152606490fd5b903590601e19813603018212156200135257018035906001600160401b03821162001352576020019181360383136200135257565b3560ff81168103620013525790565b7f0d39ce5c7c188987150498f1f6b834805bd8d7ecf27e970807b2a7a1a5207023546001600160a01b031633036200206057565b60405162461bcd60e51b815260206004820152602960248201527f4c696256616c696461746f72436f6e74726f6c6c65723a204d757374206265206044820152683b30b634b230ba37b960b91b6064820152608490fd5b620020dc6001600160a01b03620020ce8362001a8a565b161591602081019062001fe8565b905015141590565b6001600160a01b03620020f78262001a8a565b161562002113576200210d620015b49162001a8a565b620017cd565b620000f9816020620015b493019062001fe856fe604060808152610416908138038061001681610218565b93843982019181818403126102135780516001600160a01b038116808203610213576020838101516001600160401b0394919391858211610213570186601f820112156102135780519061007161006c83610253565b610218565b918083528583019886828401011161021357888661008f930161026e565b813b156101b9577f360894a13ba1a3210667c828492db98dca3e2076cc3735a920a3ca505d382bbc80546001600160a01b031916841790556000927fbc7cd75a20ee27fd9adebab32041f755214dbc6bffa90cc0225b39da2e5c2d3b8480a28051158015906101b2575b61010b575b855160d190816103458239f35b855194606086019081118682101761019e578697849283926101889952602788527f416464726573733a206c6f772d6c6576656c2064656c65676174652063616c6c87890152660819985a5b195960ca1b8a8901525190845af4913d15610194573d9061017a61006c83610253565b91825281943d92013e610291565b508038808080806100fe565b5060609250610291565b634e487b7160e01b84526041600452602484fd5b50826100f9565b855162461bcd60e51b815260048101859052602d60248201527f455243313936373a206e657720696d706c656d656e746174696f6e206973206e60448201526c1bdd08184818dbdb9d1c9858dd609a1b6064820152608490fd5b600080fd5b6040519190601f01601f191682016001600160401b0381118382101761023d57604052565b634e487b7160e01b600052604160045260246000fd5b6001600160401b03811161023d57601f01601f191660200190565b60005b8381106102815750506000910152565b8181015183820152602001610271565b919290156102f357508151156102a5575090565b3b156102ae5790565b60405162461bcd60e51b815260206004820152601d60248201527f416464726573733a2063616c6c20746f206e6f6e2d636f6e74726163740000006044820152606490fd5b8251909150156103065750805190602001fd5b6044604051809262461bcd60e51b825260206004830152610336815180928160248601526020868601910161026e565b601f01601f19168101030190fdfe608060405236156054577f360894a13ba1a3210667c828492db98dca3e2076cc3735a920a3ca505d382bbc54600090819081906001600160a01b0316368280378136915af43d82803e156050573d90f35b3d90fd5b7f360894a13ba1a3210667c828492db98dca3e2076cc3735a920a3ca505d382bbc54600090819081906001600160a01b0316368280378136915af43d82803e156050573d90f3fea264697066735822122064a19d9702f4c0cafcae104799296bb333bea4a6f73053ad2d6b4326dd6fd25264736f6c6343000811003346bc5be21f6ba06b486f29ccd1182724e01483672510527c7bbd2f354bf91f34a264697066735822122025c5ec2345981a84fc5e094157b5027b9a1a6515b971d249404eee956a1b88d064736f6c63430008110033",
  "devdoc": {
    "kind": "dev",
    "methods": {},
    "version": 1
  },
  "userdoc": {
    "kind": "user",
    "methods": {},
    "version": 1
  },
  "storageLayout": {
    "storage": [],
    "types": null
  }
}