{
  "address": "0xf52452E644789E18878Edd32abdCff31a79Dac19",
  "abi": [
    {
      "anonymous": false,
      "inputs": [
        {
          "indexed": true,
          "internalType": "address",
          "name": "previousOwner",
          "type": "address"
        },
        {
          "indexed": true,
          "internalType": "address",
          "name": "newOwner",
          "type": "address"
        }
      ],
      "name": "ValidatorTransferred",
      "type": "event"
    },
    {
      "inputs": [
        {
          "internalType": "address",
          "name": "_newValidator",
          "type": "address"
        }
      ],
      "name": "setValidator",
      "outputs": [],
      "stateMutability": "nonpayable",
      "type": "function"
    },
    {
      "inputs": [],
      "name": "validator",
      "outputs": [
        {
          "internalType": "address",
          "name": "",
          "type": "address"
        }
      ],
      "stateMutability": "view",
      "type": "function"
    }
  ],
  "transactionHash": "0x8970f3e3f27e14dbddebc8d618aeb18430a202abfc5dbca01026e983ea03d88a",
  "args": [],
  "numDeployments": 1,
  "solcInputHash": "08541191232a20d41dd2483aa4db3f2b",
  "bytecode": "0x60808060405234610016576101a2908161001c8239f35b600080fdfe608080604052600436101561001357600080fd5b600090813560e01c9081631327d3d8146100815750633a5381b51461003757600080fd5b3461007e578060031936011261007e577f0d39ce5c7c188987150498f1f6b834805bd8d7ecf27e970807b2a7a1a5207023546040516001600160a01b039091168152602090f35b80fd5b905034610168576020366003190112610168576004356001600160a01b038181169291839003610164577f0d39ce5c7c188987150498f1f6b834805bd8d7ecf27e970807b2a7a1a52070239081549081169283330361011057506001600160a01b031916831790557f8438f2d7dc7b39a7670005cc6ec64d6ecec8b57e53eb47c5085021aa7d86653d8380a380f35b62461bcd60e51b815260206004820152602960248201527f4c696256616c696461746f72436f6e74726f6c6c65723a204d757374206265206044820152683b30b634b230ba37b960b91b6064820152608490fd5b8380fd5b5080fdfea2646970667358221220b36742e0c991da0d11b008a19b24a8703530acd664f687c2d4b1c63338545e2a64736f6c63430008110033",
  "devdoc": {
    "kind": "dev",
    "methods": {},
    "version": 1
  },
  "userdoc": {
    "kind": "user",
    "methods": {},
    "version": 1
  },
  "storageLayout": {
    "storage": [],
    "types": null
  }
}